:020000040800F2
:1000000000000220410A0008350A00085D7A000855
:10001000350A0008350A0008350A0008000000000B
:10002000000000000000000000000000350A000889
:10003000350A000800000000350A0008E1790008D0
:10004000350A0008350A0008350A0008350A000894
:10005000350A0008350A0008350A0008350A000884
:10006000350A0008350A0008350A0008C975000875
:10007000D5750008B9600008E1750008ED75000845
:10008000F55C0108796A0008350A0008350A00089D
:10009000350A0008350A0008350A0008350A000844
:1000A000350A0008350A0008350A0008350A000834
:1000B000754E0108814E01088D4E0108AD6A000899
:1000C000350A0008B96A0008350A0008BD4601086B
:1000D000C9460108295B0108555B0108895B0108D5
:1000E000350A0008350A000800000000350A00083B
:1000F000350A0008350A0008350A0008350A0008E4
:10010000350A0008350A0008994E0108D54601084D
:10011000BD5B0108F15B0108350A0008350A0008DB
:10012000350A0008350A0008F94601082D4701087C
:10013000295D0108350A0008350A0008350A00085B
:1001400000000000000000000000000000000000AF
:10015000350A0008350A0008350A0008255C010840
:10016000C56A0008350A0008F1790008157A000808
:10017000350A0008397A0008350A0008350A0008EF
:10018000350A0008350A0008595C01088D5C010831
:10019000E1460108ED460108350A0008350A000865
:1001A000350A0008350A0008350A0008350A000833
:1001B000C9720008350A0008350A0008350A000827
:1001C000350A0008350A0008350A0008350A000813
:1001D000350A0008350A0008350A0008350A000803
:1001E000350A0008350A0008350A0008350A0008F3
:1001F000350A0008350A0008350A0008350A0008E3
:10020000350A0008350A0008350A0008350A0008D2
:10021000350A0008350A0008350A0008350A0008C2
:10022000350A0008350A0008350A000800000000F9
:10023000350A0008350A000800000000350A0008E9
:10024000350A0008350A0008350A0008350A000892
:10025000350A0008350A0008350A0008350A000882
:10026000350A0008350A0008350A0008350A000872
:10027000350A0008350A0008C15C010800000000CA
:10028000350A0008350A0008350A00080000000099
:0802900000000000350A00081F
:1002A00010B5054C237833B9044B13B10448AFF3B0
:1002B00000800123237010BDE00300240000000033
:1002C00098CC010808B5034B1BB103490348AFF3B1
:1002D000008008BD00000000E403002498CC010861
:1002E00001F0FF01102A2BDB10F0070F08D010F8E7
:1002F000013B013A8B422DD010F0070F42B3F6D1EB
:10030000F0B441EA012141EA014122F007047FF003
:1003100000070023F0E80256083C85EA010586EA5A
:10032000010685FA47F5A3FA87F586FA47F6A5FA96
:1003300087F68EB9EED1F0BC01F0FF0102F00702A2
:1003400032B110F8013B013A83EA010313B1F8D14D
:100350000020704701387047002D06BF354603382E
:10036000073815F0010F07D1013015F4807F02BF67
:10037000013015F4C03F0130F0BC0138704700BFB8
:10038000034613F8012B002AFBD1181A01387047D5
:1003900081F0004102E000BF83F0004330B54FEA36
:1003A00041044FEA430594EA050F08BF90EA020FA3
:1003B0001FBF54EA000C55EA020C7FEA645C7FEA36
:1003C000655C00F0E2804FEA5454D4EB5555B8BF59
:1003D0006D420CDD2C4480EA020281EA030382EACA
:1003E000000083EA010180EA020281EA0303362D5C
:1003F00088BF30BD11F0004F4FEA01314FF4801C2F
:100400004CEA113102D0404261EB410113F0004F40
:100410004FEA03334CEA133302D0524263EB4303F7
:1004200094EA050F00F0A780A4F10104D5F1200E95
:100430000DDB02FA0EFC22FA05F2801841F10001F0
:1004400003FA0EF2801843FA05F359410EE0A5F1C4
:1004500020050EF1200E012A03FA0EFC28BF4CF0F5
:10046000020C43FA05F3C01851EBE37101F00045AB
:1004700007D54FF0000EDCF1000C7EEB00006EEBB8
:100480000101B1F5801F1BD3B1F5001F0CD3490842
:100490005FEA30004FEA3C0C04F101044FEA445299
:1004A00012F5800F80F09A80BCF1004F08BF5FEA20
:1004B000500C50F1000041EB045141EA050130BD00
:1004C0005FEA4C0C404141EB0101013C28BFB1F512
:1004D000801FE9D291F0000F04BF01460020B1FA5D
:1004E00081F308BF2033A3F10B03B3F120020CDA30
:1004F0000C3208DD02F1140CC2F10C0201FA0CF00E
:1005000021FA02F10CE002F11402D8BFC2F1200C72
:1005100001FA02F120FA0CFCDCBF41EA0C01904028
:10052000E41AA2BF01EB0451294330BD6FEA040471
:100530001F3C1CDA0C340EDC04F11404C4F120025C
:1005400020FA04F001FA02F340EA030021FA04F36E
:1005500045EA030130BDC4F10C04C4F1200220FAC5
:1005600002F001FA04F340EA0300294630BD21FA03
:1005700004F0294630BD94F0000F83F4801306BFC9
:1005800081F480110134013D4EE77FEA645C18BFBD
:100590007FEA655C29D094EA050F08BF90EA020F54
:1005A00005D054EA000C04BF1946104630BD91EA4C
:1005B000030F1EBF0021002030BD5FEA545C05D14F
:1005C0004000494128BF41F0004130BD14F580048E
:1005D0003CBF01F5801130BD01F0004545F0FE4102
:1005E00041F470014FF0000030BD7FEA645C1ABF37
:1005F000194610467FEA655C1CBF0B46024650EA6E
:10060000013406BF52EA033591EA030F41F4002199
:1006100030BD00BF90F0000F04BF0021704730B51F
:100620004FF4806404F132044FF000054FF00001F4
:1006300050E700BF90F0000F04BF0021704730B5B5
:100640004FF4806404F1320410F0004548BF40428A
:100650004FF000013EE700BF42004FEAE2014FEADF
:1006600031014FEA02701FBF12F07F4393F07F4FBA
:1006700081F06051704732F07F4208BF704793F0BD
:100680007F4F04BF41F40021704730B54FF46074D0
:1006900001F0004521F000411CE700BF50EA0102D3
:1006A00008BF704730B54FF000050AE050EA01027C
:1006B00008BF704730B511F0004502D5404261EBEC
:1006C00041014FF4806404F132045FEA915C3FF42D
:1006D000D8AE4FF003025FEADC0C18BF03325FEACA
:1006E000DC0C18BF033202EBDC02C2F1200300FA7B
:1006F00003FC20FA02F001FA03FE40EA0E0021FAA0
:1007000002F11444BDE600BF53B94AB9002908BF3D
:1007100000281CBF4FF0FF314FF0FF3000F088B9C8
:10072000ADF1080C6DE904CE00F01AF8DDF804E034
:10073000DDE9022304B07047430803F05533C01AC3
:10074000830803F0333300F03330184400EB10100B
:1007500000F00F3000EB002000EB0040000E70476F
:100760002DE9F047089D04468E46002B4DD18A4264
:10077000944669D9B2FA82F252B101FA02F3C2F197
:10078000200120FA01F10CFA02FC41EA030E944028
:100790004FEA1C48210CBEFBF8F61FFA8CF708FB49
:1007A00016E341EA034306FB07F199420AD91CEB21
:1007B000030306F1FF3080F01F81994240F21C8153
:1007C000023E63445B1AA4B2B3FBF8F008FB10339B
:1007D00044EA034400FB07F7A7420AD91CEB0404D0
:1007E00000F1FF3380F00A81A74240F207816444A0
:1007F000023840EA0640E41B00261DB1D440002325
:10080000C5E900433146BDE8F0878B4209D9002D88
:1008100000F0EF800026C5E9000130463146BDE812
:10082000F087B3FA83F6002E4AD18B4202D382427C
:1008300000F2F980841A61EB030301209E46002D2B
:10084000E0D0C5E9004EDDE702B9FFDEB2FA82F280
:10085000002A40F09280A1EB0C014FEA1C471FFADE
:100860008CFE0126200CB1FBF7F307FB131140EAC5
:1008700001410EFB03F0884208D91CEB010103F192
:10088000FF3802D2884200F2CB804346091AA4B254
:10089000B1FBF7F007FB101144EA01440EFB00FE28
:1008A000A64508D91CEB040400F1FF3102D2A6458D
:1008B00000F2BB800846A4EB0E0440EA03409CE72C
:1008C000C6F12007B34022FA07FC4CEA030C20FAD9
:1008D00007F401FA06F31C43F9404FEA1C4900FAF9
:1008E00006F3B1FBF9F8200C1FFA8CFE09FB181176
:1008F00040EA014108FB0EF0884202FA06F20BD9E9
:100900001CEB010108F1FF3A80F08880884240F238
:100910008580A8F102086144091AA4B2B1FBF9F07C
:1009200009FB101144EA014100FB0EFE8E4508D977
:100930001CEB010100F1FF346CD28E456AD90238FC
:10094000614440EA0840A0FB0294A1EB0E01A142E1
:10095000C846A64656D353D05DB1B3EB080261EB4F
:100960000E0101FA07F722FA06F3F1401F43C5E929
:10097000007100263146BDE8F087C2F12003D8405F
:100980000CFA02FC21FA03F3914001434FEA1C47A1
:100990001FFA8CFEB3FBF7F007FB10360B0C43EA93
:1009A000064300FB0EF69E4204FA02F408D91CEB43
:1009B000030300F1FF382FD29E422DD90238634441
:1009C0009B1B89B2B3FBF7F607FB163341EA0341E1
:1009D00006FB0EF38B4208D91CEB010106F1FF3830
:1009E00016D28B4214D9023E6144C91A46EA004627
:1009F00038E72E46284605E70646E3E61846F8E6B9
:100A00004B45A9D2B9EB020864EB0C0E0138A3E701
:100A10004646EAE7204694E74046D1E7D0467BE7E2
:100A2000023B614432E7304609E76444023842E75A
:100A3000704700BF684620F007018D46FEE700BF03
:100A40000B480C4A904208B503D0121A0A4919F013
:100A50001DF90A480A4A904203D0121A002119F0DF
:100A60003DF907F061FA19F0C9F800F00BF8FEE75C
:100A700000000024E0030024D0CC0108E00300249F
:100A8000A838002400B5ADF29C7D684602F0C6FD92
:100A9000684603F083FC684603F046FD00200DF233
:100AA0009C7D5DF804FB00BF2DE9F0412DED048B2A
:100AB000B7EE009A5E4BB0EE408A0025C0F8A43035
:100AC0000026C9EE009A5B4BDFED5B8A4FF07C5746
:100AD000C0F8E03082B0594B0446C0F8A85040F24C
:100AE0000118C0F88831B0EE680A80F8A060C0F83C
:100AF000AC5080F8DC60C0F8E450C0F8E85080F8F2
:100B00008461C0F88C51C0F8905180ED278A80ED47
:100B1000048AC0ED028A4760C7608561C0ED059A0E
:100B200018F064F8F0EE407A20462670C4ED028A90
:100B3000B0EE680AC4ED077A84ED019AA4F8288023
:100B400018F054F804F1B000C4F8C85004F59C75CE
:100B500084ED070AB0EE680AC4ED2E8A84ED308A6F
:100B6000C4ED319AC4F8B470C4F8BC70019018F0A8
:100B70003DF8DFED337A019884ED330AB0EE670A71
:100B800084F8B06004F5CA76C4ED2E7AA4F8D88053
:100B900084ED2D9A18F02AF8F0EE407A04F1EC007A
:100BA000DFED288AB0EE480AC4ED337A019017F0E1
:100BB00031FD01989FED240A17F0B4FDB0EE680AEC
:100BC000019817F013FEB0EE480A284617F022FDF0
:100BD00028469FED1E0A17F0A5FDB0EE680A2846CC
:100BE00004F5F07517F002FEB0EE480A304617F033
:100BF00011FD30469FED160A17F094FDB0EE680A1D
:100C0000304617F0F3FDB0EE480A284617F002FD13
:100C100028469FED100A17F085FD2846B0EE680AB9
:100C200017F0E4FD204602B0BDEC048BBDE8F08176
:100C3000CDCC4C3E0AD7233E0000C842CDCC4C3D23
:100C400000004843CDCCCC3D00005C4300007A4519
:100C500000E0534500180346D0ED277A4FF07E534D
:100C600090ED297AC0F8AC3067EE877AC0ED2A7A29
:100C7000704700BFD0ED277A4FF07E5390ED387A61
:100C8000C0F8E83067EE877AC0ED397A704700BF68
:100C9000D0ED397AF5EEC07AF1EE10FA3EDDD0ED06
:100CA000385AB7EE006AD0ED276A90ED3A7A66EED0
:100CB000A56A77EEC67AC6EE265A10B52DED028BE0
:100CC000C0ED397A0446BFEE008A77EE657AC0ED52
:100CD0003A7A19F043FC07EE900A9FED127A04F17C
:100CE000B000F8EEE77A77EEA77AA7EE878A17F0DA
:100CF000C3FD04F1EC0038EE000A17F0AFFC94EDF0
:100D0000480A04F59C7017F0A9FC94ED3A0AD4ED5A
:100D10005A7ABDEC028B20EE270A10BD9FED020A25
:100D2000704700BF0000003000000000D0ED277ABF
:100D30004FF07E5390ED627AC0F8903167EE877A7B
:100D4000C0ED637A704700BFD0ED637AF5EEC07AEC
:100D5000F1EE10FA2ADDB7EE007A10B577EEC77A19
:100D60000446C0ED637A19F0F9FB07EE900ABFEE76
:100D7000000A9FED107AF8EEE77A04F5CA7077EE74
:100D8000A77AA7EE870A17F069FC94ED720A04F5BA
:100D9000F07017F063FC94ED640A94ED847ADFED53
:100DA000067A20EE070A20EE270A10BD9FED030AFF
:100DB000704700BF00000030CDCCCC3E00000000EA
:100DC000D0ED2A7AF5EEC07A10B5F1EE10FA0446AD
:100DD0002DED028B30DDD0ED295AB7EE006AD0ED53
:100DE000276A90ED2B7A66EEA56A77EEC67AC6EE94
:100DF000265AC0ED2A7A77EE657AC0ED2B7A17F085
:100E00003BFD94ED2B8AF7EE087A20EE080A20EEDF
:100E1000278A2046FFF73CFFF0EE408A2046FFF786
:100E200093FF9FED077A38EE288AA0EE078AB0EE8E
:100E3000480ABDEC028B10BD9FED028AE9E700BFB6
:100E4000CDCCCC3E00000000F0B5154683B0064680
:100E500002ACA94204E90C00089BA2EB010221D0DC
:100E60001846174618F020FF0346019C1F44002136
:100E7000002C12DD012328688B400342386814BF20
:100E8000034320EA03031F2901F101013B6002D162
:100E9000043504370021013CECD13046C6E900712D
:100EA00003B0F0BD0027E0E72DE9F04FD0F800C017
:100EB000531A89B00446D0E90275A7EB0C0805EB7C
:100EC000C80843452BD2002B40F339810139002259
:100ED000CD180BE0DCF800001F2A43EA0003CCF831
:100EE000003011D0A94202F1010213D0012311F800
:100EF000010F93400028EDD1DCF800001F2A20EA02
:100F00000303CCF80030EDD1A9420CF1040C4FF0F2
:100F10000002EBD1C4E902C209B0BDE8F08F01EBD9
:100F20000803B8F1000F039323DD0139E6460020E2
:100F300001EB080908E033431F28CEF8003012D037
:100F4000494500F1010014D0012311F801AFDEF88A
:100F500000608340BAF1000FEDD126EA03031F2899
:100F6000CEF80030ECD149450EF1040E4FF00000F0
:100F7000EAD1039B9A42CFD0039BA2EB03092369DA
:100F8000A3EB0C03C8EBC303994540F29880734B65
:100F9000A3EB0802914500F2DA80C845C24638BF8B
:100FA000CA4618EB0A0A80F0D5809A4528BF9A46AF
:100FB0000AF11F0A4FEA5A1A4FEA8A0A504617F0F6
:100FC00065FE08AB00908346216804A8CDE906754C
:100FD00013E90C00FFF738FFB9F1000FDDE9042831
:100FE00022DD039B5E1EB1440AE01168B8F11F0FB9
:100FF00043EA0103136011D04E4508F1010813D0F4
:10100000012316F8011F03FA08F30029EDD1116836
:10101000B8F11F0F21EA03031360EDD14E4502F131
:1010200004024FF00008EBD1A068E368C01B5B1B13
:1010300003EBC000002809DC24E0B8F11F0F05F124
:10104000010519D0013808F101081BD001233968C6
:1010500003FA05F603FA08F30E42116814BF0B43B6
:1010600021EA03031F2D1360E7D1B8F11F0F07F129
:1010700004074FF00005E5D1013802F104024FF0FA
:101080000008E3D1206870B121690392091A17F0B2
:10109000B8FD0023039AC4E9023304F1080393E87E
:1010A000030084E803000BEB0A030021C4F800B03E
:1010B000A2606160C4E9038309B0BDE8F08F05EB6D
:1010C000090100290A46B8BF01F11F024B4201F095
:1010D0001F0103F01F034FEA621258BF594207EB8A
:1010E000820200292DDBB9F1000F8C4622DD039B23
:1010F0005E1EB14409E038681F2D43EA00033B60DF
:101100000FD0B14505F1010511D0012316F8010FEB
:10111000AB400028EFD138681F2D20EA03033B6065
:10112000EFD1B14507F104074FF00005EDD10029DB
:1011300000DA043AC4E9022C09B0BDE8F08F0022BD
:10114000E8E6B9F1000F01F1200CD0DCF1E704482A
:1011500017F051FEDFF80CA030E700BFE0FFFF7F83
:1011600000B40108FCFFFF0F884248D02DE9F0438E
:1011700004460D46886887B00968EA682769461AF8
:10118000236802EBC606A7EB030CB6EBCC0F12D814
:1011900004F10807009302AC06AB049005922046C8
:1011A00013E90C00FFF750FE94E8030087E8030002
:1011B00007B0BDE8F083FBB16146781A04F1080777
:1011C00017F01FFD0023C4E9023397E803002361F1
:1011D00084E803002B68AE68F61AEB6803EBC606DA
:1011E00076B9334632462661C4E90066C4E9022670
:1011F0002968D5E90202CDE704F10807F0E7704756
:1012000006F11F084FEA581918EA260838BFB046F9
:101210004FEA89094FEA6818484617F037FD7142CE
:1012200006F01F0600EB090201F01F0103462261D0
:1012300000EB880258BF4E42002120608E42616060
:10124000D4DA2036043AD1E72DE9F0410378044698
:101250009FED3C6A07EE103AD0ED016A8268B8EE65
:10126000C77AC6EE077A67EEA67AFDEEE77A17EE42
:10127000905A002DB4BF05F10F0317EE903A1B11E1
:1012800092FBF3F603FB16230BB90F2E09DD013297
:10129000AA4202DAA260BDE8F0810023A360BDE8A3
:1012A000F081037E06F01F0101274FEA561803EB79
:1012B000C3028F4003EB4202C36853F8221003EBD2
:1012C000820351F82820174230D19A6A52F8282018
:1012D00017421FD15B6953F828301F4216D10123F2
:1012E000216A0B7194F8243073B1227EE36802EB1B
:1012F000C20002EB400203EB82031E4496F83C302E
:1013000013B9A2680B71C2E7A268C0E7E069FFF7F2
:101310000DFDE4E7E069FFF7ADFC227EE36802EB38
:10132000C20102EB410203EB8203D3E7C069FFF77E
:1013300093FC227EE36802EBC20102EB410203EB65
:101340008203C2E700007043A1B10369027E134922
:10135000013210B4C468D2B21B1B02769B1001FB91
:1013600003F39A4201D30023037600235DF8044B74
:1013700083607047037E23B1013B037600238360C3
:101380007047D0E90313054A5B1A9B1002FB03F375
:10139000013B037600238360704700BF1BCA6B28A4
:1013A0002DE9F04F93B003681646CE4A0690406888
:1013B0000593C31ACC4C03919B1002FB03F3A34289
:1013C000CDE9080100F01D82012B1A4638BF012229
:1013D0009B1880F01082039A0599A2EB0109002B5B
:1013E00040F0FA814C24079304930023049AD6F822
:1013F00008C0316802EB090542F80930ACEB01077F
:10140000F26812EBC707C5E90133C5E9033340F0C1
:101410006D81049B38462F6143F809703B466F602D
:10142000C5E902370EAB009010A80027CDE90EC227
:101430000CCBFFF709FDD6F81CC07169326AACEB22
:1014400001086F6212EBC808C5E90577C5E907779F
:1014500040F09C81404643464746C5F82480C5E994
:101460000588C5E907370CAB009010A80027CDE927
:101470000CC20CCBFFF7E8FCD6F830C0B16A726B37
:10148000ACEB0108AF6312EBC808C5E90A77C5E900
:101490000C7740F05581404643464746C5F83880B2
:1014A000C5E90A88C5E90C370AAB3C36009010A89C
:1014B0003C35CDE90AC20CCBFFF7C6FC96E80F001D
:1014C00085E80F00039B1946059B994200F0818037
:1014D00003F14C06DDF810A0029300E09A46A6F155
:1014E0004C09A6F144070AF1080B0023A6F13804C1
:1014F000A6F130050AF114080AF11C0EA6F1240227
:101500000AF1280C99E803008AE8030097E8030031
:101510008BE8030056F83C1CCAF8101046E911335A
:1015200097E8030089E8030046F83C3C94E8030090
:1015300088E8030095E803008EE8030056F8281CAD
:10154000CAF8241046E90C3395E803000AF1300587
:1015500084E8030046F8283CA6F11C0492E8030046
:101560008CE8030094E8030085E8030056F8141C97
:10157000CAF8381046E9073394E803000AF13C043E
:10158000054682E8030046F8143C16E90F0084E89B
:101590000F001DB16942284617F033FB56F8380C8E
:1015A00020B156F8281C091A17F02BFB56F84C0CE2
:1015B00020B156F83C1C091A17F023FB029A0AF1D5
:1015C0004C0303994C364C329142029286D10AF177
:1015D0009804039B08998B4273D04C338846099F2B
:1015E0001D46A5F14C06A5F14402002304F1080CA8
:1015F000A5F1300E96E8030084E8030092E80300AA
:1016000045E911338CE8030092E80300A5F1380C9A
:1016100055F83C2C86E80300226104F1140245F8D9
:101620003C3C04F11C069CE8030082E803009EE8B1
:10163000030055F8282C86E8030045E90C33A5F192
:101640002406626204F128029EE8030004F1300ED1
:101650008CE8030045F8283CA5F11C0C96E8030033
:1016600082E803009CE8030055F8142C8EE8030080
:1016700045E907339CE80300A26386E8030004F110
:101680003C0645F8143C15E90F0086E80F000020E1
:1016900010B1414217F0B5FA55F8380C20B155F8A1
:1016A000281C091A17F0ADFA55F84C0C20B155F862
:1016B0003C1C091A17F0A5FA4C374C344C35B84588
:1016C0008FD1059B2BB1069A18469168C91A17F05D
:1016D00098FA069B0499079AC3E900149A6013B01C
:1016E000BDE8F08F1BCA6B286B28AF0107F11F08FC
:1016F0004FEA581A18EA270838BFB8464FEA8A0A4C
:101700004FEA6818504617F0C1FA00EB0A02049B32
:101710002A617A4207F01F0743F8090002F01F020E
:101720004FF00003316858BF57426B6000EB8803ED
:10173000002FD6E902C2BFF673AE2037043B6FE636
:1017400008F11F0A4FEA5A19B845A8BFC2464FEA26
:1017500089094FEA6A1A484617F098FAB7EB080267
:10176000EF6208F01F0702F01F0200EB0903B16AE5
:1017700058BF5742AB63A86200EB8A03002FD6E93B
:101780000CC2BFF68FAE2037043B8BE608F11F0A70
:101790004FEA5A19B845A8BFC2464FEA89094FEA2D
:1017A0006A1A484617F072FAB7EB0802AF6108F000
:1017B0001F0702F01F0200EB0903716958BF57426F
:1017C0006B62686100EB8A03002FD6E907C2BFF69F
:1017D00048AE2037043B44E6A34228BF23464C24AE
:1017E00003FB04F4204617F051FA0219049000F1AB
:1017F0004C040792F9E5039B059A034CA3EB0209FD
:10180000F0E7024817F0F7FAC4FFFF7F20B40108A1
:101810002DE9F04F0024B7B0BB4E804610AD00F16B
:101820000C09319432AF2294CDE92344CDE925440B
:10183000CDE92744CDE92944CDE92B44CDE92D4418
:10184000CDE92F44CDE91444CDE91644CDE918443F
:10185000CDE91A44CDE91C44CDE91E44CDE920442C
:1018600096E80F0085E80F0014AA29461046FFF7F6
:101870001BFB012314AA29461EA86C60EC6010947F
:10188000AC608DF844308DF84C30FFF70DFB06F15D
:1018900010030FCB85E80F0014AA294619A8FFF7FB
:1018A00003FB14A923A8FFF75FFC19A928A8FFF7D9
:1018B0005BFC1EA92DA8FFF757FC06F12003D8F802
:1018C00010600FCB87E80F00D8F814309E4200F06C
:1018D00063813460239AC6E90144259BC6E9034429
:1018E000A3EB020A269B13EBCA0A40F03281504652
:1018F00052465346C6F810A0C6E900AAC6E902231C
:10190000259B4FF0000A009028460893269B2399B8
:10191000099308AB0CCBFFF797FAC6F814A0289BE5
:10192000C6E906AA2A9CC6E908AAE31A2B9C14EB6E
:10193000C30440F08481204623467462C6E905440E
:10194000C6E907342A9B4FF0000A00902846069308
:101950002B9B2899079306AB0CCBFFF775FAC6F8BB
:1019600028A02D9BC6E90BAA2F9CC6E90DAAE31A55
:10197000309C14EBC30440F03E8120462346B46300
:10198000C6E90A44C6E90C342F9A04AB00902846F5
:1019900004923C36309A2D9905920CCBFFF754FAFD
:1019A000D8F8103003F14C0497E80F0086E80F00D8
:1019B000C8F81040554C94E80F0085E80F0014AAB1
:1019C00029461046FFF770FA04F110030FCB85E8A3
:1019D0000F0014AA29461EA8FFF766FA04F1200397
:1019E0000FCB85E80F0014AA294619A8FFF75CFA67
:1019F00014A923A8FFF7B8FB19A928A8FFF7B4FB7F
:101A00001EA92DA8FFF7B0FB04F13003D8E9046448
:101A10000FCBA64287E80F0000F0C480002333609C
:101A2000239AC6E90133259CC6E90333A21A269CF2
:101A300014EBC20440F0BC80204623463461C6E962
:101A40000044C6E90234259A0EAB4FF0000900901D
:101A50000E922846269A23990F920CCBFFF7F4F9A1
:101A6000C6F81490289BC6E906992A9CC6E90899ED
:101A7000E31A2B9C14EBC30440F029812046234633
:101A80007462C6E90544C6E907342A9A0CAB4FF0E4
:101A9000000900900C9228462B9A28990D920CCBA5
:101AA000FFF7D2F9C6F828902D9BC6E90B992F9C19
:101AB000C6E90D99E31A309C14EBC30440F0E380AF
:101AC00020462346B463C6E90A44C6E90C342F9A7B
:101AD0000AAB009028460A923C36309A2D990B9218
:101AE0000CCBFFF7B1F9D8F8103003F14C0497E8AC
:101AF0000F0086E80F00C8F810401E9840B12299E8
:101B0000091A17F07EF803E0F8B2010828B30108BB
:101B1000199818B11D99091A17F073F8149818B18B
:101B20001899091A17F06DF82D9818B13199091AFA
:101B300017F067F8289818B12C99091A17F061F86E
:101B4000239818B12799091A17F05BF837B0BDE848
:101B5000F08F0AF11F0B4FEA5B13A245A8BFD346D3
:101B60009B004FEA6B1B1846039317F08FF8B4EBFA
:101B70000A01039B00EB8B0201F01F017460034418
:101B8000306033610AF01F0358BF4B42A342BFF6D7
:101B9000B5AE2033043AB1E6314623AA4846FFF7F2
:101BA000FFFB07E723AA31464846FFF7F9FBA4E706
:101BB00004F11F094FEA591A4FEA8A0A504617F0F2
:101BC00065F8002330609C42A8BFA146624204F041
:101BD0001F04736002F01F0200EB0A034FEA691949
:101BE00058BF5442336100EB8903002CBFF629AF84
:101BF0002034043B25E704F11F0B4FEA5B135445E7
:101C0000A8BFA3469B004FEA6B1B1846039317F02F
:101C10003DF8BAEB0402039B04F01F0402F01F021C
:101C2000C6F82CA00344B06258BF5442B36300EB23
:101C30008B035445BFF6A6AE2034043BA2E604F164
:101C40001F0B4FEA5B135445A8BFA3469B004FEA06
:101C50006B1B1846039317F019F8BAEB0402039BA9
:101C600004F01F0402F01F02C6F818A003447061BC
:101C700058BF5442736200EB8B035445BFF660AE0D
:101C80002034043B5CE604F11F0A4FEA5A1B4C4522
:101C9000A8BFA2464FEA8B0B4FEA6A1A584616F0C5
:101CA000F5FFB9EB040204F01F0400EB0B0302F094
:101CB0001F02C6F82C90B36300EB8A0358BF54424E
:101CC000B0624C45BFF601AF2034043BFDE604F1A1
:101CD0001F0A4FEA5A1B4C45A8BFA2464FEA8B0B7E
:101CE0004FEA6A1A584616F0D1FFB9EB040204F025
:101CF0001F0400EB0B0302F01F02C6F8189073627A
:101D000000EB8A0358BF544270614C45BFF6BBAE2E
:101D10002034043BB7E600BF002310B5C0E903330D
:101D200043610446037680F82430692380ED010A7C
:101D30000370C0E90712FFF76BFD204610BD00BF1E
:101D4000037963B370B5D0E90D462DED028BB44233
:101D500005469FED148A07D020462C3416F08CFDE2
:101D600038EE008AA642F7D105F1080016F084FD8E
:101D7000F0EE407A05F14000B0EE480AB0EE678A16
:101D800016F06CFC95ED1D0A05F18C0038EE000A8A
:101D900016F064FC95ED2F0ABDEC028B70BD9FED33
:101DA000010A7047000000002DE9F04FD0E90085DE
:101DB000444E0C46A5EB0803434983B09B1006FB39
:101DC00003F38B427AD0012B1E460746A4EB080B87
:101DD00038BF0126F6186FD2002E5CD14FF02C0AC6
:101DE000B146964609EB0B0C4445BEE80F00ACE843
:101DF0000F00BEE80F00ACE80F009EE807008CE87B
:101E0000070027D009F12C0BC246D646ABF12C0CAB
:101E10000AF12C0A0BF12C0BBEE80F00ACE80F0006
:101E2000BEE80F00A245ACE80F009EE807008CE872
:101E30000700EAD1A4F12C0A244BAAEB080A4FEAC6
:101E40009A0A03FB0AFA2C232AF0404A0AF1020AF2
:101E500003FB0A9AAC420FD02A1B1C4B504621466A
:101E60002C3A920803FB02F22C2322F0404202FBA0
:101E70000332924417F00AFFB8F1000F05D0B96899
:101E80004046A1EB080116F0BCFEBE60C7E9009A0F
:101E900003B0BDE8F08F8E424FF02C0328BF0E46F2
:101EA00003FB06F63046019216F0F0FE019A8146D9
:101EB000064400F12C0A94E7054EF3E7054816F0B6
:101EC0009AFF00BFA38B2EBA2EBAE802A38B2E3A3C
:101ED000E8FFFF7F20B40108D0E90D322DE9F0437F
:101EE0009A4205460E4600F134082DED028B18BFCC
:101EF00083638DB0D1E900239A4274D0002710E0AB
:101F0000BEE80F000137ACE80F00BEE80F00A742A3
:101F1000ACE80F009EE807008CE80700C5F8389091
:101F200061D2B7EE008AD5ED007A4FF07C530022E3
:101F30009FED690A01A888EE277ACDED057A029314
:101F4000049307928DED030A8DED067A16F04EFE8E
:101F50003368F2EE080A9FED617AF0EE406A03EB17
:101F6000870340F20112B0EE000AD3ED007A062397
:101F7000ADF82C20F8EEE77A8DF80430CDED086A44
:101F800077EEC77AC7EEA00A17F0EAF9DFED547AC8
:101F900001A820EE270A8DED030A16F027FEA96B93
:101FA0000DF1040E8DED080A8C4601F12C09D6E9DD
:101FB0000034E41AEB6BA410994204F1010207EE1D
:101FC000902AF8EE677A88EE277A8DED027A97D11B
:101FD00001AA4046FFF7E8FE0137D6E90034E41ACB
:101FE000A410A7429DD3B7EE008AD5ED007A2C4607
:101FF0004FF07C5300229FED380A88EE277A083490
:10200000C5ED067A2F462046EB606B6140372A62A9
:1020100085ED040A85ED077A16F0E8FD336806229F
:102020009FED2E7AF0EE406A2A72F2EE080AD3EDA6
:10203000007A40F20113C5ED096AB0EE000AF8EE2D
:10204000E77A2B8677EEC77AC7EEA00A17F088F9F1
:102050009FED237A20462C468C34F5EE007A20EE54
:10206000070A20EE270A85ED040A16F0BFFDF0EE00
:10207000407A384695ED000AD6E90023C5ED097A85
:102080009B1A9B10013307EE903AF8EE677A88EEC0
:10209000277A85ED037A16F0BDFA38469FED110ACE
:1020A00016F040FB38469FED100A16F09FFB95EDA9
:1020B000000A204616F0AEFA20469FED0C0A16F0F4
:1020C00031FB9FED090A20460DB0BDEC028BBDE847
:1020D000F04316F08BBB00BF0000C84200008A42EC
:1020E0000000DC430000C843CDCCCC3D0000FA44E6
:1020F000D0F8D430B2EE0E7A2DE9F0412DED028BFE
:1021000093F83D30054682B0A83007EE903A05F1CD
:1021100010080190F8EEE77A87EE870A85ED2C0A21
:1021200016F064FD019885ED310A16F0A5FB9FEDD0
:10213000327ADFED327A4046E0EE077AB0EE670A97
:1021400016F0F0FAD5E90147BC424CD00026DFED8D
:102150002C8A204616F090FBB0EE408A94F85C1072
:1021600004F12C0016F0FEF9DFED267A28EE000AC5
:102170000023603404F8043CB0EEC07AB4EEE77A91
:10218000F1EE10FA02DD78EE808A0136A742E0D146
:10219000BEB99FED1B0A28EE800A404616F05EFA93
:1021A00095ED100A05F15C0016F058FA95ED240A39
:1021B000DFED157A20EE270A02B0BDEC028BBDE8F8
:1021C000F08107EE906AB8EEE70AB5EE400AF1EE4C
:1021D00010FA0BD4F1EEC07AB7EE007A87EE270A38
:1021E00020EE280AD9E79FED060AD6E717F088FB0C
:1021F000F0EE407AF0E700BF0080BB440000FA44F4
:1022000000000000ACC527379A99593F38B50B46F6
:1022100004464068002103EB430300EB43105D01DB
:102220002C3016F0F1F8636801222B4483F85C200F
:1022300038BD00BF2DE9F04FD0E900A681463D48EA
:10224000A6EB0A030F4611463B4A5B1183B000FB25
:1022500003F393426AD0012B9846A7EB0A0538BFD7
:102260004FF0010818EB03035ED2002B4AD19846C9
:1022700060249B460BEB0500602217F007FD5745D5
:102280001CD00BF16005544621466034A5F1600076
:10229000602217F0FBFCBC4205F16005F4D1A7F108
:1022A0006004264BA4EB0A04640903FB04F424F045
:1022B0007844023404EB44040BEB4414B74210D0CE
:1022C000F21B1E4B20463946603A520903FB02F2CC
:1022D00022F07842013202EB42025201144417F01C
:1022E000D5FCBAF1000F06D0D9F808105046A1EB82
:1022F0000A0116F086FCC9F80880C9E900B403B0E9
:10230000BDE8F08F934228BF134603EB43084FEA22
:1023100048142046019116F0B9FC019900EB04081D
:10232000834600F16004A5E7054CF2E7054816F086
:1023300062FD00BFABAAAAAA55555501ABAAAA02D5
:10234000E0FFFF7F20B401082DE9F041054600239E
:1023500010300C46A84605F15C062DED048B9AB0B2
:10236000F0EE408AA8EC010AB7EE008AC5F8D41056
:10237000EB600190DFED629AC5E9013316F04AF98E
:102380009FED600A019816F0CDF9B6EE000A0198AB
:1023900016F02CFA3046B0EE680A16F03BF93046DB
:1023A0009FED590A16F0BEF93046B0EE690A05F104
:1023B000A80616F01BFA88EE289A4FF07C539FED82
:1023C000530A3046C5ED2E8AC5F8AC30C5F8B43096
:1023D000C5ED309A85ED2C0A85ED2F9A16F006FC96
:1023E00094F83D30B2EE0E7A85ED310A07EE903A60
:1023F00040F2011201233046F8EEE77A85ED2B8A90
:10240000A5F8D020102685F8A83087EE870A85ED3C
:102410002C0A16F0EBFB85ED310A05E017F036FCCF
:102420006034013EAC6064D09FED358A4FF07C543F
:10243000374B00229FED350A02A80F930127119315
:1024400012931393ADF86020039405948DED0D8ADB
:102450008DED0E8A8DED108A8DED148A8DED158A25
:102460008DED168ACDED068A8DED079A8DED040A65
:102470008DED088A16F0BAFBF0EE407A40F20112B8
:10248000244B02A8B0EE480AADF830200393CDEDFE
:10249000097A8DF808708DED048A16F0A7FBF0EE2E
:1024A000407A3946B0EE680A0DA8CDED097A15F0EC
:1024B0003BFFF0EE480A0DA89FED170A15F0ACFFA0
:1024C0000DA89FED160A15F0FDFF0DA89FED140A4B
:1024D0000D9416F01FF8602202A9D5E902439C4230
:1024E00020469BD102AA21464046FFF7A3FE013EAB
:1024F0009AD128461AB0BDEC048BBDE8F08100BF2C
:102500000000000000803B45000048430000C84236
:10251000000080BFCDCC4C3F0AD7A33BCDCC4C3E76
:10252000CDCC0C3F2DE9F84FD0E900890F469246FB
:102530006FF06041A9EB0802B1EBA20F54D09310E9
:102540000646A7EB0805012B1C4638BF01241C19C1
:1025500048D2002C3CD1A346DAF80030002D4BF8CD
:10256000053024DCA9EB07090435B9F1000F5D44FF
:1025700013DC4D44B8F1000F04D1B460C6E900B5D6
:10258000BDE8F88FB168A1EB0801404616F039FBB1
:10259000B460C6E900B5BDE8F88F284639464A461A
:1025A0004D4417F073FBB8F1000FE6D0EAE7A9EB52
:1025B00007092A4641465846043517F075FBB9F11C
:1025C000000F5D44E9DCB1684D44A1EB0801DCE794
:1025D0008C4228BF0C46A400204616F057FB8346C9
:1025E0000444B9E7024CF7E7024816F004FC00BFC8
:1025F000FCFFFF7F20B401082DE9F84FD0E90089E6
:102600000F4692466FF06041A9EB0802B1EBA20FB2
:1026100054D093100646A7EB0805012B1C4638BF83
:1026200001241C1948D2002C3CD1A346DAF8003012
:10263000002D4BF8053024DCA9EB07090435B9F16E
:10264000000F5D4413DC4D44B8F1000F04D1B460B9
:10265000C6E900B5BDE8F88FB168A1EB08014046B6
:1026600016F0CFFAB460C6E900B5BDE8F88F284689
:1026700039464A464D4417F009FBB8F1000FE6D041
:10268000EAE7A9EB07092A4641465846043517F000
:102690000BFBB9F1000F5D44E9DCB1684D44A1EBDF
:1026A0000801DCE78C4228BF0C46A400204616F047
:1026B000EDFA83460444B9E7024CF7E7024816F006
:1026C0009AFB00BFFCFFFF7F20B401080023D1F874
:1026D00000C02DE9F041054686B088461E46486890
:1026E0000093CDE9013360451FD0002408E042F893
:1026F000043B0134A0EB0C030192B4EBA30F14D202
:1027000001995CF82430029F0A463344B94203938E
:10271000EDD1684603AAFFF76FFF0134D8E900C086
:10272000A0EB0C03B4EBA30FEAD30C36302EDAD1B6
:1027300000230098042719461E460593CDE903336C
:102740001EE0C2593C1D43F8042B8B4200EB0402EF
:10275000049325D00259043F43F8042B8B4200EB2D
:102760000702049326D0C25943F8042B0493019B1B
:102770001B1A9B10033BB34222D32746DDE90431E9
:102780008B4206F1010600EB0702DAD103A83C1DDB
:10279000FFF7C8FE0098DDE9043102198B42D9D158
:1027A00003A8043FFFF7BEFE0098DDE90431C2191B
:1027B0008B42D8D103A81946FFF7B4FE0098D6E79C
:1027C00000263746039BF2EE080A9FED177AB0EE1B
:1027D000000A33446C680436D3ED007A3C44603719
:1027E000F8EEE77A77EEC77AC7EEA00A16F0B8FDE2
:1027F000DFED0E7A204620EE270A84ED020A16F05D
:10280000F5F9442E84ED070ADCD1039818B1059937
:10281000091A16F0F6F9009818B10299091A16F07B
:10282000F0F906B0BDE8F08100008A420000DC4308
:1028300010B50446406818B1E168091A16F0E1F9CC
:10284000204610BD002A49D0F8B5254D0F46164642
:1028500000242B682DED028BD3F89407FEF7F4FCCF
:10286000286800F5D760FFF76BFA2868B0EE408A59
:1028700000F28C40FEF7A4FA2B68F0EE408AD3F801
:102880009007FFF735FCDFED176A2B68B6EE006A9C
:1028900068EEA68ADFED147AD3ED025A9FED137A23
:1028A00020EE060AE8EEA57AD3ED016A28EE078A43
:1028B00093ED007A78683A6800EB840002EB840CB0
:1028C0000134E8EE267AA642E0EE077ACCED007AF3
:1028D000C0ED007AC0D1BDEC028BF8BD704700BFDF
:1028E000240400249A99993E00000000CDCC4C3E6F
:1028F00070B5D0E903450646AC4218D0A36A184625
:102900001BB1A16BC91A16F07CF9636918461BB19B
:10291000616AC91A16F075F9236818461BB1216956
:10292000C91A16F06EF94C34A542E7D1F56825B105
:1029300071692846491B16F064F9304670BD00BF26
:1029400070B58568064685B12C462D68606804F12F
:102950000C03984203D0E168013116F052F92421AA
:10296000204616F04EF9002DEED172680021306835
:10297000920017F0B3F9306806F11803002271686D
:102980009842C6E9022202D0890016F03AF9304690
:1029900070BD00BF30B5864983B001240546B7EE4F
:1029A000000A00232246096800F5B470009403F081
:1029B000A9F88049224605F5D870B7EE000A002331
:1029C0000968009403F09EF87B49224605F50770DC
:1029D000B7EE000A00230968009403F093F87749E2
:1029E000224605F51970B7EE000A00230968009425
:1029F00003F088F87249224605F52B70B7EE000AFD
:102A000000230968009403F07DF86E49224605F51D
:102A1000A270B7EE000A00230968009403F072F870
:102A20006949224605F5C670B7EE000A0023096819
:102A3000009403F067F86549224605F5EA70B7EEA1
:102A4000000A00230968009403F05CF860492246FC
:102A500005F5FC70B7EE000A00230968009403F046
:102A600051F85C49224605F51070B7EE000A0023C4
:102A70000968009403F046F85749224605F522708C
:102A8000B7EE000A00230968009403F03BF85349AD
:102A9000224605F53470B7EE000A00230968009459
:102AA00003F030F84E49224605F1B400B7EE000AB3
:102AB00000230968009403F025F84A49224605F1ED
:102AC000D800B7EE000A00230968009403F01AF852
:102AD0004549224605F1FC00B7EE000A00230968CB
:102AE000009403F00FF84149224605F59070B7EEC7
:102AF000000A00230968009403F004F83C492246C8
:102B00002846B7EE000A00230968009402F0FAFF95
:102B10003849224605F12400B7EE000A002309686F
:102B2000009402F0EFFF3449224605F14800B7EE69
:102B3000000A00230968009402F0E4FF2F492246AE
:102B400005F16C00B7EE000A00230968009402F05A
:102B5000D9FF2B49224605F19000B7EE000A002369
:102B60000968009402F0CEFF2649224605F53D7023
:102B7000B7EE000A00230968009402F0C3FF22495F
:102B8000224605F54670B7EE000A00230968009456
:102B900002F0B8FF1D49B7EE000A0023224609687B
:102BA00005F54F70009402F0ADFF03B030BD00BFDB
:102BB000A8B40108ACB40108B0B40108B4B4010869
:102BC000B8B40108BCB40108C0B40108C4B4010819
:102BD000C8B40108CCB40108D0B40108D4B40108C9
:102BE000E4B40108E0B40108DCB40108D8B4010879
:102BF000F4B40108F8B40108FCB4010800B50108F8
:102C000004B50108E8B40108ECB40108F0B4010807
:102C100090F8B83310B504461BB190F8D033802B30
:102C20000ED094F8DC331BB194F8F433802B17D01A
:102C300094F800341BB194F81834802B09D010BDDF
:102C4000D0F8942792F8243083F0010382F82430DE
:102C5000E7E7D4F894070121BDE81040FEF774BB04
:102C60000021D4F89407FEF76FFBE1E770B500F59B
:102C7000846400210546204607F07EF9204606F0D0
:102C800007FA70B300261BE006F00CFAD5F890079F
:102C90001749D0E90132D31A5B1101FB03F3DBB210
:102CA00007EE903AF8EEE77A27EE800AFDEEC07A5A
:102CB00017EE901A91FBF3F203FB1211FFF7A6FA3D
:102CC000204606F0E5F90346F1B22046B34206F18C
:102CD0000106D9D805F10C000121BDE8704001F0D2
:102CE0009DBC014605F10C00BDE8704001F096BCAA
:102CF000ABAAAAAA38B500F124050021044628464B
:102D000003F078F9DFED547AB4EEE70AF1EE10FA49
:102D100006D49FED527AB4EEC70AF1EE10FA4EDDFA
:102D20000121284603F066F9DFED4B7AB4EEE70A9D
:102D3000F1EE10FA06D49FED497AB4EEC70AF1EE2F
:102D400010FA54DD0221284603F054F9DFED427AEF
:102D5000B4EEE70AF1EE10FA06D49FED407AB4EE35
:102D6000C70AF1EE10FA12DD0321284603F042F9FA
:102D7000DFED3B7AB4EEE70AF1EE10FA06DBB7EED0
:102D8000007AB4EEC70AF1EE10FA48D938BD70EEF9
:102D9000677A9FED346AB7EE000AF2EE026A87EEB8
:102DA000867A70EE477AA7EEA60A16F073FDB5EEA6
:102DB000C00AF1EE10FAA8BF84ED020AD4E770EE63
:102DC000677A9FED286AB7EE000AF2EE026A87EE94
:102DD000867A70EE477AA7EEA60A16F05BFDB5EE8E
:102DE000C00AF1EE10FAA8BF84ED000A98E770EE71
:102DF000677A9FED1C6AB7EE000AF2EE026A87EE70
:102E0000867A70EE477AA7EEA60A16F043FDB5EE75
:102E1000C00AF1EE10FAA8BF84ED010A92E730EE85
:102E2000670A9FED115ADFED116ADFED115AC0EE0E
:102E3000057A9FED106A37EE677AF0EE667AE7EE74
:102E4000257AC7FEA67AC7FEC67AFCEEE77A17EEA9
:102E5000903A84F8BD3038BD103E783D1F7C703FFD
:102E6000103EF83C3EF8603F103E783F000048427C
:102E70000000B44200000C432DE9F0479946036876
:102E800053F8216006B335680746884692462C6A97
:102E90000BE02C682E462546CCB1246A7B68B4FB37
:102EA000F3FC03FB1C4CE04515D14C45F1D1DAF89D
:102EB0000420AB689A42ECD132B16968DAF80000BC
:102EC00016F0D4FE0028E4D13046BDE8F08726464F
:102ED0003046BDE8F08700263046BDE8F08700BFE9
:102EE0002DE9F04F914600F118020D4600270446E7
:102EF0002DED028B87B002600392A9EB010293498A
:102F0000921002FB01F1994238BF19464FF07E53EF
:102F100003610123436000F11003C0E90277C0E9B7
:102F20000577184608EE103A15F06CFF6368834287
:102F300013D20128064600F0FB80B0F1005F80F05C
:102F4000FF8082001046029215F0A0FE3946029AD8
:102F5000074616F0C3FEC4E900764D4505D162E090
:102F60000368ABB11C35A9455DD0794AD5E90001AC
:102F700015F058FE616806462A4620463346B6FBE1
:102F8000F1F701FB17673946FFF776FF0028E7D115
:102F9000242015F07BFED5F800A06B6801460022C6
:102FA00080461AEB030F41F80C2B416003D0BAF1B5
:102FB000000F00F0C7800F2B04933FD8012B38D1AE
:102FC0009AF800200DF1100B88F80C204FF0000A41
:102FD000C8F80830584601F803A018EE101AAB697B
:102FE000C8F81C3001230093E368626815F056FFAF
:102FF0009DF81030002B3AD1D4F800A05AF82730B1
:103000000AEB8702C8F82060002B6CD01B68C8F858
:1030100000305AF82730C3F80080E3681C350133CC
:10302000A945E360A1D1204607B0BDEC028BBDE805
:10303000F08F0DF1100B002BC8D00FE00DF1100B2D
:10304000002208F104000293594615F06FFF049A1C
:103050000146029BC8F80400C8F80C201A4608462E
:10306000514616F013FE049BD8F80410AEE7059FF6
:10307000012F60D0B7F1005F62D2BA001046029211
:1030800015F004FE5146029A824616F027FEA0680B
:103090000023A36088B19C4602460068136AB3FB14
:1030A000F7F107FB11335AF8231071B30968116067
:1030B0005AF823301A600028EED1039BD4E90001AE
:1030C000834202D0890015F09CFDB6FBF7F3C4E9FA
:1030D00000A707FB13675AF827300AEB8702C8F8E6
:1030E0002060002B92D1A368C4F80880C8F8003093
:1030F0003BB11B6A6168B3FBF1F001FB10334AF886
:10310000238004F10803136087E7A168116021465A
:1031100041F8082F4AF82310116829B14AF82C20E9
:103120009C460028B8D1C8E79C460028B4D1C4E723
:10313000A761039F0FE7C4F818A0DDF80CA0A6E76D
:1031400015F053FE034815F053FE00BFB76DDBB614
:1031500007690FC73CB401082DE9F04F754FE1B086
:1031600006463B78BFF35B8F13F001051AD0724C13
:10317000724AD6E9000115F055FD61680346204604
:103180003246B3FBF1F401FB1431FFF775FE002862
:1031900000F0CC800368002B00F0C880D86961B0D3
:1031A000BDE8F08F384615F02EFD0028DFD00DF178
:1031B000540A0EAB4FF03C0B0CACC4F81CA04FF003
:1031C0003D0A02224FF0450CC4F834A00DF1700AFC
:1031D0004FF0410E4620C4F838A04FF03E0A42217D
:1031E0004FF04309C4F850A00DF18C0A4FF0440889
:1031F0002360C4F854A046F2452A0123C4F818B04D
:10320000ADF88CA04FF03F0A46F2442BA4F878C0EA
:10321000C4F86CA00DF1A80AC4F8A4E0C4F870A02A
:103220004FF0400A6360C4F888A00DF1C40AE3635C
:10323000C4F88CA00DF1E00A6367C4F8A8A046F2B8
:10324000472AC4F89030ADF8E0A00DF1FC0A2262E4
:10325000A265C4F8AC20A4F89400C4F8C01084F8A7
:103260005E5084F8B25084F82650A4F80890A4F870
:103270004080ADF854B0C4E931A3C4F8E420C4F8E8
:103280001C2108AAA4F804E1C4F814C1C4F8300150
:10329000A4F83C11472184F8EA50C4F80031C4F87E
:1032A00038312B4684F8225160ADC4F8DC90C4F864
:1032B000F880059209AA2048049207AA03920AAA54
:1032C00002920BAA019206AA009260AAA4F8CC105E
:1032D000C4F84C1146A9C4F8E01046F24121ADF8FB
:1032E00018114DA9C4F8FC1054A9C4F8181146F2DD
:1032F0004221ADF850115BA9C4F834112146FFF703
:10330000EFFD384615F08BFC0D4A0E490A4815F0C2
:1033100073FC1C3D2B4653F8080B984203D0A96858
:10332000013115F06EFCA542F3D120E7064815F0F7
:1033300065FD00BFFC0300240004002407690FC7DB
:10334000000000244129000868B4010830B50023BA
:10335000044683B00D4603600846C4E90133FFF715
:10336000FBFE0190D4E90113994200F0ED8041F891
:10337000040B61602B7E032B19D8DFE803F05E029B
:103380004A32D4E90003A16802688B4202F10302C9
:1033900001925BD043F8042B63600268994202F10A
:1033A0000702019230D043F8042B63602B7E6A7EC3
:1033B00003F0FD03013A042A10D8DFE802F0037E8F
:1033C0008EA44F00D4E90031A2681B68914203F13A
:1033D000090301937CD041F8043B6160204603B0AF
:1033E00030BDD4E90003A16802688B4202F10302F8
:1033F000019200F0EA8043F8042B6360026899426E
:1034000002F106020192CED101AA2046FFF7F4F89C
:10341000CCE7D4E90003A16802688B4202F1040200
:10342000019200F0DA8043F8042B6360026899424D
:1034300002F108020192B6D1E6E7D4E90003A168DF
:1034400002688B4202F104020192A3D1204601AA34
:10345000FFF7D2F8A168D4E900039EE72268002BA9
:1034600040F086801068D4E901310B308B42019026
:1034700000F0868043F8040B63601068994200F105
:103480000E00019000F0C18043F8040B63601068E7
:10349000994200F11200019000F0AF8043F8040B54
:1034A000636012688B4202F11502019246D02046F9
:1034B00043F8042B636003B030BD002B68D1A268D1
:1034C000D4E900311B68914203F10B03019382D1CF
:1034D00001AA2046FFF790F880E7002B63D1A2688D
:1034E000D4E900311868914200F10B00019063D0DB
:1034F00041F8040B61601B68914203F10E030193D4
:103500007FF469AFE4E720681BBB0268D4E90131AE
:103510000B328B42019223D043F8042B6360026884
:10352000994202F10E0201925FD043F8042B6360CE
:1035300002688B4202F112020192B8D101AA194627
:103540002046FFF759F849E701AA2046FFF754F84B
:1035500010E70268D4E901310A328B420192DBD1D3
:10356000204601AAFFF748F8A168D4E90003D6E78E
:103570001068D4E901310A308B4201907FF47AAFB0
:1035800001AA2046FFF738F8A168D4E9002374E7C0
:10359000D4E90031A2681B68914203F10A03019348
:1035A0007FF419AF94E7D4E90031A268186891421A
:1035B00000F10A0001909BD11146204601AAFFF7B5
:1035C0001BF8A268D4E9003195E7204601AAFFF76D
:1035D00013F8A168D4E9000310E7204601AAFFF719
:1035E0000BF8A168D4E9000320E7204601AAFFF701
:1035F00003F8A168D4E900039AE701AA2046FEF780
:10360000FBFFA168D4E900234BE701AA2046FEF79F
:10361000F3FFA168D4E9002339E700BF2DE9F04F9B
:103620000021064600250B22FF2300F5846804468E
:1036300000F28C492DED028B46F80C1BE9B041607D
:1036400004F5D76781606FF0F41180F8342004F13D
:10365000C00A816180F8482080F8642080F8353005
:1036600080F8493080F86530C5600562C562056440
:1036700045650567C567C0F8885080F88C50C0F86C
:10368000A85080F8AC5080F8BE509FEDE38AC0E9A6
:10369000041100F18C01C0E90E55C0E91355C0E9D1
:1036A0001A55C0F8841000F1AC0180F8C82080F8E9
:1036B000EC2080F8102180F8342180F8582180F81F
:1036C0007C2180F8A021C0F8A41080F8C93080F8CF
:1036D000ED3080F8113180F8353180F8593180F8BB
:1036E0007D3180F8A131C0F8D450C0F8F850C0F84E
:1036F0001C51C0F84051C0F86451C0E93355C0E9CD
:103700003C55C0E94555C0E94E55C0E95755C0E99B
:103710006055C0F8885180F8C42180F8E82180F80D
:103720000C2280F8302280F8542280F8782280F829
:103730009C2280F8C53180F8E93180F80D3280F89C
:10374000313280F8553280F87932C0F8AC51C0F887
:10375000D051C0F8F451C0F81852C0F83C52C0F82B
:103760006052C0E96955C0E97255C0E97B55C0E9AE
:103770008455C0E98D55C0E99655C0E99F5580F83C
:10378000C02280F8E42280F8082380F82C2380F8F7
:10379000502380F8742380F89D3280F8C13280F87D
:1037A000E53280F8093380F82D3380F8513380F802
:1037B0007533C0F88452C0F8A852C0F8CC52C0F893
:1037C000F052C0F81453C0F83853C0F85C53C0E945
:1037D000A855C0E9B155C0E9BA55C0E9C355C0E91B
:1037E000CC55C0E9D555C0E9DE5580F8982380F85E
:1037F000BC2380F8E02380F8042480F8993380F813
:10380000BD3380F8E13380F80534C0F88053C0F848
:10381000A453C0F8C853C0F8EC53C0F80854C0F81B
:103820000C54C0F81054C0E9E755C0E9F055C0E9A0
:10383000F955404604F0D6FFB0EE480A4846FDF779
:1038400033F9764B87ED008A3046C4F8EC56C4F85D
:10385000F056C4F8F4561C6000F08CFE2946304641
:1038600000F09EFF0421304600F0BCFE03213046EC
:1038700000F09CFE28AA0DF5F87CFF2300210B2008
:1038800002F84F3CA2F13C0302F8500C42F84C1CE9
:1038900042E91211143300250B20FF219A4243F80C
:1038A000105C03F8140C03F8131C43E90355F1D121
:1038B00054329445E1D10F2004F1240B00F05CFE5A
:1038C000ADF80C000399022214A802F065F910204B
:1038D00000F052FEADF810000499022229A802F06F
:1038E0005BF9112000F048FEADF8140005990222A2
:1038F0003EA802F051F9122000F03EFEADF818008B
:103900000699022253A802F047F9042314A9584645
:103910001A46CDF804B002F04FF9019802F054FBBA
:103920000DF13C0BD4F8842043230121CDF834B0B1
:10393000ADF84C500E91ADF83C3013700E9BD4F89E
:103940008420C4F88830D5540D9B0E951D700D98B9
:10395000BDF84C305845A4F89C3003D00F99013184
:1039600015F04FF90023CDF834B0A4F8A03050235F
:1039700084F8BD30D4E92135EB4202D0002B00F0B1
:10398000ED800F2D0A9500F2AB80012D40F09E8056
:103990001B788DF83C305B4600220E9507A80DA9D8
:1039A0005A55B4F89C30ADF84C30FFF7CFFC0D9869
:1039B000584503D00F99013115F023F90023DDE9B3
:1039C0000712CDE90A33551A0C9300F08680144B88
:1039D0009D4200F2C680284615F058F90346DDE9FD
:1039E0000712A2EB010B1D4491420C95CDE90A335D
:1039F00004D018465A4616F057F903465B44384639
:103A00000AA90B93FEF768FA0A9858B10C99091A9B
:103A100015F0F7F806E000BF00803B4724040024BF
:103A2000FCFFFF7F504D5046FEF7B4FF2B78BFF3ED
:103A30005B8FDA077AD54D4B4D4DC4F894372B7810
:103A4000BFF35B8FDB075CD50023DDE90710CDE911
:103A50000D330F93451A474BC4F890373AD0464B75
:103A60009D427ED8284615F011F90346DDE907107E
:103A7000471A1D4488420F95CDE90D3304D01846EE
:103A80003A4616F011F903463B443A480DA90E9305
:103A9000FEF71CFE0D9818B10F99091A15F0B1F830
:103AA0000122FF234046114605F04CFF30463349C2
:103AB00000F078FD079818B10999091A15F0A1F8D6
:103AC000204669B0BDEC028BBDE8F08F002D43D1DC
:103AD0005B4661E72F462B46CBE7AB462B4682E79A
:103AE00000220AA90DA8019315F020FA0A9A019B59
:103AF0000D900F922A46194616F0C8F80A9D0D9BA4
:103B00004AE7284615F07FF800289DD004F180018F
:103B10009FED1B0A1748FEF717FC284615F07FF8A3
:103B2000184A1949134815F067F88DE7284615F02B
:103B30006AF800283FF47FAF3A4649469FED100AE5
:103B40000A48FEF7E9F8284615F069F80D4A0F49CA
:103B5000064815F051F86EE75846CBE70C4815F0CB
:103B600047F915F042F900BF1C0400242804002482
:103B70002004002450040024FCFFFF7F4528000897
:103B800000803B470000002431280008F12800088D
:103B90003CB401082DE9F043D0E9217597B0044603
:103BA000EF420BAE099602D0002F00F088810F2D56
:103BB0000F9500F22381012D40F0F4803A783346CE
:103BC0008DF82C2000210A95595594F8083223B11C
:103BD00094F82032802B00F03F8194F82C3223B1EE
:103BE00094F84432802B00F0408194F8503223B195
:103BF00094F86832802B00F0428194F8743223B13B
:103C000094F88C32802B00F0108194F8983223B114
:103C100094F8B032802B00F00C8194F8BC3223B1C0
:103C200094F8D432802B00F0088194F8E032002B15
:103C300000F0BD8094F8F832802B40F0B88009AFD6
:103C40000222A84B009200210A9A384615F02AFA5F
:103C50000A9AD4F888309A4200F0F380394604F189
:103C6000840015F0BDF9B4F8A030A4F89C3072B609
:103C7000D4E921950DF1440819EB050FCDF83C80EE
:103C800003D0B9F1000F00F01A810F2D069500F254
:103C9000FE80012D40F0F78099F8003042460FAFCA
:103CA0008DF844300023109503A839465355B4F8D5
:103CB0009C30ADF85430FFF749FB0F98404503D0D6
:103CC0001199013114F09DFF002304F5D768DDE957
:103CD0000310CDE90633451A089300F0CD80824BDE
:103CE0009D4200F2F780284614F0D0FF0346DDE93C
:103CF0000310A0EB01091D4488420895CDE9063365
:103D000004D018464A4615F0CFFF03464B444046C0
:103D100006A90793FEF7E0F8069818B10899091A62
:103D200014F06FFF0023D4F89057DDE90310CDE9BC
:103D30000F33441A119300F09C806B4B9C4200F2AD
:103D4000C980204614F0A2FF0346DDE90310A0EB72
:103D500001081C4488421194CDE90F3304D0184661
:103D6000424615F0A1FF03464344284639461093C6
:103D7000FEF7ACFC0F9818B11199091A14F041FF25
:103D800062B6039818B10599091A14F03AFF099D13
:103D9000B54204D00B992846013114F032FF17B018
:103DA000BDE8F083002D40F09A8033460AE794F88E
:103DB00004331BB194F81C33802B78D094F828334B
:103DC0005BBB94F84C331BB194F86433802B79D0EF
:103DD00094F870331BB194F88833802B76D094F824
:103DE00094331BB194F8AC33802B64D00998B04263
:103DF000D5D00B99013114F004FFD0E700220FA9B0
:103E000009A815F093F80F9B09900B932A463946A1
:103E100015F03CFF0F9D099BD4E694F84033802BAE
:103E2000CFD109AF0222314B0CE709AF0222304B50
:103E300008E709AF01222F4B04E709AF01222E4BFF
:103E400000E7099D002AA3D0D4F88410284615F075
:103E50000DFF00289CD001E709AF01230A9A0093C7
:103E60003846264B15F01EF9F2E609AF0222244B24
:103E7000E8E6A04623466CE7A9462B463BE709AF98
:103E80000122204BDEE63DBB42460FAF0AE70FAFF3
:103E9000002206A9384615F049F8069B0F901193A9
:103EA0002A46494615F0F2FE069D0F9AFAE609AF3A
:103EB0000122154BC6E609AF0122144BC2E6144895
:103EC00014F096FF09AF0122124BBBE609AF0222A4
:103ED000114BB7E614F089FF40460FAFE0E73046DC
:103EE00094E700BF90B40108FCFFFF7F98B401087D
:103EF00084B4010888B401088CB4010878B40108BE
:103F00007CB4010880B4010894B40108A4B4010889
:103F10003CB401089CB40108A0B4010890F87831C1
:103F20002DE9F04104468EB0002B00F0B58090F8EA
:103F30009021802A40F0B080002390F89C2180F8E6
:103F4000A030002A40F0D38094F8C0311BB194F81F
:103F5000D8317F2B09D094F8E431002B00F0998000
:103F600094F8FC317F2B40F0948094F8A03094F8C2
:103F70009C209A4200F08D8084F89C3072B6D4E97F
:103F8000218609AF18EB060F079703D0B8F1000F91
:103F900000F0DA800F2E049600F2C480012E40F06B
:103FA000B78098F800203B4607AD8DF8242000220A
:103FB000089601A829469A55B4F89C30ADF83430DB
:103FC000FFF7C4F90798B84203D00999013114F0FA
:103FD00018FE02980023019904F5D7670693461A44
:103FE000CDE9043300F09B805A4B9E4200F2AA8038
:103FF000304614F04BFE0346DDE90110A0EB01084A
:104000001E4488420696CDE9043304D01846424641
:1040100015F04AFE03464344384604A90593FDF7CC
:104020005BFF049818B10699091A14F0EAFD002301
:10403000D4F89067DDE90110CDE90733441A0993FC
:104040006AD0444B9C427DD8204614F01FFE019953
:1040500003460298471A1C4481420994CDE907336C
:1040600004D018463A4615F01FFE03463B4430463E
:1040700029460893FEF72AFB079818B10999091AEF
:1040800014F0BFFD62B6019818B10399091A14F033
:10409000B8FD0EB0BDE8F08194F89C217AB194F897
:1040A000B41180290BD1012284F8A020002B3FF409
:1040B0004BAF94F890317F2B3FF457AF44E794F81F
:1040C000C011D1B994F8E41131B194F8FC118029F0
:1040D00002D1032184F8A010002B3FF432AF94F8F2
:1040E00090317F2B3FF441AF002A3FF42DAF94F87D
:1040F000B4117F293FF439AF26E794F8D81180290D
:10410000E0D1022184F8A010002B3FF41AAFE6E7BB
:10411000EEB93B4607AD4AE7274623469BE7B04644
:1041200033466DE707AD002204A9284614F0FEFED1
:10413000049B079009933246414615F0A7FD049E63
:10414000079B34E714F051FE034814F051FE384643
:1041500007ADF0E7FCFFFF7F3CB4010890F8C430E6
:104160002DE9F04104468EB0002B00F0B58090F8A8
:10417000DC20802A40F0B080002390F8E82080F80E
:10418000A130002A40F0D38094F80C311BB194F890
:1041900024317F2B09D094F83031002B00F0998026
:1041A00094F848317F2B40F0948094F8A13094F833
:1041B0009D209A4200F08D8084F89D3072B6D4E93B
:1041C000218609AF18EB060F079703D0B8F1000F4F
:1041D00000F0DA800F2E049600F2C480012E40F029
:1041E000B78098F800203B4607AD8DF824200022C8
:1041F000089601A829469A55B4F89C30ADF8343099
:10420000FFF7A4F80798B84203D00999013114F0D8
:10421000F8FC02980023019904F5D7670693461A23
:10422000CDE9043300F09B805A4B9E4200F2AA80F5
:10423000304614F02BFD0346DDE90110A0EB010828
:104240001E4488420696CDE9043304D018464246FF
:1042500015F02AFD03464344384604A90593FDF7AB
:104260003BFE049818B10699091A14F0CAFC002301
:10427000D4F89067DDE90110CDE90733441A0993BA
:104280006AD0444B9C427DD8204614F0FFFC019933
:1042900003460298471A1C4481420994CDE907332A
:1042A00004D018463A4615F0FFFC03463B4430461E
:1042B00029460893FEF70AFA079818B10999091ACE
:1042C00014F09FFC62B6019818B10399091A14F012
:1042D00098FC0EB0BDE8F08194F8E8207AB194F82B
:1042E000001180290BD1022284F8A120002B3FF479
:1042F0004BAF94F8DC307F2B3FF457AF44E794F892
:104300000C11D1B994F8301131B194F848118029C9
:1043100002D1042184F8A110002B3FF432AF94F8AD
:10432000DC307F2B3FF441AF002A3FF42DAF94F8EF
:1043300000117F293FF439AF26E794F82411802932
:10434000E0D1032184F8A110002B3FF41AAFE6E777
:10435000EEB93B4607AD4AE7274623469BE7B04602
:1043600033466DE707AD002204A9284614F0DEFDB0
:10437000049B079009933246414615F087FC049E42
:10438000079B34E714F031FD034814F031FD384643
:1043900007ADF0E7FCFFFF7F3CB401082DE9804842
:1043A00000F1C00383B0044600F5A87B019300F53B
:1043B0000A7300F5BA7A00F5CC7908EE103A00F5E8
:1043C0001C7300F5DE7800F5F07708EE903A00F502
:1043D000377300F56D7600F5767509EE103A00F545
:1043E000497309EE903A00F55B730AEE103A00F556
:1043F00001730AEE903A00F513730BEE103A00F5D4
:1044000025730BEE903A00F52E730CEE103A00F582
:1044100040730CEE903A00F552730DEE103A00F531
:1044200064730DEE903A00F1E4030EEE103A00F5DD
:1044300084730EEE903A00F596730FEE103A00F585
:104440007F730FEE903A2046FEF710FC18EE100A2C
:1044500001F078FB18EE900A01F074FB19EE100AD7
:1044600001F070FB19EE900A01F06CFB1AEE100AD5
:1044700001F068FB1AEE900A01F064FB1BEE100AD3
:1044800001F060FB1BEE900A01F05CFB1CEE100AD1
:1044900001F058FB1CEE900A01F054FB1DEE100ACF
:1044A00001F050FB1DEE900A01F04CFB019801F069
:1044B00049FB1EEE100A01F045FB1EEE900A01F0CA
:1044C00041FB1FEE100A01F03DFB584601F03AFB9C
:1044D000504601F037FB484601F034FB404601F0FE
:1044E00031FB384601F02EFB304601F02BFB28460D
:1044F00001F028FB1FEE900A01F024FB2046FFF795
:104500000DFD2046FFF72AFE2046FFF743FB20461D
:10451000FEF7F0FB2046FEF77BFBD4F8942794F8D7
:10452000BD1011708FE700BF10B50446D0F8EC063F
:1045300020B1D4F8F416091A14F063FB04F5846072
:1045400003F02CFED4F8A40004F1AC03984204D08C
:10455000D4F8AC10013114F054FBD4F8840004F109
:104560008C03984204D0D4F88C10013114F049FB2C
:10457000204610BD704700BF202882B009D8084BE4
:1045800003EB400213F81030507843EA002002B0E9
:10459000704701230C2043EA002002B0704700BF9F
:1045A00008B50108143001F079BA00BF38B500F140
:1045B000140504462DED028B284601F01BFA28460F
:1045C00001F014FA2846B0EE408A01F0FDF9D0ED72
:1045D000007AF8EE677A88EE277ABDEC028B84EDDC
:1045E0001B7A38BD38B500F1140504462DED028B59
:1045F000284601F0EDF9284601F0F8F92846B0EE1A
:10460000408A01F0E1F9D0ED007AF8EE677A88EEA1
:10461000277ABDEC028B84ED1B7A38BD283002F07E
:10462000D3B800BF10B540F203338EB000244FF66C
:104630000B7240F20341ADF8083009A80123ADF830
:104640001020ADF824202246ADF80C1000940299F9
:1046500007940C94CDE90544CDE90A4401F0C2FF6A
:1046600004A8012322460399009401F0BBFF09A886
:1046700002F09EF810B901200EB010BD04A802F09F
:1046800097F8A0420CBF022020460EB010BD00BF1C
:104690002DE9F04103239AB04FF0010800254FF6B1
:1046A0000B740746CDE91438394BADF84C40CDE9D1
:1046B0001053A3F19F63A3F57D43CDE916581293E0
:1046C000FFF7B0FF4045064623D0022842D040F60F
:1046D0000132304B07F158000BACADF82C200B9990
:1046E0001895CDF86480CDF84A3000F0DBF810A9B9
:1046F00007F1700002F0F4FF274B0FCB84E80F00A6
:104700003A6F214607F1140001F026F91AB0BDE80E
:10471000F08110231F4A06A906908DF828300BACB3
:104720001E4BCDF84A2007930295CDE91805CDE937
:10473000080502A802F0CCF90823029A03A9204632
:10474000ADF80C608DF80E50049605930B9500F0B3
:10475000E9F8CCE740F60133ADF82C4000200BAC73
:10476000ADF8183001210B4B42460095CDF84A3088
:104770002B460E95CDE9180106992046CDE90C553A
:1047800001F030FF2946204602F01EF8AFE700BFD7
:10479000040204040406040368B301080704010BBF
:1047A0002DE9F04704462DED028B82B0002949D057
:1047B000012140F2011200230091ADF804208DF890
:1047C0000630354A0127354B04F10409344904F118
:1047D0003C08626040F20272A36040F60663E1604A
:1047E00004F1280A2285A3872782E762276403F061
:1047F00051FB054603F0A6F96946064650BB4DB38A
:1048000004F150008DF8067003F0C6FA072D3ED172
:1048100004F114052046FFF73BFF284601F0E6F8B7
:104820002846B0EE408A01F0CFF8D0ED007AF8EEDD
:10483000677A88EE277A84ED1B7A02B0BDEC028B92
:10484000BDE8F08740F2011300918DF80610ADF835
:104850000430B6E704F1500003F09EFA072D13D0A0
:104860004946204602F0B0FB0EB9002DD0D151468A
:10487000504601F0F3FC4046414601F0EFFC04F1E4
:10488000120000F079F9C3E7002EF0D1C0E74946E5
:10489000204602F099FBBBE7050805090507050658
:1048A000050A060630B585B0002504460122ADF89C
:1048B0000C102B460399009501F094FE012120462F
:1048C00001F082FF012003F03BF92946204601F068
:1048D0007BFF012003F034F90121204605B0BDE83B
:1048E000304001F071BF00BF10B5C2F3002384B0A7
:1048F0000C46017C8DF80D2043EA4402FA24022381
:104900008DF80C2003AA009402F07AF918B1012462
:10491000204604B010BD04460A2003F011F92046D9
:1049200004B010BD034670B543F8042B044684B0B0
:1049300007C983E80700A37983B91A210B461E2211
:10494000FA2523742046ADF80C20022303AA009513
:1049500002F056F928B1012004B070BD1B210B46AE
:10496000EDE70A2003F0ECF84FF4B852009502236B
:10497000ADF80C20204603AA217C02F041F9002862
:10498000E9D10A2003F0DCF841F20272009502231B
:10499000ADF80C20204603AA217C02F031F9002852
:1049A000D9D10A2003F0CCF8042200950223ADF8F7
:1049B0000C20204603AA217C02F022F90028CAD14B
:1049C0000A2003F0BDF8062200950223ADF80C2062
:1049D000204603AA217C02F013F90028BBD10A204B
:1049E00003F0AEF841F2082200950223ADF80C2046
:1049F000204603AA217C02F003F90028ABD10A204B
:104A0000064603F09DF80095022303AA217C204668
:104A1000ADF80C6002F0F4F800289CD1304603F0A9
:104A20008FF8009522790C232046002A8DF80C304F
:104A300003AA4FF0020314BF622142218DF80D102A
:104A4000217C02F0DDF8002885D1304603F078F8AB
:104A50002279D4E902310B43DBB20AB943F04003B7
:104A600062790AB143F020030E22FA258DF80D3049
:104A70002046009502238DF80C2003AA217C02F029
:104A8000BFF800287FF467AF0A2003F059F810221E
:104A900000950223ADF80C20204603AA217C02F0E9
:104AA000AFF800287FF457AF0A2003F049F812212D
:104AB00000950223ADF80C1003AA217C204602F0D9
:104AC0009FF800287FF447AF0A2003F039F801224D
:104AD00009212046FFF708FF003818BF01203BE7F7
:104AE000F0B5102387B0234C0122002501260027B2
:104AF00002A920460195CDE902234FF48052CDE969
:104B000004670DF047FC642005F038FB02A94FF460
:104B100080522046CDE9046702261027CDE90267BE
:104B20000DF038FC0322102302A92046CDE9022310
:104B300000230422CDE904234FF480520DF02AFC17
:104B400040F23223042202A9019310232046CDE92A
:104B50000223019A012305924FF4805204930DF031
:104B600019FC40F6060120460DF034FC284607B03B
:104B7000F0BD00BF300500241C4B00221C494FF043
:104B8000400C30B5054689B00220596007219A6073
:104B90001A620124DA620A224FF4006EDC60069287
:104BA0002022CDE9000104200821CDE902010320E3
:104BB0001021CDE9040108206946C3E904024FF43D
:104BC000C072181DC3E906C24FF48052C3E909E25E
:104BD0000DF0B6FB38B92846FFF782FF003818BF42
:104BE000012009B030BD204609B030BD2C0500249D
:104BF00040410052614A0021D0B513688EB00A913D
:104C0000002B40F0B9805E4B01214FF683700C24DD
:104C100011600221D3F8D4200026032742F48052E9
:104C2000C3F8D420D3F8D42002F480520092009A22
:104C3000D3F8E02042F01002C3F8E020D3F8E020DF
:104C400002F010020192019AD3F8E02042F04002F3
:104C5000C3F8E020D3F8E02002F040020292029A6A
:104C6000D3F8E02042F00802C3F8E020D3F8E020B7
:104C700002F008020392039AD3F8E02042F4807213
:104C8000C3F8E020D3F8E02002F480720492049A82
:104C9000D3F8E02042F08002C3F8E020D3F8E0200F
:104CA00002F080020592059AD3F8E02042F020023B
:104CB000C3F8E020D3F8E02002F020020692069A22
:104CC000D3F8E02042F00402C3F8E020D3F8E0304B
:104CD0000C9403F0040307930323079A0B93CDE985
:104CE000080108A9274807F0DDFB48F23712022324
:104CF00008A925480C94CDE90823CDE90A6707F0F7
:104D0000D1FB4CF20372022308A920480C94CDE990
:104D10000823CDE90A6707F0C5FB40F2FF620223D2
:104D200008A91B480C94CDE90823CDE90A6707F0D0
:104D3000B9FB4FF60C72022308A916480C94CDE972
:104D40000823CDE90A6707F0ADFB4FF63F020223C7
:104D500008A911480C94CDE90823CDE90A6707F0AA
:104D6000A1FB2022022308A90A480C94CDE90A6776
:104D7000CDE9082307F096FB0EB0D0BD280500242E
:104D8000004402580010025800180258000C025843
:104D900000200258001C0258001402582DE9F04F60
:104DA000DFF8108406460D46144608F118002DED74
:104DB000028B89B000AF02F08BFDD8F8183073B3C6
:104DC000D8F81C30D8F80490002B43690BBF4FF083
:104DD000080A4FF0100A4FF0020B4FF0040BB9F124
:104DE000000F2AD0A200EA46012B02F1070222F0AE
:104DF0000702ADEB020D6846ADEB020D694600F00F
:104E00003F81022B00F0D680002B6FD02246C8478E
:104E1000D5462437BD46BDEC028BBDE8F08FD8F8EF
:104E20001C30002BF5D0D8F804904FF0080A4FF052
:104E3000020B4369B9F1000FD4D1FB61D8F80030FF
:104E4000BB61002BE5D0D54802F0B4FD6B46BBF149
:104E5000020F786108EE103AFB6900F083816A4620
:104E60005146A2EBC40295466200EA46B2FBFBF251
:104E7000AAEBC40085460AEB8200EE46F861ADEB72
:104E8000010DF8690EEB820CC7F810C0EC46ADEBD3
:104E9000010D00EB8201CCF80400CCF8081001EB06
:104EA00082013869E946CCF80C1000EB8201CCF89D
:104EB00000A001EB8202C9E900E0C9E90212012B5E
:104EC00000F06483022B00F06C82002B00F08081E4
:104ED000620849466046BB69984718EE103A243785
:104EE0009D46BD46BDEC028BBDE8F08F002C8DD0F9
:104EF0001A46D8ED0C6A9FEDB27A8446331D36F916
:104F000022E00CF1080C07EE90EA33F922E00232BD
:104F1000F8EEE77A944267EE877A67EEA67A4CED70
:104F2000027A07EE90EAF8EEE77A67EE877A67EEA4
:104F3000A67A4CED017AE2D8F9612246C847984E2C
:104F4000D8ED0D6A0020F9692B1D9FED9E7A9FED2B
:104F50009E6ADFED9E5A22E0F4EEC67AF1EE10FA78
:104F6000C0F2C88447F6FE72D1ED017A45F82020E0
:104F700066EEA77AF4EEC77AF1EE10FA40F2F0800E
:104F8000F4EEC67AF1EE10FAC0F2D58447F6FE725E
:104F900043F820200230083184427FF639AFD1ED4A
:104FA000007A66EEA77AF4EEC77AF1EE10FAD3D85B
:104FB0003246D9E7002C3FF429AFD8ED0C6A84467D
:104FC0009FED787A0022331D8E4656F822100CF1A0
:104FD000080C07EE901A53F822100232F8EEE77A26
:104FE000944267EE877A67EEA67A4CED027A07EE76
:104FF000901AF8EEE77A67EE877A67EEA67A4CEDBC
:10500000017AE2D871462246C7F81CE0C847664ECE
:10501000D8ED0D6A0020F9692B1D9FED6A7A9FED8E
:105020006A6ADFF894C120E0F4EEC67AF1EE10FA75
:10503000C0F279843246D1ED017A45F8202066EE3F
:10504000A77AF4EEC77AF1EE10FA40F28780F4EE18
:10505000C67AF1EE10FAC0F25E84324643F82020A0
:105060000230083184427FF6D3AED1ED007A66EE8D
:10507000A77AF4EEC77AF1EE10FAD5D86246DAE7ED
:10508000002C3FF4C3AED8ED0C6A86469FED477AFC
:105090004FF0000C331D56F82C200EF1080E82F450
:1050A0000002A2F5000207EE902A53F82C200CF122
:1050B000020CF8EEE77A82F400026445A2F50002E1
:1050C00067EE877A67EEA67A4EED027A07EE902AAF
:1050D000F8EEE77A67EE877A67EEA67A4EED017A08
:1050E000D9D8F9612246C847314ED8ED0D6A002063
:1050F000F9692B1D9FED337A9FED336ADFF8BCC051
:105100001FE0F4EEC67AF1EE10FAC0F2FC833246EC
:10511000D1ED017A45F8202066EEA77AF4EEC77A41
:10512000F1EE10FA18D9F4EEC67AF1EE10FAC0F2E8
:10513000DA83324643F820200230083184427FF679
:1051400067AED1ED007A66EEA77AF4EEC77AF1EE9B
:1051500010FAD6D86246DBE76246EBE762467DE7A7
:10516000324615E7A100D6466208073121F0070153
:10517000ADEB010DEA46ADEB010D6946ADEB0E0D51
:105180000AEB8200EC46ADEB0E0D01EB8202F861FA
:10519000E946CCE900A0C9E9001290E680050024A8
:1051A0000280FFFF000000300082FF7F000000341B
:1051B00082FF7F0064050024007E00807E0080FF67
:1051C0000000003804FF7FBF04FF7F3F00FEFF4662
:1051D000002C00F0C982BBF1020FD8F8242000F0A7
:1051E000FA827969C7F8049002EB810E5FED0C5AE0
:1051F0008A00DCF808100EF104007A611A46DCF827
:105200000C303B61331DD7F810903D61FD69C7E953
:1052100002CB8C46834636F92210D8ED0C7A06EE86
:10522000101A33F9221006EE901A3EF92210B8EE49
:10523000C66A07EE101AF8EEE66A3BF92210B8EEDD
:10524000C77A26EE256A66EEA56A27EE257A26EE4F
:10525000276A66EEA76A27EE277A07EE901A5108AA
:105260000232F8EEE77A0AEB8100944280ED006AA0
:1052700005EB810067EEA57AC0ED006A0CEB8100BA
:1052800009EB810180ED007A98ED0C7A67EE877A60
:10529000C1ED007ABFD8D7F804903D69D7E902CBB9
:1052A00060466208BB6949469847D8F82C307A694D
:1052B000D8ED0D6A1A441FED3D7A1FED3D6A2B1D96
:1052C000904602F1040A5FED3F5A0022A84ED9E948
:1052D00000EC51E0F4EEC67AF1EE10FAC0F2C782AB
:1052E00047F6FE7045F822000CEB0100D0ED007A85
:1052F00066EEA77AF4EEC77AF1EE10FA4BD9F4EE27
:10530000C67AF1EE10FAC0F2BA8247F6FE70BBF12F
:10531000020F43F822002BD0D9F808000844D0ED42
:10532000007A66EEA77AF4EEC77AF1EE10FA36D973
:10533000F4EEC67AF1EE10FAC0F2CD8247F6FE70B6
:1053400048F82200D9F80C000144D1ED007A66EE4D
:10535000A77AF4EEC77AF1EE10FA1ED9F4EEC67A07
:10536000F1EE10FAC0F2AF8247F6FE714AF8221051
:10537000023294427FF6B1AD51080EEB81008900F4
:10538000D0ED007A66EEA77AF4EEC77AF1EE10FA65
:10539000A0D83046A6E73046B9E73146E6E73046C2
:1053A000CEE7002C00F0E081BBF1020FD8F82430EA
:1053B00000F0E1817A69DCF8081003EB820EC7F88F
:1053C00004909300DFED6B5A0EF1040000227B6124
:1053D000DCF80C303B61331DD7F810903D61FD695E
:1053E000C7E902CB8C46834656F82210D8ED0C7ADA
:1053F00007EE101A53F82210B8EEC76A07EE101A1B
:105400005EF82210F8EEC76A07EE101A26EE256A3B
:105410005BF82210B8EEC77A66EEA56A26EE276A18
:1054200027EE257A66EEA76A27EE277A07EE901A0E
:1054300051080232F8EEE77A0AEB8100944280EDDF
:10544000006A05EB810067EEA57AC0ED006A0CEBFF
:10545000810009EB810180ED007A98ED0C7A67EE0E
:10546000877AC1ED007ABFD8D7F804903D69D7E9B3
:1054700002CB60466208BB6949469847D8F82C3091
:105480007A69D8ED0D6A1A449FED3E7A9FED3E6A27
:10549000131D9246DFF8E4C00022FB612B1D364E3F
:1054A000D9E9008E4EE0F4EEC67AF1EE10FAC0F2C1
:1054B000FC81304645F822000EEB0100D0ED007A69
:1054C00066EEA77AF4EEC77AF1EE10FA49D9F4EE57
:1054D000C67AF1EE10FAC0F2EF813046BBF1020F4E
:1054E00043F822002AD0D9F808000844D0ED007A09
:1054F00066EEA77AF4EEC77AF1EE10FA35D9F4EE3B
:10550000C67AF1EE10FAC0F2C98130464AF822009C
:10551000D9F80C000144D1ED007A66EEA77AF4EEDA
:10552000C77AF1EE10FA1ED9F4EEC67AF1EE10FA4F
:10553000C0F2AD813146F86940F82210023294423F
:105540007FF6CBAC510808EB81008900D0ED007AE2
:1055500066EEA77AF4EEC77AF1EE10FAA3D86046A9
:10556000A8E76046BAE76146E5E76046CEE700BFD8
:105570000280FFFF000000300082FF7F007E00807D
:105580000000003404FF7FBF04FF7F3F002C00F0C9
:10559000EB807A690021D8F82430C7F8109003EB2B
:1055A000820ED7F81C909300FD610EF104021FEDEE
:1055B0000C6A7B61331D154656F821204808D8ED4A
:1055C0000C6ABBF1020F82F40002A2F5000207EEA2
:1055D000902A53F8212082F40002B8EEE77AA2F56F
:1055E000000227EE067A07EE902A0AEB8002F8EE18
:1055F000E77A27EE267A67EE867A82ED007A09EB63
:1056000080024FEA800067EEA67AC2ED007A27D0CA
:105610005EF8212082F40002A2F5000207EE902A33
:1056200055F8212082F40002B8EEE77AA2F50002D4
:1056300027EE067A07EE902ADCF80820F8EEE77AE3
:10564000024427EE267A67EE867A82ED007A98ED9C
:105650000C7ADCF80C2067EE877A0244C2ED007AFF
:1056600002318C42A8D8D7F8109060466208BB6916
:105670004946FD699847D8F82C307A69D8ED0D6A0B
:105680001A441FED407A1FED406A131D9246DFF861
:10569000C4C20022FB612B1DAB4ED9E9008E4EE047
:1056A000F4EEC67AF1EE10FAC0F2C580304645F845
:1056B00022000EEB0100D0ED007A66EEA77AF4EE40
:1056C000C77AF1EE10FA49D9F4EEC67AF1EE10FA83
:1056D000C0F2BF803046BBF1020F43F822002AD04F
:1056E000D9F808000844D0ED007A66EEA77AF4EE07
:1056F000C77AF1EE10FA35D9F4EEC67AF1EE10FA67
:10570000C0F2AE8030464AF82200D9F80C000144BD
:10571000D1ED007A66EEA77AF4EEC77AF1EE10FAD0
:105720001ED9F4EEC67AF1EE10FAC0F28B80314643
:10573000F86940F82210023294427FF6CEAB51084D
:1057400008EB81008900D0ED007A66EEA77AF4EECE
:10575000C77AF1EE10FAA3D86046A8E76046BAE728
:105760006146E5E76046CEE7224649466046BB69AA
:105770009847FFF7B2BBC7F810B0002298ED0C6A4B
:10578000331DDFED726AD7F81CB0786956F8221025
:1057900007EE901A53F82210B8EEE77A07EE901A47
:1057A00051080232F8EEE77A27EE267A0AEB810EEC
:1057B00094420BEB810167EEA67A27EE067A67EE3C
:1057C000867A8EED007AC1ED007ADFD88300D7F8B3
:1057D00010B07B614DE61A46C7F810B098ED0C6A20
:1057E000331DDFED5B6AD7F81CB0786936F92210FB
:1057F00007EE101A33F9221007EE901AB8EEC77AA6
:1058000051080232F8EEE77A27EE267A0AEB810E8B
:1058100094420BEB810167EEA67A27EE067A67EEDB
:10582000867A8EED007AC1ED007ADFD88300D7F852
:1058300010B07B6134E5F0EE675AFEEEE45A15EEE7
:10584000900A34E7F0EE675AFEEEE45A15EE901A2D
:105850006EE7F0EE675AFEEEE45A15EE900A3AE76C
:10586000F0EE675AFEEEE45A15EE900A4BE767EE4B
:10587000A57AFDEEE77A17EE900A00B232E567EE00
:10588000A57AFDEEE77A17EE900A00B23FE5F0EE5A
:10589000675AFEEEE05A15EE901A4CE6F0EE675AA3
:1058A000FEEEE05A15EE900A30E6F0EE675AFEEE94
:1058B000E05A15EE900AFDE5F0EE675AFEEEE05A6A
:1058C00015EE900A0AE667EEA57AFDEEE77A17EE86
:1058D000901A09B24AE567EEA57AFDEEE77A17EE6F
:1058E000900A00B22CE5F0EE675AFEEEE45A15EE8F
:1058F000902A1FE467EEA57AFDEEE77A17EE902A6C
:1059000012B2FFF731BBF0EE675AFEEEE45A15EE25
:10591000902AFFF7FDBBF0EE675AFEEEE05A15EE57
:10592000902AFFF79BBBF0EE675AFEEEE05A15EEA9
:10593000902AFFF780BB67EEA57AFDEEE77A17EEB7
:10594000902A12B2FFF724BB82FF7F0000000030D4
:10595000000000387E0080FF30B5184C154685B039
:10596000046004F1080EEC460FC98EE80F00D4ED78
:10597000047AF5EEC07A8CE80F00F1EE10FA1ADD29
:10598000B7EE006A94ED057A27EE277AC6EE276A0D
:1059900084ED0D7AC4ED0C6A6DB1204640F8185FB5
:1059A00001F096FF064903690020064A2162A262BF
:1059B000E36005B030BD012005B030BD64050024B2
:1059C000002000300000003000680830704700BF41
:1059D000B1F5807F03680A4628BF4FF48072B1F5A5
:1059E000807F9A6094BF00200120704700681830C3
:1059F00001F0CEBF70B504688AB0A369E1600BB353
:105A000004F118056FF0F4134FF60B722846ADF849
:105A10000C20CDE9013301F05BFF8446EE46E668D9
:105A2000BCE80F00AEE80F00BCE80F00AEE80F00C6
:105A30009CE803008EE8030069462846049601F0BE
:105A40004FFE38BBE06918B304F11C056FF0F41386
:105A50004FF60B722846ADF80C20CDE9013301F06A
:105A600037FF8446EE46E468BCE80F00AEE80F005E
:105A7000BCE80F00AEE80F009CE803008EE80300CE
:105A800069462846049401F02BFE003818BF012017
:105A90000AB070BD01200AB070BD00BF30B5046807
:105AA00083B00D46E3694BB1A3680020E26A616AE6
:105AB0009B00009004F11C0001F00CFFA368074854
:105AC000A26A9B00216A009004F1180001F002FF15
:105AD0000020C4E9005003B030BD00BF9D4D000858
