:020000040800F2
:1000000000000220410A0008350A0008857900082E
:10001000350A0008350A0008350A0008000000000B
:10002000000000000000000000000000350A000889
:10003000350A000800000000350A000809790008A8
:10004000350A0008350A0008350A0008350A000894
:10005000350A0008350A0008350A0008350A000884
:10006000350A0008350A0008350A0008F17400084E
:10007000FD740008E15F00080975000815750008A7
:100080001D5C0108A1690008350A0008350A00084E
:10009000350A0008350A0008350A0008350A000844
:1000A000350A0008350A0008350A0008350A000834
:1000B0009D4D0108A94D0108B54D0108D5690008FD
:1000C000350A0008E1690008350A0008E54501081D
:1000D000F1450108515A01087D5A0108B15A010839
:1000E000350A0008350A000800000000350A00083B
:1000F000350A0008350A0008350A0008350A0008E4
:10010000350A0008350A0008C14D0108FD450108FF
:10011000E55A0108195B0108350A0008350A00088C
:10012000350A0008350A000821460108554601082D
:10013000515C0108350A0008350A0008350A000834
:1001400000000000000000000000000000000000AF
:10015000350A0008350A0008350A00084D5B010819
:10016000ED690008350A0008197900083D79000892
:10017000350A000861790008350A0008350A0008C8
:10018000350A0008350A0008815B0108B55B0108E3
:100190000946010815460108350A0008350A000815
:1001A000350A0008350A0008350A0008350A000833
:1001B000F1710008350A0008350A0008350A000800
:1001C000350A0008350A0008350A0008350A000813
:1001D000350A0008350A0008350A0008350A000803
:1001E000350A0008350A0008350A0008350A0008F3
:1001F000350A0008350A0008350A0008350A0008E3
:10020000350A0008350A0008350A0008350A0008D2
:10021000350A0008350A0008350A0008350A0008C2
:10022000350A0008350A0008350A000800000000F9
:10023000350A0008350A000800000000350A0008E9
:10024000350A0008350A0008350A0008350A000892
:10025000350A0008350A0008350A0008350A000882
:10026000350A0008350A0008350A0008350A000872
:10027000350A0008350A0008E95B010800000000A3
:10028000350A0008350A0008350A00080000000099
:0802900000000000350A00081F
:1002A00010B5054C237833B9044B13B10448AFF3B0
:1002B00000800123237010BDE00300240000000033
:1002C00000CC010808B5034B1BB103490348AFF349
:1002D000008008BD00000000E403002400CC0108F9
:1002E00001F0FF01102A2BDB10F0070F08D010F8E7
:1002F000013B013A8B422DD010F0070F42B3F6D1EB
:10030000F0B441EA012141EA014122F007047FF003
:1003100000070023F0E80256083C85EA010586EA5A
:10032000010685FA47F5A3FA87F586FA47F6A5FA96
:1003300087F68EB9EED1F0BC01F0FF0102F00702A2
:1003400032B110F8013B013A83EA010313B1F8D14D
:100350000020704701387047002D06BF354603382E
:10036000073815F0010F07D1013015F4807F02BF67
:10037000013015F4C03F0130F0BC0138704700BFB8
:10038000034613F8012B002AFBD1181A01387047D5
:1003900081F0004102E000BF83F0004330B54FEA36
:1003A00041044FEA430594EA050F08BF90EA020FA3
:1003B0001FBF54EA000C55EA020C7FEA645C7FEA36
:1003C000655C00F0E2804FEA5454D4EB5555B8BF59
:1003D0006D420CDD2C4480EA020281EA030382EACA
:1003E000000083EA010180EA020281EA0303362D5C
:1003F00088BF30BD11F0004F4FEA01314FF4801C2F
:100400004CEA113102D0404261EB410113F0004F40
:100410004FEA03334CEA133302D0524263EB4303F7
:1004200094EA050F00F0A780A4F10104D5F1200E95
:100430000DDB02FA0EFC22FA05F2801841F10001F0
:1004400003FA0EF2801843FA05F359410EE0A5F1C4
:1004500020050EF1200E012A03FA0EFC28BF4CF0F5
:10046000020C43FA05F3C01851EBE37101F00045AB
:1004700007D54FF0000EDCF1000C7EEB00006EEBB8
:100480000101B1F5801F1BD3B1F5001F0CD3490842
:100490005FEA30004FEA3C0C04F101044FEA445299
:1004A00012F5800F80F09A80BCF1004F08BF5FEA20
:1004B000500C50F1000041EB045141EA050130BD00
:1004C0005FEA4C0C404141EB0101013C28BFB1F512
:1004D000801FE9D291F0000F04BF01460020B1FA5D
:1004E00081F308BF2033A3F10B03B3F120020CDA30
:1004F0000C3208DD02F1140CC2F10C0201FA0CF00E
:1005000021FA02F10CE002F11402D8BFC2F1200C72
:1005100001FA02F120FA0CFCDCBF41EA0C01904028
:10052000E41AA2BF01EB0451294330BD6FEA040471
:100530001F3C1CDA0C340EDC04F11404C4F120025C
:1005400020FA04F001FA02F340EA030021FA04F36E
:1005500045EA030130BDC4F10C04C4F1200220FAC5
:1005600002F001FA04F340EA0300294630BD21FA03
:1005700004F0294630BD94F0000F83F4801306BFC9
:1005800081F480110134013D4EE77FEA645C18BFBD
:100590007FEA655C29D094EA050F08BF90EA020F54
:1005A00005D054EA000C04BF1946104630BD91EA4C
:1005B000030F1EBF0021002030BD5FEA545C05D14F
:1005C0004000494128BF41F0004130BD14F580048E
:1005D0003CBF01F5801130BD01F0004545F0FE4102
:1005E00041F470014FF0000030BD7FEA645C1ABF37
:1005F000194610467FEA655C1CBF0B46024650EA6E
:10060000013406BF52EA033591EA030F41F4002199
:1006100030BD00BF90F0000F04BF0021704730B51F
:100620004FF4806404F132044FF000054FF00001F4
:1006300050E700BF90F0000F04BF0021704730B5B5
:100640004FF4806404F1320410F0004548BF40428A
:100650004FF000013EE700BF42004FEAE2014FEADF
:1006600031014FEA02701FBF12F07F4393F07F4FBA
:1006700081F06051704732F07F4208BF704793F0BD
:100680007F4F04BF41F40021704730B54FF46074D0
:1006900001F0004521F000411CE700BF50EA0102D3
:1006A00008BF704730B54FF000050AE050EA01027C
:1006B00008BF704730B511F0004502D5404261EBEC
:1006C00041014FF4806404F132045FEA915C3FF42D
:1006D000D8AE4FF003025FEADC0C18BF03325FEACA
:1006E000DC0C18BF033202EBDC02C2F1200300FA7B
:1006F00003FC20FA02F001FA03FE40EA0E0021FAA0
:1007000002F11444BDE600BF53B94AB9002908BF3D
:1007100000281CBF4FF0FF314FF0FF3000F088B9C8
:10072000ADF1080C6DE904CE00F01AF8DDF804E034
:10073000DDE9022304B07047430803F05533C01AC3
:10074000830803F0333300F03330184400EB10100B
:1007500000F00F3000EB002000EB0040000E70476F
:100760002DE9F047089D04468E46002B4DD18A4264
:10077000944669D9B2FA82F252B101FA02F3C2F197
:10078000200120FA01F10CFA02FC41EA030E944028
:100790004FEA1C48210CBEFBF8F61FFA8CF708FB49
:1007A00016E341EA034306FB07F199420AD91CEB21
:1007B000030306F1FF3080F01F81994240F21C8153
:1007C000023E63445B1AA4B2B3FBF8F008FB10339B
:1007D00044EA034400FB07F7A7420AD91CEB0404D0
:1007E00000F1FF3380F00A81A74240F207816444A0
:1007F000023840EA0640E41B00261DB1D440002325
:10080000C5E900433146BDE8F0878B4209D9002D88
:1008100000F0EF800026C5E9000130463146BDE812
:10082000F087B3FA83F6002E4AD18B4202D382427C
:1008300000F2F980841A61EB030301209E46002D2B
:10084000E0D0C5E9004EDDE702B9FFDEB2FA82F280
:10085000002A40F09280A1EB0C014FEA1C471FFADE
:100860008CFE0126200CB1FBF7F307FB131140EAC5
:1008700001410EFB03F0884208D91CEB010103F192
:10088000FF3802D2884200F2CB804346091AA4B254
:10089000B1FBF7F007FB101144EA01440EFB00FE28
:1008A000A64508D91CEB040400F1FF3102D2A6458D
:1008B00000F2BB800846A4EB0E0440EA03409CE72C
:1008C000C6F12007B34022FA07FC4CEA030C20FAD9
:1008D00007F401FA06F31C43F9404FEA1C4900FAF9
:1008E00006F3B1FBF9F8200C1FFA8CFE09FB181176
:1008F00040EA014108FB0EF0884202FA06F20BD9E9
:100900001CEB010108F1FF3A80F08880884240F238
:100910008580A8F102086144091AA4B2B1FBF9F07C
:1009200009FB101144EA014100FB0EFE8E4508D977
:100930001CEB010100F1FF346CD28E456AD90238FC
:10094000614440EA0840A0FB0294A1EB0E01A142E1
:10095000C846A64656D353D05DB1B3EB080261EB4F
:100960000E0101FA07F722FA06F3F1401F43C5E929
:10097000007100263146BDE8F087C2F12003D8405F
:100980000CFA02FC21FA03F3914001434FEA1C47A1
:100990001FFA8CFEB3FBF7F007FB10360B0C43EA93
:1009A000064300FB0EF69E4204FA02F408D91CEB43
:1009B000030300F1FF382FD29E422DD90238634441
:1009C0009B1B89B2B3FBF7F607FB163341EA0341E1
:1009D00006FB0EF38B4208D91CEB010106F1FF3830
:1009E00016D28B4214D9023E6144C91A46EA004627
:1009F00038E72E46284605E70646E3E61846F8E6B9
:100A00004B45A9D2B9EB020864EB0C0E0138A3E701
:100A10004646EAE7204694E74046D1E7D0467BE7E2
:100A2000023B614432E7304609E76444023842E75A
:100A3000704700BF684620F007018D46FEE700BF03
:100A40000B480C4A904208B503D0121A0A4919F013
:100A5000B1F80A480A4A904203D0121A002119F04C
:100A6000D1F807F0F5F919F05DF800F00BF8FEE7A2
:100A700000000024E003002438CC0108E003002437
:100A8000A037002400B5ADF6940D684603F000FAD7
:100A9000684603F039F9684603F0AAFC00200DF619
:100AA000940D5DF804FB00BF2DE9F0412DED048BA2
:100AB000B7EE009A5E4BB0EE408A0025C0F8A43035
:100AC0000026C9EE009A5B4BDFED5B8A4FF07C5746
:100AD000C0F8E03082B0594B0446C0F8A85040F24C
:100AE0000118C0F88831B0EE680A80F8A060C0F83C
:100AF000AC5080F8DC60C0F8E450C0F8E85080F8F2
:100B00008461C0F88C51C0F8905180ED278A80ED47
:100B1000048AC0ED028A4760C7608561C0ED059A0E
:100B200017F0F8FFF0EE407A20462670C4ED028AF6
:100B3000B0EE680AC4ED077A84ED019AA4F8288023
:100B400017F0E8FF04F1B000C4F8C85004F59C7534
:100B500084ED070AB0EE680AC4ED2E8A84ED308A6F
:100B6000C4ED319AC4F8B470C4F8BC70019017F0A9
:100B7000D1FFDFED337A019884ED330AB0EE670AD6
:100B800084F8B06004F5CA76C4ED2E7AA4F8D88053
:100B900084ED2D9A17F0BEFFF0EE407A04F1EC00E0
:100BA000DFED288AB0EE480AC4ED337A019017F0E1
:100BB000C5FC01989FED240A17F048FDB0EE680AC5
:100BC000019817F0A7FDB0EE480A284617F0B6FCCA
:100BD00028469FED1E0A17F039FDB0EE680A284638
:100BE00004F5F07517F096FDB0EE480A304617F0A0
:100BF000A5FC30469FED160A17F028FDB0EE680AF6
:100C0000304617F087FDB0EE480A284617F096FCEC
:100C100028469FED100A17F019FD2846B0EE680A25
:100C200017F078FD204602B0BDEC048BBDE8F081E2
:100C3000CDCC4C3E0AD7233E0000C842CDCC4C3D23
:100C400000004843CDCCCC3D00005C430000FA449A
:100C500000E0534500180346D0ED277A4FF07E534D
:100C600090ED297AC0F8AC3067EE877AC0ED2A7A29
:100C7000704700BFD0ED277A4FF07E5390ED387A61
:100C8000C0F8E83067EE877AC0ED397A704700BF68
:100C9000D0ED397AF5EEC07AF1EE10FA3EDDD0ED06
:100CA000385AB7EE006AD0ED276A90ED3A7A66EED0
:100CB000A56A77EEC67AC6EE265A10B52DED028BE0
:100CC000C0ED397A0446BFEE008A77EE657AC0ED52
:100CD0003A7A19F0D7FB07EE900A9FED127A04F1E9
:100CE000B000F8EEE77A77EEA77AA7EE878A17F0DA
:100CF00057FD04F1EC0038EE000A17F043FC94EDC8
:100D0000480A04F59C7017F03DFC94ED3A0AD4EDC6
:100D10005A7ABDEC028B20EE270A10BD9FED020A25
:100D2000704700BF0000003000000000D0ED277ABF
:100D30004FF07E5390ED627AC0F8903167EE877A7B
:100D4000C0ED637A704700BFD0ED637AF5EEC07AEC
:100D5000F1EE10FA2ADDB7EE007A10B577EEC77A19
:100D60000446C0ED637A19F08DFB07EE900ABFEEE2
:100D7000000A9FED107AF8EEE77A04F5CA7077EE74
:100D8000A77AA7EE870A17F0FDFB94ED720A04F527
:100D9000F07017F0F7FB94ED640A94ED847ADFEDC0
:100DA000067A20EE070A20EE270A10BD9FED030AFF
:100DB000704700BF00000030CDCCCC3E00000000EA
:100DC000D0ED2A7AF5EEC07A10B5F1EE10FA0446AD
:100DD0002DED028B30DDD0ED295AB7EE006AD0ED53
:100DE000276A90ED2B7A66EEA56A77EEC67AC6EE94
:100DF000265AC0ED2A7A77EE657AC0ED2B7A17F085
:100E0000CFFC94ED2B8AF7EE087A20EE080A20EE4C
:100E1000278A2046FFF73CFFF0EE408A2046FFF786
:100E200093FF9FED077A38EE288AA0EE078AB0EE8E
:100E3000480ABDEC028B10BD9FED028AE9E700BFB6
:100E4000CDCCCC3E00000000F0B5154683B0064680
:100E500002ACA94204E90C00089BA2EB010221D0DC
:100E60001846174618F0B4FE0346019C1F440021A3
:100E7000002C12DD012328688B400342386814BF20
:100E8000034320EA03031F2901F101013B6002D162
:100E9000043504370021013CECD13046C6E900712D
:100EA00003B0F0BD0027E0E72DE9F04FD0F800C017
:100EB000531A89B00446D0E90275A7EB0C0805EB7C
:100EC000C80843452BD2002B40F339810139002259
:100ED000CD180BE0DCF800001F2A43EA0003CCF831
:100EE000003011D0A94202F1010213D0012311F800
:100EF000010F93400028EDD1DCF800001F2A20EA02
:100F00000303CCF80030EDD1A9420CF1040C4FF0F2
:100F10000002EBD1C4E902C209B0BDE8F08F01EBD9
:100F20000803B8F1000F039323DD0139E6460020E2
:100F300001EB080908E033431F28CEF8003012D037
:100F4000494500F1010014D0012311F801AFDEF88A
:100F500000608340BAF1000FEDD126EA03031F2899
:100F6000CEF80030ECD149450EF1040E4FF00000F0
:100F7000EAD1039B9A42CFD0039BA2EB03092369DA
:100F8000A3EB0C03C8EBC303994540F29880734B65
:100F9000A3EB0802914500F2DA80C845C24638BF8B
:100FA000CA4618EB0A0A80F0D5809A4528BF9A46AF
:100FB0000AF11F0A4FEA5A1A4FEA8A0A504617F0F6
:100FC000F9FD08AB00908346216804A8CDE90675B9
:100FD00013E90C00FFF738FFB9F1000FDDE9042831
:100FE00022DD039B5E1EB1440AE01168B8F11F0FB9
:100FF00043EA0103136011D04E4508F1010813D0F4
:10100000012316F8011F03FA08F30029EDD1116836
:10101000B8F11F0F21EA03031360EDD14E4502F131
:1010200004024FF00008EBD1A068E368C01B5B1B13
:1010300003EBC000002809DC24E0B8F11F0F05F124
:10104000010519D0013808F101081BD001233968C6
:1010500003FA05F603FA08F30E42116814BF0B43B6
:1010600021EA03031F2D1360E7D1B8F11F0F07F129
:1010700004074FF00005E5D1013802F104024FF0FA
:101080000008E3D1206870B121690392091A17F0B2
:101090004CFD0023039AC4E9023304F1080393E8EA
:1010A000030084E803000BEB0A030021C4F800B03E
:1010B000A2606160C4E9038309B0BDE8F08F05EB6D
:1010C000090100290A46B8BF01F11F024B4201F095
:1010D0001F0103F01F034FEA621258BF594207EB8A
:1010E000820200292DDBB9F1000F8C4622DD039B23
:1010F0005E1EB14409E038681F2D43EA00033B60DF
:101100000FD0B14505F1010511D0012316F8010FEB
:10111000AB400028EFD138681F2D20EA03033B6065
:10112000EFD1B14507F104074FF00005EDD10029DB
:1011300000DA043AC4E9022C09B0BDE8F08F0022BD
:10114000E8E6B9F1000F01F1200CD0DCF1E704482A
:1011500017F0E5FDDFF80CA030E700BFE0FFFF7FF0
:1011600068B30108FCFFFF0F884248D02DE9F04327
:1011700004460D46886887B00968EA682769461AF8
:10118000236802EBC606A7EB030CB6EBCC0F12D814
:1011900004F10807009302AC06AB049005922046C8
:1011A00013E90C00FFF750FE94E8030087E8030002
:1011B00007B0BDE8F083FBB16146781A04F1080777
:1011C00017F0B3FC0023C4E9023397E8030023615E
:1011D00084E803002B68AE68F61AEB6803EBC606DA
:1011E00076B9334632462661C4E90066C4E9022670
:1011F0002968D5E90202CDE704F10807F0E7704756
:1012000006F11F084FEA581918EA260838BFB046F9
:101210004FEA89094FEA6818484617F0CBFC71423B
:1012200006F01F0600EB090201F01F0103462261D0
:1012300000EB880258BF4E42002120608E42616060
:10124000D4DA2036043AD1E72DE9F0410378044698
:101250009FED3C6A07EE103AD0ED016A8268B8EE65
:10126000C77AC6EE077A67EEA67AFDEEE77A17EE42
:10127000905A002DB4BF05F10F0317EE903A1B11E1
:1012800092FBF3F603FB16230BB90F2E09DD013297
:10129000AA4202DAA260BDE8F0810023A360BDE8A3
:1012A000F081037E06F01F0101274FEA561803EB79
:1012B000C3028F4003EB4202C36853F8221003EBD2
:1012C000820351F82820174230D19A6A52F8282018
:1012D00017421FD15B6953F828301F4216D10123F2
:1012E000216A0B7194F8243073B1227EE36802EB1B
:1012F000C20002EB400203EB82031E4496F83C302E
:1013000013B9A2680B71C2E7A268C0E7E069FFF7F2
:101310000DFDE4E7E069FFF7ADFC227EE36802EB38
:10132000C20102EB410203EB8203D3E7C069FFF77E
:1013300093FC227EE36802EBC20102EB410203EB65
:101340008203C2E700007043A1B10369027E134922
:10135000013210B4C468D2B21B1B02769B1001FB91
:1013600003F39A4201D30023037600235DF8044B74
:1013700083607047037E23B1013B037600238360C3
:101380007047D0E90313054A5B1A9B1002FB03F375
:10139000013B037600238360704700BF1BCA6B28A4
:1013A0002DE9F04F93B003681646CE4A0690406888
:1013B0000593C31ACC4C03919B1002FB03F3A34289
:1013C000CDE9080100F01D82012B1A4638BF012229
:1013D0009B1880F01082039A0599A2EB0109002B5B
:1013E00040F0FA814C24079304930023049AD6F822
:1013F00008C0316802EB090542F80930ACEB01077F
:10140000F26812EBC707C5E90133C5E9033340F0C1
:101410006D81049B38462F6143F809703B466F602D
:10142000C5E902370EAB009010A80027CDE90EC227
:101430000CCBFFF709FDD6F81CC07169326AACEB22
:1014400001086F6212EBC808C5E90577C5E907779F
:1014500040F09C81404643464746C5F82480C5E994
:101460000588C5E907370CAB009010A80027CDE927
:101470000CC20CCBFFF7E8FCD6F830C0B16A726B37
:10148000ACEB0108AF6312EBC808C5E90A77C5E900
:101490000C7740F05581404643464746C5F83880B2
:1014A000C5E90A88C5E90C370AAB3C36009010A89C
:1014B0003C35CDE90AC20CCBFFF7C6FC96E80F001D
:1014C00085E80F00039B1946059B994200F0818037
:1014D00003F14C06DDF810A0029300E09A46A6F155
:1014E0004C09A6F144070AF1080B0023A6F13804C1
:1014F000A6F130050AF114080AF11C0EA6F1240227
:101500000AF1280C99E803008AE8030097E8030031
:101510008BE8030056F83C1CCAF8101046E911335A
:1015200097E8030089E8030046F83C3C94E8030090
:1015300088E8030095E803008EE8030056F8281CAD
:10154000CAF8241046E90C3395E803000AF1300587
:1015500084E8030046F8283CA6F11C0492E8030046
:101560008CE8030094E8030085E8030056F8141C97
:10157000CAF8381046E9073394E803000AF13C043E
:10158000054682E8030046F8143C16E90F0084E89B
:101590000F001DB16942284617F0C7FA56F8380CFB
:1015A00020B156F8281C091A17F0BFFA56F84C0C4F
:1015B00020B156F83C1C091A17F0B7FA029A0AF142
:1015C0004C0303994C364C329142029286D10AF177
:1015D0009804039B08998B4273D04C338846099F2B
:1015E0001D46A5F14C06A5F14402002304F1080CA8
:1015F000A5F1300E96E8030084E8030092E80300AA
:1016000045E911338CE8030092E80300A5F1380C9A
:1016100055F83C2C86E80300226104F1140245F8D9
:101620003C3C04F11C069CE8030082E803009EE8B1
:10163000030055F8282C86E8030045E90C33A5F192
:101640002406626204F128029EE8030004F1300ED1
:101650008CE8030045F8283CA5F11C0C96E8030033
:1016600082E803009CE8030055F8142C8EE8030080
:1016700045E907339CE80300A26386E8030004F110
:101680003C0645F8143C15E90F0086E80F000020E1
:1016900010B1414217F049FA55F8380C20B155F80D
:1016A000281C091A17F041FA55F84C0C20B155F8CE
:1016B0003C1C091A17F039FA4C374C344C35B845F4
:1016C0008FD1059B2BB1069A18469168C91A17F05D
:1016D0002CFA069B0499079AC3E900149A6013B088
:1016E000BDE8F08F1BCA6B286B28AF0107F11F08FC
:1016F0004FEA581A18EA270838BFB8464FEA8A0A4C
:101700004FEA6818504617F055FA00EB0A02049B9E
:101710002A617A4207F01F0743F8090002F01F020E
:101720004FF00003316858BF57426B6000EB8803ED
:10173000002FD6E902C2BFF673AE2037043B6FE636
:1017400008F11F0A4FEA5A19B845A8BFC2464FEA26
:1017500089094FEA6A1A484617F02CFAB7EB0802D3
:10176000EF6208F01F0702F01F0200EB0903B16AE5
:1017700058BF5742AB63A86200EB8A03002FD6E93B
:101780000CC2BFF68FAE2037043B8BE608F11F0A70
:101790004FEA5A19B845A8BFC2464FEA89094FEA2D
:1017A0006A1A484617F006FAB7EB0802AF6108F06C
:1017B0001F0702F01F0200EB0903716958BF57426F
:1017C0006B62686100EB8A03002FD6E907C2BFF69F
:1017D00048AE2037043B44E6A34228BF23464C24AE
:1017E00003FB04F4204617F0E5F90219049000F118
:1017F0004C040792F9E5039B059A034CA3EB0209FD
:10180000F0E7024817F08BFAC4FFFF7F88B30108A6
:101810002DE9F047D0E901438AB00D469C4200F023
:101820009380002207462260A2608E680B68626087
:10183000F31AC4E90322CE6816EBC30662D1304620
:1018400033462661C4E90066C4E9023600904FF0D1
:101850000008296808A8D5E90223CDE9062306ABCC
:101860000CCBFFF7F1FAC4F81480C4E90688EE69DE
:101870006B69C4E90888F31A2E6A16EBC30640F0B8
:101880008D80304633466662C4E90566C4E9073692
:10189000009004ABEA694FF00008696908A8049257
:1018A0002A6A05920CCBFFF7CFFAC4F82880C4E966
:1018B0000B882E6BAB6AC4E90D88F31A6E6B16EBBE
:1018C000C30648D130463346A663C4E90A66C4E974
:1018D0000C36009002AB2A6B08A8A96A3C3502922C
:1018E0003C3455F8082C03920CCBFFF7ADFA7B681B
:1018F00003F14C0695E80F0084E80F007E600AB003
:10190000BDE8F08706F11F084FEA58194FEA890928
:10191000484617F04FF9002200EB09032060964279
:10192000A8BFB0466260921B06F01F064FEA681817
:10193000236102F01F0200EB880358BF5642002EBD
:1019400082DA2036043B7FE70A462146FFF728FD6E
:101950000AB0BDE8F08706F11F094FEA591A46455B
:10196000A8BFB1464FEA8A0A4FEA6919504617F0F4
:1019700021F9B8EB060206F01F0600EB0A0302F09D
:101980001F02C4F82C80A36300EB890358BF5642A2
:10199000A06246459BDA2036043B98E706F11F0912
:1019A0004FEA591A4645A8BFB1464FEA8A0A4FEA9C
:1019B0006919504617F0FEF8B8EB060206F01F064C
:1019C00000EB0A0302F01F02C4F81880636200EB08
:1019D000890358BF564260614645BFF657AF20366F
:1019E000043B53E72DE9F04F0025A7B0AE4E00F1C0
:1019F0000C0A6C46219512954FF0010822AF06F1B2
:101A0000300B06F19009CDE91355CDE91555CDE917
:101A10001755CDE91955CDE91B55CDE91D55CDE932
:101A20001F55CDE90455CDE90655CDE90855CDE959
:101A30000A55CDE90C55CDE90E55CDE9105596E87E
:101A40000F0084E80F0004AA21461046FFF72CFA85
:101A500004AA21460EA86560E5600095A5608DF892
:101A600004808DF806808DF80C80FFF71DFA06F1D2
:101A700010030FCB84E80F0004AA214609A8FFF742
:101A800013FA04A913A8FFF76FFB09A918A8FFF719
:101A90006BFB0EA91DA8FFF767FB06F120030FCB18
:101AA00087E80F0013A95046FFF7B2FE9BE80F002E
:101AB00084E80F0004AA21461046FFF7F5F906F165
:101AC00040030FCB84E80F0004AA21460EA8FFF7BD
:101AD000EBF906F150030FCB84E80F0004AA21466E
:101AE00009A8FFF7E1F904A913A8FFF73DFB09A92D
:101AF00018A8FFF739FB0EA91DA8FFF735FB06F163
:101B000060030FCB87E80F0013A95046FFF780FE54
:101B10009BE80F0084E80F0004AA21461046FFF757
:101B2000C3F904AA21460EA86560E5600095A5608A
:101B30008DF804808DF806808DF80C80FFF7B4F9DD
:101B400006F170030FCB84E80F0004AA214609A810
:101B5000FFF7AAF904A913A8FFF706FB09A918A81B
:101B6000FFF702FB0EA91DA8FFF7FEFA06F180039E
:101B70000FCB87E80F0013A95046FFF749FE99E8FD
:101B80000F0084E80F0004AA21461046FFF78CF9E5
:101B900004AA21460EA8E56065600095A5608DF851
:101BA00004808DF80C808DF80E80FFF77DF999E8A0
:101BB0000F0084E80F0004AA214609A8FFF774F972
:101BC00004A913A8FFF7D0FA09A918A8FFF7CCFABF
:101BD0000EA91DA8FFF7C8FA4FF0011313A950462C
:101BE0007D60BD60229525938DF88C80FFF710FEF7
:101BF00099E80F0084E80F0004AA21461046FFF779
:101C000053F904AA21460EA86560E5600095A56019
:101C10008DF804808DF80C80FFF746F906F110036B
:101C2000A0360FCB84E80F0004AA214609A8FFF7CD
:101C30003BF904A913A8FFF797FA09A918A8FFF719
:101C400093FA0EA91DA8FFF78FFA96E80F0087E810
:101C50000F00504613A9FFF7DBFD0E9818B112993B
:101C6000091A16F062FF099818B10D99091A16F0B1
:101C70005CFF049818B10899091A16F056FF1D98D0
:101C800018B12199091A16F050FF189818B11C992B
:101C9000091A16F04AFF139818B11799091A16F085
:101CA00044FF27B0BDE8F08F20B20108002310B533
:101CB000C0E9033343610446037680F82430692386
:101CC00080ED010A0370C0E90712FFF78BFE204682
:101CD00010BD00BF037973B370B5D0E90D462DED8B
:101CE000028BB44205469FED158A07D020462C345E
:101CF00016F056FD38EE008AA642F7D105F108002D
:101D000016F04EFDF0EE407A05F14000B0EE480AC4
:101D1000B0EE678A16F036FC95ED1D0A05F18C00D1
:101D2000DFED077AA8EE270A16F02CFC95ED2F0AB6
:101D3000BDEC028B70BD9FED010A704700000000F2
:101D4000CDCC4C3F2DE9F04FD0E90085444E0C46F8
:101D5000A5EB0803434983B09B1006FB03F38B42BA
:101D60007AD0012B1E460746A4EB080B38BF01268C
:101D7000F6186FD2002E5CD14FF02C0AB146964671
:101D800009EB0B0C4445BEE80F00ACE80F00BEE8C1
:101D90000F00ACE80F009EE807008CE8070027D092
:101DA00009F12C0BC246D646ABF12C0C0AF12C0AD9
:101DB0000BF12C0BBEE80F00ACE80F00BEE80F00E3
:101DC000A245ACE80F009EE807008CE80700EAD1C6
:101DD000A4F12C0A244BAAEB080A4FEA9A0A03FB47
:101DE0000AFA2C232AF0404A0AF1020A03FB0A9A53
:101DF000AC420FD02A1B1C4B504621462C3A92086D
:101E000003FB02F22C2322F0404202FB03329244F5
:101E100017F0D0FEB8F1000F05D0B9684046A1EB2D
:101E2000080116F082FEBE60C7E9009A03B0BDE863
:101E3000F08F8E424FF02C0328BF0E4603FB06F6B0
:101E40003046019216F0B6FE019A8146064400F132
:101E50002C0A94E7054EF3E7054816F060FF00BF33
:101E6000A38B2EBA2EBAE802A38B2E3AE8FFFF7F8F
:101E700088B30108D0E90D322DE9F0439A420546B6
:101E80000E4600F134082DED028B18BF83638DB030
:101E9000D1E900239A4274D0002710E0BEE80F0079
:101EA0000137ACE80F00BEE80F00A742ACE80F0016
:101EB0009EE807008CE80700C5F8389061D2B7EEBD
:101EC000008AD5ED007A4FF07C5300229FED690A1D
:101ED00001A888EE277ACDED057A02930493079244
:101EE0008DED030A8DED067A16F014FE3368F2EEDE
:101EF000080A9FED617AF0EE406A03EB870340F237
:101F00000112B0EE000AD3ED007A0623ADF82C20C2
:101F1000F8EEE77A8DF80430CDED086A77EEC77AEF
:101F2000C7EEA00A17F0B0F9DFED547A01A820EE51
:101F3000270A8DED030A16F0EDFDA96B0DF1040ED5
:101F40008DED080A8C4601F12C09D6E90034E41A1B
:101F5000EB6BA410994204F1010207EE902AF8EE0F
:101F6000677A88EE277A8DED027A97D101AA4046EA
:101F7000FFF7E8FE0137D6E90034E41AA410A742BF
:101F80009DD3B7EE008AD5ED007A2C464FF07C53F6
:101F900000229FED380A88EE277A0834C5ED067ACC
:101FA0002F462046EB606B6140372A6285ED040ABC
:101FB00085ED077A16F0AEFD336805229FED2E7A87
:101FC000F0EE406A2A72F2EE080AD3ED007A40F28F
:101FD0000113C5ED096AB0EE000AF8EEE77A2B8628
:101FE00077EEC77AC7EEA00A17F04EF99FED237A75
:101FF00020462C468C34F5EE007A20EE070A20EEBF
:10200000270A85ED040A16F085FDF0EE407A384681
:1020100095ED000AD6E90023C5ED097A9B1A9B10BD
:10202000013307EE903AF8EE677A88EE277A85ED6D
:10203000037A16F083FA38469FED110A16F006FB74
:1020400038469FED100A16F065FB95ED000A204614
:1020500016F074FA20469FED0C0A16F0F7FA9FED81
:10206000090A20460DB0BDEC028BBDE8F04316F026
:1020700051BB00BF0000C84200008A420000DC43A0
:1020800000007A43CDCCCC3D00002F45D0F8D430B1
:10209000B2EE0E7A2DE9F0412DED028B93F83D3032
:1020A000054682B0A83007EE903A05F1100801907D
:1020B000F8EEE77A87EE870A85ED2C0A16F02AFDFE
:1020C000019885ED310A16F06BFB9FED327ADFED5A
:1020D000327A4046E0EE077AB0EE670A16F0B6FABA
:1020E000D5E90147BC424CD00026DFED2C8A2046C2
:1020F00016F056FBB0EE408A94F85C1004F12C0008
:1021000016F0C4F9DFED267A28EE000A00236034C9
:1021100004F8043CB0EEC07AB4EEE77AF1EE10FABF
:1021200002DD78EE808A0136A742E0D1BEB99FED8C
:102130001B0A28EE800A404616F024FA95ED100A94
:1021400005F15C0016F01EFA95ED240ADFED157A14
:1021500020EE270A02B0BDEC028BBDE8F08107EE4D
:10216000906AB8EEE70AB5EE400AF1EE10FA0BD429
:10217000F1EEC07AB7EE007A87EE270A20EE280A41
:10218000D9E79FED060AD6E717F04EFBF0EE407A4E
:10219000F0E700BF0080BB440000FA4400000000EC
:1021A000ACC527379A99593F38B50B460446406865
:1021B000002103EB430300EB43105D012C3016F0CC
:1021C000B7F8636801222B4483F85C2038BD00BF58
:1021D0002DE9F04FD0E900A681463D48A6EB0A0361
:1021E0000F4611463B4A5B1183B000FB03F3934259
:1021F0006AD0012B9846A7EB0A0538BF4FF00108BB
:1022000018EB03035ED2002B4AD1984660249B460C
:102210000BEB0500602217F0CDFC57451CD00BF1ED
:102220006005544621466034A5F16000602217F035
:10223000C1FCBC4205F16005F4D1A7F16004264B56
:10224000A4EB0A04640903FB04F424F07844023488
:1022500004EB44040BEB4414B74210D0F21B1E4BAA
:1022600020463946603A520903FB02F222F07842D6
:10227000013202EB42025201144417F09BFCBAF106
:10228000000F06D0D9F808105046A1EB0A0116F04D
:102290004CFCC9F80880C9E900B403B0BDE8F08F70
:1022A000934228BF134603EB43084FEA48142046E5
:1022B000019116F07FFC019900EB0408834600F1C0
:1022C0006004A5E7054CF2E7054816F028FD00BFBD
:1022D000ABAAAAAA55555501ABAAAA02E0FFFF7FF7
:1022E00088B301082DE9F0410546002310300C4663
:1022F000A84605F15C062DED048B9AB0F0EE408AFD
:10230000A8EC010AB7EE008AC5F8D410EB60019082
:10231000DFED629AC5E9013316F010F99FED600A0E
:10232000019816F093F9B6EE000A019816F0F2F94A
:102330003046B0EE680A16F001F930469FED590AB2
:1023400016F084F93046B0EE690A05F1A80616F0D9
:10235000E1F988EE289A4FF07C539FED530A3046FE
:10236000C5ED2E8AC5F8AC30C5F8B430C5ED309A4D
:1023700085ED2C0A85ED2F9A16F0CCFB94F83D30B4
:10238000B2EE0E7A85ED310A07EE903A40F2011274
:1023900001233046F8EEE77A85ED2B8AA5F8D020A8
:1023A000102685F8A83087EE870A85ED2C0A16F0EE
:1023B000B1FB85ED310A05E017F0FCFB6034013E0E
:1023C000AC6064D09FED358A4FF07C54374B0022CF
:1023D0009FED350A02A80F930127119312931393CF
:1023E000ADF86020039405948DED0D8A8DED0E8A75
:1023F0008DED108A8DED148A8DED158A8DED168A7E
:10240000CDED068A8DED079A8DED040A8DED088AD3
:1024100016F080FBF0EE407A40F20112244B02A845
:10242000B0EE480AADF830200393CDED097A8DF86F
:1024300008708DED048A16F06DFBF0EE407A394697
:10244000B0EE680A0DA8CDED097A15F001FFF0EEA7
:10245000480A0DA89FED170A15F072FF0DA89FED11
:10246000160A15F0C3FF0DA89FED140A0D9415F080
:10247000E5FF602202A9D5E902439C4220469BD198
:1024800002AA21464046FFF7A3FE013E9AD1284604
:102490001AB0BDEC048BBDE8F08100BF0000000065
:1024A00000803B45000048430000C842000080BF58
:1024B000CDCC4C3F0AD7A33BCDCC4C3ECDCC0C3F32
:1024C0002DE9F84FD0E900890F4692466FF0604140
:1024D000A9EB0802B1EBA20F54D093100646A7EB6C
:1024E0000805012B1C4638BF01241C1948D2002CBA
:1024F0003CD1A346DAF80030002D4BF8053024DC3F
:10250000A9EB07090435B9F1000F5D4413DC4D4414
:10251000B8F1000F04D1B460C6E900B5BDE8F88F8A
:10252000B168A1EB0801404616F0FFFAB460C6E9B5
:1025300000B5BDE8F88F284639464A464D4417F0A5
:1025400039FBB8F1000FE6D0EAE7A9EB07092A4604
:1025500041465846043517F03BFBB9F1000F5D4486
:10256000E9DCB1684D44A1EB0801DCE78C4228BFEF
:102570000C46A400204616F01DFB83460444B9E730
:10258000024CF7E7024816F0CAFB00BFFCFFFF7FD2
:1025900088B301082DE9F84FD0E900890F4692462B
:1025A0006FF06041A9EB0802B1EBA20F54D0931079
:1025B0000646A7EB0805012B1C4638BF01241C1951
:1025C00048D2002C3CD1A346DAF80030002D4BF85D
:1025D000053024DCA9EB07090435B9F1000F5D448F
:1025E00013DC4D44B8F1000F04D1B460C6E900B566
:1025F000BDE8F88FB168A1EB0801404616F095FAE6
:10260000B460C6E900B5BDE8F88F284639464A46A9
:102610004D4417F0CFFAB8F1000FE6D0EAE7A9EB86
:1026200007092A4641465846043517F0D1FAB9F150
:10263000000F5D44E9DCB1684D44A1EB0801DCE723
:102640008C4228BF0C46A400204616F0B3FA8346FD
:102650000444B9E7024CF7E7024816F060FB00BFFC
:10266000FCFFFF7F88B301080023D1F800C02DE9EB
:10267000F041054686B088461E4648680093CDE97D
:10268000013360451FD0002408E042F8043B0134C8
:10269000A0EB0C030192B4EBA30F14D201995CF8E8
:1026A0002430029F0A463344B9420393EDD1684671
:1026B00003AAFFF76FFF0134D8E900C0A0EB0C03B9
:1026C000B4EBA30FEAD30C36302EDAD100230098F6
:1026D000042719461E460593CDE903331EE0C2596F
:1026E0003C1D43F8042B8B4200EB0402049325D0DD
:1026F0000259043F43F8042B8B4200EB070204937A
:1027000026D0C25943F8042B0493019B1B1A9B103B
:10271000033BB34222D32746DDE904318B4206F165
:10272000010600EB0702DAD103A83C1DFFF7C8FE43
:102730000098DDE9043102198B42D9D103A8043F86
:10274000FFF7BEFE0098DDE90431C2198B42D8D1F3
:1027500003A81946FFF7B4FE0098D6E700263746CF
:10276000039BF2EE080A9FED177AB0EE000A33449D
:102770006C680436D3ED007A3C446037F8EEE77AB3
:1027800077EEC77AC7EEA00A16F07EFDDFED0E7A6F
:10279000204620EE270A84ED020A16F0BBF9442EEB
:1027A00084ED070ADCD1039818B10599091A16F0CF
:1027B000BCF9009818B10299091A16F0B6F906B0DA
:1027C000BDE8F08100008A420000DC43002A47D0C7
:1027D000F8B5244D0F461646002428682DED028BCF
:1027E00000F66800FEF730FD286800F5D760FFF7B7
:1027F00071FA2868B0EE408A00F28C40FEF7E0FAE9
:102800002868F0EE408A00F5F260FFF73FFC9FED8C
:10281000167A286868EE878ADFED147A90ED026AEE
:1028200028EE078AD0ED016AE8EE867ADFED105ACD
:1028300090ED007A20EE250AD7E90023E8EE267A0B
:1028400002EB840C03EB84030134A642E0EE077A2A
:10285000CCED007AC3ED007AC2D1BDEC028BF8BD9D
:10286000704700BF1C040024CDCC4C3E000000008B
:102870009A99193F70B58568064685B12C462D6832
:10288000606804F10C03984203D0E168013116F04E
:102890004CF92421204616F048F9002DEED172683B
:1028A00000213068920017F0ADF9306806F1180386
:1028B000002271689842C6E9022202D0890016F00F
:1028C00034F9304670BD00BF30B5864983B001246D
:1028D0000546B7EE000A00232246096800F5B470E9
:1028E000009403F0A3F88049224605F5D870B7EEAE
:1028F000000A00230968009403F098F87B492246F7
:1029000005F50770B7EE000A00230968009403F08C
:102910008DF87749224605F51970B7EE000A0023B5
:102920000968009403F082F87249224605F52B707D
:10293000B7EE000A00230968009403F077F86E49A7
:10294000224605F5A270B7EE000A0023096800943C
:1029500003F06CF86949224605F5C670B7EE000A27
:1029600000230968009403F061F86549224605F5E3
:10297000EA70B7EE000A00230968009403F056F8E5
:102980006049224605F5FC70B7EE000A002309688D
:10299000009403F04BF85C49224605F51070B7EE41
:1029A000000A00230968009403F040F857492246C2
:1029B00005F52270B7EE000A00230968009403F0C1
:1029C00035F85349224605F53470B7EE000A002366
:1029D0000968009403F02AF84E49224605F1B40034
:1029E000B7EE000A00230968009403F01FF84A4973
:1029F000224605F1D800B7EE000A002309680094CA
:102A000003F014F84549224605F1FC00B7EE000A30
:102A100000230968009403F009F84149224605F5AE
:102A20009070B7EE000A00230968009402F0FEFFE0
:102A30003C4922462846B7EE000A00230968009464
:102A400002F0F4FF3849224605F12400B7EE000AEF
:102A500000230968009402F0E9FF3449224605F199
:102A60004800B7EE000A00230968009402F0DEFF78
:102A70002F49224605F16C00B7EE000A00230968D1
:102A8000009402F0D3FF2B49224605F19000B7EEE7
:102A9000000A00230968009402F0C8FF2649224674
:102AA00005F53D70B7EE000A00230968009402F0B6
:102AB000BDFF2249224605F54670B7EE000A002305
:102AC0000968009402F0B2FF1D49B7EE000A002326
:102AD0002246096805F54F70009402F0A7FF03B085
:102AE00030BD00BF10B4010814B4010818B40108C7
:102AF0001CB4010820B4010824B4010828B401085A
:102B00002CB4010830B4010834B4010838B4010809
:102B10003CB401084CB4010848B4010844B40108AD
:102B200040B401085CB4010860B4010864B4010851
:102B300068B401086CB4010850B4010854B4010829
:102B400058B4010890F8B83310B504461BB190F89A
:102B5000D033802B0ED094F8DC331BB194F8F433CF
:102B6000802B15D094F800341BB194F81834802BC6
:102B700007D010BD90F88C3883F0010380F88C38B2
:102B8000E9E704F668000121BDE81040FEF7DCBB70
:102B9000002104F66800FEF7D7FBE3E770B500F507
:102BA000846500210446284607F07AF9284606F095
:102BB00003FA80B300261DE006F008FAD4F898273F
:102BC000D4F8943704F5F2601649D31A5B1101FB6F
:102BD00003F3DBB207EE903AF8EEE77A27EE800ACD
:102BE000FDEEC07A17EE901A91FBF3F203FB12117F
:102BF000FFF7DAFA284606F0DFF90346F1B2284675
:102C0000B34206F10106D7D804F10C000121BDE85A
:102C1000704001F097BC014604F10C00BDE8704023
:102C200001F090BCABAAAAAA38B500F12405002196
:102C30000446284603F072F9DFED547AB4EEE70A51
:102C4000F1EE10FA06D49FED527AB4EEC70AF1EE17
:102C500010FA4EDD0121284603F060F9DFED4B7AD2
:102C6000B4EEE70AF1EE10FA06D49FED497AB4EE1D
:102C7000C70AF1EE10FA54DD0221284603F04EF99E
:102C8000DFED427AB4EEE70AF1EE10FA06D49FEDDA
:102C9000407AB4EEC70AF1EE10FA12DD032128469D
:102CA00003F03CF9DFED3B7AB4EEE70AF1EE10FAFF
:102CB00006DBB7EE007AB4EEC70AF1EE10FA48D997
:102CC00038BD70EE677A9FED346AB7EE000AF2EE17
:102CD000026A87EE867A70EE477AA7EEA60A16F0A9
:102CE0006DFDB5EEC00AF1EE10FAA8BF84ED020A40
:102CF000D4E770EE677A9FED286AB7EE000AF2EE2D
:102D0000026A87EE867A70EE477AA7EEA60A16F078
:102D100055FDB5EEC00AF1EE10FAA8BF84ED000A29
:102D200098E770EE677A9FED1C6AB7EE000AF2EE44
:102D3000026A87EE867A70EE477AA7EEA60A16F048
:102D40003DFDB5EEC00AF1EE10FAA8BF84ED010A10
:102D500092E730EE670A9FED115ADFED116ADFED61
:102D6000115AC0EE057A9FED106A37EE677AF0EEE1
:102D7000667AE7EE257AC7FEA67AC7FEC67AFCEE2B
:102D8000E77A17EE903A84F8BD3038BD103E783DB2
:102D90001F7C703F103EF83C3EF8603F103E783F8D
:102DA000000048420000B44200000C432DE9F04707
:102DB0009946036853F8216006B33568074688468C
:102DC00092462C6A0BE02C682E462546CCB1246A2C
:102DD0007B68B4FBF3FC03FB1C4CE04515D14C4570
:102DE000F1D1DAF80420AB689A42ECD132B16968CB
:102DF000DAF8000016F0CEFE0028E4D13046BDE837
:102E0000F08726463046BDE8F08700263046BDE80C
:102E1000F08700BF2DE9F04F914600F118020D46F2
:102E2000002704462DED028B87B002600392A9EBC8
:102E300001029349921002FB01F1994238BF1946F1
:102E40004FF07E5303610123436000F11003C0E99A
:102E50000277C0E90577184608EE103A15F066FFCC
:102E60006368834213D20128064600F0FB80B0F16C
:102E7000005F80F0FF8082001046029215F09AFEFB
:102E80003946029A074616F0BDFEC4E900764D4564
:102E900005D162E00368ABB11C35A9455DD0794A24
:102EA000D5E9000115F052FE616806462A46204623
:102EB0003346B6FBF1F701FB17673946FFF776FF9C
:102EC0000028E7D1242015F075FED5F800A06B6826
:102ED0000146002280461AEB030F41F80C2B41609B
:102EE00003D0BAF1000F00F0C7800F2B04933FD836
:102EF000012B38D19AF800200DF1100B88F80C2026
:102F00004FF0000AC8F80830584601F803A018EE40
:102F1000101AAB69C8F81C3001230093E36862689B
:102F200015F050FF9DF81030002B3AD1D4F800A0D6
:102F30005AF827300AEB8702C8F82060002B6CD0C3
:102F40001B68C8F800305AF82730C3F80080E368DF
:102F50001C350133A945E360A1D1204607B0BDEC83
:102F6000028BBDE8F08F0DF1100B002BC8D00FE0E5
:102F70000DF1100B002208F104000293594615F0E0
:102F800069FF049A0146029BC8F80400C8F80C20A7
:102F90001A460846514616F00DFE049BD8F8041058
:102FA000AEE7059F012F60D0B7F1005F62D2BA0093
:102FB0001046029215F0FEFD5146029A824616F026
:102FC00021FEA0680023A36088B19C4602460068E9
:102FD000136AB3FBF7F107FB11335AF8231071B3EF
:102FE000096811605AF823301A600028EED1039B5B
:102FF000D4E90001834202D0890015F096FDB6FBAA
:10300000F7F3C4E900A707FB13675AF827300AEB68
:103010008702C8F82060002B92D1A368C4F808800A
:10302000C8F800303BB11B6A6168B3FBF1F001FBEB
:1030300010334AF8238004F10803136087E7A1687E
:103040001160214641F8082F4AF82310116829B170
:103050004AF82C209C460028B8D1C8E79C46002896
:10306000B4D1C4E7A761039F0FE7C4F818A0DDF847
:103070000CA0A6E715F04DFE034815F04DFE00BF6D
:10308000B76DDBB607690FC7A4B301082DE9F04F90
:10309000754FE1B006463B78BFF35B8F13F0010537
:1030A0001AD0724C724AD6E9000115F04FFD6168E2
:1030B000034620463246B3FBF1F401FB1431FFF71F
:1030C00075FE002800F0CC800368002B00F0C8805B
:1030D000D86961B0BDE8F08F384615F028FD0028AA
:1030E000DFD00DF1540A0EAB4FF03C0B0CACC4F822
:1030F0001CA04FF03D0A02224FF0450CC4F834A04A
:103100000DF1700A4FF0410E4620C4F838A04FF080
:103110003E0A42214FF04309C4F850A00DF18C0A39
:103120004FF044082360C4F854A046F2452A012316
:10313000C4F818B0ADF88CA04FF03F0A46F2442B0B
:10314000A4F878C0C4F86CA00DF1A80AC4F8A4E0F3
:10315000C4F870A04FF0400A6360C4F888A00DF175
:10316000C40AE363C4F88CA00DF1E00A6367C4F8F5
:10317000A8A046F2472AC4F89030ADF8E0A00DF1BF
:10318000FC0A2262A265C4F8AC20A4F89400C4F83A
:10319000C01084F85E5084F8B25084F82650A4F829
:1031A0000890A4F84080ADF854B0C4E931A3C4F845
:1031B000E420C4F81C2108AAA4F804E1C4F814C14E
:1031C000C4F83001A4F83C11472184F8EA50C4F84F
:1031D0000031C4F838312B4684F8225160ADC4F870
:1031E000DC90C4F8F880059209AA2048049207AA46
:1031F00003920AAA02920BAA019206AA009260AA5E
:10320000A4F8CC10C4F84C1146A9C4F8E01046F25A
:103210004121ADF818114DA9C4F8FC1054A9C4F807
:10322000181146F24221ADF850115BA9C4F83411CF
:103230002146FFF7EFFD384615F085FC0D4A0E4993
:103240000A4815F06DFC1C3D2B4653F8080B9842BC
:1032500003D0A968013115F068FCA542F3D120E73D
:10326000064815F05FFD00BFFC03002400040024A5
:1032700007690FC70000002475280008D0B30108B3
:1032800030B50023044683B00D4603600846C4E908
:103290000133FFF7FBFE0190D4E90113994200F0DE
:1032A000F58041F8040B61602B7E032B1BD8DFE80F
:1032B00003F0B1029D85D4E90003A16802688B4246
:1032C00002F10302019200F0AF8043F8042B636027
:1032D0000268994202F10702019200F0828043F8ED
:1032E000042B63602B7E6A7E03F0FD03013A032A00
:1032F0001BD8DFE802F05342021D2268002B00F0C9
:10330000A5801068D4E901310A308B42019000F0A9
:10331000A58043F8040B63601268994202F10E0223
:10332000019244D043F8042B6360204603B030BDC3
:103330002068002B00F09A800268D4E901310A323B
:103340008B42019200F09A8043F8042B636002687C
:10335000994202F10E02019200F0AD8043F8042B75
:10336000636002688B4202F112020192DAD101AA73
:1033700019462046FFF70EF9D7E7002B5CD1A2686B
:10338000D4E900311B68914203F10B0301930ED085
:10339000204641F8043B616003B030BDD4E9003100
:1033A000A2681B68914203F109030193F0D1204602
:1033B00001AAFFF7EFF8204603B030BDD4E90003BF
:1033C000A16802688B4202F1030201926BD043F8BC
:1033D000042B63600268994202F1060201927FF4B5
:1033E0007EAF01AA2046FFF7D5F87BE7D4E90003BA
:1033F000A16802688B4202F1040201924BD043F8AB
:10340000042B63600268994202F1080201927FF482
:1034100066AFE6E7D4E90003A16802688B4202F1D7
:10342000040201927FF451AF204601AAFFF7B2F8DF
:10343000A168D4E900034BE7D4E90031A2681B6816
:10344000914203F10A030193A2D1B0E71068D4E9D5
:1034500001310B308B4201907FF45BAF01AA204613
:10346000FFF798F8A168D4E9002355E70268D4E98A
:1034700001310B328B4201927FF466AF204601AAE4
:10348000FFF788F8A168D4E9000360E701AA2046A5
:10349000FFF780F808E7204601AAFFF77BF8A1684C
:1034A000D4E90003AEE7204601AAFFF773F8A1684C
:1034B000D4E900038EE7204601AAFFF76BF8A16864
:1034C000D4E900034DE700BF2DE9F043D0E92175B1
:1034D00097B00446EF420BAE099602D0002F00F0E1
:1034E00088810F2D0F9500F22381012D40F0F4808B
:1034F0003A7833468DF82C2000210A95595594F8D6
:10350000083223B194F82032802B00F03F8194F8E8
:103510002C3223B194F84432802B00F0408194F88F
:10352000503223B194F86832802B00F0428194F835
:10353000743223B194F88C32802B00F0108194F80F
:10354000983223B194F8B032802B00F00C8194F8BB
:10355000BC3223B194F8D432802B00F0088194F867
:10356000E032002B00F0BD8094F8F832802B40F060
:10357000B88009AF0222A84B009200210A9A38466F
:1035800015F024FD0A9AD4F888309A4200F0F380AE
:10359000394604F1840015F0B7FCB4F8A030A4F863
:1035A0009C3072B6D4E921950DF1440819EB050F52
:1035B000CDF83C8003D0B9F1000F00F01A810F2D37
:1035C000069500F2FE80012D40F0F78099F800305A
:1035D00042460FAF8DF844300023109503A83946BA
:1035E0005355B4F89C30ADF85430FFF749FE0F98AE
:1035F000404503D01199013115F097FA002304F5E5
:10360000D768DDE90310CDE90633451A089300F0C9
:10361000CD80824B9D4200F2F780284615F0CAFA11
:103620000346DDE90310A0EB01091D44884208951B
:10363000CDE9063304D018464A4616F0C9FA0346C7
:103640004B44404606A90793FEF714FC069818B1B0
:103650000899091A15F069FA002304F5F264DDE906
:103660000310CDE90F33451A119300F09C806B4B8A
:103670009D4200F2C980284615F09CFA0346DDE918
:103680000310A0EB01081D4488421195CDE90F33CA
:1036900004D01846424616F09BFA0346434420469F
:1036A00039461093FEF7E0FF0F9818B11199091AE7
:1036B00015F03BFA62B6039818B10599091A15F08E
:1036C00034FA099DB54204D00B992846013115F012
:1036D0002CFA17B0BDE8F083002D40F09A803346F5
:1036E0000AE794F804331BB194F81C33802B78D08C
:1036F00094F828335BBB94F84C331BB194F86433D3
:10370000802B79D094F870331BB194F88833802BD8
:1037100076D094F894331BB194F8AC33802B64D0FA
:103720000998B042D5D00B99013115F0FEF9D0E7D8
:1037300000220FA909A815F08DFB0F9B09900B9390
:103740002A46394616F036FA0F9D099BD4E694F8BE
:103750004033802BCFD109AF0222314B0CE709AFA8
:103760000222304B08E709AF01222F4B04E709AFD3
:1037700001222E4B00E7099D002AA3D0D4F8841023
:10378000284616F007FA00289CD001E709AF01236C
:103790000A9A00933846264B15F018FCF2E609AF5A
:1037A0000222244BE8E6A8462B466CE7A9462B46A6
:1037B0003BE709AF0122204BDEE63DBB42460FAF9F
:1037C0000AE70FAF002206A9384615F043FB069B17
:1037D0000F9011932A46494616F0ECF9069D0F9A70
:1037E000FAE609AF0122154BC6E609AF0122144BD8
:1037F000C2E6144815F090FA09AF0122124BBBE65D
:1038000009AF0222114BB7E615F083FA40460FAF1D
:10381000E0E7304694E700BFF8B30108FCFFFF7F04
:1038200000B40108ECB30108F0B30108F4B30108D7
:10383000E0B30108E4B30108E8B30108FCB30108F0
:103840000CB40108A4B3010804B4010808B40108C9
:1038500090F878312DE9F04104468EB0002B00F04D
:10386000B58090F89021802A40F0B080002390F835
:103870009C2180F8A030002A40F0D38094F8C03119
:103880001BB194F8D8317F2B09D094F8E431002B88
:1038900000F0998094F8FC317F2B40F0948094F8EC
:1038A000A03094F89C209A4200F08D8084F89C30DF
:1038B00072B6D4E9218609AF18EB060F079703D03B
:1038C000B8F1000F00F0DA800F2E049600F2C480E9
:1038D000012E40F0B78098F800203B4607AD8DF8E8
:1038E00024200022089601A829469A55B4F89C3055
:1038F000ADF83430FFF7C4FC0798B84203D00999FB
:10390000013115F012F902980023019904F5D767E7
:103910000693461ACDE9043300F09B805A4B9E4231
:1039200000F2AA80304615F045F90346DDE90110A2
:10393000A0EB01081E4488420696CDE9043304D06A
:103940001846424616F044F903464344384604A953
:103950000593FEF78FFA049818B10699091A15F025
:10396000E4F8002304F5F264DDE90110CDE9073342
:10397000461A09936AD0444B9E427DD8304615F0D2
:1039800019F9019903460298471A1E448142099683
:10399000CDE9073304D018463A4616F019F9034624
:1039A0003B44204629460893FEF75EFE079818B16F
:1039B0000999091A15F0B9F862B6019818B1039976
:1039C000091A15F0B2F80EB0BDE8F08194F89C2108
:1039D0007AB194F8B41180290BD1012284F8A02087
:1039E000002B3FF44BAF94F890317F2B3FF457AF4F
:1039F00044E794F8C011D1B994F8E41131B194F8C6
:103A0000FC11802902D1032184F8A010002B3FF47F
:103A100032AF94F890317F2B3FF441AF002A3FF44E
:103A20002DAF94F8B4117F293FF439AF26E794F80D
:103A3000D8118029E0D1022184F8A010002B3FF496
:103A40001AAFE6E7EEB93B4607AD4AE737463346DD
:103A50009BE7B04633466DE707AD002204A9284630
:103A600015F0F8F9049B079009933246414616F089
:103A7000A1F8049E079B34E715F04BF9034815F0B5
:103A80004BF9384607ADF0E7FCFFFF7FA4B3010810
:103A900090F8C4302DE9F04104468EB0002B00F0C0
:103AA000B78090F8DC20802A40F0B280002390F8A4
:103AB000E82080F8A130002A40F0D58094F80C313D
:103AC0001BB194F824317F2B09D094F83031002BAE
:103AD00000F0DA8094F848317F2B40F0D58094F8DC
:103AE000A13094F89D209A4200F08F8084F89D3098
:103AF00072B6D4E9218609AF18EB060F079703D0F9
:103B0000B8F1000F00F0F5800F2E049600F2DF8070
:103B1000012E40F0D28098F800303A4607AD8DF87B
:103B200024300023089601A829469355B4F89C3008
:103B3000ADF83430FFF7A4FB0798B84203D00999D9
:103B4000013114F0F2FF02980023019904F5D767C0
:103B50000693461ACDE9043300F0B380684B9E42C9
:103B600000F2C580304615F025F80346DDE9011066
:103B7000A0EB01081E4481420696CDE9043304D02F
:103B80001846424616F024F803464344384604A932
:103B90000593FEF76FF9049818B10699091A14F005
:103BA000C4FF002304F5F264DDE90110CDE9073319
:103BB000461A099300F08880514B9E4200F297808C
:103BC000304614F0F7FF019903460298471A1E4445
:103BD00081420996CDE9073304D018463A4615F0DC
:103BE000F7FF03463B44204629460893FEF73CFD79
:103BF000079818B10999091A14F097FF62B601984D
:103C000018B10399091A14F090FF0EB0BDE8F081C5
:103C100094F8E8207AB194F8001180290BD10122A0
:103C200084F8A120002B3FF449AF94F8DC307F2BBF
:103C30003FF455AF42E794F80C11D1B994F8301124
:103C400061B394F84811802928D1032184F8A11088
:103C5000002B3FF430AF94F8DC307F2B3FF43FAFC4
:103C6000002A3FF42BAF94F800117F293FF437AFBF
:103C700024E794F824118029E0D1022184F8A110CE
:103C8000002B3FF418AFE6E794F85431002BBCD07A
:103C900094F86C317F2B3FF422AFB6E794F85411BF
:103CA0000029D5D094F86C118029D1D1042184F851
:103CB000A110002B3FF4FFAECDE7EEB93A4607ADB9
:103CC0002FE7B046334655E7374633467FE707AD23
:103CD000002204A9284615F0BDF8049B079009931B
:103CE0003246414615F066FF049E079A19E715F023
:103CF00010F8044815F010F8384607ADF0E700BF9B
:103D0000FCFFFF7FA4B301082DE9804800F1C00348
:103D100083B0044600F5A87B019300F50A7300F513
:103D2000BA7A00F5CC7908EE103A00F51C7300F56C
:103D3000DE7800F5F07708EE903A00F5377300F57D
:103D40006D7600F5767509EE103A00F5497309EEC7
:103D5000903A00F55B730AEE103A00F501730AEE33
:103D6000903A00F513730BEE103A00F525730BEE45
:103D7000903A00F52E730CEE103A00F540730CEEFD
:103D8000903A00F552730DEE103A00F564730DEEA3
:103D9000903A00F1E4030EEE103A00F584730EEE53
:103DA000903A00F596730FEE103A00F57F730FEE20
:103DB000903A2046FEF7F2FE18EE100A01F056FE89
:103DC00018EE900A01F052FE19EE100A01F04EFEB4
:103DD00019EE900A01F04AFE1AEE100A01F046FEB2
:103DE0001AEE900A01F042FE1BEE100A01F03EFEB0
:103DF0001BEE900A01F03AFE1CEE100A01F036FEAE
:103E00001CEE900A01F032FE1DEE100A01F02EFEAB
:103E10001DEE900A01F02AFE019801F027FE1EEE29
:103E2000100A01F023FE1EEE900A01F01FFE1FEEA5
:103E3000100A01F01BFE584601F018FE504601F032
:103E400015FE484601F012FE404601F00FFE3846CE
:103E500001F00CFE304601F009FE284601F006FE96
:103E60001FEE900A01F002FE2046FFF7F1FC20460B
:103E7000FFF70EFE2046FFF727FB2046FEF7D4FE95
:103E80002046FEF75FFE94F8BD2084F8682890E78E
:103E90002DE9F04F002106460025FF2346F80C1BB4
:103EA0000B22416000F5846781606FF0F411E7B088
:103EB00000F28C49816104469FEDE50A00F5D76860
:103EC00080F8353080F8493080F8653080F834204B
:103ED00080F8482080F86420C5600562C5620564EA
:103EE00045650567C567C0F8885080F88C50C0F8F4
:103EF000A85080F8AC5080F8BE50C0E9041100F121
:103F00008C01C0F8841000F1AC01C0E90E55C0E985
:103F10001355C0E91A55C0F8A41080F8C93080F8CC
:103F2000ED3080F8113180F8353180F8593180F862
:103F30007D3180F8A13180F8C82080F8EC2080F82D
:103F4000102180F8342180F8582180F87C2180F8F5
:103F5000A021C0F8D450C0F8F850C0F81C51C0F8E7
:103F60004051C0F86451C0F88851C0E93355C0E9E8
:103F70003C55C0E94555C0E94E55C0E95755C0E923
:103F80006055C0E9695580F8C53180F8E93180F89D
:103F90000D3280F8313280F8553280F8793280F86D
:103FA000C42180F8E82180F80C2280F8302280F8C3
:103FB000542280F8782280F89C22C0F8AC51C0F8D6
:103FC000D051C0F8F451C0F81852C0F83C52C0F8B3
:103FD0006052C0E97255C0E97B55C0E98455C0E91B
:103FE0008D55C0E99655C0E99F55C0F8845280F8B8
:103FF0009D3280F8C13280F8E53280F8093380F8CC
:104000002D3380F8513380F8753380F8C02280F862
:10401000E42280F8082380F82C2380F8502380F8CD
:104020007423C0F8A852C0F8CC52C0F8F052C0F8BF
:104030001453C0F83853C0F85C53C0E9A855C0E920
:10404000B155C0E9BA55C0E9C355C0E9CC55C0E97E
:10405000D555C0E9DE5580F8993380F8BD3380F836
:10406000E13380F8053480F8982380F8BC2380F889
:10407000E02380F80424C0F88053C0F8A453C0F8AB
:10408000C853C0F8EC53C0F80854C0F80C54C0F83A
:1040900010548DED030AC0E9E755C0E9F055C0E9B9
:1040A000F955384604F032FB9DED030A4846FCF70B
:1040B000FBFC9DED030A04F1800104F5F26088ED3C
:1040C000000AC4F8EC56C4F8F056C4F8F456FEF7EB
:1040D00009F942469DED030A494604F6680004F1D9
:1040E000C009FDF7E3FD5B4B30461C6000F0D6F9DC
:1040F0002946304600F0E8FA0421304600F006FA7E
:104100000321304600F0E6F926AA0DF5F47C0021E3
:104110000B25FF20A2F13C0302F8505C42F84C1C36
:1041200002F84F0C42E91211143300250B20FF2135
:10413000934243F8105C03F8140C03F8131C43E992
:104140000355F1D103F154026245E0D10F2004F18F
:10415000240A00F0A5F9ADF810000499022212A873
:1041600001F0AEFC102000F09BF9ADF814000599A9
:10417000022227A801F0A4FC112000F091F9ADF86B
:104180001800069902223CA801F09AFC122000F0C7
:1041900087F9ADF81C000799022251A801F090FCA4
:1041A000042312A950461A46CDF80CA001F098FC41
:1041B000039801F09DFE4846FEF786FB0223294640
:1041C00004F1840000930DF1340A234BD4F88820C5
:1041D00014F0FCFEA4F89C50A4F8A0505023CDF895
:1041E0002CA084F8BD30D4E921B51BEB050F03D01A
:1041F000BBF1000F00F0F5800F2D089500F2DE8076
:10420000012D40F0D5809BF800308DF834305346B6
:1042100000220C9508A80BA95A55B4F89C30ADF8AB
:104220004430FFF72DF80B98504503D00D9901311C
:1042300014F07BFC0023DDE90812CDE90B33551A9D
:104240000D9300F0B880054B9D4200F2C68007E058
:1042500000803B471C04002408B40108FCFFFF7FDA
:10426000284614F0A7FC0346DDE90812A2EB010A78
:104270001D448A420D95CDE90B3304D018465246B1
:1042800015F0A6FC0346534440460BA90C93FDF7DA
:10429000F1FD0B9818B10D99091A14F046FC012292
:1042A000FF233846114605F0E1FA2046FEF776FC7A
:1042B00004F50A7001F0DAFB04F51C7001F0D6FB7E
:1042C00004F5377001F0D2FB04F5497001F0CEFB24
:1042D00004F55B7001F0CAFB04F5017001F0C6FB48
:1042E00004F5137001F0C2FB04F5257001F0BEFB6C
:1042F00004F52E7001F0BAFB04F5407001F0B6FB36
:1043000004F5527001F0B2FB04F5647001F0AEFBED
:10431000484601F0ABFB04F1E40001F0A7FB04F513
:10432000847001F0A3FB04F5967001F09FFB04F587
:10433000A87001F09BFB04F5BA7001F097FB04F53F
:10434000CC7001F093FB04F5DE7001F08FFB04F5F7
:10435000F07001F08BFB04F56D7001F087FB04F544
:10436000767001F083FB04F57F7001F07FFB20463F
:10437000FFF76EFA2046FFF78BFB2046FFF7A4F805
:104380002046FEF751FC2046FEF7DCFB94F8BD30DA
:104390003046154984F8683800F098F8089818B144
:1043A0000A99091A14F0C1FB204667B0BDE8F08FE6
:1043B000ADB953462CE7AA462B4659E7002208A977
:1043C0000BA814F047FD089B0B900D932A46594605
:1043D00015F0F0FB089D0B9B1AE714F09AFC504671
:1043E000F4E7024814F098FCCD270008A4B30108B4
:1043F00070B5D0F874480546D0F87868B44219D042
:10440000A36A18461BB1A16BC91A14F08EFB63692D
:1044100018461BB1616AC91A14F087FB2368184655
:104420001BB12169C91A14F080FB4C34A642E7D1B4
:10443000D5F874682EB1D5F87C183046891B14F075
:1044400074FBD5F8940720B1D5F89C17091A14F01D
:104450006CFBD5F8EC0620B1D5F8F416091A14F067
:1044600064FB05F5846003F02DFED5F8A40005F18A
:10447000AC03984204D0D5F8AC10013114F055FBD0
:10448000D5F8840005F18C03984204D0D5F88C103F
:10449000013114F04AFB284670BD00BF704700BFD1
:1044A000202882B009D8084B03EB400213F81030E3
:1044B000507843EA002002B0704701230C2043EA01
:1044C000002002B0704700BF70B40108143001F042
:1044D00079BA00BF38B500F1140504462DED028B02
:1044E000284601F01BFA284601F014FA2846B0EEDF
:1044F000408A01F0FDF9D0ED007AF8EE677A88EE97
:10450000277ABDEC028B84ED1B7A38BD38B500F1FB
:10451000140504462DED028B284601F0EDF92846DE
:1045200001F0F8F92846B0EE408A01F0E1F9D0ED4B
:10453000007AF8EE677A88EE277ABDEC028B84ED7C
:104540001B7A38BD283002F0D3B800BF10B540F256
:1045500003338EB000244FF60B7240F20341ADF8E6
:10456000083009A80123ADF81020ADF82420224618
:10457000ADF80C100094029907940C94CDE9054411
:10458000CDE90A4401F0C2FF04A8012322460399A1
:10459000009401F0BBFF09A802F09EF810B90120B9
:1045A0000EB010BD04A802F097F8A0420CBF022084
:1045B00020460EB010BD00BF2DE9F04103239AB094
:1045C0004FF0010800254FF60B740746CDE914386B
:1045D000394BADF84C40CDE91053A3F19F63A3F5DF
:1045E0007D43CDE916581293FFF7B0FF40450646CC
:1045F00023D0022842D040F60132304B07F1580058
:104600000BACADF82C200B991895CDF86480CDF843
:104610004A3000F0DBF810A907F1700002F0F4FF57
:10462000274B0FCB84E80F003A6F214607F11400A7
:1046300001F026F91AB0BDE8F08110231F4A06A93F
:1046400006908DF828300BAC1E4BCDF84A2007930E
:104650000295CDE91805CDE9080502A802F0CCF9CC
:104660000823029A03A92046ADF80C608DF80E507D
:10467000049605930B9500F0E9F8CCE740F601337A
:10468000ADF82C4000200BACADF8183001210B4BDD
:1046900042460095CDF84A302B460E95CDE91801DB
:1046A00006992046CDE90C5501F030FF29462046F9
:1046B00002F01EF8AFE700BF04020404040604037E
:1046C000D0B201080704010B2DE9F04704462DED97
:1046D000028B82B0002949D0012140F2011200234F
:1046E0000091ADF804208DF80630354A0127354B8E
:1046F00004F10409344904F13C08626040F202729A
:10470000A36040F60663E16004F1280A2285A387CE
:104710002782E762276403F051FB054603F0A6F900
:104720006946064650BB4DB304F150008DF8067043
:1047300003F0C6FA072D3ED104F114052046FFF719
:104740003BFF284601F0E6F82846B0EE408A01F02B
:10475000CFF8D0ED007AF8EE677A88EE277A84ED0C
:104760001B7A02B0BDEC028BBDE8F08740F201136A
:1047700000918DF80610ADF80430B6E704F1500052
:1047800003F09EFA072D13D04946204602F0B0FBF5
:104790000EB9002DD0D15146504601F0F3FC4046F1
:1047A000414601F0EFFC04F1120000F079F9C3E793
:1047B000002EF0D1C0E74946204602F099FBBBE746
:1047C0000508050905070506050A060630B585B082
:1047D000002504460122ADF80C102B4603990095E4
:1047E00001F094FE0121204601F082FF012003F038
:1047F0003BF92946204601F07BFF012003F034F904
:104800000121204605B0BDE8304001F071BF00BF76
:1048100010B5C2F3002384B00C46017C8DF80D2046
:1048200043EA4402FA2402238DF80C2003AA0094E0
:1048300002F07AF918B10124204604B010BD0446F4
:104840000A2003F011F9204604B010BD034670B5EC
:1048500043F8042B044684B007C983E80700A37912
:1048600083B91A210B461E22FA2523742046ADF87F
:104870000C20022303AA009502F056F928B101206A
:1048800004B070BD1B210B46EDE70A2003F0ECF8E5
:104890004FF4B85200950223ADF80C20204603AA2D
:1048A000217C02F041F90028E9D10A2003F0DCF86C
:1048B00041F2027200950223ADF80C20204603AAB3
:1048C000217C02F031F90028D9D10A2003F0CCF87C
:1048D000042200950223ADF80C20204603AA217C77
:1048E00002F022F90028CAD10A2003F0BDF80622FE
:1048F00000950223ADF80C20204603AA217C02F08B
:1049000013F90028BBD10A2003F0AEF841F20822C7
:1049100000950223ADF80C20204603AA217C02F06A
:1049200003F90028ABD10A20064603F09DF8009554
:10493000022303AA217C2046ADF80C6002F0F4F8B3
:1049400000289CD1304603F08FF8009522790C2383
:104950002046002A8DF80C3003AA4FF0020314BF42
:10496000622142218DF80D10217C02F0DDF8002833
:1049700085D1304603F078F82279D4E902310B432F
:10498000DBB20AB943F0400362790AB143F0200375
:104990000E22FA258DF80D302046009502238DF861
:1049A0000C2003AA217C02F0BFF800287FF467AF37
:1049B0000A2003F059F8102200950223ADF80C20CC
:1049C000204603AA217C02F0AFF800287FF457AFFD
:1049D0000A2003F049F8122100950223ADF80C10CB
:1049E00003AA217C204602F09FF800287FF447AFFD
:1049F0000A2003F039F8012209212046FFF708FFB9
:104A0000003818BF01203BE7F0B5102387B0234CD6
:104A1000012200250126002702A920460195CDE9A3
:104A200002234FF48052CDE904670DF047FC642067
:104A300005F038FB02A94FF480522046CDE9046707
:104A400002261027CDE902670DF038FC032210235F
:104A500002A92046CDE9022300230422CDE9042344
:104A60004FF480520DF02AFC40F23223042202A9B6
:104A7000019310232046CDE90223019A01230592D8
:104A80004FF4805204930DF019FC40F606012046C5
:104A90000DF034FC284607B0F0BD00BF2804002408
:104AA0001C4B00221C494FF0400C30B5054689B024
:104AB0000220596007219A601A620124DA620A22F0
:104AC0004FF4006EDC6006922022CDE90001042044
:104AD0000821CDE9020103201021CDE904010820BD
:104AE0006946C3E904024FF4C072181DC3E906C247
:104AF0004FF48052C3E909E20DF0B6FB38B92846FD
:104B0000FFF782FF003818BF012009B030BD2046F2
:104B100009B030BD2404002440410052614A002104
:104B2000D0B513688EB00A91002B40F0B9805E4B6F
:104B300001214FF683700C2411600221D3F8D42098
:104B40000026032742F48052C3F8D420D3F8D4209F
:104B500002F480520092009AD3F8E02042F0100252
:104B6000C3F8E020D3F8E02002F010020192019A8D
:104B7000D3F8E02042F04002C3F8E020D3F8E02070
:104B800002F040020292029AD3F8E02042F00802BA
:104B9000C3F8E020D3F8E02002F008020392039A61
:104BA000D3F8E02042F48072C3F8E020D3F8E0208C
:104BB00002F480720492049AD3F8E02042F080025A
:104BC000C3F8E020D3F8E02002F080020592059AB5
:104BD000D3F8E02042F02002C3F8E020D3F8E02030
:104BE00002F020020692069AD3F8E02042F0040276
:104BF000C3F8E020D3F8E0300C9403F004030793EB
:104C00000323079A0B93CDE9080108A9274807F069
:104C1000DDFB48F23712022308A925480C94CDE9A0
:104C20000823CDE90A6707F0D1FB4CF20372022397
:104C300008A920480C94CDE90823CDE90A6707F0BC
:104C4000C5FB40F2FF62022308A91B480C94CDE982
:104C50000823CDE90A6707F0B9FB4FF60C7202236F
:104C600008A916480C94CDE90823CDE90A6707F096
:104C7000ADFB4FF63F02022308A911480C94CDE981
:104C80000823CDE90A6707F0A1FB2022022308A927
:104C90000A480C94CDE90A67CDE9082307F096FB92
:104CA0000EB0D0BD20040024004402580010025869
:104CB00000180258000C025800200258001C02582C
:104CC000001402582DE9F04FDFF8108406460D4617
:104CD000144608F118002DED028B89B000AF02F0E8
:104CE0008BFDD8F8183073B3D8F81C30D8F804907E
:104CF000002B43690BBF4FF0080A4FF0100A4FF02A
:104D0000020B4FF0040BB9F1000F2AD0A200EA46C3
:104D1000012B02F1070222F00702ADEB020D6846FB
:104D2000ADEB020D694600F03F81022B00F0D6800A
:104D3000002B6FD02246C847D5462437BD46BDEC70
:104D4000028BBDE8F08FD8F81C30002BF5D0D8F8D6
:104D500004904FF0080A4FF0020B4369B9F1000FBD
:104D6000D4D1FB61D8F80030BB61002BE5D0D54829
:104D700002F0B4FD6B46BBF1020F786108EE103A09
:104D8000FB6900F083816A465146A2EBC402954656
:104D90006200EA46B2FBFBF2AAEBC40085460AEBCE
:104DA0008200EE46F861ADEB010DF8690EEB820C66
:104DB000C7F810C0EC46ADEB010D00EB8201CCF85A
:104DC0000400CCF8081001EB82013869E946CCF800
:104DD0000C1000EB8201CCF800A001EB8202C9E9C3
:104DE00000E0C9E90212012B00F06483022B00F0FD
:104DF0006C82002B00F08081620849466046BB69E6
:104E0000984718EE103A24379D46BD46BDEC028BFC
:104E1000BDE8F08F002C8DD01A46D8ED0C6A9FEDBE
:104E2000B27A8446331D36F922E00CF1080C07EE05
:104E300090EA33F922E00232F8EEE77A944267EE24
:104E4000877A67EEA67A4CED027A07EE90EAF8EEE2
:104E5000E77A67EE877A67EEA67A4CED017AE2D8B8
:104E6000F9612246C847984ED8ED0D6A0020F969CD
:104E70002B1D9FED9E7A9FED9E6ADFED9E5A22E0EC
:104E8000F4EEC67AF1EE10FAC0F2C88447F6FE726C
:104E9000D1ED017A45F8202066EEA77AF4EEC77AC4
:104EA000F1EE10FA40F2F080F4EEC67AF1EE10FA6C
:104EB000C0F2D58447F6FE7243F820200230083154
:104EC00084427FF639AFD1ED007A66EEA77AF4EE30
:104ED000C77AF1EE10FAD3D83246D9E7002C3FF466
:104EE00029AFD8ED0C6A84469FED787A0022331DF5
:104EF0008E4656F822100CF1080C07EE901A53F863
:104F000022100232F8EEE77A944267EE877A67EE73
:104F1000A67A4CED027A07EE901AF8EEE77A67EE81
:104F2000877A67EEA67A4CED017AE2D8714622467E
:104F3000C7F81CE0C847664ED8ED0D6A0020F96935
:104F40002B1D9FED6A7A9FED6A6ADFF894C120E01D
:104F5000F4EEC67AF1EE10FAC0F279843246D1ED61
:104F6000017A45F8202066EEA77AF4EEC77AF1EED2
:104F700010FA40F28780F4EEC67AF1EE10FAC0F231
:104F80005E84324643F820200230083184427FF6A6
:104F9000D3AED1ED007A66EEA77AF4EEC77AF1EEE1
:104FA00010FAD5D86246DAE7002C3FF4C3AED8ED4C
:104FB0000C6A86469FED477A4FF0000C331D56F879
:104FC0002C200EF1080E82F40002A2F5000207EE7A
:104FD000902A53F82C200CF1020CF8EEE77A82F4B8
:104FE00000026445A2F5000267EE877A67EEA67AB2
:104FF0004EED027A07EE902AF8EEE77A67EE877AAE
:1050000067EEA67A4EED017AD9D8F9612246C847F3
:10501000314ED8ED0D6A0020F9692B1D9FED337AD2
:105020009FED336ADFF8BCC01FE0F4EEC67AF1EE04
:1050300010FAC0F2FC833246D1ED017A45F8202007
:1050400066EEA77AF4EEC77AF1EE10FA18D9F4EE0C
:10505000C67AF1EE10FAC0F2DA83324643F8202025
:105060000230083184427FF667AED1ED007A66EEF9
:10507000A77AF4EEC77AF1EE10FAD6D86246DBE7EB
:105080006246EBE762467DE7324615E7A100D64669
:105090006208073121F00701ADEB010DEA46ADEBE7
:1050A000010D6946ADEB0E0D0AEB8200EC46ADEB4F
:1050B0000E0D01EB8202F861E946CCE900A0C9E9D6
:1050C000001290E6780400240280FFFF0000003008
:1050D0000082FF7F0000003482FF7F005C04002418
:1050E000007E00807E0080FF0000003804FF7FBF4C
:1050F00004FF7F3F00FEFF46002C00F0C982BBF199
:10510000020FD8F8242000F0FA827969C7F80490D9
:1051100002EB810E5FED0C5A8A00DCF808100EF1EC
:1051200004007A611A46DCF80C303B61331DD7F875
:1051300010903D61FD69C7E902CB8C46834636F984
:105140002210D8ED0C7A06EE101A33F9221006EE72
:10515000901A3EF92210B8EEC66A07EE101AF8EE61
:10516000E66A3BF92210B8EEC77A26EE256A66EEAB
:10517000A56A27EE257A26EE276A66EEA76A27EE4D
:10518000277A07EE901A51080232F8EEE77A0AEB16
:105190008100944280ED006A05EB810067EEA57AFC
:1051A000C0ED006A0CEB810009EB810180ED007A13
:1051B00098ED0C7A67EE877AC1ED007ABFD8D7F800
:1051C00004903D69D7E902CB60466208BB69494655
:1051D0009847D8F82C307A69D8ED0D6A1A441FED3B
:1051E0003D7A1FED3D6A2B1D904602F1040A5FEDEA
:1051F0003F5A0022A84ED9E900EC51E0F4EEC67AFD
:10520000F1EE10FAC0F2C78247F6FE7045F82200B0
:105210000CEB0100D0ED007A66EEA77AF4EEC77AC7
:10522000F1EE10FA4BD9F4EEC67AF1EE10FAC0F2B4
:10523000BA8247F6FE70BBF1020F43F822002BD072
:10524000D9F808000844D0ED007A66EEA77AF4EEAB
:10525000C77AF1EE10FA36D9F4EEC67AF1EE10FA0A
:10526000C0F2CD8247F6FE7048F82200D9F80C0053
:105270000144D1ED007A66EEA77AF4EEC77AF1EE3A
:1052800010FA1ED9F4EEC67AF1EE10FAC0F2AF822F
:1052900047F6FE714AF82210023294427FF6B1AD11
:1052A00051080EEB81008900D0ED007A66EEA77AF6
:1052B000F4EEC77AF1EE10FAA0D83046A6E73046F1
:1052C000B9E73146E6E73046CEE7002C00F0E08152
:1052D000BBF1020FD8F8243000F0E1817A69DCF8E4
:1052E000081003EB820EC7F804909300DFED6B5AB1
:1052F0000EF1040000227B61DCF80C303B61331DB1
:10530000D7F810903D61FD69C7E902CB8C46834612
:1053100056F82210D8ED0C7A07EE101A53F8221026
:10532000B8EEC76A07EE101A5EF82210F8EEC76AE8
:1053300007EE101A26EE256A5BF82210B8EEC77A3F
:1053400066EEA56A26EE276A27EE257A66EEA76A3C
:1053500027EE277A07EE901A51080232F8EEE77A24
:105360000AEB8100944280ED006A05EB810067EE54
:10537000A57AC0ED006A0CEB810009EB810180ED9C
:10538000007A98ED0C7A67EE877AC1ED007ABFD883
:10539000D7F804903D69D7E902CB60466208BB6943
:1053A00049469847D8F82C307A69D8ED0D6A1A44E6
:1053B0009FED3E7A9FED3E6A131D9246DFF8E4C0F2
:1053C0000022FB612B1D364ED9E9008E4EE0F4EE33
:1053D000C67AF1EE10FAC0F2FC81304645F82200A0
:1053E0000EEB0100D0ED007A66EEA77AF4EEC77AF4
:1053F000F1EE10FA49D9F4EEC67AF1EE10FAC0F2E5
:10540000EF813046BBF1020F43F822002AD0D9F8D1
:1054100008000844D0ED007A66EEA77AF4EEC77A69
:10542000F1EE10FA35D9F4EEC67AF1EE10FAC0F2C8
:10543000C98130464AF82200D9F80C000144D1ED68
:10544000007A66EEA77AF4EEC77AF1EE10FA1ED96A
:10545000F4EEC67AF1EE10FAC0F2AD813146F86989
:1054600040F82210023294427FF6CBAC510808EB90
:1054700081008900D0ED007A66EEA77AF4EEC77A53
:10548000F1EE10FAA3D86046A8E76046BAE7614695
:10549000E5E76046CEE700BF0280FFFF0000003076
:1054A0000082FF7F007E00800000003404FF7FBF89
:1054B00004FF7F3F002C00F0EB807A690021D8F8D0
:1054C0002430C7F8109003EB820ED7F81C9093009D
:1054D000FD610EF104021FED0C6A7B61331D154660
:1054E00056F821204808D8ED0C6ABBF1020F82F46F
:1054F0000002A2F5000207EE902A53F8212082F460
:105500000002B8EEE77AA2F5000227EE067A07EE6F
:10551000902A0AEB8002F8EEE77A27EE267A67EE09
:10552000867A82ED007A09EB80024FEA800067EE0E
:10553000A67AC2ED007A27D05EF8212082F400021C
:10554000A2F5000207EE902A55F8212082F400020D
:10555000B8EEE77AA2F5000227EE067A07EE902A67
:10556000DCF80820F8EEE77A024427EE267A67EEA8
:10557000867A82ED007A98ED0C7ADCF80C2067EEE2
:10558000877A0244C2ED007A02318C42A8D8D7F85B
:10559000109060466208BB694946FD699847D8F893
:1055A0002C307A69D8ED0D6A1A441FED407A1FED50
:1055B000406A131D9246DFF8C4C20022FB612B1D16
:1055C000AB4ED9E9008E4EE0F4EEC67AF1EE10FA59
:1055D000C0F2C580304645F822000EEB0100D0ED48
:1055E000007A66EEA77AF4EEC77AF1EE10FA49D99E
:1055F000F4EEC67AF1EE10FAC0F2BF803046BBF18D
:10560000020F43F822002AD0D9F808000844D0ED50
:10561000007A66EEA77AF4EEC77AF1EE10FA35D981
:10562000F4EEC67AF1EE10FAC0F2AE8030464AF8D7
:105630002200D9F80C000144D1ED007A66EEA77A79
:10564000F4EEC77AF1EE10FA1ED9F4EEC67AF1EE56
:1056500010FAC0F28B803146F86940F8221002320D
:1056600094427FF6CEAB510808EB81008900D0ED63
:10567000007A66EEA77AF4EEC77AF1EE10FAA3D8B4
:105680006046A8E76046BAE76146E5E76046CEE7D0
:10569000224649466046BB699847FFF7B2BBC7F848
:1056A00010B0002298ED0C6A331DDFED726AD7F856
:1056B0001CB0786956F8221007EE901A53F82210A1
:1056C000B8EEE77A07EE901A51080232F8EEE77A60
:1056D00027EE267A0AEB810E94420BEB810167EEEE
:1056E000A67A27EE067A67EE867A8EED007AC1ED0D
:1056F000007ADFD88300D7F810B07B614DE61A46F8
:10570000C7F810B098ED0C6A331DDFED5B6AD7F86F
:105710001CB0786936F9221007EE101A33F92210FE
:1057200007EE901AB8EEC77A51080232F8EEE77A1F
:1057300027EE267A0AEB810E94420BEB810167EE8D
:10574000A67A27EE067A67EE867A8EED007AC1EDAC
:10575000007ADFD88300D7F810B07B6134E5F0EE33
:10576000675AFEEEE45A15EE900A34E7F0EE675AF7
:10577000FEEEE45A15EE901A6EE7F0EE675AFEEE72
:10578000E45A15EE900A3AE7F0EE675AFEEEE45A54
:1057900015EE900A4BE767EEA57AFDEEE77A17EE75
:1057A000900A00B232E567EEA57AFDEEE77A17EED1
:1057B000900A00B23FE5F0EE675AFEEEE05A15EEB1
:1057C000901A4CE6F0EE675AFEEEE05A15EE900A9B
:1057D00030E6F0EE675AFEEEE05A15EE900AFDE56F
:1057E000F0EE675AFEEEE05A15EE900A0AE667EE12
:1057F000A57AFDEEE77A17EE901A09B24AE567EE50
:10580000A57AFDEEE77A17EE900A00B22CE5F0EEED
:10581000675AFEEEE45A15EE902A1FE467EEA57A69
:10582000FDEEE77A17EE902A12B2FFF731BBF0EEE9
:10583000675AFEEEE45A15EE902AFFF7FDBBF0EE34
:10584000675AFEEEE05A15EE902AFFF79BBBF0EE8A
:10585000675AFEEEE05A15EE902AFFF780BB67EE1E
:10586000A57AFDEEE77A17EE902A12B2FFF724BB75
:1058700082FF7F0000000030000000387E0080FFC3
:1058800030B5184C154685B0046004F1080EEC469E
:105890000FC98EE80F00D4ED047AF5EEC07A8CE8DB
:1058A0000F00F1EE10FA1ADDB7EE006A94ED057AFA
:1058B00027EE277AC6EE276A84ED0D7AC4ED0C6ACE
:1058C0006DB1204640F8185F01F096FF0649036964
:1058D0000020064A2162A262E36005B030BD0120CB
:1058E00005B030BD5C040024002000300000003012
:1058F00000680830704700BFB1F5807F03680A4632
:1059000028BF4FF48072B1F5807F9A6094BF002069
:10591000012070470068183001F0CEBF70B50468F0
:105920008AB0A369E1600BB304F118056FF0F413BA
:105930004FF60B722846ADF80C20CDE9013301F08B
:105940005BFF8446EE46E668BCE80F00AEE80F0059
:10595000BCE80F00AEE80F009CE803008EE80300EF
:1059600069462846049601F04FFE38BBE06918B33B
:1059700004F11C056FF0F4134FF60B722846ADF8D6
:105980000C20CDE9013301F037FF8446EE46E46890
:10599000BCE80F00AEE80F00BCE80F00AEE80F0057
:1059A0009CE803008EE8030069462846049401F051
:1059B0002BFE003818BF01200AB070BD01200AB0CC
:1059C00070BD00BF30B5046883B00D46E3694BB1CC
:1059D000A3680020E26A616A9B00009004F11C0049
:1059E00001F00CFFA3680748A26A9B00216A00909F
:1059F00004F1180001F002FF0020C4E9005003B0D8
:105A000030BD00BFC54C000810B4074B4FF07E51AD
:105A100030240022032019619C60D8605DF8044B9B
:105A20005961C3E9062270475C040024B0B51D46E5
:105A300082B004461746A5F10105069BADF8041097
:105A4000B5FA85F5009302F00DF8002201996D0971
:105A5000206004F10800009B67712271227765774E
:105A6000069202B0BDE8B04000F050BD10B504464B
:105A700001F0F8FF002122682171824200D110BD9F
:105A80000346012204F108002360227100F024FE85
:105A9000227F617F53005BB281B180F0010252B27C
:105AA0001343DBB27F2B2377E9D101F0DBFF07EE55
:105AB000900AF8EE677AC4ED087A10BD42B2EFE7BB
:105AC00010B4002383B00324018080F8503080F8A4
:105AD0005120C0E9014303B05DF8044B704700BF9B
