:020000040800F2
:1000000000000220410A0008350A0008CD680008F7
:10001000350A0008350A0008350A0008000000000B
:10002000000000000000000000000000350A000889
:10003000350A000800000000350A00085168000871
:10004000350A0008350A0008350A0008350A000894
:10005000350A0008350A0008350A0008350A000884
:10006000350A0008350A0008350A00083964000816
:1000700045640008350A0008516400085D64000802
:100080003D3F0108E9580008350A0008350A000814
:10009000350A0008350A0008350A0008350A000844
:1000A000350A0008350A0008350A0008350A000834
:1000B000BD300108C9300108D53001081D590008BC
:1000C000350A000829590008350A000805290108E1
:1000D00011290108713D01089D3D0108D13D01082C
:1000E000350A0008350A000800000000350A00083B
:1000F000350A0008350A0008350A0008350A0008E4
:10010000350A0008350A0008E13001081D290108F8
:10011000053E0108393E0108350A0008350A000885
:10012000350A0008350A0008412901087529010827
:10013000713F0108350A0008350A0008350A000831
:1001400000000000000000000000000000000000AF
:10015000350A0008350A0008350A00086D3E010816
:1001600035590008350A00086168000885680008EC
:10017000350A0008A9680008350A0008350A000891
:10018000350A0008350A0008A13E0108D53E0108DD
:100190002929010835290108350A0008350A00080F
:1001A000350A0008350A0008350A0008350A000833
:1001B00039610008350A0008350A0008350A0008C8
:1001C000350A0008350A0008350A0008350A000813
:1001D000350A0008350A0008350A0008350A000803
:1001E000350A0008350A0008350A0008350A0008F3
:1001F000350A0008350A0008350A0008350A0008E3
:10020000350A0008350A0008350A0008350A0008D2
:10021000350A0008350A0008350A0008350A0008C2
:10022000350A0008350A0008350A000800000000F9
:10023000350A0008350A000800000000350A0008E9
:10024000350A0008350A0008350A0008350A000892
:10025000350A0008350A0008350A0008350A000882
:10026000350A0008350A0008350A0008350A000872
:10027000350A0008350A0008093F0108000000009F
:10028000350A0008350A0008350A00080000000099
:0802900000000000350A00081F
:1002A00010B5054C237833B9044B13B10448AFF3B0
:1002B00000800123237010BDE00300240000000033
:1002C000D8AC010808B5034B1BB103490348AFF391
:1002D000008008BD00000000E4030024D8AC010841
:1002E00001F0FF01102A2BDB10F0070F08D010F8E7
:1002F000013B013A8B422DD010F0070F42B3F6D1EB
:10030000F0B441EA012141EA014122F007047FF003
:1003100000070023F0E80256083C85EA010586EA5A
:10032000010685FA47F5A3FA87F586FA47F6A5FA96
:1003300087F68EB9EED1F0BC01F0FF0102F00702A2
:1003400032B110F8013B013A83EA010313B1F8D14D
:100350000020704701387047002D06BF354603382E
:10036000073815F0010F07D1013015F4807F02BF67
:10037000013015F4C03F0130F0BC0138704700BFB8
:10038000034613F8012B002AFBD1181A01387047D5
:1003900081F0004102E000BF83F0004330B54FEA36
:1003A00041044FEA430594EA050F08BF90EA020FA3
:1003B0001FBF54EA000C55EA020C7FEA645C7FEA36
:1003C000655C00F0E2804FEA5454D4EB5555B8BF59
:1003D0006D420CDD2C4480EA020281EA030382EACA
:1003E000000083EA010180EA020281EA0303362D5C
:1003F00088BF30BD11F0004F4FEA01314FF4801C2F
:100400004CEA113102D0404261EB410113F0004F40
:100410004FEA03334CEA133302D0524263EB4303F7
:1004200094EA050F00F0A780A4F10104D5F1200E95
:100430000DDB02FA0EFC22FA05F2801841F10001F0
:1004400003FA0EF2801843FA05F359410EE0A5F1C4
:1004500020050EF1200E012A03FA0EFC28BF4CF0F5
:10046000020C43FA05F3C01851EBE37101F00045AB
:1004700007D54FF0000EDCF1000C7EEB00006EEBB8
:100480000101B1F5801F1BD3B1F5001F0CD3490842
:100490005FEA30004FEA3C0C04F101044FEA445299
:1004A00012F5800F80F09A80BCF1004F08BF5FEA20
:1004B000500C50F1000041EB045141EA050130BD00
:1004C0005FEA4C0C404141EB0101013C28BFB1F512
:1004D000801FE9D291F0000F04BF01460020B1FA5D
:1004E00081F308BF2033A3F10B03B3F120020CDA30
:1004F0000C3208DD02F1140CC2F10C0201FA0CF00E
:1005000021FA02F10CE002F11402D8BFC2F1200C72
:1005100001FA02F120FA0CFCDCBF41EA0C01904028
:10052000E41AA2BF01EB0451294330BD6FEA040471
:100530001F3C1CDA0C340EDC04F11404C4F120025C
:1005400020FA04F001FA02F340EA030021FA04F36E
:1005500045EA030130BDC4F10C04C4F1200220FAC5
:1005600002F001FA04F340EA0300294630BD21FA03
:1005700004F0294630BD94F0000F83F4801306BFC9
:1005800081F480110134013D4EE77FEA645C18BFBD
:100590007FEA655C29D094EA050F08BF90EA020F54
:1005A00005D054EA000C04BF1946104630BD91EA4C
:1005B000030F1EBF0021002030BD5FEA545C05D14F
:1005C0004000494128BF41F0004130BD14F580048E
:1005D0003CBF01F5801130BD01F0004545F0FE4102
:1005E00041F470014FF0000030BD7FEA645C1ABF37
:1005F000194610467FEA655C1CBF0B46024650EA6E
:10060000013406BF52EA033591EA030F41F4002199
:1006100030BD00BF90F0000F04BF0021704730B51F
:100620004FF4806404F132044FF000054FF00001F4
:1006300050E700BF90F0000F04BF0021704730B5B5
:100640004FF4806404F1320410F0004548BF40428A
:100650004FF000013EE700BF42004FEAE2014FEADF
:1006600031014FEA02701FBF12F07F4393F07F4FBA
:1006700081F06051704732F07F4208BF704793F0BD
:100680007F4F04BF41F40021704730B54FF46074D0
:1006900001F0004521F000411CE700BF50EA0102D3
:1006A00008BF704730B54FF000050AE050EA01027C
:1006B00008BF704730B511F0004502D5404261EBEC
:1006C00041014FF4806404F132045FEA915C3FF42D
:1006D000D8AE4FF003025FEADC0C18BF03325FEACA
:1006E000DC0C18BF033202EBDC02C2F1200300FA7B
:1006F00003FC20FA02F001FA03FE40EA0E0021FAA0
:1007000002F11444BDE600BF53B94AB9002908BF3D
:1007100000281CBF4FF0FF314FF0FF3000F088B9C8
:10072000ADF1080C6DE904CE00F01AF8DDF804E034
:10073000DDE9022304B07047430803F05533C01AC3
:10074000830803F0333300F03330184400EB10100B
:1007500000F00F3000EB002000EB0040000E70476F
:100760002DE9F047089D04468E46002B4DD18A4264
:10077000944669D9B2FA82F252B101FA02F3C2F197
:10078000200120FA01F10CFA02FC41EA030E944028
:100790004FEA1C48210CBEFBF8F61FFA8CF708FB49
:1007A00016E341EA034306FB07F199420AD91CEB21
:1007B000030306F1FF3080F01F81994240F21C8153
:1007C000023E63445B1AA4B2B3FBF8F008FB10339B
:1007D00044EA034400FB07F7A7420AD91CEB0404D0
:1007E00000F1FF3380F00A81A74240F207816444A0
:1007F000023840EA0640E41B00261DB1D440002325
:10080000C5E900433146BDE8F0878B4209D9002D88
:1008100000F0EF800026C5E9000130463146BDE812
:10082000F087B3FA83F6002E4AD18B4202D382427C
:1008300000F2F980841A61EB030301209E46002D2B
:10084000E0D0C5E9004EDDE702B9FFDEB2FA82F280
:10085000002A40F09280A1EB0C014FEA1C471FFADE
:100860008CFE0126200CB1FBF7F307FB131140EAC5
:1008700001410EFB03F0884208D91CEB010103F192
:10088000FF3802D2884200F2CB804346091AA4B254
:10089000B1FBF7F007FB101144EA01440EFB00FE28
:1008A000A64508D91CEB040400F1FF3102D2A6458D
:1008B00000F2BB800846A4EB0E0440EA03409CE72C
:1008C000C6F12007B34022FA07FC4CEA030C20FAD9
:1008D00007F401FA06F31C43F9404FEA1C4900FAF9
:1008E00006F3B1FBF9F8200C1FFA8CFE09FB181176
:1008F00040EA014108FB0EF0884202FA06F20BD9E9
:100900001CEB010108F1FF3A80F08880884240F238
:100910008580A8F102086144091AA4B2B1FBF9F07C
:1009200009FB101144EA014100FB0EFE8E4508D977
:100930001CEB010100F1FF346CD28E456AD90238FC
:10094000614440EA0840A0FB0294A1EB0E01A142E1
:10095000C846A64656D353D05DB1B3EB080261EB4F
:100960000E0101FA07F722FA06F3F1401F43C5E929
:10097000007100263146BDE8F087C2F12003D8405F
:100980000CFA02FC21FA03F3914001434FEA1C47A1
:100990001FFA8CFEB3FBF7F007FB10360B0C43EA93
:1009A000064300FB0EF69E4204FA02F408D91CEB43
:1009B000030300F1FF382FD29E422DD90238634441
:1009C0009B1B89B2B3FBF7F607FB163341EA0341E1
:1009D00006FB0EF38B4208D91CEB010106F1FF3830
:1009E00016D28B4214D9023E6144C91A46EA004627
:1009F00038E72E46284605E70646E3E61846F8E6B9
:100A00004B45A9D2B9EB020864EB0C0E0138A3E701
:100A10004646EAE7204694E74046D1E7D0467BE7E2
:100A2000023B614432E7304609E76444023842E75A
:100A3000704700BF684620F007018D46FEE700BF03
:100A40000B480C4A904208B503D0121A0A4917F015
:100A5000A5F90A480A4A904203D0121A002117F059
:100A6000C5F906F099F917F051F900F00BF8FEE717
:100A700000000024E00300240CAD0108E003002482
:100A80000032002400B5ADF2947D01A802F0CAF94D
:100A900001A803F033F801A803F0D4F800200DF208
:100AA000947D5DF804FB00BFF0B52DED068BF7EEED
:100AB000009A5F4BB0EE408A0025C0F8A430F6EEF5
:100AC000008A89EE80AA5B4B00269FED5B9AC0F8F6
:100AD000E03083B0594B044680F8A06040F2011723
:100AE000C0F88831B0EE490AC0F8A850C0F8AC5040
:100AF00080F8DC60C0F8E450C0F8E85080F8846109
:100B0000C0F88C51C0F8905180ED278A80ED048A9E
:100B100080ED029AC0ED018AC0ED038A856180ED07
:100B200005AA16F087F9DFED467A20462670C4ED57
:100B3000027A84ED070AB0EE670AC4ED019A2785B0
:100B400016F078F904F1B000C4F8C85004F59C75AB
:100B500084ED070AB0EE490AC4ED2D8AC4ED2F8A50
:100B600084ED308A84ED31AA84ED2E9A019016F03E
:100B700061F9DFED347A019884ED330AB0EE670A4B
:100B800084F8B06004F5CA76C4ED2E7AA4F8D87063
:100B9000C4ED2D9A16F04EF9F0EE407A04F1EC0017
:100BA000DFED298AB0EE480AC4ED337A019015F0E2
:100BB00055FE01989FED250A15F0D8FEB0EE680AA3
:100BC000019815F037FFB0EE480A284615F046FEAA
:100BD00028469FED1F0A15F0C9FEB0EE680A2846A8
:100BE00004F5F07515F026FFB0EE480A304615F012
:100BF00035FE30469FED170A15F0B8FEB0EE680AD4
:100C0000304615F017FFB0EE480A284615F026FECC
:100C100028469FED110A15F0A9FE2846B0EE680A95
:100C200015F008FF204603B0BDEC068BF0BD00BFF9
:100C30009A99993E0AD7233E0000C842EC51B83D2C
:100C40000000824200004843CDCCCC3D00005C4314
:100C500000007A4500E0534500180346D0ED277A9E
:100C60004FF07E5390ED297AC0F8AC3067EE877A6A
:100C7000C0ED2A7A704700BFD0ED277A4FF07E533F
:100C800090ED387AC0F8E83067EE877AC0ED397AAF
:100C9000704700BFD0ED397AF5EEC07AF1EE10FA68
:100CA0003EDDD0ED385AB7EE006AD0ED276A90ED00
:100CB0003A7A66EEA56A77EEC67AC6EE265A10B57F
:100CC0002DED028BC0ED397A0446BFEE008A77EE37
:100CD000657AC0ED3A7A17F0C9FC07EE900A9FEDED
:100CE000127A04F1B000F8EEE77A77EEA77AA7EE71
:100CF000878A15F0E5FE04F1EC0038EE000A15F0E5
:100D0000D1FD94ED480A04F59C7015F0CBFD94EDEF
:100D10003A0AD4ED5A7ABDEC028B20EE270A10BDB8
:100D20009FED020A704700BF000000300000000085
:100D3000D0ED277A4FF07E5390ED627AC0F8903173
:100D400067EE877AC0ED637A704700BFD0ED637AB3
:100D5000F5EEC07AF1EE10FA2ADDB7EE007A10B5A2
:100D600077EEC77A0446C0ED637A17F07FFC07EE92
:100D7000900ABFEE000A9FED107AF8EEE77A04F5CC
:100D8000CA7077EEA77AA7EE870A15F08BFD94ED6F
:100D9000720A04F5F07015F085FD94ED640A94ED87
:100DA000847ADFED067A20EE070A20EE270A10BDCE
:100DB0009FED030A704700BF00000030CDCCCC3E51
:100DC00000000000D0ED2A7AF5EEC07A10B5F1EE01
:100DD00010FA04462DED028B28DDD0ED295AB7EE2E
:100DE000006AD0ED276A90ED2B7A66EEA56A77EE61
:100DF000C67AC6EE265AC0ED2A7A77EE657AC0ED3D
:100E00002B7A15F05DFE94ED2B8A60EE088A204661
:100E1000FFF740FFB0EE408A2046FFF797FF38EE1D
:100E2000288A38EE000ABDEC028B10BDDFED018A86
:100E3000EDE700BF000000002DE9F04FD0E902A56A
:100E40000468531A83B08146AAEB040E05EBCE0E5C
:100E5000734527D2002B40F3558101390022CD186C
:100E600009E020681F2A43EA000323600FD08D4267
:100E700002F1010211D0012311F8010F9340002863
:100E8000EFD120681F2A20EA03032360EFD18D42AF
:100E900004F104044FF00002EDD1C9E9024203B0AD
:100EA000BDE8F08FBEF1000F01EB0E0725DD013923
:100EB000A446002001EB0E080BE0DCF800601F28C0
:100EC00043EA0603CCF8003011D0884500F1010058
:100ED00013D0012311F8016F8340002EEDD1DCF80F
:100EE00000601F2826EA0303CCF80030EDD18845C6
:100EF0000CF1040C4FF00000EBD1BA42CFD0D9F87E
:100F00001030A2EB07081B1BCEEBC303984540F241
:100F1000B680844AA2EB0E03984500F20081C645D4
:100F2000734638BF43461EEB030380F0F5809342BF
:100F300028BF13461F335B099B000093009815F0F0
:100F4000C9FFD9F800B00190DA45AAEB0B0603D02F
:100F50003246594616F030FF019B002D29461E44AB
:100F600040F3D8805046002403E0013904F1010425
:100F700012D001230268A3401342326814BF1A43FF
:100F80009A431F2C3260F0D1013900F1040006F1C0
:100F900004064FF00004ECD1B8F1000F1EDD013F54
:100FA000B84409E032681F2C43EA020333600FD0D3
:100FB000B84504F1010411D0012317F8012FA34013
:100FC000002AEFD132681F2C22EA03033360EFD1ED
:100FD000B84506F104064FF00004EDD1D9F8081029
:100FE000D9F80C30A1EB0A015B1B03EBC10100290E
:100FF00008DC22E01F2C05F1010518D0013904F1AD
:1010000001041AD00123DAF8002003FA05F0A34006
:101010001042326814BF134322EA03031F2D3360CA
:10102000E8D11F2C0AF1040A4FF00005E6D101397E
:1010300006F104064FF00004E4D1BBF1000F0FD01D
:10104000D9F810105846A1EB0B0115F0FEFE002355
:10105000C9E9023309F1080393E8030089E80300B2
:10106000DDE90032C9F808601344C9F80020002205
:10107000C9E90343C9F8042003B0BDE8F08F05EBCC
:101080000802002A1046B8BF02F11F00534202F0C6
:101090001F0203F01F034FEA601058BF5A420AEBC9
:1010A0008000002A30DBB8F1000F144625DD013F37
:1010B000B8440BE0DAF800101F2D43EA0103CAF828
:1010C000003011D0B84505F1010513D0012317F800
:1010D000011FAB400029EDD1DAF800101F2D21EAE5
:1010E0000303CAF80030EDD1B8450AF1040A4FF005
:1010F0000005EBD1002A00DA0438C9E9020403B084
:10110000BDE8F08F0022C8E6B8F1000F02F120041C
:10111000CDDCF1E700243FE7034B00930EE70348E3
:1011200015F08DFFE0FFFF7FFCFFFF0FD09401085B
:101130002DE9F041037804469FED376A07EE103A37
:10114000D0ED016A8268B8EEC77AC6EE077A67EE1C
:10115000A67AFDEEE77A17EE905A002DB4BF05F19E
:101160000F0317EE903A1B1192FBF3F603FB1623C5
:101170000BB90F2E09DD0132AA4202DAA260BDE8E6
:10118000F0810023A360BDE8F08190F830200127B2
:10119000C36806F01F00C2EB021187404FEA5618E1
:1011A00053F8210003EB810350F828100F4228D197
:1011B000996A51F828100F4218D15B6953F828300A
:1011C0001F420DD1A369A16B03EB021300220A7128
:1011D0009B5D1BB10123A2680B71CCE7A268CAE733
:1011E000606BFFF7A5FD94F83020EBE7606BFFF72D
:1011F00043FD94F83020E368C2EB021103EB810356
:10120000DBE7606BFFF72AFD94F83020E368C2EB60
:10121000021103EB8103CBE7000070432DE9F84F87
:10122000D0E9008A0F4691466FF07841AAEB080298
:10123000B1EB221F5FD013110646A7EB0804012B68
:101240001D4638BF01255D1953D2002D47D1AB464D
:10125000D9F800200BEB0403002C4BF80420D9F83C
:1012600004205A60D9F808209A60D9F80C20DA6076
:1012700024DCAAEB070A1034BAF1000F5C4413DC3B
:101280005444B8F1000F04D1B560C6E900B4BDE81C
:10129000F88FB168A1EB0801404615F0D6FDB560A6
:1012A000C6E900B4BDE8F88F20463946524654449A
:1012B00016F074FDB8F1000FE6D0EAE7AAEB070AD2
:1012C000224641465846103416F076FDBAF1000F1A
:1012D0005C44E9DCB1685444A1EB0801DCE78D42D1
:1012E00028BF0D462D01284615F0F4FD8346054420
:1012F000AEE7024DF7E7024815F0A1FEF0FFFF7FD1
:10130000F09401082DE9F84300250F4606460560D4
:1013100085608B6809684560C5605B1AFC6805617B
:1013200014EBC3042ED1234622460461C0E90044D5
:10133000C6E90224D7E90254A942A5EB010704D06B
:1013400018463A4616F038FD0346B4F1000C03EB9C
:10135000070214DD0021012328688B400342106836
:1013600014BF034320EA03031F2901F101011360A5
:1013700002D1043504320021BCF1010CEBD130461E
:10138000BDE8F88304F11F084FEA5819AC42A8BF22
:10139000A0464FEA89094FEA6818484615F09AFDB9
:1013A000291B04F01F0400EB090201F01F01034692
:1013B000326100EB880258BF4C4275603060AC422D
:1013C00001DA2034043A3968B2E700BF2DE9F04F62
:1013D00089B003681446A44A049040680293C31A73
:1013E00001919B10CDE9060102FB03F39F498B425B
:1013F00000F03681012B1A4638BF01229B1880F07D
:101400002A81DDE90120161A002B40F015813C25C8
:1014100005930393039F21463E443046FFF772FF36
:1014200004F1140106F11400FFF76CFF04F1280128
:1014300006F12800FFF766FF019B1946029B9942BF
:1014400076D003F13C06BA46984600E09A46A6F1EB
:101450003C09A6F134070AF1080B0023A6F1280481
:10146000A6F120050AF1140E0AF11C0CA6F11402D3
:1014700099E803008AE8030097E803008BE803007B
:1014800056F82C1CCAF8101046E90D3397E80300F3
:1014900089E8030046F82C3C94E803008EE803003A
:1014A00095E803008CE8030056F8181CCAF82410CD
:1014B00046E9083395E803000AF1300584E80300A3
:1014C00046F8183C0AF1280492E8030084E8030077
:1014D000A6F10C0494E8030085E8030056F8041C08
:1014E000CAF8381046E9033394E8030082E80300A1
:1014F00046F8043C10B1414215F0A7FC56F8280C00
:1015000020B156F8181C091A15F09FFC56F83C0C2F
:1015100020B156F82C1C091A15F097FC08F13C086C
:10152000019A0AF13C033C3642458FD10AF1780515
:10153000019B06998B426ED03C338946DDF81C80B6
:101540001C46A4F13C06A4F13402002305F108076F
:10155000A4F1200C96E8030085E8030092E803005C
:1015600044E90D3387E8030092E80300A4F128075B
:1015700054F82C2C86E803002A6105F1140244F883
:101580002C3C54F8186C97E8030082E803009CE8B0
:10159000030005F11C0244E9083382E803009CE8DB
:1015A0000300A4F114026E6205F1280605F1300C67
:1015B00087E8030044F8183C54F8047C92E80300E0
:1015C00086E80300A4F10C0696E8030044E903331F
:1015D0008CE8030096E80300AF6382E8030044F858
:1015E000043C10B1414215F030FC54F8280C20B1F5
:1015F00054F8181C091A15F028FC54F83C0C20B1BA
:1016000054F82C1C091A15F020FC08F13C083C3554
:101610003C34C14595D1029B2BB1049A1846916880
:10162000C91A15F012FC049B0399059AC3E9001529
:101630009A6009B0BDE8F08F8B4228BF0B46C3EB20
:1016400003139D00284615F045FC4219039000F154
:101650003C050592DEE6DDE90132054D9E1AF1E713
:10166000044815F0ECFC00BFEFEEEEEE2222220261
:10167000F8FFFF7FF0940108F0B5692395B00024CE
:10168000454E01AD80ED010A0746C46280F8304046
:101690001394037041638263C0E90344C0E90544C5
:1016A000C0E90744C0E90944CDE90544CDE9074450
:1016B000CDE90944CDE90B44CDE90D44CDE90F4412
:1016C000CDE9114496E80F0085E80F0005AA2946E8
:1016D00010361046FFF7B0FB012305AA29460FA8D4
:1016E0006C60EC600194AC608DF808308DF81030BF
:1016F000FFF7A2FB96E80F0085E80F0005AA294630
:101700000AA8FFF799FBD7E904439C4235D005A905
:101710002046FFF7F7FD0AA904F11400FFF7F2FDD8
:101720000FA904F12800FFF7EDFD3B693C333B6155
:101730001A4BD7E907460FCBB44285E80F0023D0F8
:1017400004F110060FCD20606160A260E360FE61CD
:101750000F9818B11399091A15F077FB0A9818B168
:101760000E99091A15F071FB059818B10999091A13
:1017700015F06BFB384615B0F0BD05AA214607F100
:101780000C00FFF723FED3E72A46214607F1180095
:10179000FFF744FDDCE700BF089401082894010826
:1017A000037933B370B5D0E90D462DED028BB44209
:1017B00005469FED118A07D020462C3415F080F99C
:1017C00038EE008AA642F7D105F1080015F078F945
:1017D00005F1400030EE080A15F064F895ED1D0A99
:1017E00005F18C0015F05EF895ED2F0ABDEC028B2B
:1017F00070BD9FED010A7047000000002DE9F04F19
:10180000D0E90085444E0C46A5EB0803434983B05C
:101810009B1006FB03F38B427AD0012B1E46074632
:10182000A4EB080B38BF0126F6186FD2002E5CD14E
:101830004FF02C0AB146964609EB0B0C4445BEE826
:101840000F00ACE80F00BEE80F00ACE80F009EE808
:1018500007008CE8070027D009F12C0BC246D646BA
:10186000ABF12C0C0AF12C0A0BF12C0BBEE80F008B
:10187000ACE80F00BEE80F00A245ACE80F009EE800
:1018800007008CE80700EAD1A4F12C0A244BAAEB4C
:10189000080A4FEA9A0A03FB0AFA2C232AF0404A64
:1018A0000AF1020A03FB0A9AAC420FD02A1B1C4B16
:1018B000504621462C3A920803FB02F22C2322F0D8
:1018C000404202FB0332924416F068FAB8F1000F6E
:1018D00005D0B9684046A1EB080115F0B6FABE6024
:1018E000C7E9009A03B0BDE8F08F8E424FF02C0399
:1018F00028BF0E4603FB06F63046019215F0EAFAC1
:10190000019A8146064400F12C0A94E7054EF3E75C
:10191000054815F094FB00BFA38B2EBA2EBAE8023F
:10192000A38B2E3AE8FFFF7FF0940108D0E90D3237
:101930002DE9F0479A4205460E4600F134082DED98
:10194000028B18BF83638CB0D1E900934B4577D0ED
:10195000002710E0BEE80F000137ACE80F00BEE83A
:101960000F00A742ACE80F009EE807008CE80700D4
:10197000C5F838A064D2B7EE008AD5ED007A4FF0F2
:101980007C5300229FED5B0A01A888EE277ACDEDFB
:10199000057A0293049307928DED030A8DED067A82
:1019A00015F048FA3368F2EE080A9FED537AF0EE2C
:1019B000406A03EB870340F20112B0EE000AD3ED58
:1019C000007A0723ADF82C20F8EEE77A8DF8043082
:1019D000CDED086A77EEC77AC7EEA00A15F0E4FDF0
:1019E000DFED467A01A820EE270A8DED030A15F0F7
:1019F00021FAA96B0DF1040EEB6B8C4601F12C0A58
:101A000099428DED080AD6E90094A4EB09044FEA47
:101A1000A40404F1010207EE902AF8EE677A88EE3A
:101A2000277A8DED027A95D101AA4046FFF7E6FEAE
:101A30000137D6E90094A4EB0904A410A7429AD375
:101A400007239FED2D7AF2EE080A2F462B72B0EE97
:101A5000000AD9ED007A40372C46F8EEE77A8C344C
:101A600077EEC77AC7EEA00A15F09EFD9FED237AA8
:101A700005F10800F6EE007A20EE070A20EE270AAC
:101A800085ED040A15F0D6F9F0EE407AF7EE006A1B
:101A900095ED000A3846C5ED097AD6E900239B1A70
:101AA0009B10013307EE903AF8EE677A86EEA77A3C
:101AB00085ED037A14F0D2FE38469FED0E0A14F03D
:101AC00055FF38469FED0E0A14F0B4FF95ED000A5D
:101AD000204614F0C3FE20469FED0A0A14F046FF8C
:101AE0009FED070A20460CB0BDEC028BBDE8F04725
:101AF00014F0A0BF0000C84200008A420000DC438E
:101B0000CDCCCC3D0000FA44D0F88830B2EE0E7A4D
:101B10002DE9F0412DED028B93F83D30064682B061
:101B20005C3007EE903A06F110080190F8EEE77A83
:101B300087EE870A86ED190A15F07CF9019886ED83
:101B40001E0A14F0BDFF9FED2F7ADFED2F7A40467D
:101B5000E0EE077AB0EE670A14F008FFD6E9014715
:101B6000A74246D00025DFED298A204614F0A8FFC1
:101B7000B0EE408A94F85C1004F12C0014F016FECC
:101B8000DFED237A28EE000A0023603404F8043CD9
:101B9000B0EEC07AB4EEE77AF1EE10FA02DD78EE3C
:101BA000808A0135A742E0D18DB99FED180A28EE51
:101BB000800A404614F076FE96ED100ADFED157AA5
:101BC00020EE270A02B0BDEC028BBDE8F08107EEE3
:101BD000905AB8EEE70AB5EE400AF1EE10FA0BD4CF
:101BE000F1EEC07AB7EE007A87EE270A20EE280AD7
:101BF000DFE79FED060ADCE715F070FFF0EE407AB4
:101C0000F0E700BF00E0124500A0254500000000FD
:101C1000ACC527379A99593F38B50B4604464068FA
:101C2000002103EB430300EB43105D012C3014F063
:101C30000FFD636801222B4483F85C2038BD00BF90
:101C40002DE9F04FD0E900A681463D48A6EB0A03F6
:101C50000F4611463B4A5B1183B000FB03F39342EE
:101C60006AD0012B9846A7EB0A0538BF4FF0010850
:101C700018EB03035ED2002B4AD1984660249B46A2
:101C80000BEB0500602216F089F857451CD00BF1CC
:101C90006005544621466034A5F16000602216F0CC
:101CA0007DF8BC4205F16005F4D1A7F16004264B34
:101CB000A4EB0A04640903FB04F424F0784402341E
:101CC00004EB44040BEB4414B74210D0F21B1E4B40
:101CD00020463946603A520903FB02F222F078426C
:101CE000013202EB42025201144416F057F8BAF1E5
:101CF000000F06D0D9F808105046A1EB0A0115F0E4
:101D0000A4F8C9F80880C9E900B403B0BDE8F08FB1
:101D1000934228BF134603EB43084FEA481420467A
:101D2000019115F0D7F8019900EB0408834600F102
:101D30006004A5E7054CF2E7054815F080F900BFFF
:101D4000ABAAAAAA55555501ABAAAA02E0FFFF7F8C
:101D5000F0940108F0B50546002310300C462F46DC
:101D600005F15C062DED068B9BB0A7EC010AF0EEA9
:101D7000409AC5F88810EB60B7EE008A0190C5E97B
:101D8000013314F06BFD9FED580A019814F0EEFD3D
:101D9000B6EE000A019814F04DFE88EE29AA4FF025
:101DA0007C539FED520A3046C5ED1B9A2B66AB66FD
:101DB000002385ED190A6B6785ED1CAA15F03AF82A
:101DC00094F83D30B2EE0E7A85ED1E0A07EE903A99
:101DD00040F2011201233046F8EEE77A85ED188AC9
:101DE000A5F88420102685F85C3087EE870A85EDFB
:101DF000190A15F01FF885ED1E0A05E015F0CEFF53
:101E00006034013EAC6069D09FED398A4FF07C525E
:101E1000384B00219FED350A02A803920124059258
:101E2000ADF860100F931193129313938DED0D8AFB
:101E30008DED0E8A8DED108A8DED148A8DED158A4B
:101E40008DED168ACDED069A8DED07AA8DED040A6B
:101E50008DED088A14F0EEFFF0EE407A40F20113A7
:101E60009FED259A02A8B0EE480AADF83030CDEDCE
:101E7000097A8DF808408DED039A8DED048A14F0EF
:101E8000D9FFF0EE407A2146B0EE690A0DA8DFEDE9
:101E90001B8ACDED097A14F06BFBF0EE480A0DA811
:101EA0009FED170A14F0DCFBB0EE680A0DA814F0E1
:101EB0002DFC0DA8B0EE490ACDED0D8A14F04EFCB4
:101EC000602202A9D5E902439C42204696D102AA8B
:101ED00021463846FFF7B4FE013E95D128461BB097
:101EE000BDEC068BF0BD00BF00803B450000C84242
:101EF00000000000000080BFCDCC4C3F9A99993E75
:101F00000AD7A33B2DE9F84FD0E900890F46924646
:101F10006FF06041A9EB0802B1EBA20F54D093100F
:101F20000646A7EB0805012B1C4638BF01241C19E7
:101F300048D2002C3CD1A346DAF80030002D4BF8F3
:101F4000053024DCA9EB07090435B9F1000F5D4425
:101F500013DC4D44B8F1000F04D1B460C6E900B5FC
:101F6000BDE8F88FB168A1EB0801404614F06DFFA1
:101F7000B460C6E900B5BDE8F88F284639464A4640
:101F80004D4415F00BFFB8F1000FE6D0EAE7A9EBDE
:101F900007092A4641465846043515F00DFFB9F1A8
:101FA000000F5D44E9DCB1684D44A1EB0801DCE7BA
:101FB0008C4228BF0C46A400204614F08BFF8346B9
:101FC0000444B9E7024CF7E7024815F038F800BFBF
:101FD000FCFFFF7FF09401082DE9F84FD0E900895C
:101FE0000F4692466FF06041A9EB0802B1EBA20FD9
:101FF00054D093100646A7EB0805012B1C4638BFAA
:1020000001241C1948D2002C3CD1A346DAF8003038
:10201000002D4BF8053024DCA9EB07090435B9F194
:10202000000F5D4413DC4D44B8F1000F04D1B460DF
:10203000C6E900B5BDE8F88FB168A1EB08014046DC
:1020400014F003FFB460C6E900B5BDE8F88F284678
:1020500039464A464D4415F0A1FEB8F1000FE6D0CE
:10206000EAE7A9EB07092A4641465846043515F028
:10207000A3FEB9F1000F5D44E9DCB1684D44A1EB6A
:102080000801DCE78C4228BF0C46A400204614F06F
:1020900021FF83460444B9E7024CF7E7024814F0F5
:1020A000CEFF00BFFCFFFF7FF09401080023D1F8B2
:1020B00000C02DE9F041054686B088461E464868B6
:1020C0000093CDE9013360451FD0002408E042F8B9
:1020D000043B0134A0EB0C030192B4EBA30F14D228
:1020E00001995CF82430029F0A463344B9420393B5
:1020F000EDD1684603AAFFF76FFF0134D8E900C0AD
:10210000A0EB0C03B4EBA30FEAD30C36302EDAD1DC
:1021100000230098042719461E460593CDE9033392
:102120001EE0C2593C1D43F8042B8B4200EB040215
:10213000049325D00259043F43F8042B8B4200EB53
:102140000702049326D0C25943F8042B0493019B41
:102150001B1A9B10033BB34222D32746DDE904310F
:102160008B4206F1010600EB0702DAD103A83C1D01
:10217000FFF7C8FE0098DDE9043102198B42D9D17E
:1021800003A8043FFFF7BEFE0098DDE90431C21941
:102190008B42D8D103A81946FFF7B4FE0098D6E7C2
:1021A00000263746039BF2EE080A9FED177AB0EE41
:1021B000000A33446C680436D3ED007A3C4460373F
:1021C000F8EEE77A77EEC77AC7EEA00A15F0ECF9D9
:1021D000DFED0E7A204620EE270A84ED020A14F085
:1021E00029FE442E84ED070ADCD1039818B1059925
:1021F000091A14F02AFE009818B10299091A14F06D
:1022000024FE06B0BDE8F08100008A420000DC43F5
:1022100010B50446406818B1E168091A14F015FEBB
:10222000204610BD002A3AD0F8B50E4617460024C5
:102230001B4D2DED028B2B68D3F88807FEF778FF36
:10224000286800F2AC60FFF7ABFA2868B0EE408A6D
:1022500000F59060FEF7B6FD2B68F0EE408AD3F8EB
:102260008407FFF751FC9FED0F7ADFED0F7ADFED6A
:102270000F6AE8EE877A3068736800EB840003EB3E
:1022800084030134A742E8EE077AE0EE267AC0ED37
:10229000007AC3ED007ACED1BDEC028BF8BD704759
:1022A00024040024CDCC4C3E000000009A99193F34
:1022B00070B58568064685B12C462D68606804F1C6
:1022C0000C03984203D0E168013114F0BEFD2421D3
:1022D000204614F0BAFD002DEED17268002130685E
:1022E000920015F083FD306806F118030022716832
:1022F0009842C6E9022202D0890014F0A6FD3046B9
:1023000070BD00BFF8B5D0E909570646BD420FD0F1
:1023100005F1080454F8080CA04204F1180403D095
:10232000A968013114F091FD1835AF42F2D1776AF6
:1023300027B1F16A3846C91B14F087FDB06918B19E
:10234000316A091A14F081FDD6E90345AC4218D070
:10235000A36A18461BB1A16BC91A14F076FD636914
:1023600018461BB1616AC91A14F06FFD236818463C
:102370001BB12169C91A14F068FD3C34A542E7D1AC
:10238000F56825B171692846491B14F05EFD304699
:10239000F8BD00BF70B5844982B001240546B7EE90
:1023A000000A00232246096800F5B470009402F088
:1023B00021FF7E49224605F5D870B7EE000A0023BA
:1023C0000968009402F016FF7949224605F5077066
:1023D000B7EE000A00230968009402F00BFF75496C
:1023E000224605F51970B7EE000A0023096800942B
:1023F00002F000FF7049224605F52B70B7EE000A87
:1024000000230968009402F0F5FE6C49224605F5A8
:10241000A270B7EE000A00230968009402F0EAFEF9
:102420006749224605F5C670B7EE000A0023096821
:10243000009402F0DFFE6349224605F5EA70B7EE2C
:10244000000A00230968009402F0D4FE5E49224687
:1024500005F5FC70B7EE000A00230968009402F04D
:10246000C9FE5A49224605F51070B7EE000A00234E
:102470000968009402F0BEFE5549224605F5227017
:10248000B7EE000A00230968009402F0B3FE514938
:10249000224605F53470B7EE000A0023096800945F
:1024A00002F0A8FE4C49224605F1B400B7EE000A3E
:1024B00000230968009402F09DFE4849224605F178
:1024C000D800B7EE000A00230968009402F092FEDB
:1024D0004349224605F1FC00B7EE000A00230968D3
:1024E000009402F087FE3F49224605F59070B7EE52
:1024F000000A00230968009402F07CFE3A49224653
:102500002846B7EE000A00230968009402F072FE24
:102510003649224605F12400B7EE000A0023096877
:10252000009402F067FE3249224605F14800B7EEFA
:10253000000A00230968009402F05CFE2D4A2E4E2A
:1025400005F16C001168B7EE000A224600230094E2
:1025500002F050FE2246316805F19000B7EE000A05
:102560000023009402F046FE2246316805F53D70D6
:10257000B7EE000A0023009402F03CFE22463168C8
:1025800005F54670B7EE000A0023009402F032FE13
:10259000B7EE000A00232246316805F54F7000941B
:1025A00002F028FE02B070BD789501087C95010804
:1025B0008095010884950108889501088C9501088B
:1025C0009095010894950108989501089C9501083B
:1025D000A0950108A4950108B4950108B0950108DB
:1025E000AC950108A8950108B8950108BC950108AB
:1025F000C0950108C4950108C895010870B500F29E
:10260000144400210546204606F0EEFB204605F066
:1026100077FC68B300261BE005F07CFCD5F8840746
:102620001649D0E90132D31A5B1101FB03F3DBB287
:1026300007EE903AF8EEE77A27EE800AFDEEC07AD0
:1026400017EE901A91FBF3F203FB1211FFF7E4FA75
:10265000204605F055FC0346F1B22046B34206F190
:102660000106D9D828460121BDE8704001F04EBBD3
:1026700001462846BDE8704001F048BBABAAAAAAB3
:102680002DE9F0479946036853F8216006B3356891
:102690000746884692462C6A0BE02C682E46254653
:1026A000CCB1246A7B68B4FBF3FC03FB1C4CE04513
:1026B00015D14C45F1D1DAF80420AB689A42ECD13F
:1026C00032B16968DAF8000015F058FB0028E4D14F
:1026D0003046BDE8F08726463046BDE8F087002644
:1026E0003046BDE8F08700BF2DE9F04F914600F17C
:1026F00018020D46002704462DED028B87B00260BC
:102700000392A9EB01029349921002FB01F1994255
:1027100038BF19464FF07E5303610123436000F137
:102720001003C0E90277C0E90577184608EE103AB1
:1027300014F08CFC6368834213D20128064600F033
:10274000FB80B0F1005F80F0FF80820010460292B3
:1027500014F0C0FB3946029A074615F047FBC4E95E
:1027600000764D4505D162E00368ABB11C35A94543
:102770005DD0794AD5E9000114F078FB616806461E
:102780002A4620463346B6FBF1F701FB1767394668
:10279000FFF776FF0028E7D1242014F09BFBD5F843
:1027A00000A06B680146002280461AEB030F41F837
:1027B0000C2B416003D0BAF1000F00F0C7800F2B43
:1027C00004933FD8012B38D19AF800200DF1100B5B
:1027D00088F80C204FF0000AC8F80830584601F875
:1027E00003A018EE101AAB69C8F81C30012300933F
:1027F000E368626814F076FC9DF81030002B3AD143
:10280000D4F800A05AF827300AEB8702C8F82060F5
:10281000002B6CD01B68C8F800305AF82730C3F87A
:102820000080E3681C350133A945E360A1D120464F
:1028300007B0BDEC028BBDE8F08F0DF1100B002B43
:10284000C8D00FE00DF1100B002208F10400029334
:10285000594614F08FFC049A0146029BC8F8040004
:10286000C8F80C201A460846514615F097FA049B02
:10287000D8F80410AEE7059F012F60D0B7F1005FD4
:1028800062D2BA001046029214F024FB5146029A1A
:10289000824615F0ABFAA0680023A36088B19C467D
:1028A00002460068136AB3FBF7F107FB11335AF8CD
:1028B000231071B3096811605AF823301A60002898
:1028C000EED1039BD4E90001834202D0890014F0C9
:1028D000BCFAB6FBF7F3C4E900A707FB13675AF885
:1028E00027300AEB8702C8F82060002B92D1A3683A
:1028F000C4F80880C8F800303BB11B6A6168B3FBBC
:10290000F1F001FB10334AF8238004F1080313604F
:1029100087E7A1681160214641F8082F4AF8231083
:10292000116829B14AF82C209C460028B8D1C8E784
:102930009C460028B4D1C4E7A761039F0FE7C4F801
:1029400018A0DDF80CA0A6E714F073FB034814F000
:1029500073FB00BFB76DDBB607690FC70C950108A5
:102960002DE9F04F754FE1B006463B78BFF35B8F22
:1029700013F001051AD0724C724AD6E9000114F026
:1029800075FA6168034620463246B3FBF1F401FB59
:102990001431FFF775FE002800F0CC800368002B8F
:1029A00000F0C880D86961B0BDE8F08F384614F0F7
:1029B0004EFA0028DFD00DF1540A0EAB4FF03C0B5D
:1029C0000CACC4F81CA04FF03D0A02224FF0450C9D
:1029D000C4F834A00DF1700A4FF0410E4620C4F83F
:1029E00038A04FF03E0A42214FF04309C4F850A0EE
:1029F0000DF18C0A4FF044082360C4F854A046F24D
:102A0000452A0123C4F818B0ADF88CA04FF03F0A56
:102A100046F2442BA4F878C0C4F86CA00DF1A80AC3
:102A2000C4F8A4E0C4F870A04FF0400A6360C4F892
:102A300088A00DF1C40AE363C4F88CA00DF1E00A8C
:102A40006367C4F8A8A046F2472AC4F89030ADF8EE
:102A5000E0A00DF1FC0A2262A265C4F8AC20A4F843
:102A60009400C4F8C01084F85E5084F8B25084F822
:102A70002650A4F80890A4F84080ADF854B0C4E9FA
:102A800031A3C4F8E420C4F81C2108AAA4F804E186
:102A9000C4F814C1C4F83001A4F83C11472184F8EB
:102AA000EA50C4F80031C4F838312B4684F822517A
:102AB00060ADC4F8DC90C4F8F880059209AA2048FB
:102AC000049207AA03920AAA02920BAA019206AAEA
:102AD000009260AAA4F8CC10C4F84C1146A9C4F81E
:102AE000E01046F24121ADF818114DA9C4F8FC10D0
:102AF00054A9C4F8181146F24221ADF850115BA94F
:102B0000C4F834112146FFF7EFFD384614F0ABF955
:102B10000D4A0E490A4814F093F91C3D2B4653F810
:102B2000080B984203D0A968013114F08EF9A54230
:102B3000F3D120E7064814F085FA00BFFC03002417
:102B40000004002407690FC700000024B122000818
:102B50003895010830B50023044683B00D46036064
:102B60000846C4E90133FFF7FBFE0190D4E90113E5
:102B7000994200F0ED8041F8040B61602B7E032B3D
:102B800019D8DFE803F05E024A32D4E90003A168F5
:102B900002688B4202F1030201925BD043F8042BDE
:102BA00063600268994202F10702019230D043F853
:102BB000042B63602B7E6A7E03F0FD03013A042A36
:102BC00010D8DFE802F0037E8EA44F00D4E9003174
:102BD000A2681B68914203F1090301937CD041F87C
:102BE000043B6160204603B030BDD4E90003A16816
:102BF00002688B4202F10302019200F0EA8043F87E
:102C0000042B63600268994202F106020192CED160
:102C100001AA2046FFF7E0F9CCE7D4E90003A16858
:102C200002688B4202F10402019200F0DA8043F85C
:102C3000042B63600268994202F108020192B6D146
:102C4000E6E7D4E90003A16802688B4202F10402BE
:102C50000192A3D1204601AAFFF7BEF9A168D4E9E9
:102C600000039EE72268002B40F086801068D4E9BC
:102C700001310B308B42019000F0868043F8040B49
:102C800063601068994200F10E00019000F0C1806D
:102C900043F8040B63601068994200F11200019040
:102CA00000F0AF8043F8040B636012688B4202F1BE
:102CB0001502019246D0204643F8042B636003B00E
:102CC00030BD002B68D1A268D4E900311B68914265
:102CD00003F10B03019382D101AA2046FFF77CF98F
:102CE00080E7002B63D1A268D4E9003118689142D3
:102CF00000F10B00019063D041F8040B61601B6888
:102D0000914203F10E0301937FF469AFE4E7206879
:102D10001BBB0268D4E901310B328B42019223D0F4
:102D200043F8042B63600268994202F10E0201929B
:102D30005FD043F8042B636002688B4202F11202F9
:102D40000192B8D101AA19462046FFF745F949E793
:102D500001AA2046FFF740F910E70268D4E90131E3
:102D60000A328B420192DBD1204601AAFFF734F9E7
:102D7000A168D4E90003D6E71068D4E901310A302C
:102D80008B4201907FF47AAF01AA2046FFF724F925
:102D9000A168D4E9002374E7D4E90031A2681B6874
:102DA000914203F10A0301937FF419AF94E7D4E948
:102DB0000031A2681868914200F10A0001909BD18D
:102DC0001146204601AAFFF707F9A268D4E90031AD
:102DD00095E7204601AAFFF7FFF8A168D4E90003B0
:102DE00010E7204601AAFFF7F7F8A168D4E900032D
:102DF00020E7204601AAFFF7EFF8A168D4E9000315
:102E00009AE701AA2046FFF7E7F8A168D4E9002372
:102E10004BE701AA2046FFF7DFF8A168D4E90023B9
:102E200039E700BF6FF0F4110B22FF232DE9F04FBB
:102E30002DED028BC0E90111C16000F18001044653
:102E40000025816700F2144600F1A0019FEDDC8AA5
:102E500004F5906891B080F8282004F2AC6780F8FF
:102E60003C200DF12C0A80F8582004F1B40980F8B8
:102E7000BC20C0F8981080F8293080F83D3080F8E8
:102E8000593080F8BD300560456105624563856451
:102E900045660567C56780F88050C0F89C5080F88B
:102EA000A050C0E90B55C0E91055C0E9175580F88E
:102EB000B25080F8E02080F8042180F8282180F8C2
:102EC0004C2180F8702180F8942180F8B82180F896
:102ED000E13080F8053180F8293180F84D3180F8F3
:102EE000713180F89531C0F8C850C0F8EC50C0F886
:102EF0001051C0F83451C0F85851C0F87C51C0E9A5
:102F00003055C0E93955C0E94255C0E94B55C0E9D3
:102F10005455C0E95D55C0E9665580F8DC2180F85C
:102F2000002280F8242280F8482280F86C2280F861
:102F3000902280F8B93180F8DD3180F8013280F8D4
:102F4000253280F8493280F86D3280F89132C0F82D
:102F5000A051C0F8C451C0F8E851C0F80C52C0F8F4
:102F60003052C0F85452C0F87852C0E96F55C0E9E9
:102F70007855C0E98155C0E98A55C0E99355C0E943
:102F80009C55C0E9A55580F8B42280F8D82280F875
:102F9000FC2280F8202380F8442380F8682380F8FE
:102FA0008C2380F8B53280F8D93280F8FD3280F871
:102FB000213380F8453380F8693380F88D33C0F8C9
:102FC0009C52C0F8C052C0F8E452C0F80853C0F890
:102FD0002C53C0F85053C0E9AE55C0E9B755C0E90D
:102FE000C055C0E9C955C0E9D255C0E9DB5580F8E4
:102FF000B02380F8D42380F8F82380F8B13380F828
:10300000D53380F8F933C0F87453C0F89853C0F83A
:10301000BC53C0F8E053C0F8FC53C0E9E455C0E924
:10302000ED55C0E9F6553046C4F80054C4F80454D0
:1030300004F010FBB0EE480A4046FDF735FD614B49
:1030400087ED008A2046C4F8E056C4F8E456C4F878
:10305000E8561C6000F01CFE2946204600F018FFD0
:103060000421204600F036FE0321204600F016FE23
:10307000A26F43230121CDF824A00A91ADF83C5062
:10308000ADF82C3013700A9BA26FE367D554099BEF
:103090000A951D700998BDF83C305045A4F8903051
:1030A00003D00B99013113F0D0FE0023CDF824A0FA
:1030B000A4F89430502384F8B130D4E91EB31BEB4C
:1030C000030F03D0BBF1000F00F0FD800F2B069320
:1030D00000F2BC80012B40F0AE809BF8002009ADCF
:1030E0008DF82C20524600210A9303A8D15429467A
:1030F000B4F89030ADF83C30FFF72CFD09985045FE
:1031000003D00B99013113F0A0FE0023DDE9031277
:10311000CDE90633B2EB010A089300F091802A4B07
:103120009A4500F2D380504613F0D4FE0346DDE901
:103130000312A2EB010B03EB0A008A420890CDE9CF
:10314000063304D018465A4614F036FE03465B4454
:10315000384606A90793FEF7E9FB069818B10899C7
:10316000091A13F072FE4846DFF86C90FFF712F967
:1031700099F80030BFF35B8FDA0740F18E80134B74
:10318000134FC4F888373B78BFF35B8FDB076FD5ED
:10319000104B04980399C4F884370023471A0B9303
:1031A000CDE909334FD0084B9F4200F28F8038465B
:1031B00013F090FE0346DDE90310A0EB01080DE0DB
:1031C00000803B4724040024FCFFFF7F28040024E8
:1031D00020040024640400241C0400241F448142B1
:1031E0000B97CDE9093304D01846424614F0E4FDAC
:1031F00003464344384829460A93FEF757FF099887
:1032000018B10B99091A13F020FE0122FF23304652
:10321000114605F0CFFA2046304900F03BFD0398F7
:1032200018B10599091A13F010FE204611B0BDEC33
:10323000028BBDE8F08F002B4AD1524609AD52E710
:10324000D346534677E7B8463B46C7E709AD002269
:1032500006A90193284613F08DFF069A019B099059
:103260000B921A46594614F099FD069B099A3AE7C3
:10327000384613F0ECFD00288AD004F174019FED6C
:10328000180A1548FEF766FD384613F0ECFD154A9E
:103290001549114813F0D4FD7AE7484613F0D7FDDD
:1032A00000283FF46CAF3A4641469FED0D0A0F48A7
:1032B000FEF7E2F9484613F0D6FD0A4A0C490B48DE
:1032C00013F0BEFD5BE70B4813F0B6FE13F0B1FE42
:1032D000504609ADC5E700BF64040024252200085C
:1032E00000803B470000002411220008280400242D
:1032F000052300080C9501082DE9F043D0E91E755F
:1033000097B00446EF420BAE099602D0002F00F0B2
:1033100086810F2D0F9500F22281012D40F0F38060
:103320003A7833468DF82C2000210A95595594F8A7
:10333000FC3123B194F81432802B00F03D8194F8D5
:10334000203223B194F83832802B00F03E8194F87B
:10335000443223B194F85C32802B00F0408194F821
:10336000683223B194F88032802B00F00F8194F8FA
:103370008C3223B194F8A432802B00F00B8194F8A6
:10338000B03223B194F8C832802B00F0078194F852
:10339000D432002B00F0BC8094F8EC32802B40F04B
:1033A000B78009AF0222A74B009200210A9A384643
:1033B00013F09CFF0A9AE36F9A4200F0F3803946BB
:1033C00004F1780013F030FFB4F89430A4F8903092
:1033D00072B6D4E91E950DF1440819EB050FCDF82E
:1033E0003C8003D0B9F1000F00F019810F2D069534
:1033F00000F2FD80012D40F0F68099F80030424641
:103400000FAF8DF844300023109503A8394653556B
:10341000B4F89030ADF85430FFF79CFB0F9840455E
:1034200003D01199013113F010FD002304F2AC68B0
:10343000DDE90310CDE90633451A089300F0CC808E
:10344000814B9D4200F2F680284613F043FD03466F
:10345000DDE90310A0EB01091D4488420895CDE980
:10346000063304D018464A4614F0A6FC03464B44E3
:10347000404606A90793FEF759FA069818B108992D
:10348000091A13F0E2FC0023D4F88457DDE9031095
:10349000CDE90F33441A119300F09B806A4B9C4294
:1034A00000F2C880204613F015FD0346DDE9031045
:1034B000A0EB01081C4488421194CDE90F3304D0DD
:1034C0001846424614F078FC0346434428463946E1
:1034D0001093FEF7EBFD0F9818B11199091A13F02C
:1034E000B4FC62B6039818B10599091A13F0ADFC43
:1034F000099DB54204D00B992846013113F0A5FC73
:1035000017B0BDE8F083002D40F0998033460BE7FB
:1035100094F8F8321BB194F81033802B77D094F8DC
:103520001C335BBB94F840331BB194F85833802BA9
:1035300078D094F864331BB194F87C33802B75D029
:1035400094F888331BB194F8A033802B63D009988A
:10355000B042D5D00B99013113F077FCD0E70022AF
:103560000FA909A813F006FE0F9B09900B932A469A
:10357000394614F013FC0F9D099BD5E694F83433BB
:10358000802BCFD109AF0222304B0DE709AF0222C9
:103590002F4B09E709AF01222E4B05E709AF0122A6
:1035A0002D4B01E7099D002AA3D0A16F284614F0F6
:1035B000E5FB00289DD002E709AF01230A9A00939A
:1035C0003846264B13F092FEF4E609AF0222244B54
:1035D000EAE6A04623466DE7A9462B463CE709AF3D
:1035E0000122204BE0E63DBB42460FAF0BE70FAF99
:1035F000002206A9384613F0BDFD069B0F901193DB
:103600002A46494614F0CAFB069D0F9AFBE609AF0D
:103610000122154BC8E609AF0122144BC4E6144839
:1036200013F00AFD09AF0122124BBDE609AF0222D9
:10363000114BB9E613F0FDFC40460FAFE0E7304612
:1036400095E700BF60950108FCFFFF7F68950108C2
:1036500054950108589501085C95010848950108A2
:103660004C9501085095010864950108749501086E
:103670000C9501086C9501087095010890F86C3163
:103680002DE9F04104468EB0002B00F0B58090F893
:103690008421802A40F0B080002390F8902180F8A7
:1036A0009430002A40F0D38094F8B4311BB194F8E0
:1036B000CC317F2B09D094F8D831002B00F09980C1
:1036C00094F8F0317F2B40F0948094F8943094F883
:1036D00090209A4200F08D8084F8903072B6D4E940
:1036E0001E8609AF18EB060F079703D0B8F1000F3D
:1036F00000F0DA800F2E049600F2C480012E40F014
:10370000B78098F800203B4607AD8DF824200022B2
:10371000089601A829469A55B4F89030ADF834308F
:10372000FFF718FA0798B84203D00999013113F04E
:103730008CFB02980023019904F2AC670693461AA9
:10374000CDE9043300F09B805A4B9E4200F2AA80E0
:10375000304613F0BFFB0346DDE90110A0EB010882
:103760001E4488420696CDE9043304D018464246EA
:1037700014F022FB03464344384604A90593FEF7A0
:10378000D5F8049818B10699091A13F05EFB0023C6
:10379000D4F88467DDE90110CDE90733441A0993B1
:1037A0006AD0444B9C427DD8204613F093FB01998C
:1037B00003460298471A1C4481420994CDE9073315
:1037C00004D018463A4614F0F7FA03463B44304614
:1037D00029460893FEF76AFC079818B10999091A57
:1037E00013F033FB62B6019818B10399091A13F06C
:1037F0002CFB0EB0BDE8F08194F890217AB194F8DA
:10380000A81180290BD1012284F89420002B3FF4C9
:103810004BAF94F884317F2B3FF457AF44E794F8D3
:10382000B411D1B994F8D81131B194F8F0118029BC
:1038300002D1032184F89410002B3FF432AF94F8A6
:1038400084317F2B3FF441AF002A3FF42DAF94F831
:10385000A8117F293FF439AF26E794F8CC118029CD
:10386000E0D1022184F89410002B3FF41AAFE6E770
:10387000EEB93B4607AD4AE7274623469BE7B046ED
:1038800033466DE707AD002204A9284613F072FC09
:10389000049B079009933246414614F07FFA049E38
:1038A000079B34E713F0C5FB034813F0C5FB38460C
:1038B00007ADF0E7FCFFFF7F0C95010890F8B830EA
:1038C0002DE9F04104468EB0002B00F0B58090F851
:1038D000D020802A40F0B080002390F8DC2080F8CF
:1038E0009530002A40F0D38094F800311BB194F851
:1038F00018317F2B09D094F82431002B00F09980E7
:1039000094F83C317F2B40F0948094F8953094F8F3
:1039100091209A4200F08D8084F8913072B6D4E9FB
:103920001E8609AF18EB060F079703D0B8F1000FFA
:1039300000F0DA800F2E049600F2C480012E40F0D1
:10394000B78098F800203B4607AD8DF82420002270
:10395000089601A829469A55B4F89030ADF834304D
:10396000FFF7F8F80798B84203D00999013113F02E
:103970006CFA02980023019904F2AC670693461A88
:10398000CDE9043300F09B805A4B9E4200F2AA809E
:10399000304613F09FFA0346DDE90110A0EB010861
:1039A0001E4488420696CDE9043304D018464246A8
:1039B00014F002FA03464344384604A90593FDF780
:1039C000B5FF049818B10699091A13F03EFA0023BE
:1039D000D4F88467DDE90110CDE90733441A09936F
:1039E0006AD0444B9C427DD8204613F073FA01996B
:1039F00003460298471A1C4481420994CDE90733D3
:103A000004D018463A4614F0D7F903463B443046F2
:103A100029460893FEF74AFB079818B10999091A35
:103A200013F013FA62B6019818B10399091A13F04A
:103A30000CFA0EB0BDE8F08194F8DC207AB194F86D
:103A4000F41080290BD1022284F89520002B3FF43A
:103A50004BAF94F8D0307F2B3FF457AF44E794F846
:103A60000011D1B994F8241131B194F83C11802996
:103A700002D1042184F89510002B3FF432AF94F862
:103A8000D0307F2B3FF441AF002A3FF42DAF94F8A4
:103A9000F4107F293FF439AF26E794F818118029F4
:103AA000E0D1032184F89510002B3FF41AAFE6E72C
:103AB000EEB93B4607AD4AE7274623469BE7B046AB
:103AC00033466DE707AD002204A9284613F052FBE8
:103AD000049B079009933246414614F05FF9049E17
:103AE000079B34E713F0A5FA034813F0A5FA38460C
:103AF00007ADF0E7FCFFFF7F0C9501082DE9884832
:103B000000F1B403044600F1FC0B00F5907A0EEED0
:103B1000903A00F5077300F5A27900F5B47808EE45
:103B2000103A00F5197300F5C67700F5D87608EE5F
:103B3000903A00F5347300F5EA7509EE103A00F595
:103B4000467309EE903A00F558730AEE103A00F504
:103B5000FC730AEE903A00F510730BEE103A00F584
:103B600022730BEE903A00F52B730CEE103A00F531
:103B70003D730CEE903A00F54F730DEE103A00F5E0
:103B800061730DEE903A00F1D8030EEE103A204624
:103B9000FEF734FD18EE100A01F04CFB18EE900A07
:103BA00001F048FB19EE100A01F044FB19EE900AEF
:103BB00001F040FB1AEE100A01F03CFB1AEE900AED
:103BC00001F038FB1BEE100A01F034FB1BEE900AEB
:103BD00001F030FB1CEE100A01F02CFB1CEE900AE9
:103BE00001F028FB1DEE100A01F024FB1DEE900AE7
:103BF00001F020FB1EEE900A01F01CFB1EEE100AE5
:103C000001F018FB584601F015FB504601F012FB7D
:103C1000484601F00FFB404601F00CFB384601F02E
:103C200009FB304601F006FB284601F003FB204665
:103C3000FFF724FD2046FFF741FE2046FFF75CFB1F
:103C4000A5E700BF10B50446D0F8E00620B1D4F8CF
:103C5000E816091A13F0F9F804F2144003F0D6F943
:103C6000D4F8980004F1A003984204D0D4F8A0102E
:103C7000013113F0EAF8A06F04F18003984204D0F8
:103C8000D4F88010013113F0E0F8204610BD00BFD9
:103C9000704700BF143001F079BA00BF38B500F1A9
:103CA000140504462DED028B284601F01BFA284628
:103CB00001F014FA2846B0EE408A01F0FDF9D0ED8B
:103CC000007AF8EE677A88EE277ABDEC028B84EDF5
:103CD0001B7A38BD38B500F1140504462DED028B72
:103CE000284601F0EDF9284601F0F8F92846B0EE33
:103CF000408A01F0E1F9D0ED007AF8EE677A88EEBB
:103D0000277ABDEC028B84ED1B7A38BD283001F098
:103D100093BC00BF10B540F203338EB000244FF6C1
:103D20000B7240F20341ADF8083009A80123ADF849
:103D30001020ADF824202246ADF80C100094029912
:103D400007940C94CDE90544CDE90A4401F082FBC7
:103D500004A8012322460399009401F07BFB09A8E3
:103D600001F05EFC10B901200EB010BD04A801F0F6
:103D700057FCA0420CBF022020460EB010BD00BF71
:103D80002DE9F04103239AB04FF0010800254FF6CA
:103D90000B740746CDE91438394BADF84C40CDE9EA
:103DA0001053A3F19F63A3F57D43CDE916581293F9
:103DB000FFF7B0FF4045064623D0022842D040F628
:103DC0000132304B07F158000BACADF82C200B99A9
:103DD0001895CDF86480CDF84A3000F0DBF810A9D2
:103DE00007F1700002F0B4FB274B0FCB84E80F0003
:103DF0003A6F214607F1140001F026F91AB0BDE828
:103E0000F08110231F4A06A906908DF828300BACCC
:103E10001E4BCDF84A2007930295CDE91805CDE950
:103E2000080502A801F08CFD0823029A03A9204688
:103E3000ADF80C608DF80E50049605930B9500F0CC
:103E4000E9F8CCE740F60133ADF82C4000200BAC8C
:103E5000ADF8183001210B4B42460095CDF84A30A1
:103E60002B460E95CDE9180106992046CDE90C5553
:103E700001F0F0FA2946204601F0DEFBAFE700BF73
:103E80000402040404060403389401080704010B27
:103E90002DE9F04704462DED028B82B0002949D070
:103EA000012140F2011200230091ADF804208DF8A9
:103EB0000630354A0127354B04F10409344904F131
:103EC0003C08626040F20272A36040F60663E16063
:103ED00004F1280A2285A3872782E762276402F07B
:103EE00011FF054602F066FD6946064650BB4DB31C
:103EF00004F150008DF8067002F086FE072D3ED1C9
:103F000004F114052046FFF73BFF284601F0E6F8D0
:103F10002846B0EE408A01F0CFF8D0ED007AF8EEF6
:103F2000677A88EE277A84ED1B7A02B0BDEC028BAB
:103F3000BDE8F08740F2011300918DF80610ADF84E
:103F40000430B6E704F1500002F05EFE072D13D0F6
:103F50004946204601F070FF0EB9002DD0D15146E0
:103F6000504601F091F94046414601F08DF904F1C7
:103F7000120000F079F9C3E7002EF0D1C0E74946FE
:103F8000204601F059FFBBE70508050905070506AE
:103F9000050A060630B585B0002504460122ADF8B5
:103FA0000C102B460399009501F054FA012120468C
:103FB00001F042FB012002F0FBFC2946204601F003
:103FC0003BFB012002F0F4FC0121204605B0BDE8D6
:103FD000304001F031BB00BF10B5C2F3002384B004
:103FE0000C46017C8DF80D2043EA4402FA2402239A
:103FF0008DF80C2003AA009401F03AFD18B10124B9
:10400000204604B010BD04460A2002F0D1FC204630
:1040100004B010BD034670B543F8042B044684B0C9
:1040200007C983E80700A37983B91A210B461E222A
:10403000FA2523742046ADF80C20022303AA00952C
:1040400001F016FD28B1012004B070BD1B210B4604
:10405000EDE70A2002F0ACFC4FF4B85200950223C1
:10406000ADF80C20204603AA217C01F001FD0028B8
:10407000E9D10A2002F09CFC41F202720095022371
:10408000ADF80C20204603AA217C01F0F1FC0028A9
:10409000D9D10A2002F08CFC042200950223ADF84D
:1040A0000C20204603AA217C01F0E2FC0028CAD1A2
:1040B0000A2002F07DFC062200950223ADF80C20B8
:1040C000204603AA217C01F0D3FC0028BBD10A20A2
:1040D00002F06EFC41F2082200950223ADF80C209C
:1040E000204603AA217C01F0C3FC0028ABD10A20A2
:1040F000064602F05DFC0095022303AA217C2046BF
:10410000ADF80C6001F0B4FC00289CD1304602F000
:104110004FFC009522790C232046002A8DF80C30A4
:1041200003AA4FF0020314BF622142218DF80D1043
:10413000217C01F09DFC002885D1304602F038FC3E
:104140002279D4E902310B43DBB20AB943F04003D0
:1041500062790AB143F020030E22FA258DF80D3062
:104160002046009502238DF80C2003AA217C01F043
:104170007FFC00287FF467AF0A2002F019FC1022B0
:1041800000950223ADF80C20204603AA217C01F003
:104190006FFC00287FF457AF0A2002F009FC1221BF
:1041A00000950223ADF80C1003AA217C204601F0F3
:1041B0005FFC00287FF447AF0A2002F0F9FB0122E0
:1041C00009212046FFF708FF003818BF01203BE710
:1041D000F0B5102387B0234C0122002501260027CB
:1041E00002A920460195CDE902234FF48052CDE982
:1041F00004670CF0F3F9642004F0F8FE02A94FF410
:1042000080522046CDE9046702261027CDE90267D7
:104210000CF0E4F90322102302A92046CDE9022381
:1042200000230422CDE904234FF480520CF0D6F988
:1042300040F23223042202A9019310232046CDE943
:104240000223019A012305924FF4805204930CF04B
:10425000C5F940F6060120460CF0E0F9284607B003
:10426000F0BD00BFF80400241C4B00221C494FF095
:10427000400C30B5054689B00220596007219A608C
:104280001A620124DA620A224FF4006EDC600692A0
:104290002022CDE9000104200821CDE902010320FC
:1042A0001021CDE9040108206946C3E904024FF456
:1042B000C072181DC3E906C24FF48052C3E909E277
:1042C0000CF062F938B92846FFF782FF003818BFB2
:1042D000012009B030BD204609B030BDF4040024EF
:1042E00040410052614A0021D0B513688EB00A9156
:1042F000002B40F0B9805E4B01214FF683700C24F7
:1043000011600221D3F8D4200026032742F4805202
:10431000C3F8D420D3F8D42002F480520092009A3B
:10432000D3F8E02042F01002C3F8E020D3F8E020F8
:1043300002F010020192019AD3F8E02042F040020C
:10434000C3F8E020D3F8E02002F040020292029A83
:10435000D3F8E02042F00802C3F8E020D3F8E020D0
:1043600002F008020392039AD3F8E02042F480722C
:10437000C3F8E020D3F8E02002F480720492049A9B
:10438000D3F8E02042F08002C3F8E020D3F8E02028
:1043900002F080020592059AD3F8E02042F0200254
:1043A000C3F8E020D3F8E02002F020020692069A3B
:1043B000D3F8E02042F00402C3F8E020D3F8E03064
:1043C0000C9403F0040307930323079A0B93CDE99E
:1043D000080108A9274806F089F948F23712022394
:1043E00008A925480C94CDE90823CDE90A6706F011
:1043F0007DF94CF20372022308A920480C94CDE900
:104400000823CDE90A6706F071F940F2FF62022342
:1044100008A91B480C94CDE90823CDE90A6706F0EA
:1044200065F94FF60C72022308A916480C94CDE9E1
:104430000823CDE90A6706F059F94FF63F02022337
:1044400008A911480C94CDE90823CDE90A6706F0C4
:104450004DF92022022308A90A480C94CDE90A67E5
:10446000CDE9082306F042F90EB0D0BDF0040024D7
:10447000004402580010025800180258000C02585C
:1044800000200258001C0258001402582DE9F04F79
:10449000DFF8108406460D46144608F118002DED8D
:1044A000028B89B000AF02F04BF9D8F8183073B323
:1044B000D8F81C30D8F80490002B43690BBF4FF09C
:1044C000080A4FF0100A4FF0020B4FF0040BB9F13D
:1044D000000F2AD0A200EA46012B02F1070222F0C7
:1044E0000702ADEB020D6846ADEB020D694600F028
:1044F0003F81022B00F0D680002B6FD02246C847A8
:10450000D5462437BD46BDEC028BBDE8F08FD8F808
:104510001C30002BF5D0D8F804904FF0080A4FF06B
:10452000020B4369B9F1000FD4D1FB61D8F8003018
:10453000BB61002BE5D0D54802F074F96B46BBF1A6
:10454000020F786108EE103AFB6900F083816A4639
:104550005146A2EBC40295466200EA46B2FBFBF26A
:10456000AAEBC40085460AEB8200EE46F861ADEB8B
:10457000010DF8690EEB820CC7F810C0EC46ADEBEC
:10458000010D00EB8201CCF80400CCF8081001EB1F
:1045900082013869E946CCF80C1000EB8201CCF8B6
:1045A00000A001EB8202C9E900E0C9E90212012B77
:1045B00000F06483022B00F06C82002B00F08081FD
:1045C000620849466046BB69984718EE103A24379E
:1045D0009D46BD46BDEC028BBDE8F08F002C8DD012
:1045E0001A46D8ED0C6A9FEDB27A8446331D36F92F
:1045F00022E00CF1080C07EE90EA33F922E00232D7
:10460000F8EEE77A944267EE877A67EEA67A4CED89
:10461000027A07EE90EAF8EEE77A67EE877A67EEBD
:10462000A67A4CED017AE2D8F9612246C847984E45
:10463000D8ED0D6A0020F9692B1D9FED9E7A9FED44
:104640009E6ADFED9E5A22E0F4EEC67AF1EE10FA91
:10465000C0F2C88447F6FE72D1ED017A45F82020F9
:1046600066EEA77AF4EEC77AF1EE10FA40F2F08027
:10467000F4EEC67AF1EE10FAC0F2D58447F6FE7277
:1046800043F820200230083184427FF639AFD1ED63
:10469000007A66EEA77AF4EEC77AF1EE10FAD3D874
:1046A0003246D9E7002C3FF429AFD8ED0C6A844696
:1046B0009FED787A0022331D8E4656F822100CF1B9
:1046C000080C07EE901A53F822100232F8EEE77A3F
:1046D000944267EE877A67EEA67A4CED027A07EE8F
:1046E000901AF8EEE77A67EE877A67EEA67A4CEDD5
:1046F000017AE2D871462246C7F81CE0C847664EE8
:10470000D8ED0D6A0020F9692B1D9FED6A7A9FEDA7
:104710006A6ADFF894C120E0F4EEC67AF1EE10FA8E
:10472000C0F279843246D1ED017A45F8202066EE58
:10473000A77AF4EEC77AF1EE10FA40F28780F4EE31
:10474000C67AF1EE10FAC0F25E84324643F82020B9
:104750000230083184427FF6D3AED1ED007A66EEA6
:10476000A77AF4EEC77AF1EE10FAD5D86246DAE706
:10477000002C3FF4C3AED8ED0C6A86469FED477A15
:104780004FF0000C331D56F82C200EF1080E82F469
:104790000002A2F5000207EE902A53F82C200CF13B
:1047A000020CF8EEE77A82F400026445A2F50002FA
:1047B00067EE877A67EEA67A4EED027A07EE902AC8
:1047C000F8EEE77A67EE877A67EEA67A4EED017A21
:1047D000D9D8F9612246C847314ED8ED0D6A00207C
:1047E000F9692B1D9FED337A9FED336ADFF8BCC06A
:1047F0001FE0F4EEC67AF1EE10FAC0F2FC83324606
:10480000D1ED017A45F8202066EEA77AF4EEC77A5A
:10481000F1EE10FA18D9F4EEC67AF1EE10FAC0F201
:10482000DA83324643F820200230083184427FF692
:1048300067AED1ED007A66EEA77AF4EEC77AF1EEB4
:1048400010FAD6D86246DBE76246EBE762467DE7C0
:10485000324615E7A100D6466208073121F007016C
:10486000ADEB010DEA46ADEB010D6946ADEB0E0D6A
:104870000AEB8200EC46ADEB0E0D01EB8202F86113
:10488000E946CCE900A0C9E9001290E648050024F9
:104890000280FFFF000000300082FF7F0000003434
:1048A00082FF7F002C050024007E00807E0080FFB8
:1048B0000000003804FF7FBF04FF7F3F00FEFF467B
:1048C000002C00F0C982BBF1020FD8F8242000F0C0
:1048D000FA827969C7F8049002EB810E5FED0C5AF9
:1048E0008A00DCF808100EF104007A611A46DCF840
:1048F0000C303B61331DD7F810903D61FD69C7E96D
:1049000002CB8C46834636F92210D8ED0C7A06EE9F
:10491000101A33F9221006EE901A3EF92210B8EE62
:10492000C66A07EE101AF8EEE66A3BF92210B8EEF6
:10493000C77A26EE256A66EEA56A27EE257A26EE68
:10494000276A66EEA76A27EE277A07EE901A5108C3
:104950000232F8EEE77A0AEB8100944280ED006AB9
:1049600005EB810067EEA57AC0ED006A0CEB8100D3
:1049700009EB810180ED007A98ED0C7A67EE877A79
:10498000C1ED007ABFD8D7F804903D69D7E902CBD2
:1049900060466208BB6949469847D8F82C307A6966
:1049A000D8ED0D6A1A441FED3D7A1FED3D6A2B1DAF
:1049B000904602F1040A5FED3F5A0022A84ED9E961
:1049C00000EC51E0F4EEC67AF1EE10FAC0F2C782C4
:1049D00047F6FE7045F822000CEB0100D0ED007A9E
:1049E00066EEA77AF4EEC77AF1EE10FA4BD9F4EE40
:1049F000C67AF1EE10FAC0F2BA8247F6FE70BBF149
:104A0000020F43F822002BD0D9F808000844D0ED5B
:104A1000007A66EEA77AF4EEC77AF1EE10FA36D98C
:104A2000F4EEC67AF1EE10FAC0F2CD8247F6FE70CF
:104A300048F82200D9F80C000144D1ED007A66EE66
:104A4000A77AF4EEC77AF1EE10FA1ED9F4EEC67A20
:104A5000F1EE10FAC0F2AF8247F6FE714AF822106A
:104A6000023294427FF6B1AD51080EEB810089000D
:104A7000D0ED007A66EEA77AF4EEC77AF1EE10FA7E
:104A8000A0D83046A6E73046B9E73146E6E73046DB
:104A9000CEE7002C00F0E081BBF1020FD8F8243003
:104AA00000F0E1817A69DCF8081003EB820EC7F8A8
:104AB00004909300DFED6B5A0EF1040000227B613D
:104AC000DCF80C303B61331DD7F810903D61FD6977
:104AD000C7E902CB8C46834656F82210D8ED0C7AF3
:104AE00007EE101A53F82210B8EEC76A07EE101A34
:104AF0005EF82210F8EEC76A07EE101A26EE256A55
:104B00005BF82210B8EEC77A66EEA56A26EE276A31
:104B100027EE257A66EEA76A27EE277A07EE901A27
:104B200051080232F8EEE77A0AEB8100944280EDF8
:104B3000006A05EB810067EEA57AC0ED006A0CEB18
:104B4000810009EB810180ED007A98ED0C7A67EE27
:104B5000877AC1ED007ABFD8D7F804903D69D7E9CC
:104B600002CB60466208BB6949469847D8F82C30AA
:104B70007A69D8ED0D6A1A449FED3E7A9FED3E6A40
:104B8000131D9246DFF8E4C00022FB612B1D364E58
:104B9000D9E9008E4EE0F4EEC67AF1EE10FAC0F2DA
:104BA000FC81304645F822000EEB0100D0ED007A82
:104BB00066EEA77AF4EEC77AF1EE10FA49D9F4EE70
:104BC000C67AF1EE10FAC0F2EF813046BBF1020F67
:104BD00043F822002AD0D9F808000844D0ED007A22
:104BE00066EEA77AF4EEC77AF1EE10FA35D9F4EE54
:104BF000C67AF1EE10FAC0F2C98130464AF82200B6
:104C0000D9F80C000144D1ED007A66EEA77AF4EEF3
:104C1000C77AF1EE10FA1ED9F4EEC67AF1EE10FA68
:104C2000C0F2AD813146F86940F822100232944258
:104C30007FF6CBAC510808EB81008900D0ED007AFB
:104C400066EEA77AF4EEC77AF1EE10FAA3D86046C2
:104C5000A8E76046BAE76146E5E76046CEE700BFF1
:104C60000280FFFF000000300082FF7F007E008096
:104C70000000003404FF7FBF04FF7F3F002C00F0E2
:104C8000EB807A690021D8F82430C7F8109003EB44
:104C9000820ED7F81C909300FD610EF104021FED07
:104CA0000C6A7B61331D154656F821204808D8ED63
:104CB0000C6ABBF1020F82F40002A2F5000207EEBB
:104CC000902A53F8212082F40002B8EEE77AA2F588
:104CD000000227EE067A07EE902A0AEB8002F8EE31
:104CE000E77A27EE267A67EE867A82ED007A09EB7C
:104CF00080024FEA800067EEA67AC2ED007A27D0E4
:104D00005EF8212082F40002A2F5000207EE902A4C
:104D100055F8212082F40002B8EEE77AA2F50002ED
:104D200027EE067A07EE902ADCF80820F8EEE77AFC
:104D3000024427EE267A67EE867A82ED007A98EDB5
:104D40000C7ADCF80C2067EE877A0244C2ED007A18
:104D500002318C42A8D8D7F8109060466208BB692F
:104D60004946FD699847D8F82C307A69D8ED0D6A24
:104D70001A441FED407A1FED406A131D9246DFF87A
:104D8000C4C20022FB612B1DAB4ED9E9008E4EE060
:104D9000F4EEC67AF1EE10FAC0F2C580304645F85E
:104DA00022000EEB0100D0ED007A66EEA77AF4EE59
:104DB000C77AF1EE10FA49D9F4EEC67AF1EE10FA9C
:104DC000C0F2BF803046BBF1020F43F822002AD068
:104DD000D9F808000844D0ED007A66EEA77AF4EE20
:104DE000C77AF1EE10FA35D9F4EEC67AF1EE10FA80
:104DF000C0F2AE8030464AF82200D9F80C000144D7
:104E0000D1ED007A66EEA77AF4EEC77AF1EE10FAE9
:104E10001ED9F4EEC67AF1EE10FAC0F28B8031465C
:104E2000F86940F82210023294427FF6CEAB510866
:104E300008EB81008900D0ED007A66EEA77AF4EEE7
:104E4000C77AF1EE10FAA3D86046A8E76046BAE741
:104E50006146E5E76046CEE7224649466046BB69C3
:104E60009847FFF7B2BBC7F810B0002298ED0C6A64
:104E7000331DDFED726AD7F81CB0786956F822103E
:104E800007EE901A53F82210B8EEE77A07EE901A60
:104E900051080232F8EEE77A27EE267A0AEB810E05
:104EA00094420BEB810167EEA67A27EE067A67EE55
:104EB000867A8EED007AC1ED007ADFD88300D7F8CC
:104EC00010B07B614DE61A46C7F810B098ED0C6A39
:104ED000331DDFED5B6AD7F81CB0786936F9221014
:104EE00007EE101A33F9221007EE901AB8EEC77ABF
:104EF00051080232F8EEE77A27EE267A0AEB810EA5
:104F000094420BEB810167EEA67A27EE067A67EEF4
:104F1000867A8EED007AC1ED007ADFD88300D7F86B
:104F200010B07B6134E5F0EE675AFEEEE45A15EE00
:104F3000900A34E7F0EE675AFEEEE45A15EE901A46
:104F40006EE7F0EE675AFEEEE45A15EE900A3AE785
:104F5000F0EE675AFEEEE45A15EE900A4BE767EE64
:104F6000A57AFDEEE77A17EE900A00B232E567EE19
:104F7000A57AFDEEE77A17EE900A00B23FE5F0EE73
:104F8000675AFEEEE05A15EE901A4CE6F0EE675ABC
:104F9000FEEEE05A15EE900A30E6F0EE675AFEEEAD
:104FA000E05A15EE900AFDE5F0EE675AFEEEE05A83
:104FB00015EE900A0AE667EEA57AFDEEE77A17EE9F
:104FC000901A09B24AE567EEA57AFDEEE77A17EE88
:104FD000900A00B22CE5F0EE675AFEEEE45A15EEA8
:104FE000902A1FE467EEA57AFDEEE77A17EE902A85
:104FF00012B2FFF731BBF0EE675AFEEEE45A15EE3F
:10500000902AFFF7FDBBF0EE675AFEEEE05A15EE70
:10501000902AFFF79BBBF0EE675AFEEEE05A15EEC2
:10502000902AFFF780BB67EEA57AFDEEE77A17EED0
:10503000902A12B2FFF724BB82FF7F0000000030ED
:10504000000000387E0080FF30B5184C154685B052
:10505000046004F1080EEC460FC98EE80F00D4ED91
:10506000047AF5EEC07A8CE80F00F1EE10FA1ADD42
:10507000B7EE006A94ED057A27EE277AC6EE276A26
:1050800084ED0D7AC4ED0C6A6DB1204640F8185FCE
:1050900001F056FB064903690020064A2162A2621C
:1050A000E36005B030BD012005B030BD2C05002403
:1050B000002000300000003000680830704700BF5A
:1050C000B1F5807F03680A4628BF4FF48072B1F5BE
:1050D000807F9A6094BF00200120704700681830DC
:1050E00001F08EBB70B504688AB0A369E1600BB3B0
:1050F00004F118056FF0F4134FF60B722846ADF863
:105100000C20CDE9013301F01BFB8446EE46E66836
:10511000BCE80F00AEE80F00BCE80F00AEE80F00DF
:105120009CE803008EE8030069462846049601F0D7
:105130000FFA38BBE06918B304F11C056FF0F413E3
:105140004FF60B722846ADF80C20CDE9013301F083
:10515000F7FA8446EE46E468BCE80F00AEE80F00BC
:10516000BCE80F00AEE80F009CE803008EE80300E7
:1051700069462846049401F0EBF9003818BF012075
:105180000AB070BD01200AB070BD00BF30B5046820
:1051900083B00D46E3694BB1A3680020E26A616AFF
:1051A0009B00009004F11C0001F0CCFAA3680748B2
:1051B000A26A9B00216A009004F1180001F0C2FA73
:1051C0000020C4E9005003B030BD00BF8D4400088A
:1051D00010B4074B4FF07E51302400220320196198
:1051E0009C60D8605DF8044B5961C3E906227047A2
:1051F0002C050024B0B51D4682B004461746A5F123
:105200000105069BADF80410B5FA85F5009301F091
:10521000CDFB002201996D09206004F10800009B7C
:105220006771227122776577069202B0BDE8B040BF
:1052300000F010B910B5044601F0B8FB0021226857
:105240002171824200D110BD0346012204F1080001
:105250002360227100F0E4F9227F617F53005BB28A
:1052600081B180F0010252B21343DBB27F2B23776E
:10527000E9D101F09BFB07EE900AF8EE677AC4EDE6
:10528000087A10BD42B2EFE784460FC98CE80F00E0
:105290009CF800300B2B30D09CF801200F2A2CD822
:1052A000022900B591B041D0032902D0012900D0D4
:1052B00000210C91DCF80810012902D0022918BF46
:1052C00000210D91DCF80C10022904D0032902D032
:1052D000012918BF00210A2B0E910FD85B4800EB63
:1052E0008320CCF810000A2B17D8DFE803F0A09237
:1052F0008476685A4C3E3022090070470020F0E75F
:10530000534BD3F8E01041F48061C3F8E010D3F8B8
:10531000E03003F480630A930A9B01230BA99340B6
:105320000B9305F0E3F911B05DF804FB11210C912A
:10533000C0E7474BD3F8E01041F40071C3F8E01028
:10534000D3F8E03003F400730993099BE5E7404B81
:10535000D3F8E01041F48071C3F8E010D3F8E030E6
:1053600003F480730893089BD7E7394BD3F8E01018
:1053700041F08001C3F8E010D3F8E03003F080037F
:105380000793079BC9E7324BD3F8E01041F0400187
:10539000C3F8E010D3F8E03003F040030693069B17
:1053A000BBE72B4BD3F8E01041F02001C3F8E0102D
:1053B000D3F8E03003F020030593059BADE7244BC1
:1053C000D3F8E01041F01001C3F8E010D3F8E0305A
:1053D00003F010030493049B9FE71D4BD3F8E010E8
:1053E00041F00801C3F8E010D3F8E03003F00803FF
:1053F0000393039B91E7164BD3F8E01041F00401AF
:10540000C3F8E010D3F8E03003F004030293029BEA
:1054100083E70F4BD3F8E01041F00201C3F8E0102E
:10542000D3F8E03003F002030193019B75E7084BCA
:10543000D3F8E01041F00101C3F8E010D3F8E030F8
:1054400003F001030093009B67E700BF00000258D0
:105450000044025810B592B0ADF804100180C9B2F2
:10546000149C0B29C460C0E901233FD090F801C00F
:10547000BCF10F0F3AD8022A3FD0032A02D0012AEA
:1054800000D000220E92012B02D0022B18BF002365
:10549000022C0F932CD0032C2AD0012C28D00023CF
:1054A0000A29109327D85C4A02EB812202610A295B
:1054B00014D8DFE801F0A39587796B5D4F41332560
:1054C0000600564BD3F8E01041F48061C3F8E010B9
:1054D000D3F8E03003F480630C930C9B01230DA9F7
:1054E000104603FA0CF30D9305F000F912B010BD4D
:1054F0000A291094D7D90022D8E711220E92C2E7C8
:10550000464BD3F8E01041F40071C3F8E010D3F833
:10551000E03003F400730B930B9BDFE73F4BD3F8B2
:10552000E01041F48071C3F8E010D3F8E03003F4E8
:1055300080730A930A9BD1E7384BD3F8E01041F00F
:105540008001C3F8E010D3F8E03003F08003099342
:10555000099BC3E7314BD3F8E01041F04001C3F899
:10556000E010D3F8E03003F040030893089BB5E760
:105570002A4BD3F8E01041F02001C3F8E010D3F833
:10558000E03003F020030793079BA7E7234BD3F8F2
:10559000E01041F01001C3F8E010D3F8E03003F060
:1055A00010030693069B99E71C4BD3F8E01041F0DB
:1055B0000801C3F8E010D3F8E03003F008030593C6
:1055C000059B8BE7154BD3F8E01041F00401C3F8BD
:1055D000E010D3F8E03003F004030493049B7DE76C
:1055E0000E4BD3F8E01041F00201C3F8E010D3F8FD
:1055F000E03003F002030393039B6FE7074BD3F8FC
:10560000E01041F00101C3F8E010D3F8E03003F0FE
:1056100001030293029B61E7000002580044025814
:1056200008B5012143780069994089B205F060FA14
:10563000003818BF012008BD01230A4641780069DF
:1056400003FA01F189B205F059BA00BF10B5002381
:1056500086B0122204460493CDE902230368022B8C
:105660001FDC002B01DB0423059323790A2B1FD8B1
:10567000114800EB83206279012301A99340019333
:1056800005F034F8A3790A2B14D80B4800EB8320DB
:10569000E279012301A99340019305F027F806B0B0
:1056A00010BD032BE1D10623059323790A2BDFD903
:1056B0000020E0E70020EBE700000258634A03689F
:1056C000934210B58CB028D0614A934258D0614AB9
:1056D000934200F09480604A934201D00CB010BD18
:1056E0005E4C5F48D4F8E03043F00203C4F8E03089
:1056F000D4F8E03003F002030A930A9BFFF7A6FFF9
:10570000D4F8F43043F08003C4F8F430D4F8F43023
:1057100003F080030B930B9BE0E7504C5148D4F807
:10572000E03043F00203C4F8E030D4F8E03003F096
:1057300002030193019BFFF789FFD4F8E8300022B0
:105740001F2043F400131146C4F8E830D4F8E830C1
:1057500003F400130293029BD4F8D83043F0010302
:10576000C4F8D830D4F8D83003F001030393039B76
:1057700003F066FC1F200CB0BDE8104003F09EBC97
:10578000364C3948D4F8E03043F08003C4F8E030B8
:10579000D4F8E03003F080030493049BD4F8E030A5
:1057A00043F00203C4F8E030D4F8E03003F0020321
:1057B0000593059BFFF74AFFD4F8E830002221202B
:1057C00043F480031146C4F8E830D4F8E83003F419
:1057D00080030693069BD4F8D83043F00103C4F845
:1057E000D830D4F8D83003F001030793079B03F0B7
:1057F00027FC21200CB0BDE8104003F05FBC1B4823
:10580000FFF724FF154B00224820D3F8E84011464B
:1058100044F40004C3F8E840D3F8E84004F400047A
:105820000894089CD3F8D84044F00104C3F8D84049
:10583000D3F8D83003F001030993099B03F000FC6F
:1058400048200CB0BDE8104003F038BC00540040C4
:1058500000580040005C0040001C00580044025802
:1058600008080024680500244806002428070024AE
:105870002DE9F0431A4B87B000254FF010099E46E2
:10588000EC46184BFF22E04667461A700EF11806E8
:105890000EF13004CDE90055CDE90255ADF8009088
:1058A000BCE80F00CDE90455AEE80F009CE803000A
:1058B0000095ADF800908EE80300B8E80F000FC621
:1058C0009CE803000095ADF8009086E803000FCF38
:1058D0000FC49CE8030084E8030007B0BDE8F08330
:1058E000040000246405002410B5EFF3108472B6A0
:1058F000084B1A78120602D504B962B610BD1878A2
:10590000054B40B2C0EBC00003EB4010143004F074
:105910009BFBF1E76405002468050024014806F0BC
:10592000E9BC00BFF4050024014806F0E3BC00BF59
:10593000D4060024014806F0DDBC00BFB4070024F3
:105940002DE9F0430D6885B0404EC5EBC503032D2E
:105950004FEA431706EB4313036041DCCA680C4669
:10596000012A3DD84FEAC5084CD020689C466168A2
:10597000A8EB0509A2680DF1100EE36806EB4919C2
:10598000ACE80F00324B227C8CF80020D9F808C01C
:105990000FCB0EE90F000EEB8503BCF1010F53F89E
:1059A000103CC9F88C3032D0BCF1020F43D0BCF1AE
:1059B000000F36D0227C8C37A8EB05050023374436
:1059C000520006EB451601213846C6F8AC30C6E950
:1059D0002521C6E92733C6E9293305F065FF18B14B
:1059E000012005B0BDE8F0830146384606F08EFC84
:1059F0000028F5D10146384606F0B2FC003818BF41
:105A00000120EEE70A7C103A672AAED9E8E701F0F8
:105A100077F9104B98420CBF0F4B104BC9F89030E0
:105A2000C8E701F06DF90B4B98420CBF0C4B0D4BC6
:105A3000C9F89030BEE701F063F9064B98420CBFFD
:105A4000094B0A4BC9F89030B4E700BF6805002441
:105A500048940108000E27072D0FB0303211D020D6
:105A60005F4390608A62E030200BA0101A0980101A
:105A70002DE9F041D0F8008082B00D4617461E4651
:105A800008F18C04204606F03DFC2028FAD1D8F815
:105A90000C3073B96D002046089C33463A46A9B2D3
:105AA000009405F057FF003818BF012002B0BDE890
:105AB000F081089B32463946204606F0EFF9F2E7BE
:105AC0002DE9F041D0F8008082B00D4617461E4601
:105AD00008F18C04204606F015FC2028FAD1D8F8ED
