:020000040800F2
:1000000000000220410A0008350A0008D5730008E4
:10001000350A0008350A0008350A0008000000000B
:10002000000000000000000000000000350A000889
:10003000350A000800000000350A0008597300085E
:10004000350A0008350A0008350A0008350A000894
:10005000350A0008350A0008350A0008350A000884
:10006000350A0008350A0008350A0008416F000803
:100070004D6F0008315A0008596F0008656F00087D
:100080006D560108F1630008350A0008350A0008BA
:10009000350A0008350A0008350A0008350A000844
:1000A000350A0008350A0008350A0008350A000834
:1000B000ED470108F94701080548010825640008D3
:1000C000350A000831640008350A00083540010887
:1000D00041400108A1540108CD540108015501080F
:1000E000350A0008350A000800000000350A00083B
:1000F000350A0008350A0008350A0008350A0008E4
:10010000350A0008350A0008114801084D40010869
:100110003555010869550108350A0008350A0008F7
:10012000350A0008350A000871400108A540010899
:10013000A1560108350A0008350A0008350A0008EA
:1001400000000000000000000000000000000000AF
:10015000350A0008350A0008350A00089D550108CF
:100160003D640008350A0008697300088D730008B3
:10017000350A0008B1730008350A0008350A00087E
:10018000350A0008350A0008D1550108055601084E
:100190005940010865400108350A0008350A000881
:1001A000350A0008350A0008350A0008350A000833
:1001B000416C0008350A0008350A0008350A0008B5
:1001C000350A0008350A0008350A0008350A000813
:1001D000350A0008350A0008350A0008350A000803
:1001E000350A0008350A0008350A0008350A0008F3
:1001F000350A0008350A0008350A0008350A0008E3
:10020000350A0008350A0008350A0008350A0008D2
:10021000350A0008350A0008350A0008350A0008C2
:10022000350A0008350A0008350A000800000000F9
:10023000350A0008350A000800000000350A0008E9
:10024000350A0008350A0008350A0008350A000892
:10025000350A0008350A0008350A0008350A000882
:10026000350A0008350A0008350A0008350A000872
:10027000350A0008350A0008395601080000000058
:10028000350A0008350A0008350A00080000000099
:0802900000000000350A00081F
:1002A00010B5054C237833B9044B13B10448AFF3B0
:1002B00000800123237010BDE00300240000000033
:1002C000C0C5010808B5034B1BB103490348AFF390
:1002D000008008BD00000000E4030024C0C5010840
:1002E00001F0FF01102A2BDB10F0070F08D010F8E7
:1002F000013B013A8B422DD010F0070F42B3F6D1EB
:10030000F0B441EA012141EA014122F007047FF003
:1003100000070023F0E80256083C85EA010586EA5A
:10032000010685FA47F5A3FA87F586FA47F6A5FA96
:1003300087F68EB9EED1F0BC01F0FF0102F00702A2
:1003400032B110F8013B013A83EA010313B1F8D14D
:100350000020704701387047002D06BF354603382E
:10036000073815F0010F07D1013015F4807F02BF67
:10037000013015F4C03F0130F0BC0138704700BFB8
:10038000034613F8012B002AFBD1181A01387047D5
:1003900081F0004102E000BF83F0004330B54FEA36
:1003A00041044FEA430594EA050F08BF90EA020FA3
:1003B0001FBF54EA000C55EA020C7FEA645C7FEA36
:1003C000655C00F0E2804FEA5454D4EB5555B8BF59
:1003D0006D420CDD2C4480EA020281EA030382EACA
:1003E000000083EA010180EA020281EA0303362D5C
:1003F00088BF30BD11F0004F4FEA01314FF4801C2F
:100400004CEA113102D0404261EB410113F0004F40
:100410004FEA03334CEA133302D0524263EB4303F7
:1004200094EA050F00F0A780A4F10104D5F1200E95
:100430000DDB02FA0EFC22FA05F2801841F10001F0
:1004400003FA0EF2801843FA05F359410EE0A5F1C4
:1004500020050EF1200E012A03FA0EFC28BF4CF0F5
:10046000020C43FA05F3C01851EBE37101F00045AB
:1004700007D54FF0000EDCF1000C7EEB00006EEBB8
:100480000101B1F5801F1BD3B1F5001F0CD3490842
:100490005FEA30004FEA3C0C04F101044FEA445299
:1004A00012F5800F80F09A80BCF1004F08BF5FEA20
:1004B000500C50F1000041EB045141EA050130BD00
:1004C0005FEA4C0C404141EB0101013C28BFB1F512
:1004D000801FE9D291F0000F04BF01460020B1FA5D
:1004E00081F308BF2033A3F10B03B3F120020CDA30
:1004F0000C3208DD02F1140CC2F10C0201FA0CF00E
:1005000021FA02F10CE002F11402D8BFC2F1200C72
:1005100001FA02F120FA0CFCDCBF41EA0C01904028
:10052000E41AA2BF01EB0451294330BD6FEA040471
:100530001F3C1CDA0C340EDC04F11404C4F120025C
:1005400020FA04F001FA02F340EA030021FA04F36E
:1005500045EA030130BDC4F10C04C4F1200220FAC5
:1005600002F001FA04F340EA0300294630BD21FA03
:1005700004F0294630BD94F0000F83F4801306BFC9
:1005800081F480110134013D4EE77FEA645C18BFBD
:100590007FEA655C29D094EA050F08BF90EA020F54
:1005A00005D054EA000C04BF1946104630BD91EA4C
:1005B000030F1EBF0021002030BD5FEA545C05D14F
:1005C0004000494128BF41F0004130BD14F580048E
:1005D0003CBF01F5801130BD01F0004545F0FE4102
:1005E00041F470014FF0000030BD7FEA645C1ABF37
:1005F000194610467FEA655C1CBF0B46024650EA6E
:10060000013406BF52EA033591EA030F41F4002199
:1006100030BD00BF90F0000F04BF0021704730B51F
:100620004FF4806404F132044FF000054FF00001F4
:1006300050E700BF90F0000F04BF0021704730B5B5
:100640004FF4806404F1320410F0004548BF40428A
:100650004FF000013EE700BF42004FEAE2014FEADF
:1006600031014FEA02701FBF12F07F4393F07F4FBA
:1006700081F06051704732F07F4208BF704793F0BD
:100680007F4F04BF41F40021704730B54FF46074D0
:1006900001F0004521F000411CE700BF50EA0102D3
:1006A00008BF704730B54FF000050AE050EA01027C
:1006B00008BF704730B511F0004502D5404261EBEC
:1006C00041014FF4806404F132045FEA915C3FF42D
:1006D000D8AE4FF003025FEADC0C18BF03325FEACA
:1006E000DC0C18BF033202EBDC02C2F1200300FA7B
:1006F00003FC20FA02F001FA03FE40EA0E0021FAA0
:1007000002F11444BDE600BF53B94AB9002908BF3D
:1007100000281CBF4FF0FF314FF0FF3000F088B9C8
:10072000ADF1080C6DE904CE00F01AF8DDF804E034
:10073000DDE9022304B07047430803F05533C01AC3
:10074000830803F0333300F03330184400EB10100B
:1007500000F00F3000EB002000EB0040000E70476F
:100760002DE9F047089D04468E46002B4DD18A4264
:10077000944669D9B2FA82F252B101FA02F3C2F197
:10078000200120FA01F10CFA02FC41EA030E944028
:100790004FEA1C48210CBEFBF8F61FFA8CF708FB49
:1007A00016E341EA034306FB07F199420AD91CEB21
:1007B000030306F1FF3080F01F81994240F21C8153
:1007C000023E63445B1AA4B2B3FBF8F008FB10339B
:1007D00044EA034400FB07F7A7420AD91CEB0404D0
:1007E00000F1FF3380F00A81A74240F207816444A0
:1007F000023840EA0640E41B00261DB1D440002325
:10080000C5E900433146BDE8F0878B4209D9002D88
:1008100000F0EF800026C5E9000130463146BDE812
:10082000F087B3FA83F6002E4AD18B4202D382427C
:1008300000F2F980841A61EB030301209E46002D2B
:10084000E0D0C5E9004EDDE702B9FFDEB2FA82F280
:10085000002A40F09280A1EB0C014FEA1C471FFADE
:100860008CFE0126200CB1FBF7F307FB131140EAC5
:1008700001410EFB03F0884208D91CEB010103F192
:10088000FF3802D2884200F2CB804346091AA4B254
:10089000B1FBF7F007FB101144EA01440EFB00FE28
:1008A000A64508D91CEB040400F1FF3102D2A6458D
:1008B00000F2BB800846A4EB0E0440EA03409CE72C
:1008C000C6F12007B34022FA07FC4CEA030C20FAD9
:1008D00007F401FA06F31C43F9404FEA1C4900FAF9
:1008E00006F3B1FBF9F8200C1FFA8CFE09FB181176
:1008F00040EA014108FB0EF0884202FA06F20BD9E9
:100900001CEB010108F1FF3A80F08880884240F238
:100910008580A8F102086144091AA4B2B1FBF9F07C
:1009200009FB101144EA014100FB0EFE8E4508D977
:100930001CEB010100F1FF346CD28E456AD90238FC
:10094000614440EA0840A0FB0294A1EB0E01A142E1
:10095000C846A64656D353D05DB1B3EB080261EB4F
:100960000E0101FA07F722FA06F3F1401F43C5E929
:10097000007100263146BDE8F087C2F12003D8405F
:100980000CFA02FC21FA03F3914001434FEA1C47A1
:100990001FFA8CFEB3FBF7F007FB10360B0C43EA93
:1009A000064300FB0EF69E4204FA02F408D91CEB43
:1009B000030300F1FF382FD29E422DD90238634441
:1009C0009B1B89B2B3FBF7F607FB163341EA0341E1
:1009D00006FB0EF38B4208D91CEB010106F1FF3830
:1009E00016D28B4214D9023E6144C91A46EA004627
:1009F00038E72E46284605E70646E3E61846F8E6B9
:100A00004B45A9D2B9EB020864EB0C0E0138A3E701
:100A10004646EAE7204694E74046D1E7D0467BE7E2
:100A2000023B614432E7304609E76444023842E75A
:100A3000704700BF684620F007018D46FEE700BF03
:100A40000B480C4A904208B503D0121A0A4918F014
:100A5000D9FD0A480A4A904203D0121A002118F020
:100A6000F9FD06F01DFF18F085FD00F00BF8FEE71C
:100A700000000024E0030024F8C50108E00300247E
:100A80007038002400B5ADF29C7D684602F09CFAF7
:100A9000684603F059F9684603F002FA00200DF2A7
:100AA0009C7D5DF804FB00BFF0B52DED068BF7EEE5
:100AB000009A5F4BB0EE408A0025C0F8A430F6EEF5
:100AC000008A89EE80AA5B4B00269FED5B9AC0F8F6
:100AD000E03083B0594B044680F8A06040F2011723
:100AE000C0F88831B0EE490AC0F8A850C0F8AC5040
:100AF00080F8DC60C0F8E450C0F8E85080F8846109
:100B0000C0F88C51C0F8905180ED278A80ED048A9E
:100B100080ED029AC0ED018AC0ED038A856180ED07
:100B200005AA17F01FFDDFED467A20462670C4EDBA
:100B3000027A84ED070AB0EE670AC4ED019A2785B0
:100B400017F010FD04F1B000C4F8C85004F59C750E
:100B500084ED070AB0EE490AC4ED2D8AC4ED2F8A50
:100B600084ED308A84ED31AA84ED2E9A019017F03D
:100B7000F9FCDFED347A019884ED330AB0EE670AB0
:100B800084F8B06004F5CA76C4ED2E7AA4F8D87063
:100B9000C4ED2D9A17F0E6FCF0EE407A04F1EC007B
:100BA000DFED298AB0EE480AC4ED337A019017F0E0
:100BB000EDF901989FED250A17F070FAB0EE680A7A
:100BC000019817F0CFFAB0EE480A284617F0DEF980
:100BD00028469FED1F0A17F061FAB0EE680A284612
:100BE00004F5F07517F0BEFAB0EE480A304617F07B
:100BF000CDF930469FED170A17F050FAB0EE680AAB
:100C0000304617F0AFFAB0EE480A284617F0BEF9A2
:100C100028469FED110A17F041FA2846B0EE680AFF
:100C200017F0A0FA204603B0BDEC068BF0BD00BF64
:100C30009A99993E0AD7233E0000C842EC51B83D2C
:100C40000000824200004843CDCCCC3D00005C4314
:100C500000007A4500E0534500180346D0ED277A9E
:100C60004FF07E5390ED297AC0F8AC3067EE877A6A
:100C7000C0ED2A7A704700BFD0ED277A4FF07E533F
:100C800090ED387AC0F8E83067EE877AC0ED397AAF
:100C9000704700BFD0ED397AF5EEC07AF1EE10FA68
:100CA0003EDDD0ED385AB7EE006AD0ED276A90ED00
:100CB0003A7A66EEA56A77EEC67AC6EE265A10B57F
:100CC0002DED028BC0ED397A0446BFEE008A77EE37
:100CD000657AC0ED3A7A19F0FDF807EE900A9FEDBB
:100CE000127A04F1B000F8EEE77A77EEA77AA7EE71
:100CF000878A17F07DFA04F1EC0038EE000A17F04D
:100D000069F994ED480A04F59C7017F063F994EDC5
:100D10003A0AD4ED5A7ABDEC028B20EE270A10BDB8
:100D20009FED020A704700BF000000300000000085
:100D3000D0ED277A4FF07E5390ED627AC0F8903173
:100D400067EE877AC0ED637A704700BFD0ED637AB3
:100D5000F5EEC07AF1EE10FA2ADDB7EE007A10B5A2
:100D600077EEC77A0446C0ED637A19F0B3F807EE60
:100D7000900ABFEE000A9FED107AF8EEE77A04F5CC
:100D8000CA7077EEA77AA7EE870A17F023F994EDD9
:100D9000720A04F5F07017F01DF994ED640A94EDF1
:100DA000847ADFED067A20EE070A20EE270A10BDCE
:100DB0009FED030A704700BF00000030CDCCCC3E51
:100DC00000000000D0ED2A7AF5EEC07A10B5F1EE01
:100DD00010FA04462DED028B28DDD0ED295AB7EE2E
:100DE000006AD0ED276A90ED2B7A66EEA56A77EE61
:100DF000C67AC6EE265AC0ED2A7A77EE657AC0ED3D
:100E00002B7A17F0F5F994ED2B8A60EE088A2046CC
:100E1000FFF740FFB0EE408A2046FFF797FF38EE1D
:100E2000288A38EE000ABDEC028B10BDDFED018A86
:100E3000EDE700BF000000002DE9F04FD0E902A56A
:100E40000468531A83B08146AAEB040E05EBCE0E5C
:100E5000734527D2002B40F3558101390022CD186C
:100E600009E020681F2A43EA000323600FD08D4267
:100E700002F1010211D0012311F8010F9340002863
:100E8000EFD120681F2A20EA03032360EFD18D42AF
:100E900004F104044FF00002EDD1C9E9024203B0AD
:100EA000BDE8F08FBEF1000F01EB0E0725DD013923
:100EB000A446002001EB0E080BE0DCF800601F28C0
:100EC00043EA0603CCF8003011D0884500F1010058
:100ED00013D0012311F8016F8340002EEDD1DCF80F
:100EE00000601F2826EA0303CCF80030EDD18845C6
:100EF0000CF1040C4FF00000EBD1BA42CFD0D9F87E
:100F00001030A2EB07081B1BCEEBC303984540F241
:100F1000B680844AA2EB0E03984500F20081C645D4
:100F2000734638BF43461EEB030380F0F5809342BF
:100F300028BF13461F335B099B000093009817F0EE
:100F400061FBD9F800B00190DA45AAEB0B0603D09B
:100F50003246594618F064FB019B002D29461E4479
:100F600040F3D8805046002403E0013904F1010425
:100F700012D001230268A3401342326814BF1A43FF
:100F80009A431F2C3260F0D1013900F1040006F1C0
:100F900004064FF00004ECD1B8F1000F1EDD013F54
:100FA000B84409E032681F2C43EA020333600FD0D3
:100FB000B84504F1010411D0012317F8012FA34013
:100FC000002AEFD132681F2C22EA03033360EFD1ED
:100FD000B84506F104064FF00004EDD1D9F8081029
:100FE000D9F80C30A1EB0A015B1B03EBC10100290E
:100FF00008DC22E01F2C05F1010518D0013904F1AD
:1010000001041AD00123DAF8002003FA05F0A34006
:101010001042326814BF134322EA03031F2D3360CA
:10102000E8D11F2C0AF1040A4FF00005E6D101397E
:1010300006F104064FF00004E4D1BBF1000F0FD01D
:10104000D9F810105846A1EB0B0117F096FA0023BF
:10105000C9E9023309F1080393E8030089E80300B2
:10106000DDE90032C9F808601344C9F80020002205
:10107000C9E90343C9F8042003B0BDE8F08F05EBCC
:101080000802002A1046B8BF02F11F00534202F0C6
:101090001F0203F01F034FEA601058BF5A420AEBC9
:1010A0008000002A30DBB8F1000F144625DD013F37
:1010B000B8440BE0DAF800101F2D43EA0103CAF828
:1010C000003011D0B84505F1010513D0012317F800
:1010D000011FAB400029EDD1DAF800101F2D21EAE5
:1010E0000303CAF80030EDD1B8450AF1040A4FF005
:1010F0000005EBD1002A00DA0438C9E9020403B084
:10110000BDE8F08F0022C8E6B8F1000F02F120041C
:10111000CDDCF1E700243FE7034B00930EE70348E3
:1011200017F025FBE0FFFF7FFCFFFF0F38AD010844
:101130002DE9F041037804469FED376A07EE103A37
:10114000D0ED016A8268B8EEC77AC6EE077A67EE1C
:10115000A67AFDEEE77A17EE905A002DB4BF05F19E
:101160000F0317EE903A1B1192FBF3F603FB1623C5
:101170000BB90F2E09DD0132AA4202DAA260BDE8E6
:10118000F0810023A360BDE8F08190F830200127B2
:10119000C36806F01F00C2EB021187404FEA5618E1
:1011A00053F8210003EB810350F828100F4228D197
:1011B000996A51F828100F4218D15B6953F828300A
:1011C0001F420DD1A369A16B03EB021300220A7128
:1011D0009B5D1BB10123A2680B71CCE7A268CAE733
:1011E000606BFFF7A5FD94F83020EBE7606BFFF72D
:1011F00043FD94F83020E368C2EB021103EB810356
:10120000DBE7606BFFF72AFD94F83020E368C2EB60
:10121000021103EB8103CBE7000070432DE9F84F87
:10122000D0E9008A0F4691466FF07841AAEB080298
:10123000B1EB221F5FD013110646A7EB0804012B68
:101240001D4638BF01255D1953D2002D47D1AB464D
:10125000D9F800200BEB0403002C4BF80420D9F83C
:1012600004205A60D9F808209A60D9F80C20DA6076
:1012700024DCAAEB070A1034BAF1000F5C4413DC3B
:101280005444B8F1000F04D1B560C6E900B4BDE81C
:10129000F88FB168A1EB0801404617F06EF9B56010
:1012A000C6E900B4BDE8F88F20463946524654449A
:1012B00018F0A8F9B8F1000FE6D0EAE7AAEB070AA0
:1012C000224641465846103418F0AAF9BAF1000FE8
:1012D0005C44E9DCB1685444A1EB0801DCE78D42D1
:1012E00028BF0D462D01284617F08CF9834605448A
:1012F000AEE7024DF7E7024817F039FAF0FFFF7F3B
:1013000058AD01082DE9F84300250F460646056053
:1013100085608B6809684560C5605B1AFC6805617B
:1013200014EBC3042ED1234622460461C0E90044D5
:10133000C6E90224D7E90254A942A5EB010704D06B
:1013400018463A4618F06CF90346B4F1000C03EB6A
:10135000070214DD0021012328688B400342106836
:1013600014BF034320EA03031F2901F101011360A5
:1013700002D1043504320021BCF1010CEBD130461E
:10138000BDE8F88304F11F084FEA5819AC42A8BF22
:10139000A0464FEA89094FEA6818484617F032F923
:1013A000291B04F01F0400EB090201F01F01034692
:1013B000326100EB880258BF4C4275603060AC422D
:1013C00001DA2034043A3968B2E700BF2DE9F04F62
:1013D00089B003681446A44A049040680293C31A73
:1013E00001919B10CDE9060102FB03F39F498B425B
:1013F00000F03681012B1A4638BF01229B1880F07D
:101400002A81DDE90120161A002B40F015813C25C8
:1014100005930393039F21463E443046FFF772FF36
:1014200004F1140106F11400FFF76CFF04F1280128
:1014300006F12800FFF766FF019B1946029B9942BF
:1014400076D003F13C06BA46984600E09A46A6F1EB
:101450003C09A6F134070AF1080B0023A6F1280481
:10146000A6F120050AF1140E0AF11C0CA6F11402D3
:1014700099E803008AE8030097E803008BE803007B
:1014800056F82C1CCAF8101046E90D3397E80300F3
:1014900089E8030046F82C3C94E803008EE803003A
:1014A00095E803008CE8030056F8181CCAF82410CD
:1014B00046E9083395E803000AF1300584E80300A3
:1014C00046F8183C0AF1280492E8030084E8030077
:1014D000A6F10C0494E8030085E8030056F8041C08
:1014E000CAF8381046E9033394E8030082E80300A1
:1014F00046F8043C10B1414217F03FF856F8280C6A
:1015000020B156F8181C091A17F037F856F83C0C99
:1015100020B156F82C1C091A17F02FF808F13C08D6
:10152000019A0AF13C033C3642458FD10AF1780515
:10153000019B06998B426ED03C338946DDF81C80B6
:101540001C46A4F13C06A4F13402002305F108076F
:10155000A4F1200C96E8030085E8030092E803005C
:1015600044E90D3387E8030092E80300A4F128075B
:1015700054F82C2C86E803002A6105F1140244F883
:101580002C3C54F8186C97E8030082E803009CE8B0
:10159000030005F11C0244E9083382E803009CE8DB
:1015A0000300A4F114026E6205F1280605F1300C67
:1015B00087E8030044F8183C54F8047C92E80300E0
:1015C00086E80300A4F10C0696E8030044E903331F
:1015D0008CE8030096E80300AF6382E8030044F858
:1015E000043C10B1414216F0C8FF54F8280C20B159
:1015F00054F8181C091A16F0C0FF54F83C0C20B11E
:1016000054F82C1C091A16F0B8FF08F13C083C35B8
:101610003C34C14595D1029B2BB1049A1846916880
:10162000C91A16F0AAFF049B0399059AC3E900158D
:101630009A6009B0BDE8F08F8B4228BF0B46C3EB20
:1016400003139D00284616F0DDFF4219039000F1B8
:101650003C050592DEE6DDE90132054D9E1AF1E713
:10166000044817F084F800BFEFEEEEEE22222202CB
:10167000F8FFFF7F58AD0108F0B5692395B000244D
:10168000454E01AD80ED010A0746C46280F8304046
:101690001394037041638263C0E90344C0E90544C5
:1016A000C0E90744C0E90944CDE90544CDE9074450
:1016B000CDE90944CDE90B44CDE90D44CDE90F4412
:1016C000CDE9114496E80F0085E80F0005AA2946E8
:1016D00010361046FFF7B0FB012305AA29460FA8D4
:1016E0006C60EC600194AC608DF808308DF81030BF
:1016F000FFF7A2FB96E80F0085E80F0005AA294630
:101700000AA8FFF799FBD7E904439C4235D005A905
:101710002046FFF7F7FD0AA904F11400FFF7F2FDD8
:101720000FA904F12800FFF7EDFD3B693C333B6155
:101730001A4BD7E907460FCBB44285E80F0023D0F8
:1017400004F110060FCD20606160A260E360FE61CD
:101750000F9818B11399091A16F00FFF0A9818B1CB
:101760000E99091A16F009FF059818B10999091A76
:1017700016F003FF384615B0F0BD05AA214607F163
:101780000C00FFF723FED3E72A46214607F1180095
:10179000FFF744FDDCE700BF70AC010890AC010826
:1017A000037933B370B5D0E90D462DED028BB44209
:1017B00005469FED118A07D020462C3416F018FDFF
:1017C00038EE008AA642F7D105F1080016F010FDA8
:1017D00005F1400030EE080A16F0FCFB95ED1D0AFD
:1017E00005F18C0016F0F6FB95ED2F0ABDEC028B8F
:1017F00070BD9FED010A7047000000002DE9F04F19
:10180000D0E90085444E0C46A5EB0803434983B05C
:101810009B1006FB03F38B427AD0012B1E46074632
:10182000A4EB080B38BF0126F6186FD2002E5CD14E
:101830004FF02C0AB146964609EB0B0C4445BEE826
:101840000F00ACE80F00BEE80F00ACE80F009EE808
:1018500007008CE8070027D009F12C0BC246D646BA
:10186000ABF12C0C0AF12C0A0BF12C0BBEE80F008B
:10187000ACE80F00BEE80F00A245ACE80F009EE800
:1018800007008CE80700EAD1A4F12C0A244BAAEB4C
:10189000080A4FEA9A0A03FB0AFA2C232AF0404A64
:1018A0000AF1020A03FB0A9AAC420FD02A1B1C4B16
:1018B000504621462C3A920803FB02F22C2322F0D8
:1018C000404202FB0332924417F09CFEB8F1000F35
:1018D00005D0B9684046A1EB080116F04EFEBE6087
:1018E000C7E9009A03B0BDE8F08F8E424FF02C0399
:1018F00028BF0E4603FB06F63046019216F082FE24
:10190000019A8146064400F12C0A94E7054EF3E75C
:10191000054816F02CFF00BFA38B2EBA2EBAE802A2
:10192000A38B2E3AE8FFFF7F58AD0108D0E90D32B6
:101930002DE9F0479A4205460E4600F134082DED98
:10194000028B18BF83638CB0D1E900934B4577D0ED
:10195000002710E0BEE80F000137ACE80F00BEE83A
:101960000F00A742ACE80F009EE807008CE80700D4
:10197000C5F838A064D2B7EE008AD5ED007A4FF0F2
:101980007C5300229FED5B0A01A888EE277ACDEDFB
:10199000057A0293049307928DED030A8DED067A82
:1019A00016F0E0FD3368F2EE080A9FED537AF0EE90
:1019B000406A03EB870340F20112B0EE000AD3ED58
:1019C000007A0723ADF82C20F8EEE77A8DF8043082
:1019D000CDED086A77EEC77AC7EEA00A17F07CF95A
:1019E000DFED467A01A820EE270A8DED030A16F0F6
:1019F000B9FDA96B0DF1040EEB6B8C4601F12C0ABD
:101A000099428DED080AD6E90094A4EB09044FEA47
:101A1000A40404F1010207EE902AF8EE677A88EE3A
:101A2000277A8DED027A95D101AA4046FFF7E6FEAE
:101A30000137D6E90094A4EB0904A410A7429AD375
:101A400007239FED2D7AF2EE080A2F462B72B0EE97
:101A5000000AD9ED007A40372C46F8EEE77A8C344C
:101A600077EEC77AC7EEA00A17F036F99FED237A12
:101A700005F10800F6EE007A20EE070A20EE270AAC
:101A800085ED040A16F06EFDF0EE407AF7EE006A7E
:101A900095ED000A3846C5ED097AD6E900239B1A70
:101AA0009B10013307EE903AF8EE677A86EEA77A3C
:101AB00085ED037A16F06AFA38469FED0E0A16F0A5
:101AC000EDFA38469FED0E0A16F04CFB95ED000A34
:101AD000204616F05BFA20469FED0A0A16F0DEFA61
:101AE0009FED070A20460CB0BDEC028BBDE8F04725
:101AF00016F038BB0000C84200008A420000DC43F8
:101B0000CDCCCC3D0000FA44D0F88830B2EE0E7A4D
:101B10002DE9F0412DED028B93F83D30064682B061
:101B20005C3007EE903A06F110080190F8EEE77A83
:101B300087EE870A86ED190A16F014FD019886EDE6
:101B40001E0A16F055FB9FED2F7ADFED2F7A4046E7
:101B5000E0EE077AB0EE670A16F0A0FAD6E9014780
:101B6000A74246D00025DFED298A204616F040FB2B
:101B7000B0EE408A94F85C1004F12C0016F0AEF937
:101B8000DFED237A28EE000A0023603404F8043CD9
:101B9000B0EEC07AB4EEE77AF1EE10FA02DD78EE3C
:101BA000808A0135A742E0D18DB99FED180A28EE51
:101BB000800A404616F00EFA96ED100ADFED157A0F
:101BC00020EE270A02B0BDEC028BBDE8F08107EEE3
:101BD000905AB8EEE70AB5EE400AF1EE10FA0BD4CF
:101BE000F1EEC07AB7EE007A87EE270A20EE280AD7
:101BF000DFE79FED060ADCE717F03EFBF0EE407AE8
:101C0000F0E700BF00E0124500A0254500000000FD
:101C1000ACC527379A99593F38B50B4604464068FA
:101C2000002103EB430300EB43105D012C3016F061
:101C3000A7F8636801222B4483F85C2038BD00BFFD
:101C40002DE9F04FD0E900A681463D48A6EB0A03F6
:101C50000F4611463B4A5B1183B000FB03F39342EE
:101C60006AD0012B9846A7EB0A0538BF4FF0010850
:101C700018EB03035ED2002B4AD1984660249B46A2
:101C80000BEB0500602217F0BDFC57451CD00BF193
:101C90006005544621466034A5F16000602217F0CB
:101CA000B1FCBC4205F16005F4D1A7F16004264BFC
:101CB000A4EB0A04640903FB04F424F0784402341E
:101CC00004EB44040BEB4414B74210D0F21B1E4B40
:101CD00020463946603A520903FB02F222F078426C
:101CE000013202EB42025201144417F08BFCBAF1AC
:101CF000000F06D0D9F808105046A1EB0A0116F0E3
:101D00003CFCC9F80880C9E900B403B0BDE8F08F15
:101D1000934228BF134603EB43084FEA481420467A
:101D2000019116F06FFC019900EB0408834600F165
:101D30006004A5E7054CF2E7054816F018FD00BF62
:101D4000ABAAAAAA55555501ABAAAA02E0FFFF7F8C
:101D500058AD0108F0B50546002310300C462F465B
:101D600005F15C062DED068B9BB0A7EC010AF0EEA9
:101D7000409AC5F88810EB60B7EE008A0190C5E97B
:101D8000013316F003F99FED580A019816F086F911
:101D9000B6EE000A019816F0E5F988EE29AA4FF090
:101DA0007C539FED520A3046C5ED1B9A2B66AB66FD
:101DB000002385ED190A6B6785ED1CAA16F0D2FB8E
:101DC00094F83D30B2EE0E7A85ED1E0A07EE903A99
:101DD00040F2011201233046F8EEE77A85ED188AC9
:101DE000A5F88420102685F85C3087EE870A85EDFB
:101DF000190A16F0B7FB85ED1E0A05E017F002FC84
:101E00006034013EAC6069D09FED398A4FF07C525E
:101E1000384B00219FED350A02A803920124059258
:101E2000ADF860100F931193129313938DED0D8AFB
:101E30008DED0E8A8DED108A8DED148A8DED158A4B
:101E40008DED168ACDED069A8DED07AA8DED040A6B
:101E50008DED088A16F086FBF0EE407A40F2011311
:101E60009FED259A02A8B0EE480AADF83030CDEDCE
:101E7000097A8DF808408DED039A8DED048A16F0ED
:101E800071FBF0EE407A2146B0EE690A0DA8DFED55
:101E90001B8ACDED097A15F003FFF0EE480A0DA874
:101EA0009FED170A15F074FFB0EE680A0DA815F043
:101EB000C5FF0DA8B0EE490ACDED0D8A15F0E6FF7D
:101EC000602202A9D5E902439C42204696D102AA8B
:101ED00021463846FFF7B4FE013E95D128461BB097
:101EE000BDEC068BF0BD00BF00803B450000C84242
:101EF00000000000000080BFCDCC4C3F9A99993E75
:101F00000AD7A33B2DE9F84FD0E900890F46924646
:101F10006FF06041A9EB0802B1EBA20F54D093100F
:101F20000646A7EB0805012B1C4638BF01241C19E7
:101F300048D2002C3CD1A346DAF80030002D4BF8F3
:101F4000053024DCA9EB07090435B9F1000F5D4425
:101F500013DC4D44B8F1000F04D1B460C6E900B5FC
:101F6000BDE8F88FB168A1EB0801404616F005FB0B
:101F7000B460C6E900B5BDE8F88F284639464A4640
:101F80004D4417F03FFBB8F1000FE6D0EAE7A9EBAC
:101F900007092A4641465846043517F041FBB9F176
:101FA000000F5D44E9DCB1684D44A1EB0801DCE7BA
:101FB0008C4228BF0C46A400204616F023FB834623
:101FC0000444B9E7024CF7E7024816F0D0FB00BF23
:101FD000FCFFFF7F58AD01082DE9F84FD0E90089DB
:101FE0000F4692466FF06041A9EB0802B1EBA20FD9
:101FF00054D093100646A7EB0805012B1C4638BFAA
:1020000001241C1948D2002C3CD1A346DAF8003038
:10201000002D4BF8053024DCA9EB07090435B9F194
:10202000000F5D4413DC4D44B8F1000F04D1B460DF
:10203000C6E900B5BDE8F88FB168A1EB08014046DC
:1020400016F09BFAB460C6E900B5BDE8F88F2846E3
:1020500039464A464D4417F0D5FAB8F1000FE6D09C
:10206000EAE7A9EB07092A4641465846043517F026
:10207000D7FAB9F1000F5D44E9DCB1684D44A1EB3A
:102080000801DCE78C4228BF0C46A400204616F06D
:10209000B9FA83460444B9E7024CF7E7024816F060
:1020A00066FB00BFFCFFFF7F58AD01080023D1F89D
:1020B00000C02DE9F041054686B088461E464868B6
:1020C0000093CDE9013360451FD0002408E042F8B9
:1020D000043B0134A0EB0C030192B4EBA30F14D228
:1020E00001995CF82430029F0A463344B9420393B5
:1020F000EDD1684603AAFFF76FFF0134D8E900C0AD
:10210000A0EB0C03B4EBA30FEAD30C36302EDAD1DC
:1021100000230098042719461E460593CDE9033392
:102120001EE0C2593C1D43F8042B8B4200EB040215
:10213000049325D00259043F43F8042B8B4200EB53
:102140000702049326D0C25943F8042B0493019B41
:102150001B1A9B10033BB34222D32746DDE904310F
:102160008B4206F1010600EB0702DAD103A83C1D01
:10217000FFF7C8FE0098DDE9043102198B42D9D17E
:1021800003A8043FFFF7BEFE0098DDE90431C21941
:102190008B42D8D103A81946FFF7B4FE0098D6E7C2
:1021A00000263746039BF2EE080A9FED177AB0EE41
:1021B000000A33446C680436D3ED007A3C4460373F
:1021C000F8EEE77A77EEC77AC7EEA00A16F084FD3C
:1021D000DFED0E7A204620EE270A84ED020A16F083
:1021E000C1F9442E84ED070ADCD1039818B1059992
:1021F000091A16F0C2F9009818B10299091A16F0D6
:10220000BCF906B0BDE8F08100008A420000DC4362
:1022100010B50446406818B1E168091A16F0ADF926
:10222000204610BD002A47D0F8B5244D0F4616466B
:1022300000242B682DED028BD3F89407FEF778FF6E
:10224000286800F5D760FFF7ABFA2868B0EE408A3F
:1022500000F28C40FEF7B6FD2B68F0EE408AD3F812
:102260009007FFF751FC9FED167A2B6868EE878A7E
:10227000DFED147A93ED026A28EE078AD3ED016A46
:10228000E8EE867ADFED105A93ED007A20EE250A0B
:10229000D7E90020E8EE267A02EB840C00EB8400FC
:1022A0000134A642E0EE077ACCED007AC0ED007A68
:1022B000C2D1BDEC028BF8BD704700BF24040024DE
:1022C000CDCC4C3E000000009A99193F70B585684E
:1022D000064685B12C462D68606804F10C039842CF
:1022E00003D0E168013116F048F92421204616F0A8
:1022F00044F9002DEED1726800213068920017F089
:10230000A9F9306806F11803002271689842C6E9FD
:10231000022202D0890016F030F9304670BD00BFAD
:10232000F8B5D0E909570646BD420FD005F10804BB
:1023300054F8080CA04204F1180403D0A968013134
:1023400016F01BF91835AF42F2D1776A27B1F16A5E
:102350003846C91B16F011F9B06918B1316A091A6B
:1023600016F00BF9D6E90345AC4218D0A36A18461B
:102370001BB1A16BC91A16F000F9636918461BB1AD
:10238000616AC91A16F0F9F8236818461BB1216969
:10239000C91A16F0F2F83C34A542E7D1F56825B128
:1023A00071692846491B16F0E8F83046F8BD00BFB1
:1023B00070B5844982B001240546B7EE000A0023B7
:1023C0002246096800F5B470009403F057F87E497E
:1023D000224605F5D870B7EE000A0023096800947C
:1023E00003F04CF87949224605F50770B7EE000A6C
:1023F00000230968009403F041F87549224605F569
:102400001970B7EE000A00230968009403F036F84B
:102410007049224605F52B70B7EE000A00230968C3
:10242000009403F02BF86C49224605F5A270B7EE34
:10243000000A00230968009403F020F86749224647
:1024400005F5C670B7EE000A00230968009403F092
:1024500015F86349224605F5EA70B7EE000A002335
:102460000968009403F00AF85E49224605F5FC70FD
:10247000B7EE000A00230968009402F0FFFF5A49F2
:10248000224605F51070B7EE000A00230968009493
:1024900002F0F4FF5549224605F52270B7EE000A16
:1024A00000230968009402F0E9FF5149224605F52E
:1024B0003470B7EE000A00230968009402F0DEFFD2
:1024C0004C49224605F1B400B7EE000A0023096822
:1024D000009402F0D3FF4849224605F1D800B7EE38
:1024E000000A00230968009402F0C8FF434922460D
:1024F00005F1FC00B7EE000A00230968009402F021
:10250000BDFF3F49224605F59070B7EE000A002353
:102510000968009402F0B2FF3A4922462846B7EE15
:10252000000A00230968009402F0A8FF36492246F9
:1025300005F12400B7EE000A00230968009402F0B8
:102540009DFF3249224605F14800B7EE000A0023FC
:102550000968009402F092FF2D4A2E4E05F16C009E
:102560001168B7EE000A22460023009402F086FFAD
:102570002246316805F19000B7EE000A002300946E
:1025800002F07CFF2246316805F53D70B7EE000A87
:102590000023009402F072FF2246316805F5467070
:1025A000B7EE000A0023009402F068FFB7EE000ABD
:1025B00000232246316805F54F70009402F05EFF5B
:1025C00002B070BDE0AD0108E4AD0108E8AD01085E
:1025D000ECAD0108F0AD0108F4AD0108F8AD01085B
:1025E000FCAD010800AE010804AE010808AE010808
:1025F0000CAE01081CAE010818AE010814AE0108AB
:1026000010AE010820AE010824AE010828AE010872
:102610002CAE010830AE010870B500F584640021CD
:102620000546204607F064F9204606F0EDF970B340
:1026300000261BE006F0F2F9D5F890071749D0E91B
:102640000132D31A5B1101FB03F3DBB207EE903AC0
:10265000F8EEE77A27EE800AFDEEC07A17EE901AC0
:1026600091FBF3F203FB1211FFF7D6FA204606F0B6
:10267000CBF90346F1B22046B34206F10106D9D8A0
:1026800005F10C000121BDE8704001F083BC01465A
:1026900005F10C00BDE8704001F07CBCABAAAAAA11
:1026A00038B500F1240500210446284603F05EF900
:1026B000DFED547AB4EEE70AF1EE10FA06D49FED9E
:1026C000527AB4EEC70AF1EE10FA4EDD0121284627
:1026D00003F04CF9DFED4B7AB4EEE70AF1EE10FAB5
:1026E00006D49FED497AB4EEC70AF1EE10FA54DD34
:1026F0000221284603F03AF9DFED427AB4EEE70A08
:10270000F1EE10FA06D49FED407AB4EEC70AF1EE6E
:1027100010FA12DD0321284603F028F9DFED3B7A99
:10272000B4EEE70AF1EE10FA06DBB7EE007AB4EE8B
:10273000C70AF1EE10FA48D938BD70EE677A9FEDFE
:10274000346AB7EE000AF2EE026A87EE867A70EE1D
:10275000477AA7EEA60A16F059FDB5EEC00AF1EECB
:1027600010FAA8BF84ED020AD4E770EE677A9FEDF5
:10277000286AB7EE000AF2EE026A87EE867A70EEF9
:10278000477AA7EEA60A16F041FDB5EEC00AF1EEB3
:1027900010FAA8BF84ED000A98E770EE677A9FED03
:1027A0001C6AB7EE000AF2EE026A87EE867A70EED5
:1027B000477AA7EEA60A16F029FDB5EEC00AF1EE9B
:1027C00010FAA8BF84ED010A92E730EE670A9FED88
:1027D000115ADFED116ADFED115AC0EE057A9FED57
:1027E000106A37EE677AF0EE667AE7EE257AC7FE72
:1027F000A67AC7FEC67AFCEEE77A17EE903A84F81E
:10280000BD3038BD103E783D1F7C703F103EF83C17
:102810003EF8603F103E783F000048420000B4425E
:1028200000000C432DE9F0479946036853F82160F6
:1028300006B335680746884692462C6A0BE02C683A
:102840002E462546CCB1246A7B68B4FBF3FC03FB1F
:102850001C4CE04515D14C45F1D1DAF80420AB68A9
:102860009A42ECD132B16968DAF8000016F0BAFE8B
:102870000028E4D13046BDE8F08726463046BDE862
:10288000F08700263046BDE8F08700BF2DE9F04F05
:10289000914600F118020D46002704462DED028BEB
:1028A00087B002600392A9EB01029349921002FBE8
:1028B00001F1994238BF19464FF07E53036101235D
:1028C000436000F11003C0E90277C0E905771846BC
:1028D00008EE103A15F052FF6368834213D20128C4
:1028E000064600F0FB80B0F1005F80F0FF808200C0
:1028F0001046029215F086FE3946029A074616F0F7
:10290000A9FEC4E900764D4505D162E00368ABB18C
:102910001C35A9455DD0794AD5E9000115F03EFE88
:10292000616806462A4620463346B6FBF1F701FBAE
:1029300017673946FFF776FF0028E7D1242015F006
:1029400061FED5F800A06B680146002280461AEBB4
:10295000030F41F80C2B416003D0BAF1000F00F0D7
:10296000C7800F2B04933FD8012B38D19AF8002051
:102970000DF1100B88F80C204FF0000AC8F8083051
:10298000584601F803A018EE101AAB69C8F81C30BD
:1029900001230093E368626815F03CFF9DF8103056
:1029A000002B3AD1D4F800A05AF827300AEB87025E
:1029B000C8F82060002B6CD01B68C8F800305AF8AB
:1029C0002730C3F80080E3681C350133A945E36074
:1029D000A1D1204607B0BDEC028BBDE8F08F0DF110
:1029E000100B002BC8D00FE00DF1100B002208F1E6
:1029F00004000293594615F055FF049A0146029BC4
:102A0000C8F80400C8F80C201A460846514616F0CB
:102A1000F9FD049BD8F80410AEE7059F012F60D0A4
:102A2000B7F1005F62D2BA001046029215F0EAFDDB
:102A30005146029A824616F00DFEA0680023A3605C
:102A400088B19C4602460068136AB3FBF7F107FBA6
:102A500011335AF8231071B3096811605AF8233002
:102A60001A600028EED1039BD4E90001834202D012
:102A7000890015F082FDB6FBF7F3C4E900A707FB58
:102A800013675AF827300AEB8702C8F82060002B3A
:102A900092D1A368C4F80880C8F800303BB11B6A23
:102AA0006168B3FBF1F001FB10334AF8238004F1B5
:102AB0000803136087E7A1681160214641F8082FD9
:102AC0004AF82310116829B14AF82C209C460028A6
:102AD000B8D1C8E79C460028B4D1C4E7A761039FDA
:102AE0000FE7C4F818A0DDF80CA0A6E715F039FE32
:102AF000034815F039FE00BFB76DDBB607690FC795
:102B000074AD01082DE9F04F754FE1B006463B78F2
:102B1000BFF35B8F13F001051AD0724C724AD6E9ED
:102B2000000115F03BFD6168034620463246B3FBC9
:102B3000F1F401FB1431FFF775FE002800F0CC80A2
:102B40000368002B00F0C880D86961B0BDE8F08F41
:102B5000384615F014FD0028DFD00DF1540A0EABF5
:102B60004FF03C0B0CACC4F81CA04FF03D0A022205
:102B70004FF0450CC4F834A00DF1700A4FF0410E2F
:102B80004620C4F838A04FF03E0A42214FF04309D6
:102B9000C4F850A00DF18C0A4FF044082360C4F82B
:102BA00054A046F2452A0123C4F818B0ADF88CA011
:102BB0004FF03F0A46F2442BA4F878C0C4F86CA04A
:102BC0000DF1A80AC4F8A4E0C4F870A04FF0400AC0
:102BD0006360C4F888A00DF1C40AE363C4F88CA054
:102BE0000DF1E00A6367C4F8A8A046F2472AC4F8CA
:102BF0009030ADF8E0A00DF1FC0A2262A265C4F8A5
:102C0000AC20A4F89400C4F8C01084F85E5084F896
:102C1000B25084F82650A4F80890A4F84080ADF88B
:102C200054B0C4E931A3C4F8E420C4F81C2108AAB4
:102C3000A4F804E1C4F814C1C4F83001A4F83C11AC
:102C4000472184F8EA50C4F80031C4F838312B46E3
:102C500084F8225160ADC4F8DC90C4F8F880059285
:102C600009AA2048049207AA03920AAA02920BAA70
:102C7000019206AA009260AAA4F8CC10C4F84C11E4
:102C800046A9C4F8E01046F24121ADF818114DA94B
:102C9000C4F8FC1054A9C4F8181146F24221ADF84A
:102CA00050115BA9C4F834112146FFF7EFFD3846F7
:102CB00015F071FC0D4A0E490A4815F059FC1C3DEF
:102CC0002B4653F8080B984203D0A968013115F040
:102CD00054FCA542F3D120E7064815F04BFD00BF98
:102CE000FC0300240004002407690FC7000000242F
:102CF000CD220008A0AD010830B50023044683B002
:102D00000D4603600846C4E90133FFF7FBFE01905E
:102D1000D4E90113994200F0ED8041F8040B6160A1
:102D20002B7E032B19D8DFE803F05E024A32D4E988
:102D30000003A16802688B4202F1030201925BD09A
:102D400043F8042B63600268994202F10702019282
:102D500030D043F8042B63602B7E6A7E03F0FD03C2
:102D6000013A042A10D8DFE802F0037E8EA44F0057
:102D7000D4E90031A2681B68914203F10903019371
:102D80007CD041F8043B6160204603B030BDD4E9FB
:102D90000003A16802688B4202F10302019200F075
:102DA000EA8043F8042B63600268994202F106024C
:102DB0000192CED101AA2046FFF70EF9CCE7D4E963
:102DC0000003A16802688B4202F10402019200F044
:102DD000DA8043F8042B63600268994202F108022A
:102DE0000192B6D1E6E7D4E90003A16802688B42FC
:102DF00002F104020192A3D1204601AAFFF7ECF8E8
:102E0000A168D4E900039EE72268002B40F0868089
:102E10001068D4E901310B308B42019000F08680BC
:102E200043F8040B63601068994200F10E000190B2
:102E300000F0C18043F8040B63601068994200F110
:102E40001200019000F0AF8043F8040B6360126839
:102E50008B4202F11502019246D0204643F8042B22
:102E6000636003B030BD002B68D1A268D4E90031A3
:102E70001B68914203F10B03019382D101AA204602
:102E8000FFF7AAF880E7002B63D1A268D4E90031EC
:102E90001868914200F10B00019063D041F8040BD7
:102EA00061601B68914203F10E0301937FF469AFE7
:102EB000E4E720681BBB0268D4E901310B328B4286
:102EC000019223D043F8042B63600268994202F117
:102ED0000E0201925FD043F8042B636002688B42BC
:102EE00002F112020192B8D101AA19462046FFF759
:102EF00073F849E701AA2046FFF76EF810E7026869
:102F0000D4E901310A328B420192DBD1204601AA79
:102F1000FFF762F8A168D4E90003D6E71068D4E9A6
:102F200001310A308B4201907FF47AAF01AA20462A
:102F3000FFF752F8A168D4E9002374E7D4E900311F
:102F4000A2681B68914203F10A0301937FF419AF51
:102F500094E7D4E90031A2681868914200F10A00B0
:102F600001909BD11146204601AAFFF735F8A268CF
:102F7000D4E9003195E7204601AAFFF72DF8A168B2
:102F8000D4E9000310E7204601AAFFF725F8A1685D
:102F9000D4E9000320E7204601AAFFF71DF8A16845
:102FA000D4E900039AE701AA2046FFF715F8A168C3
:102FB000D4E900234BE701AA2046FFF70DF8A168EA
:102FC000D4E9002339E700BF2DE9F04F0021064680
:102FD00000250B22FF2300F58468044600F28C498B
:102FE0002DED028B46F80C1BE9B0416004F5D76764
:102FF00081606FF0F41180F8342004F1C00A81611F
:1030000080F8482080F8642080F8353080F8493016
:1030100080F86530C5600562C56205644565056771
:10302000C567C0F8885080F88C50C0F8A85080F868
:10303000AC5080F8BE509FEDE38AC0E9041100F166
:103040008C01C0E90E55C0E91355C0E91A55C0F806
:10305000841000F1AC0180F8C82080F8EC2080F8E2
:10306000102180F8342180F8582180F87C2180F8E4
:10307000A021C0F8A41080F8C93080F8ED3080F8A5
:10308000113180F8353180F8593180F87D3180F880
:10309000A131C0F8D450C0F8F850C0F81C51C0F8A5
:1030A0004051C0F86451C0E93355C0E93C55C0E90E
:1030B0004555C0E94E55C0E95755C0E96055C0F8BF
:1030C000885180F8C42180F8E82180F80C2280F82B
:1030D000302280F8542280F8782280F89C2280F8F0
:1030E000C53180F8E93180F80D3280F8313280F84E
:1030F000553280F87932C0F8AC51C0F8D051C0F8E0
:10310000F451C0F81852C0F83C52C0F86052C0E9FF
:103110006955C0E97255C0E97B55C0E98455C0E9DD
:103120008D55C0E99655C0E99F5580F8C02280F8BA
:10313000E42280F8082380F82C2380F8502380F8BC
:10314000742380F89D3280F8C13280F8E53280F82F
:10315000093380F82D3380F8513380F87533C0F887
:103160008452C0F8A852C0F8CC52C0F8F052C0F84F
:103170001453C0F83853C0F85C53C0E9A855C0E9EF
:10318000B155C0E9BA55C0E9C355C0E9CC55C0E94D
:10319000D555C0E9DE5580F8982380F8BC2380F827
:1031A000E02380F8042480F8993380F8BD3380F858
:1031B000E13380F80534C0F88053C0F8A453C0F858
:1031C000C853C0F8EC53C0F80854C0F80C54C0F809
:1031D0001054C0E9E755C0E9F055C0E9F95540463B
:1031E00004F0BCFFB0EE480A4846FDF75DFC764BA4
:1031F00087ED008A3046C4F8EC56C4F8F056C4F89F
:10320000F4561C6000F072FE2946304600F084FF40
:103210000421304600F0A2FE0321304600F082FE79
:1032200028AA0DF5F87CFF2300210B2002F84F3C63
:10323000A2F13C0302F8500C42F84C1C42E9121176
:10324000143300250B20FF219A4243F8105C03F849
:10325000140C03F8131C43E90355F1D1543294457F
:10326000E1D10F2004F1240B00F042FEADF80C0078
:103270000399022214A802F04BF9102000F038FE46
:10328000ADF810000499022229A802F041F911209A
:1032900000F02EFEADF81400059902223EA802F0BF
:1032A00037F9122000F024FEADF81800069902222A
:1032B00053A802F02DF9042314A958461A46CDF854
:1032C00004B002F035F9019802F03AFB0DF13C0B25
:1032D000D4F8842043230121CDF834B0ADF84C500C
:1032E0000E91ADF83C3013700E9BD4F88420C4F8D6
:1032F0008830D5540D9B0E951D700D98BDF84C303F
:103300005845A4F89C3003D00F99013115F035F9D8
:103310000023CDF834B0A4F8A030502384F8BD3099
:10332000D4E92135EB4202D0002B00F0ED800F2DC7
:103330000A9500F2AB80012D40F09E801B788DF83D
:103340003C305B4600220E9507A80DA95A55B4F8EB
:103350009C30ADF84C30FFF7CFFC0D98584503D0AA
:103360000F99013115F009F90023DDE90712CDE9C4
:103370000A33551A0C9300F08680144B9D4200F2DC
:10338000C680284615F03EF90346DDE90712A2EB98
:10339000010B1D4491420C95CDE90A3304D0184627
:1033A0005A4616F03DF903465B4438460AA90B938A
:1033B000FEF7BCFA0A9858B10C99091A15F0DDF815
:1033C00006E000BF00803B4724040024FCFFFF7F91
:1033D000504D5046FEF7ECFF2B78BFF35B8FDA07BA
:1033E0007AD54D4B4D4DC4F894372B78BFF35B8F96
:1033F000DB075CD50023DDE90710CDE90D330F9322
:10340000451A474BC4F890373AD0464B9D427ED878
:10341000284615F0F7F80346DDE90710471A1D4462
:1034200088420F95CDE90D3304D018463A4616F080
:10343000F7F803463B443A480DA90E93FEF736FED3
:103440000D9818B10F99091A15F097F80122FF236A
:103450004046114605F032FF3046334900F05EFD2C
:10346000079818B10999091A15F087F8204669B02C
:10347000BDEC028BBDE8F08F002D43D15B4661E7C8
:103480002F462B46CBE7AB462B4682E700220AA904
:103490000DA8019315F006FA0A9A019B0D900F9260
:1034A0002A46194616F0AEF80A9D0D9B4AE72846B3
:1034B00015F065F800289DD004F180019FED1B0AEE
:1034C0001748FEF747FC284615F065F8184A1949D1
:1034D000134815F04DF88DE7284615F050F80028F0
:1034E0003FF47FAF3A4649469FED100A0A48FEF77F
:1034F000C3F8284615F04FF80D4A0F49064815F055
:1035000037F86EE75846CBE70C4815F02DF915F063
:1035100028F900BF1C0400242804002420040024EF
:1035200064040024FCFFFF7F2522000800803B4745
:1035300000000024112200082123000874AD0108B6
:103540002DE9F043D0E9217597B00446EF420BAE68
:10355000099602D0002F00F088810F2D0F9500F200
:103560002381012D40F0F4803A7833468DF82C20E9
:1035700000210A95595594F8083223B194F8203265
:10358000802B00F03F8194F82C3223B194F8443220
:10359000802B00F0408194F8503223B194F86832C7
:1035A000802B00F0428194F8743223B194F88C326D
:1035B000802B00F0108194F8983223B194F8B03247
:1035C000802B00F00C8194F8BC3223B194F8D432F3
:1035D000802B00F0088194F8E032002B00F0BD80D1
:1035E00094F8F832802B40F0B88009AF0222A84B43
:1035F000009200210A9A384615F010FA0A9AD4F877
:1036000088309A4200F0F380394604F1840015F0C6
:10361000A3F9B4F8A030A4F89C3072B6D4E921958F
:103620000DF1440819EB050FCDF83C8003D0B9F13A
:10363000000F00F01A810F2D069500F2FE80012D7B
:1036400040F0F78099F8003042460FAF8DF84430D3
:103650000023109503A839465355B4F89C30ADF8B3
:103660005430FFF749FB0F98404503D011990131C1
:1036700014F083FF002304F5D768DDE90310CDE9DA
:103680000633451A089300F0CD80824B9D4200F22C
:10369000F780284614F0B6FF0346DDE90310A0EBDF
:1036A00001091D4488420895CDE9063304D0184627
:1036B0004A4615F0B5FF03464B44404606A907931A
:1036C000FEF734F9069818B10899091A14F055FF55
:1036D0000023D4F89057DDE90310CDE90F33441AE5
:1036E000119300F09C806B4B9C4200F2C9802046F5
:1036F00014F088FF0346DDE90310A0EB01081C4429
:1037000088421194CDE90F3304D01846424615F093
:1037100087FF03464344284639461093FEF7C6FC0C
:103720000F9818B11199091A14F027FF62B603987F
:1037300018B10599091A14F020FF099DB54204D06B
:103740000B992846013114F018FF17B0BDE8F0833B
:10375000002D40F09A8033460AE794F804331BB1F9
:1037600094F81C33802B78D094F828335BBB94F802
:103770004C331BB194F86433802B79D094F87033B8
:103780001BB194F88833802B76D094F894331BB116
:1037900094F8AC33802B64D00998B042D5D00B9903
:1037A000013114F0EAFED0E700220FA909A815F0B4
:1037B00079F80F9B09900B932A46394615F022FFA2
:1037C0000F9D099BD4E694F84033802BCFD109AFED
:1037D0000222314B0CE709AF0222304B08E709AF58
:1037E00001222F4B04E709AF01222E4B00E7099D70
:1037F000002AA3D0D4F88410284615F0F3FE002840
:103800009CD001E709AF01230A9A00933846264B62
:1038100015F004F9F2E609AF0222244BE8E6A046CF
:1038200023466CE7A9462B463BE709AF0122204B14
:10383000DEE63DBB42460FAF0AE70FAF002206A906
:10384000384615F02FF8069B0F9011932A464946EB
:1038500015F0D8FE069D0F9AFAE609AF0122154B26
:10386000C6E609AF0122144BC2E6144814F07CFFEF
:1038700009AF0122124BBBE609AF0222114BB7E69A
:1038800014F06FFF40460FAFE0E7304694E700BF0B
:10389000C8AD0108FCFFFF7FD0AD0108BCAD010839
:1038A000C0AD0108C4AD0108B0AD0108B4AD010858
:1038B000B8AD0108CCAD0108DCAD010874AD01085C
:1038C000D4AD0108D8AD010890F878312DE9F04168
:1038D00004468EB0002B00F0B58090F89021802A2D
:1038E00040F0B080002390F89C2180F8A030002A9E
:1038F00040F0D38094F8C0311BB194F8D8317F2BBD
:1039000009D094F8E431002B00F0998094F8FC3150
:103910007F2B40F0948094F8A03094F89C209A4239
:1039200000F08D8084F89C3072B6D4E9218609AF0E
:1039300018EB060F079703D0B8F1000F00F0DA80FC
:103940000F2E049600F2C480012E40F0B78098F844
:1039500000203B4607AD8DF824200022089601A8E0
:1039600029469A55B4F89C30ADF83430FFF7C4F9C5
:103970000798B84203D00999013114F0FEFD02986E
:103980000023019904F5D7670693461ACDE904335D
:1039900000F09B805A4B9E4200F2AA80304614F001
:1039A00031FE0346DDE90110A0EB01081E44884208
:1039B0000696CDE9043304D01846424615F030FE91
:1039C00003464344384604A90593FDF7AFFF049826
:1039D00018B10699091A14F0D0FD0023D4F89067A5
:1039E000DDE90110CDE90733441A09936AD0444B4D
:1039F0009C427DD8204614F005FE019903460298AA
:103A0000471A1C4481420994CDE9073304D0184673
:103A10003A4615F005FE03463B44304629460893D6
:103A2000FEF744FB079818B10999091A14F0A5FD8F
:103A300062B6019818B10399091A14F09EFD0EB0F0
:103A4000BDE8F08194F89C217AB194F8B4118029F2
:103A50000BD1012284F8A020002B3FF44BAF94F847
:103A600090317F2B3FF457AF44E794F8C011D1B9A0
:103A700094F8E41131B194F8FC11802902D10321AA
:103A800084F8A010002B3FF432AF94F890317F2BD4
:103A90003FF441AF002A3FF42DAF94F8B4117F29D1
:103AA0003FF439AF26E794F8D8118029E0D10221FC
:103AB00084F8A010002B3FF41AAFE6E7EEB93B46BE
:103AC00007AD4AE7274623469BE7B04633466DE7F6
:103AD00007AD002204A9284614F0E4FE049B0790D9
:103AE00009933246414615F08DFD049E079B34E74D
:103AF00014F037FE034814F037FE384607ADF0E700
:103B0000FCFFFF7F74AD010890F8C4302DE9F0414F
:103B100004468EB0002B00F0B58090F8DC20802A9F
:103B200040F0B080002390F8E82080F8A130002A0F
:103B300040F0D38094F80C311BB194F824317F2BE2
:103B400009D094F83031002B00F0998094F8483176
:103B50007F2B40F0948094F8A13094F89D209A42F5
:103B600000F08D8084F89D3072B6D4E9218609AFCB
:103B700018EB060F079703D0B8F1000F00F0DA80BA
:103B80000F2E049600F2C480012E40F0B78098F802
:103B900000203B4607AD8DF824200022089601A89E
:103BA00029469A55B4F89C30ADF83430FFF7A4F8A4
:103BB0000798B84203D00999013114F0DEFC02984D
:103BC0000023019904F5D7670693461ACDE904331B
:103BD00000F09B805A4B9E4200F2AA80304614F0BF
:103BE00011FD0346DDE90110A0EB01081E448842E7
:103BF0000696CDE9043304D01846424615F010FD70
:103C000003464344384604A90593FDF78FFE049804
:103C100018B10699091A14F0B0FC0023D4F8906783
:103C2000DDE90110CDE90733441A09936AD0444B0A
:103C30009C427DD8204614F0E5FC01990346029889
:103C4000471A1C4481420994CDE9073304D0184631
:103C50003A4615F0E5FC03463B44304629460893B6
:103C6000FEF724FA079818B10999091A14F085FC8F
:103C700062B6019818B10399091A14F07EFC0EB0CF
:103C8000BDE8F08194F8E8207AB194F80011802919
:103C90000BD1022284F8A120002B3FF44BAF94F803
:103CA000DC307F2B3FF457AF44E794F80C11D1B9C7
:103CB00094F8301131B194F84811802902D10421CF
:103CC00084F8A110002B3FF432AF94F8DC307F2B46
:103CD0003FF441AF002A3FF42DAF94F800117F2943
:103CE0003FF439AF26E794F824118029E0D103216D
:103CF00084F8A110002B3FF41AAFE6E7EEB93B467B
:103D000007AD4AE7274623469BE7B04633466DE7B3
:103D100007AD002204A9284614F0C4FD049B0790B7
:103D200009933246414615F06DFC049E079B34E72B
:103D300014F017FD034814F017FD384607ADF0E7FF
:103D4000FCFFFF7F74AD01082DE9884800F50A7378
:103D5000044600F1C00B00F5847A08EE103A00F535
:103D60001C7300F5967900F5A87808EE903A00F5F6
:103D7000377300F5BA7700F5CC7609EE103A00F506
:103D8000497300F5DE7509EE903A00F55B730AEEB3
:103D9000103A00F501730AEE903A00F513730BEE3A
:103DA000103A00F525730BEE903A00F52E730CEEE9
:103DB000103A00F540730CEE903A00F552730DEE98
:103DC000103A00F564730DEE903A00F1E4030EEE44
:103DD000103A00F5F0730EEE903A2046FEF71CFC08
:103DE00018EE100A01F06AFB18EE900A01F066FB6B
:103DF00019EE100A01F062FB19EE900A01F05EFB69
:103E00001AEE100A01F05AFB1AEE900A01F056FB66
:103E10001BEE100A01F052FB1BEE900A01F04EFB64
:103E20001CEE100A01F04AFB1CEE900A01F046FB62
:103E30001DEE100A01F042FB1DEE900A01F03EFB60
:103E4000584601F03BFB1EEE100A01F037FB5046CE
:103E500001F034FB484601F031FB404601F02EFBF7
:103E6000384601F02BFB304601F028FB284601F0D4
:103E700025FB1EEE900A01F021FB2046FFF724FDF2
:103E80002046FFF741FE2046FFF75AFB2046FEF78B
:103E900007FCD4F8942794F8BD1011709DE700BF7B
:103EA00010B50446D0F8EC0620B1D4F8F416091A7F
:103EB00014F063FB04F5846003F02CFED4F8A40036
:103EC00004F1AC03984204D0D4F8AC10013114F0E2
:103ED00054FBD4F8840004F18C03984204D0D4F845
:103EE0008C10013114F049FB204610BD704700BF13
:103EF000202882B009D8084B03EB400213F8103099
:103F0000507843EA002002B0704701230C2043EAB6
:103F1000002002B0704700BF34AE0108143001F039
:103F200079BA00BF38B500F1140504462DED028BB7
:103F3000284601F01BFA284601F014FA2846B0EE94
:103F4000408A01F0FDF9D0ED007AF8EE677A88EE4C
:103F5000277ABDEC028B84ED1B7A38BD38B500F1B1
:103F6000140504462DED028B284601F0EDF9284694
:103F700001F0F8F92846B0EE408A01F0E1F9D0ED01
:103F8000007AF8EE677A88EE277ABDEC028B84ED32
:103F90001B7A38BD283002F0D3B800BF10B540F20C
:103FA00003338EB000244FF60B7240F20341ADF89C
:103FB000083009A80123ADF81020ADF824202246CE
:103FC000ADF80C100094029907940C94CDE90544C7
:103FD000CDE90A4401F0C2FF04A801232246039957
:103FE000009401F0BBFF09A802F09EF810B901206F
:103FF0000EB010BD04A802F097F8A0420CBF02203A
:1040000020460EB010BD00BF2DE9F04103239AB049
:104010004FF0010800254FF60B740746CDE9143820
:10402000394BADF84C40CDE91053A3F19F63A3F594
:104030007D43CDE916581293FFF7B0FF4045064681
:1040400023D0022842D040F60132304B07F158000D
:104050000BACADF82C200B991895CDF86480CDF8F9
:104060004A3000F0DBF810A907F1700002F0F4FF0D
:10407000274B0FCB84E80F003A6F214607F114005D
:1040800001F026F91AB0BDE8F08110231F4A06A9F5
:1040900006908DF828300BAC1E4BCDF84A200793C4
:1040A0000295CDE91805CDE9080502A802F0CCF982
:1040B0000823029A03A92046ADF80C608DF80E5033
:1040C000049605930B9500F0E9F8CCE740F6013330
:1040D000ADF82C4000200BACADF8183001210B4B93
:1040E00042460095CDF84A302B460E95CDE9180191
:1040F00006992046CDE90C5501F030FF29462046AF
:1041000002F01EF8AFE700BF040204040406040333
:10411000A0AC01080704010B2DE9F04704462DED82
:10412000028B82B0002949D0012140F20112002304
:104130000091ADF804208DF80630354A0127354B43
:1041400004F10409344904F13C08626040F202724F
:10415000A36040F60663E16004F1280A2285A38784
:104160002782E762276403F051FB054603F0A6F9B6
:104170006946064650BB4DB304F150008DF80670F9
:1041800003F0C6FA072D3ED104F114052046FFF7CF
:104190003BFF284601F0E6F82846B0EE408A01F0E1
:1041A000CFF8D0ED007AF8EE677A88EE277A84EDC2
:1041B0001B7A02B0BDEC028BBDE8F08740F2011320
:1041C00000918DF80610ADF80430B6E704F1500008
:1041D00003F09EFA072D13D04946204602F0B0FBAB
:1041E0000EB9002DD0D15146504601F0F3FC4046A7
:1041F000414601F0EFFC04F1120000F079F9C3E749
:10420000002EF0D1C0E74946204602F099FBBBE7FB
:104210000508050905070506050A060630B585B037
:10422000002504460122ADF80C102B460399009599
:1042300001F094FE0121204601F082FF012003F0ED
:104240003BF92946204601F07BFF012003F034F9B9
:104250000121204605B0BDE8304001F071BF00BF2C
:1042600010B5C2F3002384B00C46017C8DF80D20FC
:1042700043EA4402FA2402238DF80C2003AA009496
:1042800002F07AF918B10124204604B010BD0446AA
:104290000A2003F011F9204604B010BD034670B5A2
:1042A00043F8042B044684B007C983E80700A379C8
:1042B00083B91A210B461E22FA2523742046ADF835
:1042C0000C20022303AA009502F056F928B1012020
:1042D00004B070BD1B210B46EDE70A2003F0ECF89B
:1042E0004FF4B85200950223ADF80C20204603AAE3
:1042F000217C02F041F90028E9D10A2003F0DCF822
:1043000041F2027200950223ADF80C20204603AA68
:10431000217C02F031F90028D9D10A2003F0CCF831
:10432000042200950223ADF80C20204603AA217C2C
:1043300002F022F90028CAD10A2003F0BDF80622B3
:1043400000950223ADF80C20204603AA217C02F040
:1043500013F90028BBD10A2003F0AEF841F208227D
:1043600000950223ADF80C20204603AA217C02F020
:1043700003F90028ABD10A20064603F09DF800950A
:10438000022303AA217C2046ADF80C6002F0F4F869
:1043900000289CD1304603F08FF8009522790C2339
:1043A0002046002A8DF80C3003AA4FF0020314BFF8
:1043B000622142218DF80D10217C02F0DDF80028E9
:1043C00085D1304603F078F82279D4E902310B43E5
:1043D000DBB20AB943F0400362790AB143F020032B
:1043E0000E22FA258DF80D302046009502238DF817
:1043F0000C2003AA217C02F0BFF800287FF467AFED
:104400000A2003F059F8102200950223ADF80C2081
:10441000204603AA217C02F0AFF800287FF457AFB2
:104420000A2003F049F8122100950223ADF80C1080
:1044300003AA217C204602F09FF800287FF447AFB2
:104440000A2003F039F8012209212046FFF708FF6E
:10445000003818BF01203BE7F0B5102387B0234C8C
:10446000012200250126002702A920460195CDE959
:1044700002234FF48052CDE904670DF047FC64201D
:1044800005F038FB02A94FF480522046CDE90467BD
:1044900002261027CDE902670DF038FC0322102315
:1044A00002A92046CDE9022300230422CDE90423FA
:1044B0004FF480520DF02AFC40F23223042202A96C
:1044C000019310232046CDE90223019A012305928E
:1044D0004FF4805204930DF019FC40F6060120467B
:1044E0000DF034FC284607B0F0BD00BFF8040024EE
:1044F0001C4B00221C494FF0400C30B5054689B0DA
:104500000220596007219A601A620124DA620A22A5
:104510004FF4006EDC6006922022CDE900010420F9
:104520000821CDE9020103201021CDE90401082072
:104530006946C3E904024FF4C072181DC3E906C2FC
:104540004FF48052C3E909E20DF0B6FB38B92846B2
:10455000FFF782FF003818BF012009B030BD2046A8
:1045600009B030BDF404002440410052614A0021EA
:10457000D0B513688EB00A91002B40F0B9805E4B25
:1045800001214FF683700C2411600221D3F8D4204E
:104590000026032742F48052C3F8D420D3F8D42055
:1045A00002F480520092009AD3F8E02042F0100208
:1045B000C3F8E020D3F8E02002F010020192019A43
:1045C000D3F8E02042F04002C3F8E020D3F8E02026
:1045D00002F040020292029AD3F8E02042F0080270
:1045E000C3F8E020D3F8E02002F008020392039A17
:1045F000D3F8E02042F48072C3F8E020D3F8E02042
:1046000002F480720492049AD3F8E02042F080020F
:10461000C3F8E020D3F8E02002F080020592059A6A
:10462000D3F8E02042F02002C3F8E020D3F8E020E5
:1046300002F020020692069AD3F8E02042F004022B
:10464000C3F8E020D3F8E0300C9403F004030793A0
:104650000323079A0B93CDE9080108A9274807F01F
:10466000DDFB48F23712022308A925480C94CDE956
:104670000823CDE90A6707F0D1FB4CF2037202234D
:1046800008A920480C94CDE90823CDE90A6707F072
:10469000C5FB40F2FF62022308A91B480C94CDE938
:1046A0000823CDE90A6707F0B9FB4FF60C72022325
:1046B00008A916480C94CDE90823CDE90A6707F04C
:1046C000ADFB4FF63F02022308A911480C94CDE937
:1046D0000823CDE90A6707F0A1FB2022022308A9DD
:1046E0000A480C94CDE90A67CDE9082307F096FB48
:1046F0000EB0D0BDF004002400440258001002584F
:1047000000180258000C025800200258001C0258E1
:10471000001402582DE9F04FDFF8108406460D46CC
:10472000144608F118002DED028B89B000AF02F09D
:104730008BFDD8F8183073B3D8F81C30D8F8049033
:10474000002B43690BBF4FF0080A4FF0100A4FF0DF
:10475000020B4FF0040BB9F1000F2AD0A200EA4679
:10476000012B02F1070222F00702ADEB020D6846B1
:10477000ADEB020D694600F03F81022B00F0D680C0
:10478000002B6FD02246C847D5462437BD46BDEC26
:10479000028BBDE8F08FD8F81C30002BF5D0D8F88C
:1047A00004904FF0080A4FF0020B4369B9F1000F73
:1047B000D4D1FB61D8F80030BB61002BE5D0D548DF
:1047C00002F0B4FD6B46BBF1020F786108EE103ABF
:1047D000FB6900F083816A465146A2EBC40295460C
:1047E0006200EA46B2FBFBF2AAEBC40085460AEB84
:1047F0008200EE46F861ADEB010DF8690EEB820C1C
:10480000C7F810C0EC46ADEB010D00EB8201CCF80F
:104810000400CCF8081001EB82013869E946CCF8B5
:104820000C1000EB8201CCF800A001EB8202C9E978
:1048300000E0C9E90212012B00F06483022B00F0B2
:104840006C82002B00F08081620849466046BB699B
:10485000984718EE103A24379D46BD46BDEC028BB2
:10486000BDE8F08F002C8DD01A46D8ED0C6A9FED74
:10487000B27A8446331D36F922E00CF1080C07EEBB
:1048800090EA33F922E00232F8EEE77A944267EEDA
:10489000877A67EEA67A4CED027A07EE90EAF8EE98
:1048A000E77A67EE877A67EEA67A4CED017AE2D86E
:1048B000F9612246C847984ED8ED0D6A0020F96983
:1048C0002B1D9FED9E7A9FED9E6ADFED9E5A22E0A2
:1048D000F4EEC67AF1EE10FAC0F2C88447F6FE7222
:1048E000D1ED017A45F8202066EEA77AF4EEC77A7A
:1048F000F1EE10FA40F2F080F4EEC67AF1EE10FA22
:10490000C0F2D58447F6FE7243F820200230083109
:1049100084427FF639AFD1ED007A66EEA77AF4EEE5
:10492000C77AF1EE10FAD3D83246D9E7002C3FF41B
:1049300029AFD8ED0C6A84469FED787A0022331DAA
:104940008E4656F822100CF1080C07EE901A53F818
:1049500022100232F8EEE77A944267EE877A67EE29
:10496000A67A4CED027A07EE901AF8EEE77A67EE37
:10497000877A67EEA67A4CED017AE2D87146224634
:10498000C7F81CE0C847664ED8ED0D6A0020F969EB
:104990002B1D9FED6A7A9FED6A6ADFF894C120E0D3
:1049A000F4EEC67AF1EE10FAC0F279843246D1ED17
:1049B000017A45F8202066EEA77AF4EEC77AF1EE88
:1049C00010FA40F28780F4EEC67AF1EE10FAC0F2E7
:1049D0005E84324643F820200230083184427FF65C
:1049E000D3AED1ED007A66EEA77AF4EEC77AF1EE97
:1049F00010FAD5D86246DAE7002C3FF4C3AED8ED02
:104A00000C6A86469FED477A4FF0000C331D56F82E
:104A10002C200EF1080E82F40002A2F5000207EE2F
:104A2000902A53F82C200CF1020CF8EEE77A82F46D
:104A300000026445A2F5000267EE877A67EEA67A67
:104A40004EED027A07EE902AF8EEE77A67EE877A63
:104A500067EEA67A4EED017AD9D8F9612246C847A9
:104A6000314ED8ED0D6A0020F9692B1D9FED337A88
:104A70009FED336ADFF8BCC01FE0F4EEC67AF1EEBA
:104A800010FAC0F2FC833246D1ED017A45F82020BD
:104A900066EEA77AF4EEC77AF1EE10FA18D9F4EEC2
:104AA000C67AF1EE10FAC0F2DA83324643F82020DB
:104AB0000230083184427FF667AED1ED007A66EEAF
:104AC000A77AF4EEC77AF1EE10FAD6D86246DBE7A1
:104AD0006246EBE762467DE7324615E7A100D6461F
:104AE0006208073121F00701ADEB010DEA46ADEB9D
:104AF000010D6946ADEB0E0D0AEB8200EC46ADEB05
:104B00000E0D01EB8202F861E946CCE900A0C9E98B
:104B1000001290E6480500240280FFFF00000030EC
:104B20000082FF7F0000003482FF7F002C050024FC
:104B3000007E00807E0080FF0000003804FF7FBF01
:104B400004FF7F3F00FEFF46002C00F0C982BBF14E
:104B5000020FD8F8242000F0FA827969C7F804908F
:104B600002EB810E5FED0C5A8A00DCF808100EF1A2
:104B700004007A611A46DCF80C303B61331DD7F82B
:104B800010903D61FD69C7E902CB8C46834636F93A
:104B90002210D8ED0C7A06EE101A33F9221006EE28
:104BA000901A3EF92210B8EEC66A07EE101AF8EE17
:104BB000E66A3BF92210B8EEC77A26EE256A66EE61
:104BC000A56A27EE257A26EE276A66EEA76A27EE03
:104BD000277A07EE901A51080232F8EEE77A0AEBCC
:104BE0008100944280ED006A05EB810067EEA57AB2
:104BF000C0ED006A0CEB810009EB810180ED007AC9
:104C000098ED0C7A67EE877AC1ED007ABFD8D7F8B5
:104C100004903D69D7E902CB60466208BB6949460A
:104C20009847D8F82C307A69D8ED0D6A1A441FEDF0
:104C30003D7A1FED3D6A2B1D904602F1040A5FED9F
:104C40003F5A0022A84ED9E900EC51E0F4EEC67AB2
:104C5000F1EE10FAC0F2C78247F6FE7045F8220066
:104C60000CEB0100D0ED007A66EEA77AF4EEC77A7D
:104C7000F1EE10FA4BD9F4EEC67AF1EE10FAC0F26A
:104C8000BA8247F6FE70BBF1020F43F822002BD028
:104C9000D9F808000844D0ED007A66EEA77AF4EE61
:104CA000C77AF1EE10FA36D9F4EEC67AF1EE10FAC0
:104CB000C0F2CD8247F6FE7048F82200D9F80C0009
:104CC0000144D1ED007A66EEA77AF4EEC77AF1EEF0
:104CD00010FA1ED9F4EEC67AF1EE10FAC0F2AF82E5
:104CE00047F6FE714AF82210023294427FF6B1ADC7
:104CF00051080EEB81008900D0ED007A66EEA77AAC
:104D0000F4EEC77AF1EE10FAA0D83046A6E73046A6
:104D1000B9E73146E6E73046CEE7002C00F0E08107
:104D2000BBF1020FD8F8243000F0E1817A69DCF899
:104D3000081003EB820EC7F804909300DFED6B5A66
:104D40000EF1040000227B61DCF80C303B61331D66
:104D5000D7F810903D61FD69C7E902CB8C468346C8
:104D600056F82210D8ED0C7A07EE101A53F82210DC
:104D7000B8EEC76A07EE101A5EF82210F8EEC76A9E
:104D800007EE101A26EE256A5BF82210B8EEC77AF5
:104D900066EEA56A26EE276A27EE257A66EEA76AF2
:104DA00027EE277A07EE901A51080232F8EEE77ADA
:104DB0000AEB8100944280ED006A05EB810067EE0A
:104DC000A57AC0ED006A0CEB810009EB810180ED52
:104DD000007A98ED0C7A67EE877AC1ED007ABFD839
:104DE000D7F804903D69D7E902CB60466208BB69F9
:104DF00049469847D8F82C307A69D8ED0D6A1A449C
:104E00009FED3E7A9FED3E6A131D9246DFF8E4C0A7
:104E10000022FB612B1D364ED9E9008E4EE0F4EEE8
:104E2000C67AF1EE10FAC0F2FC81304645F8220055
:104E30000EEB0100D0ED007A66EEA77AF4EEC77AA9
:104E4000F1EE10FA49D9F4EEC67AF1EE10FAC0F29A
:104E5000EF813046BBF1020F43F822002AD0D9F887
:104E600008000844D0ED007A66EEA77AF4EEC77A1F
:104E7000F1EE10FA35D9F4EEC67AF1EE10FAC0F27E
:104E8000C98130464AF82200D9F80C000144D1ED1E
:104E9000007A66EEA77AF4EEC77AF1EE10FA1ED920
:104EA000F4EEC67AF1EE10FAC0F2AD813146F8693F
:104EB00040F82210023294427FF6CBAC510808EB46
:104EC00081008900D0ED007A66EEA77AF4EEC77A09
:104ED000F1EE10FAA3D86046A8E76046BAE761464B
:104EE000E5E76046CEE700BF0280FFFF000000302C
:104EF0000082FF7F007E00800000003404FF7FBF3F
:104F000004FF7F3F002C00F0EB807A690021D8F885
:104F10002430C7F8109003EB820ED7F81C90930052
:104F2000FD610EF104021FED0C6A7B61331D154615
:104F300056F821204808D8ED0C6ABBF1020F82F424
:104F40000002A2F5000207EE902A53F8212082F415
:104F50000002B8EEE77AA2F5000227EE067A07EE25
:104F6000902A0AEB8002F8EEE77A27EE267A67EEBF
:104F7000867A82ED007A09EB80024FEA800067EEC4
:104F8000A67AC2ED007A27D05EF8212082F40002D2
:104F9000A2F5000207EE902A55F8212082F40002C3
:104FA000B8EEE77AA2F5000227EE067A07EE902A1D
:104FB000DCF80820F8EEE77A024427EE267A67EE5E
:104FC000867A82ED007A98ED0C7ADCF80C2067EE98
:104FD000877A0244C2ED007A02318C42A8D8D7F811
:104FE000109060466208BB694946FD699847D8F849
:104FF0002C307A69D8ED0D6A1A441FED407A1FED06
:10500000406A131D9246DFF8C4C20022FB612B1DCB
:10501000AB4ED9E9008E4EE0F4EEC67AF1EE10FA0E
:10502000C0F2C580304645F822000EEB0100D0EDFD
:10503000007A66EEA77AF4EEC77AF1EE10FA49D953
:10504000F4EEC67AF1EE10FAC0F2BF803046BBF142
:10505000020F43F822002AD0D9F808000844D0ED06
:10506000007A66EEA77AF4EEC77AF1EE10FA35D937
:10507000F4EEC67AF1EE10FAC0F2AE8030464AF88D
:105080002200D9F80C000144D1ED007A66EEA77A2F
:10509000F4EEC77AF1EE10FA1ED9F4EEC67AF1EE0C
:1050A00010FAC0F28B803146F86940F822100232C3
:1050B00094427FF6CEAB510808EB81008900D0ED19
:1050C000007A66EEA77AF4EEC77AF1EE10FAA3D86A
:1050D0006046A8E76046BAE76146E5E76046CEE786
:1050E000224649466046BB699847FFF7B2BBC7F8FE
:1050F00010B0002298ED0C6A331DDFED726AD7F80C
:105100001CB0786956F8221007EE901A53F8221056
:10511000B8EEE77A07EE901A51080232F8EEE77A15
:1051200027EE267A0AEB810E94420BEB810167EEA3
:10513000A67A27EE067A67EE867A8EED007AC1EDC2
:10514000007ADFD88300D7F810B07B614DE61A46AD
:10515000C7F810B098ED0C6A331DDFED5B6AD7F825
:105160001CB0786936F9221007EE101A33F92210B4
:1051700007EE901AB8EEC77A51080232F8EEE77AD5
:1051800027EE267A0AEB810E94420BEB810167EE43
:10519000A67A27EE067A67EE867A8EED007AC1ED62
:1051A000007ADFD88300D7F810B07B6134E5F0EEE9
:1051B000675AFEEEE45A15EE900A34E7F0EE675AAD
:1051C000FEEEE45A15EE901A6EE7F0EE675AFEEE28
:1051D000E45A15EE900A3AE7F0EE675AFEEEE45A0A
:1051E00015EE900A4BE767EEA57AFDEEE77A17EE2B
:1051F000900A00B232E567EEA57AFDEEE77A17EE87
:10520000900A00B23FE5F0EE675AFEEEE05A15EE66
:10521000901A4CE6F0EE675AFEEEE05A15EE900A50
:1052200030E6F0EE675AFEEEE05A15EE900AFDE524
:10523000F0EE675AFEEEE05A15EE900A0AE667EEC7
:10524000A57AFDEEE77A17EE901A09B24AE567EE05
:10525000A57AFDEEE77A17EE900A00B22CE5F0EEA3
:10526000675AFEEEE45A15EE902A1FE467EEA57A1F
:10527000FDEEE77A17EE902A12B2FFF731BBF0EE9F
:10528000675AFEEEE45A15EE902AFFF7FDBBF0EEEA
:10529000675AFEEEE05A15EE902AFFF79BBBF0EE40
:1052A000675AFEEEE05A15EE902AFFF780BB67EED4
:1052B000A57AFDEEE77A17EE902A12B2FFF724BB2B
:1052C00082FF7F0000000030000000387E0080FF79
:1052D00030B5184C154685B0046004F1080EEC4654
:1052E0000FC98EE80F00D4ED047AF5EEC07A8CE891
:1052F0000F00F1EE10FA1ADDB7EE006A94ED057AB0
:1053000027EE277AC6EE276A84ED0D7AC4ED0C6A83
:105310006DB1204640F8185F01F096FF0649036919
:105320000020064A2162A262E36005B030BD012080
:1053300005B030BD2C0500240020003000000030F6
:1053400000680830704700BFB1F5807F03680A46E7
:1053500028BF4FF48072B1F5807F9A6094BF00201F
:10536000012070470068183001F0CEBF70B50468A6
:105370008AB0A369E1600BB304F118056FF0F41370
:105380004FF60B722846ADF80C20CDE9013301F041
:105390005BFF8446EE46E668BCE80F00AEE80F000F
:1053A000BCE80F00AEE80F009CE803008EE80300A5
:1053B00069462846049601F04FFE38BBE06918B3F1
:1053C00004F11C056FF0F4134FF60B722846ADF88C
:1053D0000C20CDE9013301F037FF8446EE46E46846
:1053E000BCE80F00AEE80F00BCE80F00AEE80F000D
:1053F0009CE803008EE8030069462846049401F007
:105400002BFE003818BF01200AB070BD01200AB081
:1054100070BD00BF30B5046883B00D46E3694BB181
:10542000A3680020E26A616A9B00009004F11C00FE
:1054300001F00CFFA3680748A26A9B00216A009054
:1054400004F1180001F002FF0020C4E9005003B08D
:1054500030BD00BF1547000810B4074B4FF07E5118
:1054600030240022032019619C60D8605DF8044B51
:105470005961C3E9062270472C050024B0B51D46CA
:1054800082B004461746A5F10105069BADF804104D
:10549000B5FA85F5009302F00DF8002201996D0927
:1054A000206004F10800009B677122712277657704
:1054B000069202B0BDE8B04000F050BD10B5044601
:1054C00001F0F8FF002122682171824200D110BD55
:1054D0000346012204F108002360227100F024FE3B
:1054E000227F617F53005BB281B180F0010252B232
:1054F0001343DBB27F2B2377E9D101F0DBFF07EE0B
:10550000900AF8EE677AC4ED087A10BD42B2EFE770
:1055100010B4002383B00324018080F8503080F859
:105520005120C0E9014303B05DF8044B704700BF50
:105530002DE9F04FBE4F0024BE4D8DB0037007F132
:10554000400342608046164689462022214638465E
:10555000C5F88835C5F88475CDE90244CDE9044421
:10556000CDE90644CDE90844CDE90A4414F072F8C7
:105570002022214605F26250C5F85145C5F855452F
:10558000C5F85945C5F85D4514F064F885F85065CF
:10559000D8F8043085F86846002B62D005F5AA6A71
:1055A00009F1500B264609EB040128195222013655
:1055B00014F028F84FF0000327F8023B1BF80430E2
:1055C0000AF8013F002B70D0D8F804304FF00102E8
:1055D00054349E4285F86826E5D3974A082195F809
:1055E00050350026C5F88C254FF4802293480027BB
:1055F000C5F8A4350023C5F890250122C5F89C15EF
:1056000095F86816C5F8943585F8A035C5F898253D
:10561000C0E9006700293ED0C5F8B82585F8A13556
:1056200085F8A835002298F80030C5F8BC25C5F8E3
:10563000C025002B40D0012200200121013B85F82C
:10564000C4257F4AC2E90001082B37D8DFE813F0F0
:10565000BD00C200C700CC00D100D600DB00E100D5
:10566000E800C5F89435F6B285F8A0350020724BF5
:105670000021C5F8A465C5F88C354FF48023C5F822
:1056800090350123C5F898350823C5F89C3505F5F4
:10569000B663C3E90001012385F8A135002385F82D
:1056A000A8350323C5F8B835BCE7D8F8043054341E
:1056B000B3423FF678AF90E785F8C435614804F00F
:1056C0007DFE034608B1FFBEFEE702A95D480293D6
:1056D00004F0D4FF0446002875D1042340F2FF7281
:1056E0000A90CDE9082395F85035002B00F0F5809D
:1056F00006234FF05409019309FB045393F85130EA
:10570000072B07D8DFE803F0595C5653504D4A0485
:105710000723079326B206EB4606C6EBC60605EB43
:105720008608B700404600F03BFB09FB045393F8A2
:105730005030042B00F3AD80022B00F3C08000F04A
:10574000BC802B19002283F8402515F8262098F8F4
:105750000130002A7CD0022A00F08D80012A40F01E
:10576000B480012B00F0B380002B374B18BF00230F
:10577000059305A9019B3348069304F01FFA0028FE
:1057800040F0AE80013495F85035E4B2A34240F2C7
:10579000A4802E4B53F824300193ADE706230793E2
:1057A000B8E705230793B5E704230793B2E703237C
:1057B0000793AFE702230793ACE700230793A9E71A
:1057C00001230793A6E7FFBEFEE70320402142E93D
:1057D000020173E70720602142E902016EE70F2012
:1057E000802142E9020169E71F20A02142E902016C
:1057F00064E73F20C02142E902015FE77F20E0210A
:1058000042E902015AE7FF204FF4807142E90201A8
:1058100054E740F2FF104FF4907142E902014DE766
:1058200040F2FF304FF4A07142E9020146E700BFA9
:10583000004000306805002400200240180B0024BE
:10584000380B0024F40A00240002B02578AE0108C9
:10585000062B36D0072B3CD0022B49D0032B49D046
:10586000002B4BD0012B47D0042B49D0052B254BC7
:1058700018BF00237CE7042B25D0052B2BD08BB33E
:10588000012B31D0022B31D0032B1F4B18BF00232B
:105890006EE70323143705EB040B4FF0000A2F4487
:1058A0008BF8403538460AF1010A00F079FA9BF886
:1058B000403514375345F5DC47E70123EAE7022377
:1058C000E8E7124B54E7124B52E7002350E7114B25
:1058D0004EE7114B4CE7114B4AE70DB0BDE8F08F96
:1058E000FFBEFEE70E4B43E70E4B41E70E4B3FE793
:1058F0000E4B3DE70E4B3BE70E4B39E70E4B37E7C0
:105900000E4B35E70000B84F002090360800900C91
:105910001000C0102000F0148000501D00018021F4
:105920000004002A0008302E001060320040C03A07
:105930000080F03E00005247000021430000844BED
:1059400038B5094C40F2FF724FF0011104F28C554A
:10595000284604F041FE94F85025D4F884152846D2
:10596000BDE8384004F0A0BB68050024064B0F29B1
:10597000D3F8843598BF03EB41031B8800EE103A3F
:10598000BBEEC80A704700BF68050024244B0268BC
:105990009A4200D07047234A00232348D2F8D810F7
:1059A00030B5224C41F0200183B0C4F8F005092045
:1059B000C4F8F83504F5BE65C4F8F4054FF480600A
:1059C000C2F8D8104FF40061D2F8D820C4F800060D
:1059D00094F8680602F02002C4F8FC35984201925F
:1059E000C4F804164FF40051C4F810362846C4F821
:1059F0001436019B14BF00234FF48073C4F80816BB
:105A0000C4F80C3605F066F808B1FFBEFEE704F2F4
:105A10008C53C4F8D855C4F8283603B030BD00BF45
:105A20000020024000440258400002406805002463
:105A3000014805F0A1BE00BF580B002402682DE903
:105A4000F84F504B9A4201D0BDE8F88F4E4D95F873
:105A50006836002BF8D095F85035002B7BD0002409
:105A600005F13C0905F2625605F5AA67A04613E068
:105A700003F0010117F811BCA9F1280000F060FB48
:105A8000BBF1010F25D895F85035013409F15409BF
:105A90000236A2B293422BD917F8012F002AF4D074
:105AA000D5F884350021327833F81400D5F88835DC
:105AB00003EB041323F81200338801339BB23380C5
:105AC0005FFA83FA3A789A42D2D88A46A6F80080DA
:105AD000D0E7CAF34001A9F1140000F031FBBBF19B
