:020000040800F2
:1000000000000220410A0008350A00085573000864
:10001000350A0008350A0008350A0008000000000B
:10002000000000000000000000000000350A000889
:10003000350A000800000000350A0008D9720008DF
:10004000350A0008350A0008350A0008350A000894
:10005000350A0008350A0008350A0008350A000884
:10006000350A0008350A0008350A0008C16E000884
:10007000CD6E0008AD590008D96E0008E56E000885
:10008000ED5501086D630008350A0008350A0008BF
:10009000350A0008350A0008350A0008350A000844
:1000A000350A0008350A0008350A0008350A000834
:1000B0006D4701087947010885470108A1630008D9
:1000C000350A0008AD630008350A0008B53F01088D
:1000D000C13F0108215401084D5401088154010811
:1000E000350A0008350A000800000000350A00083B
:1000F000350A0008350A0008350A0008350A0008E4
:10010000350A0008350A000891470108CD3F01086B
:10011000B5540108E9540108350A0008350A0008F9
:10012000350A0008350A0008F13F0108254001089A
:1001300021560108350A0008350A0008350A00086A
:1001400000000000000000000000000000000000AF
:10015000350A0008350A0008350A00081D5501084F
:10016000B9630008350A0008E97200080D73000839
:10017000350A000831730008350A0008350A0008FE
:10018000350A0008350A000851550108855501084F
:10019000D93F0108E53F0108350A0008350A000883
:1001A000350A0008350A0008350A0008350A000833
:1001B000C16B0008350A0008350A0008350A000836
:1001C000350A0008350A0008350A0008350A000813
:1001D000350A0008350A0008350A0008350A000803
:1001E000350A0008350A0008350A0008350A0008F3
:1001F000350A0008350A0008350A0008350A0008E3
:10020000350A0008350A0008350A0008350A0008D2
:10021000350A0008350A0008350A0008350A0008C2
:10022000350A0008350A0008350A000800000000F9
:10023000350A0008350A000800000000350A0008E9
:10024000350A0008350A0008350A0008350A000892
:10025000350A0008350A0008350A0008350A000882
:10026000350A0008350A0008350A0008350A000872
:10027000350A0008350A0008B955010800000000D9
:10028000350A0008350A0008350A00080000000099
:0802900000000000350A00081F
:1002A00010B5054C237833B9044B13B10448AFF3B0
:1002B00000800123237010BDE00300240000000033
:1002C00090C5010808B5034B1BB103490348AFF3C0
:1002D000008008BD00000000E403002490C5010870
:1002E00001F0FF01102A2BDB10F0070F08D010F8E7
:1002F000013B013A8B422DD010F0070F42B3F6D1EB
:10030000F0B441EA012141EA014122F007047FF003
:1003100000070023F0E80256083C85EA010586EA5A
:10032000010685FA47F5A3FA87F586FA47F6A5FA96
:1003300087F68EB9EED1F0BC01F0FF0102F00702A2
:1003400032B110F8013B013A83EA010313B1F8D14D
:100350000020704701387047002D06BF354603382E
:10036000073815F0010F07D1013015F4807F02BF67
:10037000013015F4C03F0130F0BC0138704700BFB8
:10038000034613F8012B002AFBD1181A01387047D5
:1003900081F0004102E000BF83F0004330B54FEA36
:1003A00041044FEA430594EA050F08BF90EA020FA3
:1003B0001FBF54EA000C55EA020C7FEA645C7FEA36
:1003C000655C00F0E2804FEA5454D4EB5555B8BF59
:1003D0006D420CDD2C4480EA020281EA030382EACA
:1003E000000083EA010180EA020281EA0303362D5C
:1003F00088BF30BD11F0004F4FEA01314FF4801C2F
:100400004CEA113102D0404261EB410113F0004F40
:100410004FEA03334CEA133302D0524263EB4303F7
:1004200094EA050F00F0A780A4F10104D5F1200E95
:100430000DDB02FA0EFC22FA05F2801841F10001F0
:1004400003FA0EF2801843FA05F359410EE0A5F1C4
:1004500020050EF1200E012A03FA0EFC28BF4CF0F5
:10046000020C43FA05F3C01851EBE37101F00045AB
:1004700007D54FF0000EDCF1000C7EEB00006EEBB8
:100480000101B1F5801F1BD3B1F5001F0CD3490842
:100490005FEA30004FEA3C0C04F101044FEA445299
:1004A00012F5800F80F09A80BCF1004F08BF5FEA20
:1004B000500C50F1000041EB045141EA050130BD00
:1004C0005FEA4C0C404141EB0101013C28BFB1F512
:1004D000801FE9D291F0000F04BF01460020B1FA5D
:1004E00081F308BF2033A3F10B03B3F120020CDA30
:1004F0000C3208DD02F1140CC2F10C0201FA0CF00E
:1005000021FA02F10CE002F11402D8BFC2F1200C72
:1005100001FA02F120FA0CFCDCBF41EA0C01904028
:10052000E41AA2BF01EB0451294330BD6FEA040471
:100530001F3C1CDA0C340EDC04F11404C4F120025C
:1005400020FA04F001FA02F340EA030021FA04F36E
:1005500045EA030130BDC4F10C04C4F1200220FAC5
:1005600002F001FA04F340EA0300294630BD21FA03
:1005700004F0294630BD94F0000F83F4801306BFC9
:1005800081F480110134013D4EE77FEA645C18BFBD
:100590007FEA655C29D094EA050F08BF90EA020F54
:1005A00005D054EA000C04BF1946104630BD91EA4C
:1005B000030F1EBF0021002030BD5FEA545C05D14F
:1005C0004000494128BF41F0004130BD14F580048E
:1005D0003CBF01F5801130BD01F0004545F0FE4102
:1005E00041F470014FF0000030BD7FEA645C1ABF37
:1005F000194610467FEA655C1CBF0B46024650EA6E
:10060000013406BF52EA033591EA030F41F4002199
:1006100030BD00BF90F0000F04BF0021704730B51F
:100620004FF4806404F132044FF000054FF00001F4
:1006300050E700BF90F0000F04BF0021704730B5B5
:100640004FF4806404F1320410F0004548BF40428A
:100650004FF000013EE700BF42004FEAE2014FEADF
:1006600031014FEA02701FBF12F07F4393F07F4FBA
:1006700081F06051704732F07F4208BF704793F0BD
:100680007F4F04BF41F40021704730B54FF46074D0
:1006900001F0004521F000411CE700BF50EA0102D3
:1006A00008BF704730B54FF000050AE050EA01027C
:1006B00008BF704730B511F0004502D5404261EBEC
:1006C00041014FF4806404F132045FEA915C3FF42D
:1006D000D8AE4FF003025FEADC0C18BF03325FEACA
:1006E000DC0C18BF033202EBDC02C2F1200300FA7B
:1006F00003FC20FA02F001FA03FE40EA0E0021FAA0
:1007000002F11444BDE600BF53B94AB9002908BF3D
:1007100000281CBF4FF0FF314FF0FF3000F088B9C8
:10072000ADF1080C6DE904CE00F01AF8DDF804E034
:10073000DDE9022304B07047430803F05533C01AC3
:10074000830803F0333300F03330184400EB10100B
:1007500000F00F3000EB002000EB0040000E70476F
:100760002DE9F047089D04468E46002B4DD18A4264
:10077000944669D9B2FA82F252B101FA02F3C2F197
:10078000200120FA01F10CFA02FC41EA030E944028
:100790004FEA1C48210CBEFBF8F61FFA8CF708FB49
:1007A00016E341EA034306FB07F199420AD91CEB21
:1007B000030306F1FF3080F01F81994240F21C8153
:1007C000023E63445B1AA4B2B3FBF8F008FB10339B
:1007D00044EA034400FB07F7A7420AD91CEB0404D0
:1007E00000F1FF3380F00A81A74240F207816444A0
:1007F000023840EA0640E41B00261DB1D440002325
:10080000C5E900433146BDE8F0878B4209D9002D88
:1008100000F0EF800026C5E9000130463146BDE812
:10082000F087B3FA83F6002E4AD18B4202D382427C
:1008300000F2F980841A61EB030301209E46002D2B
:10084000E0D0C5E9004EDDE702B9FFDEB2FA82F280
:10085000002A40F09280A1EB0C014FEA1C471FFADE
:100860008CFE0126200CB1FBF7F307FB131140EAC5
:1008700001410EFB03F0884208D91CEB010103F192
:10088000FF3802D2884200F2CB804346091AA4B254
:10089000B1FBF7F007FB101144EA01440EFB00FE28
:1008A000A64508D91CEB040400F1FF3102D2A6458D
:1008B00000F2BB800846A4EB0E0440EA03409CE72C
:1008C000C6F12007B34022FA07FC4CEA030C20FAD9
:1008D00007F401FA06F31C43F9404FEA1C4900FAF9
:1008E00006F3B1FBF9F8200C1FFA8CFE09FB181176
:1008F00040EA014108FB0EF0884202FA06F20BD9E9
:100900001CEB010108F1FF3A80F08880884240F238
:100910008580A8F102086144091AA4B2B1FBF9F07C
:1009200009FB101144EA014100FB0EFE8E4508D977
:100930001CEB010100F1FF346CD28E456AD90238FC
:10094000614440EA0840A0FB0294A1EB0E01A142E1
:10095000C846A64656D353D05DB1B3EB080261EB4F
:100960000E0101FA07F722FA06F3F1401F43C5E929
:10097000007100263146BDE8F087C2F12003D8405F
:100980000CFA02FC21FA03F3914001434FEA1C47A1
:100990001FFA8CFEB3FBF7F007FB10360B0C43EA93
:1009A000064300FB0EF69E4204FA02F408D91CEB43
:1009B000030300F1FF382FD29E422DD90238634441
:1009C0009B1B89B2B3FBF7F607FB163341EA0341E1
:1009D00006FB0EF38B4208D91CEB010106F1FF3830
:1009E00016D28B4214D9023E6144C91A46EA004627
:1009F00038E72E46284605E70646E3E61846F8E6B9
:100A00004B45A9D2B9EB020864EB0C0E0138A3E701
:100A10004646EAE7204694E74046D1E7D0467BE7E2
:100A2000023B614432E7304609E76444023842E75A
:100A3000704700BF684620F007018D46FEE700BF03
:100A40000B480C4A904208B503D0121A0A4918F014
:100A500099FD0A480A4A904203D0121A002118F060
:100A6000B9FD06F0DDFE18F045FD00F00BF8FEE7DD
:100A700000000024E0030024C8C50108E0030024AE
:100A8000A037002400B5ADF6F40D01A802F0FAFE7F
:100A900001A802F033FE01A803F0B0F900200DF622
:100AA000F40D5DF804FB00BF2DE9F0412DED048B42
:100AB000B7EE009A5E4BB0EE408A0025C0F8A43035
:100AC0000026C9EE009A5B4BDFED5B8A4FF07C5746
:100AD000C0F8E03082B0594B0446C0F8A85040F24C
:100AE0000118C0F88831B0EE680A80F8A060C0F83C
:100AF000AC5080F8DC60C0F8E450C0F8E85080F8F2
:100B00008461C0F88C51C0F8905180ED278A80ED47
:100B1000048AC0ED028A4760C7608561C0ED059A0E
:100B200017F0E0FCF0EE407A20462670C4ED028A11
:100B3000B0EE680AC4ED077A84ED019AA4F8288023
:100B400017F0D0FC04F1B000C4F8C85004F59C754F
:100B500084ED070AB0EE680AC4ED2E8A84ED308A6F
:100B6000C4ED319AC4F8B470C4F8BC70019017F0A9
:100B7000B9FCDFED337A019884ED330AB0EE670AF1
:100B800084F8B06004F5CA76C4ED2E7AA4F8D88053
:100B900084ED2D9A17F0A6FCF0EE407A04F1EC00FB
:100BA000DFED288AB0EE480AC4ED337A019017F0E1
:100BB000ADF901989FED240A17F030FAB0EE680AFB
:100BC000019817F08FFAB0EE480A284617F09EF900
:100BD00028469FED1E0A17F021FAB0EE680A284653
:100BE00004F5F07517F07EFAB0EE480A304617F0BB
:100BF0008DF930469FED160A17F010FAB0EE680A2C
:100C0000304617F06FFAB0EE480A284617F07EF922
:100C100028469FED100A17F001FA2846B0EE680A40
:100C200017F060FA204602B0BDEC048BBDE8F081FD
:100C3000CDCC4C3E0AD7233E0000C842CDCC4C3D23
:100C400000004843CDCCCC3D00005C430000FA449A
:100C500000E0534500180346D0ED277A4FF07E534D
:100C600090ED297AC0F8AC3067EE877AC0ED2A7A29
:100C7000704700BFD0ED277A4FF07E5390ED387A61
:100C8000C0F8E83067EE877AC0ED397A704700BF68
:100C9000D0ED397AF5EEC07AF1EE10FA3EDDD0ED06
:100CA000385AB7EE006AD0ED276A90ED3A7A66EED0
:100CB000A56A77EEC67AC6EE265A10B52DED028BE0
:100CC000C0ED397A0446BFEE008A77EE657AC0ED52
:100CD0003A7A19F0BFF807EE900A9FED127A04F104
:100CE000B000F8EEE77A77EEA77AA7EE878A17F0DA
:100CF0003FFA04F1EC0038EE000A17F02BF994EDFE
:100D0000480A04F59C7017F025F994ED3A0AD4EDE1
:100D10005A7ABDEC028B20EE270A10BD9FED020A25
:100D2000704700BF0000003000000000D0ED277ABF
:100D30004FF07E5390ED627AC0F8903167EE877A7B
:100D4000C0ED637A704700BFD0ED637AF5EEC07AEC
:100D5000F1EE10FA2ADDB7EE007A10B577EEC77A19
:100D60000446C0ED637A19F075F807EE900ABFEEFD
:100D7000000A9FED107AF8EEE77A04F5CA7077EE74
:100D8000A77AA7EE870A17F0E5F894ED720A04F542
:100D9000F07017F0DFF894ED640A94ED847ADFEDDB
:100DA000067A20EE070A20EE270A10BD9FED030AFF
:100DB000704700BF00000030CDCCCC3E00000000EA
:100DC000D0ED2A7AF5EEC07A10B5F1EE10FA0446AD
:100DD0002DED028B30DDD0ED295AB7EE006AD0ED53
:100DE000276A90ED2B7A66EEA56A77EEC67AC6EE94
:100DF000265AC0ED2A7A77EE657AC0ED2B7A17F085
:100E0000B7F994ED2B8AF7EE087A20EE080A20EE67
:100E1000278A2046FFF73CFFF0EE408A2046FFF786
:100E200093FF9FED077A38EE288AA0EE078AB0EE8E
:100E3000480ABDEC028B10BD9FED028AE9E700BFB6
:100E4000CDCCCC3E0000000070B5437896B09FED4D
:100E50002F6A044607EE103AD0ED016A8268B8EEB8
:100E6000C77AC6EE077A67EEA67AFDEEE77A17EE46
:100E7000905A002DB4BF05F10F0317EE903A1B11E5
:100E800092FBF3F103FB11230BB90F2909DD0132AA
:100E9000AA4202DAA26016B070BD0023A36016B0A9
:100EA00070BD037816AA561803EB8301522203EB98
:100EB000C103816901A801EB430118F063FB16F837
:100EC000543CFBB916F8343CC3B916F8443C8BB912
:100ED000012320690371237D0BB9A268D7E716F8B7
:100EE000141C00F0AFFA16F8243C002BF5D122694F
:100EF0001371F2E7E068FFF719FFE9E7E068FFF731
:100F0000B9FEE2E7E068FFF7A7FEDBE70000704309
:100F1000A1B1C36902781349013210B48469D2B215
:100F20001B1B02705B1001FB03F39A4201D30023E9
:100F3000037000235DF8044B83607047037823B18E
:100F4000013B0370002383607047D0E90613054A14
:100F50005B1A5B1002FB03F3013B03700023836009
:100F6000704700BF199C8FC12DE9F04FD0E900A751
:100F70000E461146A7EB0A033A4A3B4C83B05B107E
:100F800002FB03F3A34269D0012B98468146A6EBEE
:100F90000A0538BF4FF0010818EB03035CD2002BA1
:100FA00049D152249B4600930BEB0500522218F0C6
:100FB000E9FA56451BD00BF1520554464FF0520842
:100FC0002146A5F152004444424618F0DBFA45445C
:100FD000B442F3D1A6F15204244BA4EB0A046408F2
:100FE00003FB04F424F00044023408FB04B4BE42C2
:100FF0000FD0BA1B1D4B20463146523A520803FB14
:1010000002F2522322F0004202FB0332144418F091
:10101000B9FABAF1000F06D0D9F808105046A1EB82
:101020000A0117F06AFA009BC9E900B4C9F8083050
:1010300003B0BDE8F08FA34228BF2346522404FB2F
:1010400003F42046019117F09DFA0319834600F13D
:10105000520401990093A7E7054CF2E7054817F001
:1010600046FB00BF199C8FC1189C8F01199C8F41B2
:10107000B0FFFF7F18AD01082DE9F04F0122A5B0A8
:101080004FF00008C84B054603ACCDF830800DF199
:101090001C0A8DF83020A4468DF832200FAFCDF811
:1010A00038804FF0FF0E8DF838204FF00409CDF84E
:1010B0002C800DF16C0BCDF834800BAE0FCB84E897
:1010C0000F0005F118030193B84B0FCB8AE80F000E
:1010D000BCE80F000FC7BCE80F000FC79CE80F006B
:1010E00087E80F00B24BADF88C80CDF87C808DF88E
:1010F00080E08DF881E08DF882E08DF883E08DF856
:1011000084908DF885908DF886900FCB8BE80F003A
:101110004FF002038DF887908DF888E08DF88A30C3
:101120008DF88B308DF889E0D5E90703984200F0FF
:10113000148152220FA918F025FAEB6903F1520825
:10114000C5F81C809B4BA6460DF11C0A0DF13C0C0A
:10115000FF274FF00C090FCB84E80F00964B0FCB05
:1011600086E80F004FF000034FF001028DF8303099
:101170008DF83830914B8DF832208DF83A200FCB16
:101180008AE80F00BEE80F00ACE80F004FF0040340
:101190008DF87C908DF87D908DF884308DF88530B9
:1011A0008DF87E708DF87F708DF880908DF881902D
:1011B0008DF882708DF883708DF886708DF8877049
:1011C000BEE80F00ACE80F009EE80F008CE80F00AF
:1011D0004FF00003ADF88C304FF005038DF88830E8
:1011E0008DF889302B6A8DF88A7043458DF88B70A5
:1011F00000F0BB80404652220FA918F0C3F9EB69FA
:1012000003F15208C5F81C8000236D4FA6460DF16E
:101210003C0C736007F11009F360B3600B9301237A
:101220008DF830308DF832308DF83830A7F130033A
:101230000FCB84E80F0097E80F0007AF87E80F0097
:10124000BEE80F00ACE80F00BEE80F002F6AACE864
:101250000F009EE80F0047458CE80F0099E80F004B
:101260008BE80F0000F08980404652220FA918F049
:1012700089F9EB6903F15209C5F81C90514B00271D
:101280004FF0010AA6460DF11C087760F7600DF1DA
:101290003C0CB7608DF830A08DF838A08DF83AA0DE
:1012A0000B970FCB84E80F00464B0FCB88E80F005D
:1012B000BEE80F00ACE80F00BEE80F00CBF80470EA
:1012C000CBF80C70CBF808701B972F6A8DF870A0C4
:1012D0004F458DF878A08DF87AA0ACE80F009EE815
:1012E0000F008CE80F0050D0484652220FA918F08A
:1012F00049F9EF695237EF610023A44673600B93FD
:10130000C6E9023301230FAE8DF830308DF8383046
:101310002C4B0FCB84E80F00244B07AC0FCB84E899
:101320000F00BCE80F000FC6BCE80F000FC69CE81A
:101330000F002C6A86E80F001C4BA7420FCB8BE8EE
:101340000F0029D052220FA9384618F01BF9EB697B
:101350005233EB6125B0BDE8F08F01460FAA01982A
:10136000FFF702FED5F81C80ECE641460FAA019873
:10137000FFF7FAFDD5F81C8046E741460FAA019811
:10138000FFF7F2FDD5F81C9078E749460FAA0198BF
:10139000FFF7EAFDEF69AFE70FAA39460198FFF7BB
:1013A000E3FD25B0BDE8F08FF0AB010800AC01080B
:1013B00010AC010820AC010830AC010840AC0108B9
:1013C00050AC010870AC0108002310B583600446DE
:1013D0000375036280ED010AC0E906334FF4D2437E
:1013E000C0E903120380FFF747FE204610BD00BF8F
:1013F00070B58568064685B12C462D68606804F195
:101400000C03984203D0E168013117F076F82421EB
:10141000204617F072F8002DEED172680021306876
:10142000920018F0D7F8306806F1180300227168AE
:101430009842C6E9022202D0890017F05EF83046D1
:1014400070BD00BFFF2910B5044682B000F108004E
:1014500009D19FED110A84ED040A17F043F884EDD9
:10146000090A02B010BD04EB81019FED0C7AF2EE87
:10147000080A0190D1ED0D7AB0EE000AF8EEE77A95
:1014800077EEC77AC7EEA00A17F0E6FBDFED047A25
:10149000019820EE270ADEE70000000000008A42E3
:1014A0000000DC4370B5D0E925462DED028BB44237
:1014B00005469FED158A07D020462C3416F058FEBD
:1014C00038EE008AA642F7D105F1080016F050FE6A
:1014D000F0EE407A05F1A000B0EE480AB0EE678A5F
:1014E00016F038FD2B7963B195ED350A30EE080A18
:1014F00005F1EC0016F02EFD95ED470ABDEC028BD0
:1015000070BD9FED010AF1E7000000002DE9F04FEA
:10151000D0E90085444E0C46A5EB0803434983B04F
:101520009B1006FB03F38B427AD0012B1E46074625
:10153000A4EB080B38BF0126F6186FD2002E5CD141
:101540004FF02C0AB146964609EB0B0C4445BEE819
:101550000F00ACE80F00BEE80F00ACE80F009EE8FB
:1015600007008CE8070027D009F12C0BC246D646AD
:10157000ABF12C0C0AF12C0A0BF12C0BBEE80F007E
:10158000ACE80F00BEE80F00A245ACE80F009EE8F3
:1015900007008CE80700EAD1A4F12C0A244BAAEB3F
:1015A000080A4FEA9A0A03FB0AFA2C232AF0404A57
:1015B0000AF1020A03FB0A9AAC420FD02A1B1C4B09
:1015C000504621462C3A920803FB02F22C2322F0CB
:1015D000404202FB0332924417F0D4FFB8F1000FEF
:1015E00005D0B9684046A1EB080116F086FFBE6041
:1015F000C7E9009A03B0BDE8F08F8E424FF02C038C
:1016000028BF0E4603FB06F63046019216F0BAFFDD
:10161000019A8146064400F12C0A94E7054EF3E74F
:10162000054817F064F800BFA38B2EBA2EBAE80263
:10163000A38B2E3AE8FFFF7F18AD01082DE9F84F84
:10164000D0E900890F4692466FF06041A9EB08028D
:10165000B1EBA20F54D093100646A7EB0805012B5F
:101660001C4638BF01241C1948D2002C3CD1A3468B
:10167000DAF80030002D4BF8053024DCA9EB07091F
:101680000435B9F1000F5D4413DC4D44B8F1000F8F
:1016900004D1B460C6E900B5BDE8F88FB168A1EB2C
:1016A0000801404616F029FFB460C6E900B5BDE860
:1016B000F88F284639464A464D4417F063FFB8F183
:1016C000000FE6D0EAE7A9EB07092A46414658464B
:1016D000043517F065FFB9F1000F5D44E9DCB1682E
:1016E0004D44A1EB0801DCE78C4228BF0C46A40066
:1016F000204616F047FF83460444B9E7024CF7E75B
:10170000024816F0F4FF00BFFCFFFF7F18AD010890
:101710002DE9F0479946036853F8216006B3356810
:101720000746884692462C6A0BE02C682E462546D2
:10173000CCB1246A7B68B4FBF3FC03FB1C4CE04592
:1017400015D14C45F1D1DAF80420AB689A42ECD1BE
:1017500032B16968DAF8000017F004FF0028E4D11C
:101760003046BDE8F08726463046BDE8F0870026C3
:101770003046BDE8F08700BF2DE9F04F914600F1FB
:1017800018020D46002704462DED028B87B002603B
:101790000392A9EB01029349921002FB01F19942D5
:1017A00038BF19464FF07E5303610123436000F1B7
:1017B0001003C0E90277C0E90577184608EE103A31
:1017C00016F09CFF6368834213D20128064600F09E
:1017D000FB80B0F1005F80F0FF8082001046029233
:1017E00016F0D0FE3946029A074617F0F3FEC4E918
:1017F00000764D4505D162E00368ABB11C35A945C3
:101800005DD0794AD5E9000116F088FE6168064688
:101810002A4620463346B6FBF1F701FB17673946E7
:10182000FFF776FF0028E7D1242016F0ABFED5F8AD
:1018300000A06B680146002280461AEB030F41F8B6
:101840000C2B416003D0BAF1000F00F0C7800F2BC2
:1018500004933FD8012B38D19AF800200DF1100BDA
:1018600088F80C204FF0000AC8F80830584601F8F4
:1018700003A018EE101AAB69C8F81C3001230093BE
:10188000E368626816F086FF9DF81030002B3AD1AD
:10189000D4F800A05AF827300AEB8702C8F8206075
:1018A000002B6CD01B68C8F800305AF82730C3F8FA
:1018B0000080E3681C350133A945E360A1D12046CF
:1018C00007B0BDEC028BBDE8F08F0DF1100B002BC3
:1018D000C8D00FE00DF1100B002208F104000293B4
:1018E000594616F09FFF049A0146029BC8F804006F
:1018F000C8F80C201A460846514617F043FE049BD0
:10190000D8F80410AEE7059F012F60D0B7F1005F53
:1019100062D2BA001046029216F034FE5146029A84
:10192000824617F057FEA0680023A36088B19C464A
:1019300002460068136AB3FBF7F107FB11335AF84C
:10194000231071B3096811605AF823301A60002817
:10195000EED1039BD4E90001834202D0890016F046
:10196000CCFDB6FBF7F3C4E900A707FB13675AF8F1
:1019700027300AEB8702C8F82060002B92D1A368B9
:10198000C4F80880C8F800303BB11B6A6168B3FB3B
:10199000F1F001FB10334AF8238004F108031360CF
:1019A00087E7A1681160214641F8082F4AF8231003
:1019B000116829B14AF82C209C460028B8D1C8E704
:1019C0009C460028B4D1C4E7A761039F0FE7C4F881
:1019D00018A0DDF80CA0A6E716F083FE034816F069
:1019E00083FE00BFB76DDBB607690FC734AD0108D2
:1019F0002DE9F04F754FE1B006463B78BFF35B8FA2
:101A000013F001051AD0724C724AD6E9000116F0A3
:101A100085FD6168034620463246B3FBF1F401FBC5
:101A20001431FFF775FE002800F0CC800368002B0E
:101A300000F0C880D86961B0BDE8F08F384616F074
:101A40005EFD0028DFD00DF1540A0EAB4FF03C0BC9
:101A50000CACC4F81CA04FF03D0A02224FF0450C1C
:101A6000C4F834A00DF1700A4FF0410E4620C4F8BE
:101A700038A04FF03E0A42214FF04309C4F850A06D
:101A80000DF18C0A4FF044082360C4F854A046F2CC
:101A9000452A0123C4F818B0ADF88CA04FF03F0AD6
:101AA00046F2442BA4F878C0C4F86CA00DF1A80A43
:101AB000C4F8A4E0C4F870A04FF0400A6360C4F812
:101AC00088A00DF1C40AE363C4F88CA00DF1E00A0C
:101AD0006367C4F8A8A046F2472AC4F89030ADF86E
:101AE000E0A00DF1FC0A2262A265C4F8AC20A4F8C3
:101AF0009400C4F8C01084F85E5084F8B25084F8A2
:101B00002650A4F80890A4F84080ADF854B0C4E979
:101B100031A3C4F8E420C4F81C2108AAA4F804E105
:101B2000C4F814C1C4F83001A4F83C11472184F86A
:101B3000EA50C4F80031C4F838312B4684F82251F9
:101B400060ADC4F8DC90C4F8F880059209AA20487A
:101B5000049207AA03920AAA02920BAA019206AA69
:101B6000009260AAA4F8CC10C4F84C1146A9C4F89D
:101B7000E01046F24121ADF818114DA9C4F8FC104F
:101B800054A9C4F8181146F24221ADF850115BA9CE
:101B9000C4F834112146FFF7EFFD384616F0BBFCC0
:101BA0000D4A0E490A4816F0A3FC1C3D2B4653F87B
:101BB000080B984203D0A968013116F09EFCA5429B
:101BC000F3D120E7064816F095FD00BFFC03002482
:101BD0000004002407690FC700000024F113000867
:101BE00060AD010830B50023044683B00D460360A4
:101BF0000846C4E90133FFF7FBFE0190D4E9011365
:101C0000994200F0F58041F8040B61602B7E032BB4
:101C10001BD8DFE803F0B1029D85D4E90003A16879
:101C200002688B4202F10302019200F0AF8043F898
:101C3000042B63600268994202F10702019200F0EE
:101C4000828043F8042B63602B7E6A7E03F0FD03E1
:101C5000013A032A1BD8DFE802F05342021D226832
:101C6000002B00F0A5801068D4E901310A308B42C6
:101C7000019000F0A58043F8040B6360126899425C
:101C800002F10E02019244D043F8042B6360204617
:101C900003B030BD2068002B00F09A800268D4E9C0
:101CA00001310A328B42019200F09A8043F8042BF2
:101CB00063600268994202F10E02019200F0AD8069
:101CC00043F8042B636002688B4202F11202019216
:101CD000DAD101AA19462046FFF7B0FCD7E7002B5E
:101CE0005CD1A268D4E900311B68914203F10B0377
:101CF00001930ED0204641F8043B616003B030BD33
:101D0000D4E90031A2681B68914203F109030193F1
:101D1000F0D1204601AAFFF791FC204603B030BD68
:101D2000D4E90003A16802688B4202F10302019228
:101D30006BD043F8042B63600268994202F10602FB
:101D400001927FF47EAF01AA2046FFF777FC7BE784
:101D5000D4E90003A16802688B4202F104020192F7
:101D60004BD043F8042B63600268994202F10802E9
:101D700001927FF466AFE6E7D4E90003A168026848
:101D80008B4202F1040201927FF451AF204601AA76
:101D9000FFF754FCA168D4E900034BE7D4E9003114
:101DA000A2681B68914203F10A030193A2D1B0E734
:101DB0001068D4E901310B308B4201907FF45BAFA6
:101DC00001AA2046FFF73AFCA168D4E9002355E7B1
:101DD0000268D4E901310B328B4201927FF466AF85
:101DE000204601AAFFF72AFCA168D4E9000360E7B6
:101DF00001AA2046FFF722FC08E7204601AAFFF7C8
:101E00001DFCA168D4E90003AEE7204601AAFFF754
:101E100015FCA168D4E900038EE7204601AAFFF76C
:101E20000DFCA168D4E900034DE700BF2DE9F047A0
:101E3000D1E900532DED028BA4B0DD420F460446DC
:101E40000DF13808CDF8308002D0002D00F0CC81A3
:101E50000F2B059300F2AA81012B40F075812A789F
:101E600041460CAE8DF8382000220D9302A8CA54CA
:101E700031463B8BADF84830FFF7B4FE0C98404537
:101E800003D00E99013116F038FB04F19408D4E91F
:101E900025329A4218BFC4F89830DDE902329A42DE
:101EA00075D0002514E0B6468C4601F12C0A0135A8
:101EB000BEE80F00ACE80F00BEE80F004D45ACE8EF
:101EC0000F009EE807008CE80700C4F898A05ED2D7
:101ED000B7EE008AD4ED007A4FF07C5300229FEDDC
:101EE000CA0A304688EE277ACDED107A0D930F930B
:101EF00012928DED0E0A8DED117A16F0F3FA029A18
:101F000006219FEDC27AF2EE080A02EB85028DF8F7
:101F10003010F0EE406A40F20113D2ED007AB0EEDC
:101F2000000AADF85830F8EEE77ACDED136A77EE97
:101F3000C77AC7EEA00A16F08FFEDFEDB57A3046FD
:101F400020EE270A8DED0E0A16F0CCFA8DED130A5D
:101F5000DDE90203D4E926121B1A91424FEAA309D4
:101F600009F1010307EE903AF8EE677A88EE277AD6
:101F70008DED0D7A97D132464046FFF7C7FA01350D
:101F8000DDE902239B1A4FEAA3094D45A0D3D7F8F8
:101F9000008007AD7B68059518EB030F03D0B8F1FF
:101FA000000F00F021810F2B0C9300F2EC80012B2D
:101FB00040F0E38098F8002029460DF114098DF8CF
:101FC0001C20002206934846CA543B8BADF82C30A7
:101FD000FFF70EFD831CCDE90C039DF82C3013F0A8
:101FE000FD0F00F0B680C21C0E929DF82D20042A31
:101FF00000F0EE80421D022B0F9200F0B680032B02
:1020000000F0F080C21D109200F109021192002B25
:1020100040F0E6800B23034413A91293334600E0FB
:1020200018681A680C38183AD86143F8042B8B42A8
:10203000F6D16022314604F1340017F0A3FA059876
:10204000A84203D00799013116F057FAB7EE008A7B
:10205000D4ED007A274600224FF07C539FED6A0AA8
:1020600088EE277A0837226225463846C4ED067A7C
:10207000E360A0356361264684ED040AEC3684ED06
:10208000077A16F02FFA40F20113F0EE407A9FED36
:102090005F7A23860623F2EE080A2372B0EE000A66
:1020A000029BC4ED097AD3ED007AF8EEE77A77EE79
:1020B000C77AC7EEA00A16F0CFFD9FED557A3846D5
:1020C000F5EE007A20EE070A20EE270A84ED040AD6
:1020D00016F008FA029A039BF0EE407A284694ED37
:1020E000000A9B1AC4ED097A9B10013307EE903A5F
:1020F000F8EE677A88EE277A84ED037A15F006FF0A
:102100009FED440A284615F089FF9FED430A2846B3
:1021100015F0E8FF94ED000A304615F0F7FE9FED4C
:102120003F0A304615F07AFF30469FED3B0A15F026
:10213000D9FF029818B10499091A16F0DEF924B0F3
:10214000BDEC028BBDE8F087002B50D141460CAEB0
:102150008AE6021D0E929DF82D20042A7FF44AAFD4
:10216000821D022B0F927FF44DAF00F108031093F4
:1021700000F1090311930B234DE7002B3AD12946B7
:102180000DF114091DE70DF11409002231460193E8
:10219000484616F047FB0C9A019B059007921A4699
:1021A000414617F0EFF90C9B05990AE70CAE0022A7
:1021B00005A90193304616F035FB059A019B0C905A
:1021C0000E921A46294617F0DDF9059B0C994BE64D
:1021D000821D032B0F9211D100F10903109211936C
:1021E0000A2318E7821DF7E70D4816F07DFA4046EE
:1021F0000CAEE6E728460DF11409D0E7C31D109395
:1022000000F109031193EBE70000C84200008A4285
:102210000000DC4300007A43CDCCCC3D00002F45CC
:1022200034AD0108D0F8D430B2EE0E7A2DE9F04189
:102230002DED028B93F83D30054682B0A83007EEB5
:10224000903A05F110080190F8EEE77A87EE870AD8
:1022500085ED2C0A16F046F9019885ED310A15F046
:1022600087FF9FED367ADFED367A4046E0EE077A5B
:10227000B0EE670A15F0D2FED5E90147BC4254D052
:102280000026DFED308A204615F072FFB0EE408A5E
:1022900094F85C1004F12C0015F0E0FDDFED2A7AD3
:1022A00028EE000A0023603404F8043CB0EEC07A43
:1022B000B4EEE77AF1EE10FA02DD78EE808A0136AC
:1022C000A742E0D1FEB99FED1F0A68EE808AB0EE0A
:1022D000680A404615F03EFEF6EE007A95ED107A5B
:1022E00005F15C0028EEA70AA7EE270A15F032FEDA
:1022F00095ED240ADFED157A20EE270A02B0BDEC39
:10230000028BBDE8F08107EE906AB8EEE70AB5EE01
:10231000400AF1EE10FA0BD4F1EEC07AB7EE007A73
:1023200087EE270A60EE288AD1E7DFED068ACEE73E
:1023300016F062FFF0EE407AF0E700BF0080BB4489
:1023400000401C4500000000ACC527379A99593F52
:1023500038B50B4604464068002103EB430300EB0D
:1023600043105D012C3015F0CBFC636801222B4437
:1023700083F85C2038BD00BF2DE9F04FD0E900A6FE
:1023800081463D48A6EB0A030F4611463B4A5B11C6
:1023900083B000FB03F393426AD0012B9846A7EB6E
:1023A0000A0538BF4FF0010818EB03035ED2002B7B
:1023B0004AD1984660249B460BEB0500602217F03B
:1023C000E1F857451CD00BF16005544621466034B6
:1023D000A5F16000602217F0D5F8BC4205F1600558
:1023E000F4D1A7F16004264BA4EB0A04640903FBB3
:1023F00004F424F07844023404EB44040BEB44145A
:10240000B74210D0F21B1E4B20463946603A5209A3
:1024100003FB02F222F07842013202EB4202520147
:10242000144417F0AFF8BAF1000F06D0D9F808102D
:102430005046A1EB0A0116F060F8C9F80880C9E916
:1024400000B403B0BDE8F08F934228BF134603EBFE
:1024500043084FEA48142046019116F093F8019979
:1024600000EB0408834600F16004A5E7054CF2E7A1
:10247000054816F03CF900BFABAAAAAA555555016C
:10248000ABAAAA02E0FFFF7F18AD01082DE9F041D9
:102490000546002310300C46A84605F15C062DEDDC
:1024A000048B9AB0F0EE408AA8EC010AB7EE008ADD
:1024B000C5F8D410EB600190DFED629AC5E90133F5
:1024C00015F024FD9FED600A019815F0A7FDB6EE0A
:1024D000000A019815F006FE3046B0EE680A15F0C5
:1024E00015FD30469FED590A15F098FD3046B0EEC7
:1024F000690A05F1A80615F0F5FD88EE289A4FF057
:102500007C539FED530A3046C5ED2E8AC5F8AC309A
:10251000C5F8B430C5ED309A85ED2C0A85ED2F9ABB
:1025200015F0E0FF94F83D30B2EE0E7A85ED310AF9
:1025300007EE903A40F2011201233046F8EEE77AB6
:1025400085ED2B8AA5F8D020102685F8A83087EED7
:10255000870A85ED2C0A15F0C5FF85ED310A05E0E7
:1025600017F010F86034013EAC6064D09FED358AFE
:102570004FF07C54374B00229FED350A02A80F9391
:102580000127119312931393ADF8602003940594DF
:102590008DED0D8A8DED0E8A8DED108A8DED148AEC
:1025A0008DED158A8DED168ACDED068A8DED079A93
:1025B0008DED040A8DED088A15F094FFF0EE407A57
:1025C00040F20112244B02A8B0EE480AADF83020C8
:1025D0000393CDED097A8DF808708DED048A15F01E
:1025E00081FFF0EE407A3946B0EE680A0DA8CDEDD5
:1025F000097A15F015FBF0EE480A0DA89FED170AB1
:1026000015F086FB0DA89FED160A15F0D7FB0DA857
:102610009FED140A0D9415F0F9FB602202A9D5E98B
:1026200002439C4220469BD102AA21464046FFF726
:10263000A3FE013E9AD128461AB0BDEC048BBDE83A
:10264000F08100BF0000000000803B4500004843CF
:102650000000C842000080BFCDCC4C3F0AD7A33B4E
:10266000CDCC4C3ECDCC0C3F2DE9F84FD0E90089C4
:102670000F4692466FF06041A9EB0802B1EBA20F42
:1026800054D093100646A7EB0805012B1C4638BF13
:1026900001241C1948D2002C3CD1A346DAF80030A2
:1026A000002D4BF8053024DCA9EB07090435B9F1FE
:1026B000000F5D4413DC4D44B8F1000F04D1B46049
:1026C000C6E900B5BDE8F88FB168A1EB0801404646
:1026D00015F013FFB460C6E900B5BDE8F88F2846D1
:1026E00039464A464D4416F04DFFB8F1000FE6D08A
:1026F000EAE7A9EB07092A4641465846043516F091
:102700004FFFB9F1000F5D44E9DCB1684D44A1EB26
:102710000801DCE78C4228BF0C46A400204615F0D7
:1027200031FF83460444B9E7024CF7E7024815F04D
:10273000DEFF00BFFCFFFF7F18AD01080023D1F8CA
:1027400000C02DE9F041054686B088461E4648681F
:102750000093CDE9013360451FD0002408E042F822
:10276000043B0134A0EB0C030192B4EBA30F14D291
:1027700001995CF82430029F0A463344B94203931E
:10278000EDD1684603AAFEF759FF0134D8E900C02D
:10279000A0EB0C03B4EBA30FEAD30C36302EDAD146
:1027A00000230098042719461E460593CDE90333FC
:1027B0001EE0C2593C1D43F8042B8B4200EB04027F
:1027C000049325D00259043F43F8042B8B4200EBBD
:1027D0000702049326D0C25943F8042B0493019BAB
:1027E0001B1A9B10033BB34222D32746DDE9043179
:1027F0008B4206F1010600EB0702DAD103A83C1D6B
:10280000FFF732FF0098DDE9043102198B42D9D17C
:1028100003A8043FFFF728FF0098DDE90431C2193F
:102820008B42D8D103A81946FFF71EFF0098D6E7C0
:1028300000263746039BF2EE080A9FED177AB0EEAA
:10284000000A33446C680436D3ED007A3C446037A8
:10285000F8EEE77A77EEC77AC7EEA00A16F0FCF931
:10286000DFED0E7A204620EE270A84ED020A15F0ED
:1028700039FE442E84ED070ADCD1039818B105997E
:10288000091A15F03AFE009818B10299091A15F0C4
:1028900034FE06B0BDE8F08100008A420000DC434F
:1028A000002A47D0F8B5244D0F4616460024286864
:1028B0002DED028B00F6C800FEF7C6FA286800F579
:1028C000D760FEF7EFFD2868B0EE408A00F28C403A
:1028D000FEF776FA2868F0EE408A00F5FE60FFF712
:1028E000A1FC9FED167A286868EE878ADFED147ADE
:1028F00090ED026A28EE078AD0ED016AE8EE867A4A
:10290000DFED105A90ED007A20EE250AD7E900237A
:10291000E8EE267A02EB840C03EB84030134A64232
:10292000E0EE077ACCED007AC3ED007AC2D1BDECBF
:10293000028BF8BD704700BF1C040024CDCC4C3E78
:10294000000000009A99193F30B5864983B00124F0
:102950000546B7EE000A00232246096800F5B47068
:10296000009402F049FD8049224605F5D870B7EE83
:10297000000A00230968009402F03EFD7B492246CC
:1029800005F50770B7EE000A00230968009402F00D
:1029900033FD7749224605F51970B7EE000A00238A
:1029A0000968009402F028FD7249224605F52B7053
:1029B000B7EE000A00230968009402F01DFD6E497D
:1029C000224605F5A270B7EE000A002309680094BC
:1029D00002F012FD6949224605F5C670B7EE000AFD
:1029E00000230968009402F007FD6549224605F5B9
:1029F000EA70B7EE000A00230968009402F0FCFCBC
:102A00006049224605F5FC70B7EE000A002309680C
:102A1000009402F0F1FC5C49224605F51070B7EE17
:102A2000000A00230968009402F0E6FC5749224698
:102A300005F52270B7EE000A00230968009402F041
:102A4000DBFC5349224605F53470B7EE000A00233B
:102A50000968009402F0D0FC4E49224605F1B4000A
:102A6000B7EE000A00230968009402F0C5FC4A4949
:102A7000224605F1D800B7EE000A00230968009449
:102A800002F0BAFC4549224605F1FC00B7EE000A07
:102A900000230968009402F0AFFC4149224605F585
:102AA0009070B7EE000A00230968009402F0A4FCBD
:102AB0003C4922462846B7EE000A002309680094E4
:102AC00002F09AFC3849224605F12400B7EE000ACC
:102AD00000230968009402F08FFC3449224605F176
:102AE0004800B7EE000A00230968009402F084FC55
:102AF0002F49224605F16C00B7EE000A0023096851
:102B0000009402F079FC2B49224605F19000B7EEC3
:102B1000000A00230968009402F06EFC2649224650
:102B200005F53D70B7EE000A00230968009402F035
:102B300063FC2249224605F54670B7EE000A0023E1
:102B40000968009402F058FC1D49B7EE000A002302
:102B50002246096805F54F70009402F04DFC03B061
:102B600030BD00BFA0AD0108A4AD0108A8AD0108AB
:102B7000ACAD0108B0AD0108B4AD0108B8AD0108B5
:102B8000BCAD0108C0AD0108C4AD0108C8AD010865
:102B9000CCAD0108DCAD0108D8AD0108D4AD010809
:102BA000D0AD0108ECAD0108F0AD0108F4AD0108AD
:102BB000F8AD0108FCAD0108E0AD0108E4AD010885
:102BC000E8AD010890F8B83310B504461BB190F891
:102BD000D033802B0ED094F8DC331BB194F8F4334F
:102BE000802B15D094F800341BB194F81834802B46
:102BF00007D010BD90F8DC3883F0010380F8DC3892
:102C0000E9E704F6C8000121BDE81040FEF780B9ED
:102C1000002104F6C800FEF77BF9E3E770B500F584
:102C2000846500210446284606F022FE284605F069
:102C3000ABFE80B300261DE005F0B0FED4F8F82707
:102C4000D4F8F43704F5FE601649D31A5B1101FB82
:102C500003F3DBB207EE903AF8EEE77A27EE800A4C
:102C6000FDEEC07A17EE901A91FBF3F203FB1211FE
:102C7000FFF76EFB284605F087FE0346F1B22846B3
:102C8000B34206F10106D7D804F10C000121BDE8DA
:102C9000704001F03DB9014604F10C00BDE8704000
:102CA00001F036B9ABAAAAAA38B500F12405002173
:102CB0000446284602F018FEDFED547AB4EEE70A27
:102CC000F1EE10FA06D49FED527AB4EEC70AF1EE97
:102CD00010FA4EDD0121284602F006FEDFED4B7AA8
:102CE000B4EEE70AF1EE10FA06D49FED497AB4EE9D
:102CF000C70AF1EE10FA54DD0221284602F0F4FD75
:102D0000DFED427AB4EEE70AF1EE10FA06D49FED59
:102D1000407AB4EEC70AF1EE10FA12DD032128461C
:102D200002F0E2FDDFED3B7AB4EEE70AF1EE10FAD5
:102D300006DBB7EE007AB4EEC70AF1EE10FA48D916
:102D400038BD70EE677A9FED346AB7EE000AF2EE96
:102D5000026A87EE867A70EE477AA7EEA60A16F028
:102D600015FAB5EEC00AF1EE10FAA8BF84ED020A1A
:102D7000D4E770EE677A9FED286AB7EE000AF2EEAC
:102D8000026A87EE867A70EE477AA7EEA60A16F0F8
:102D9000FDF9B5EEC00AF1EE10FAA8BF84ED000A05
:102DA00098E770EE677A9FED1C6AB7EE000AF2EEC4
:102DB000026A87EE867A70EE477AA7EEA60A16F0C8
:102DC000E5F9B5EEC00AF1EE10FAA8BF84ED010AEC
:102DD00092E730EE670A9FED115ADFED116ADFEDE1
:102DE000115AC0EE057A9FED106A37EE677AF0EE61
:102DF000667AE7EE257AC7FEA67AC7FEC67AFCEEAB
:102E0000E77A17EE903A84F8BD3038BD103E783D31
:102E10001F7C703F103EF83C3EF8603F103E783F0C
:102E2000000048420000B44200000C432DE9F04F7E
:102E3000D0E921759BB00446EF4208AE069602D059
:102E4000002F00F0A1810F2D139500F22781012D95
:102E500040F0F5803A7833468DF820200021079520
:102E6000595594F8083223B194F82032802B00F0A1
:102E7000438194F82C3223B194F84432802B00F033
:102E8000448194F8503223B194F86832802B00F0DA
:102E9000438194F8743223B194F88C32802B00F083
:102EA000148194F8983223B194F8B032802B00F05A
:102EB000108194F8BC3223B194F8D432802B00F006
:102EC0000C8194F8E032002B00F0BE8094F8F832C8
:102ED000802B40F0B98006AF0222AF4B0092002158
:102EE000079A384615F05AFD079AD4F888309A4266
:102EF00000F0F780394604F1840015F0EDFCB4F8D9
:102F0000A030A4F89C3072B6D4E921850EAF18EB3E
:102F1000050F0C9703D0B8F1000F00F035810F2D8D
:102F2000139500F20881012D40F0FF8098F80030E1
:102F30003A460DF1300A8DF8383000230D9503A87C
:102F400051465355B4F89C30ADF84830FEF74AFE70
:102F50000C98B84203D00E99013115F0CEFAD4F88E
:102F600084900DF15408D4F8885004F5D76BCDF84F
:102F70004C8019EB050F03D0B9F1000F00F004816C
:102F80000F2D0C9500F2E880012D40F0C98099F8D2
:102F90000030424613AF8DF8543000231495584644
:102FA00039465355B4F89C30ADF86430FEF73EFF17
:102FB0001398404503D01599013115F09EFA00236E
:102FC00004F5FE64DDE90310CDE91333451A1593CA
:102FD00000F09F80714B9D4200F2FC80284615F066
:102FE000D1FA0346DDE90310A0EB01081D4481423C
:102FF0001595CDE9133304D01846424616F0D0FAA1
:1030000003464344204639461493FFF797FB139831
:1030100018B11599091A15F070FA62B6039818B12B
:103020000599091A15F069FA069DB54204D0089968
:103030002846013115F061FA1BB0BDE8F08F002D74
:1030400040F0CD80334609E794F8043323B194F877
:103050001C33802B00F0908094F828336BBB94F8DD
:103060004C3323B194F86433802B00F0908094F8B3
:10307000703323B194F88833802B00F0A78094F844
:1030800094331BB194F8AC33802B79D00698B042BE
:10309000D2D00899013115F030FACDE7002213A9FA
:1030A00006A815F0BFFB139B069008932A463946E5
:1030B00016F068FA139D069BD0E694F84033802BF7
:1030C000CDD106AF0222364B08E706AF0222354BC0
:1030D00004E706AF0122344B00E706AF0122334B71
:1030E000FCE6069D002AA0D0D4F88410284616F0ED
:1030F00039FA002899D0FDE606AF0123079A00931C
:1031000038462B4B15F04AFCEEE606AF0222294B5F
:10311000E4E6A8462B4669E706AF0122264BDDE62A
:10312000002D59D1424613AF37E7002D59D13A4609
:103130000DF1300A01E70DF1300A002213A95046C3
:1031400015F070FB139B0C900E932A46414616F027
:1031500019FA139D0C9AF0E613AF51460022384637
:1031600015F060FB0C9B139015932A46494616F008
:1031700009FA0C9D139A10E706AF01220F4BADE63A
:1031800006AF01220E4BA9E60E4815F0ADFA06AFC8
:1031900001220D4BA2E600BF88AD0108FCFFFF7FB6
:1031A00090AD01087CAD010880AD010884AD010837
:1031B00070AD010874AD010878AD01088CAD01084F
:1031C0009CAD010834AD010894AD010806AF0222A0
:1031D000064B83E615F085FA404613AFC5E7304647
:1031E00064E738460DF1300AAFE700BF98AD01083B
:1031F00090F878312DE9F047044692B0002B00F0AA
:10320000B28090F89021802A40F0AD80002390F8A1
:103210009C2180F8A030002A40F0D08094F8C03182
:103220001BB194F8D8317F2B09D094F8E431002BEE
:1032300000F0968094F8FC317F2B40F0918094F858
:10324000A03094F89C209A4200F08A8084F89C3048
:1032500072B6D4E9217506AEEF42049602D0002F73
:1032600000F0EB800F2D0B9500F2D680012D40F081
:10327000B6803A7833460DF110098DF818200022F7
:10328000059501A849465A55B4F89C30ADF8283048
:10329000FEF7A8FC0498B04203D00699013115F05E
:1032A0002CF90DAF04F5D76AD4E921850B9718EBFB
:1032B000050F03D0B8F1000F00F0BF800F2D04956B
:1032C00000F29A80012D40F0938098F800300BAE08
:1032D0008DF834303B4600220C95504631465A5505
:1032E000B4F89C30ADF84430FEF7A0FD0B98B8421E
:1032F00003D00D99013115F000F9002304F5FE64A7
:10330000DDE90110CDE90B33451A0D936DD0514B1A
:103310009D4200F29580284615F034F90199034644
:103320000298471A1D4481420D95CDE90B3304D014
:1033300018463A4616F034F903463B4420463146D7
:103340000C93FFF7FBF90B9818B10D99091A15F0BA
:10335000D4F862B6019818B10399091A15F0CDF89E
:1033600012B0BDE8F08794F89C217AB194F8B411BA
:1033700080290BD1012284F8A020002B3FF44EAF0E
:1033800094F890317F2B3FF45AAF47E794F8C0117F
:10339000D1B994F8E41131B194F8FC11802902D12B
:1033A000032184F8A010002B3FF435AF94F890313E
:1033B0007F2B3FF444AF002A3FF430AF94F8B411B0
:1033C0007F293FF43CAF29E794F8D8118029E0D158
:1033D000022184F8A010002B3FF41DAFE6E7002D7A
:1033E00033D133460DF1100949E72F462B4699E7B3
:1033F00045BB3B460BAE6EE70BAE4946002230465E
:1034000015F010FA049B0B900D932A46414616F0D6
:10341000B9F8049D0B9B5EE70DF1100900220BA982
:10342000484615F0FFF90B9B049006932A4639464F
:1034300016F0A8F80B9D049B21E7074815F054F9F6
:1034400015F04FF938460BAEDFE730460DF11009A5
:10345000ECE700BFFCFFFF7F34AD010890F8C430FB
:103460002DE9F047044692B0002B00F0B38090F8AD
:10347000DC20802A40F0AE80002390F8E82080F81D
:10348000A130002A40F0D18094F80C311BB194F89F
:1034900024317F2B09D094F83031002B00F0D680F6
:1034A00094F848317F2B40F0D18094F8A13094F803
:1034B0009D209A4200F08B8084F89D3072B6D4E94A
:1034C000217506AEEF42049602D0002F00F0058170
:1034D0000F2D0B9500F2F080012D40F0D0803B784D
:1034E00032460DF110098DF818300023059501A81A
:1034F00049465355B4F89C30ADF82830FEF772FBBE
:103500000498B04203D00699013114F0F6FF0DAFD4
:1035100004F5D76AD4E921850B9718EB050F03D082
:10352000B8F1000F00F0D9800F2D049500F2B4809F
:10353000012D40F0AD8098F800303A460BAE8DF882
:10354000343000230C95504631465355B4F89C3026
:10355000ADF84430FEF76AFC0B98B84203D00D99E1
:10356000013114F0CAFF002304F5FE64DDE9011007
:10357000CDE90B33451A0D9300F087805D4B9D42DA
:1035800000F2AE80284614F0FDFF01990346029830
:10359000471A1D4481420D95CDE90B3304D01846DE
:1035A0003A4615F0FDFF03463B44204631460C9356
:1035B000FFF7C4F80B9818B10D99091A14F09DFF84
:1035C00062B6019818B10399091A14F096FF12B067
:1035D000BDE8F08794F8E8207AB194F800118029CA
:1035E0000BD1012284F8A120002B3FF44DAF94F8B9
:1035F000DC307F2B3FF459AF46E794F80C11D1B97A
:1036000094F8301161B394F84811802928D103212E
:1036100084F8A110002B3FF434AF94F8DC307F2BFA
:103620003FF443AF002A3FF42FAF94F800117F29F5
:103630003FF43BAF28E794F824118029E0D1022120
:1036400084F8A110002B3FF41CAFE6E794F8543146
:10365000002BBCD094F86C317F2B3FF426AFB6E73B
:1036600094F854110029D5D094F86C118029D1D147
:10367000042184F8A110002B3FF403AFCDE7002D07
:1036800033D132460DF110092FE72F462B4680E744
:1036900045BB3A460BAE54E70BAE494600223046D6
:1036A00015F0C0F8049B0B900D932A46414615F087
:1036B00069FF049D0B9A44E70DF1100900220BA944
:1036C000484615F0AFF80B9B049006932A463946FE
:1036D00015F058FF0B9D049A07E7074815F004F80A
:1036E00014F0FFFF38460BAEDFE730460DF110094E
:1036F000ECE700BFFCFFFF7F34AD01082DE98048F7
:1037000000F1C00383B0044600F5A87B019300F5E7
:103710000A7300F5BA7A00F5CC7908EE103A00F594
:103720001C7300F5DE7800F5F07708EE903A00F5AE
:10373000377300F56D7600F5767509EE103A00F5F1
:10374000497309EE903A00F55B730AEE103A00F502
:1037500001730AEE903A00F513730BEE103A00F580
:1037600025730BEE903A00F52E730CEE103A00F52F
:1037700040730CEE903A00F552730DEE103A00F5DE
:1037800064730DEE903A00F1E4030EEE103A00F58A
:1037900084730EEE903A00F596730FEE103A00F532
:1037A0007F730FEE903A2046FFF738FA18EE100AB2
:1037B00001F042FE18EE900A01F03EFE19EE100AEA
:1037C00001F03AFE19EE900A01F036FE1AEE100AE8
:1037D00001F032FE1AEE900A01F02EFE1BEE100AE6
:1037E00001F02AFE1BEE900A01F026FE1CEE100AE4
:1037F00001F022FE1CEE900A01F01EFE1DEE100AE2
:1038000001F01AFE1DEE900A01F016FE019801F07B
:1038100013FE1EEE100A01F00FFE1EEE900A01F0DC
:103820000BFE1FEE100A01F007FE584601F004FEE1
:10383000504601F001FE484601F0FEFD404601F011
:10384000FBFD384601F0F8FD304601F0F5FD284655
:1038500001F0F2FD1FEE900A01F0EEFD2046FFF7A9
:10386000C7FC2046FFF7FAFD2046FFF7DFFA2046A7
:10387000FFF71AFA2046FFF7A5F994F8BD2084F85F
:10388000C92890E72DE9F04F002106460025FF23C7
:1038900046F80C1B0B22416000F5846781606FF0D5
:1038A000F411EFB000F28C49816104469FEDE50A06
:1038B00000F5D76880F8353080F8493080F86530F9
:1038C00080F8342080F8482080F86420C5600562C4
:1038D000C562056445650567C567C0F8885080F80E
:1038E0008C50C0F8A85080F8AC5080F8BE50C0E9A9
:1038F000041100F18C01C0F8841000F1AC01C0E9A2
:103900000E55C0E91355C0E91A55C0F8A41080F847
:10391000C93080F8ED3080F8113180F8353180F809
:10392000593180F87D3180F8A13180F8C82080F8C5
:10393000EC2080F8102180F8342180F8582180F89C
:103940007C2180F8A021C0F8D450C0F8F850C0F80D
:103950001C51C0F84051C0F86451C0F88851C0E90A
:103960003355C0E93C55C0E94555C0E94E55C0E95D
:103970005755C0E96055C0E9695580F8C53180F8F0
:10398000E93180F80D3280F8313280F8553280F814
:10399000793280F8C42180F8E82180F80C2280F880
:1039A000302280F8542280F8782280F89C22C0F8D7
:1039B000AC51C0F8D051C0F8F451C0F81852C0F85A
:1039C0003C52C0F86052C0E97255C0E97B55C0E96D
:1039D0008455C0E98D55C0E99655C0E99F55C0F89A
:1039E000845280F89D3280F8C13280F8E53280F848
:1039F000093380F82D3380F8513380F8753380F81F
:103A0000C02280F8E42280F8082380F82C2380F874
:103A1000502380F87423C0F8A852C0F8CC52C0F8E4
:103A2000F052C0F81453C0F83853C0F85C53C0E9E2
:103A3000A855C0E9B155C0E9BA55C0E9C355C0E9B8
:103A4000CC55C0E9D555C0E9DE5580F8993380F8EA
:103A5000BD3380F8E13380F8053480F8982380F88E
:103A6000BC2380F8E02380F80424C0F88053C0F819
:103A7000A453C0F8C853C0F8EC53C0F80854C0F8B9
:103A80000C54C0F810548DED030AC0E9E755C0E9A5
:103A9000F055C0E9F955384604F020FB9DED030AC6
:103AA0004846FDF701F89DED030A04F1800104F595
:103AB000FE6088ED000AC4F84C57C4F85057C4F8AB
:103AC0005457FEF7E3FC42469DED030A494604F6CF
:103AD000C80004F1C009FDF777FC5B4B30461C6061
:103AE00000F0C2F92946304600F0D4FA04213046ED
:103AF00000F0F2F90321304600F0D2F92EAA0DF5BC
:103B0000027C00210B25FF20A2F13C0302F8505C4F
:103B100042F84C1C02F84F0C42E9121114330025F4
:103B20000B20FF219A4243F8105C03F8140C03F8B1
:103B3000131C43E90355F1D154329445E1D10F20D0
:103B400004F1240A00F092F9ADF81400059902225C
:103B50001AA801F09BFC102000F088F9ADF81800BD
:103B6000069902222FA801F091FC112000F07EF9A5
:103B7000ADF81C000799022244A801F087FC12202E
:103B800000F074F9ADF820000899022259A801F05C
:103B90007DFC04231AA950461A46CDF80CA001F06A
:103BA00085FC039801F08AFE4846FEF7CDFE02230D
:103BB000294604F1840000930DF1380A234BD4F810
:103BC000882014F0EBFEA4F89C50A4F8A0505023D9
:103BD000CDF830A084F8BD30D4E921B51BEB050F3A
:103BE00003D0BBF1000F00F002810F2D139500F2FE
:103BF000EB80012D40F0D3809BF800308DF83830F9
:103C0000534600220D9509A80CA95A55B4F89C30CA
:103C1000ADF84830FDF7E6FF0C98504503D00E99FB
:103C2000013114F06AFC0DF1540AD4E921B5CDF844
:103C30004CA01BEB050F0BD0BBF1000F00F0D780A1
:103C400006E000BF00803B471C04002498AD01083B
:103C50000F2D0C9500F2A980012D40F0A3809BF858
:103C600000308DF85430534600221495404613A975
:103C70005A55B4F89C30ADF86430FEF7D7F8139875
:103C8000504503D01599013114F037FC0122FF2370
:103C90003846114605F0D2FA2046FEF7BFFF04F57C
:103CA0000A7001F0C9FB04F51C7001F0C5FB04F5B6
:103CB000377001F0C1FB04F5497001F0BDFB04F55C
:103CC0005B7001F0B9FB04F5017001F0B5FB04F580
:103CD000137001F0B1FB04F5257001F0ADFB04F5A4
:103CE0002E7001F0A9FB04F5407001F0A5FB04F56E
:103CF000527001F0A1FB04F5647001F09DFB484691
:103D000001F09AFB04F1E40001F096FB04F58470E5
:103D100001F092FB04F5967001F08EFB04F5A8709B
:103D200001F08AFB04F5BA7001F086FB04F5CC7053
:103D300001F082FB04F5DE7001F07EFB04F5F0700B
:103D400001F07AFB04F56D7001F076FB04F57670F6
:103D500001F072FB04F57F7001F06EFB2046FFF767
:103D600047FA2046FFF77AFB2046FFF75FF8204628
:103D7000FEF79AFF2046FEF725FF94F8BD30304647
:103D80001C4984F8C93800F087F8099818B10B99D4
:103D9000091A14F0B2FB20466FB0BDE8F08F15BBD6
:103DA00053462EE70DBB53465EE700220CA913A82D
:103DB00014F038FD0C9B139015932A46594615F0C4
:103DC000E1FB0C9D139B4FE7002213A90CA814F0F4
:103DD00029FD139B0C900E932A46594615F0D2FBF1
:103DE000139D0C9B0DE75046F6E75046E5E7024869
:103DF00014F07AFCA128000834AD010810B504467F
:103E0000D0F8E00820B1D4F8E818091A14F075FBCE
:103E1000D4F8F40720B1D4F8FC17091A14F06DFB9C
:103E2000D4F84C0720B1D4F85417091A14F065FBE4
:103E300004F5846003F02EFED4F8A40004F1AC0372
:103E4000984204D0D4F8AC10013114F056FBD4F8E9
:103E5000840004F18C03984204D0D4F88C10013112
:103E600014F04BFB204610BD704700BF202882B0E5
:103E700009D8084B03EB400213F81030507843EA9E
:103E8000002002B0704701230C2043EA002002B05A
:103E9000704700BF00AE0108143001F079BA00BFCE
:103EA00038B500F1140504462DED028B284601F0CB
:103EB0001BFA284601F014FA2846B0EE408A01F0B9
:103EC000FDF9D0ED007AF8EE677A88EE277ABDEC3E
:103ED000028B84ED1B7A38BD38B500F11405044619
:103EE0002DED028B284601F0EDF9284601F0F8F996
:103EF0002846B0EE408A01F0E1F9D0ED007AF8EE04
:103F0000677A88EE277ABDEC028B84ED1B7A38BD88
:103F1000283002F0D3B800BF10B540F203338EB0A2
:103F200000244FF60B7240F20341ADF8083009A8A7
:103F30000123ADF81020ADF824202246ADF80C1076
:103F40000094029907940C94CDE90544CDE90A4404
:103F500001F0C2FF04A8012322460399009401F056
:103F6000BBFF09A802F09EF810B901200EB010BDE9
:103F700004A802F097F8A0420CBF022020460EB021
:103F800010BD00BF2DE9F04103239AB04FF00108A6
:103F900000254FF60B740746CDE91438394BADF8C0
:103FA0004C40CDE91053A3F19F63A3F57D43CDE9C8
:103FB00016581293FFF7B0FF4045064623D002285B
:103FC00042D040F60132304B07F158000BACADF84F
:103FD0002C200B991895CDF86480CDF84A3000F06C
:103FE000DBF810A907F1700002F0F6FF274B0FCBAA
:103FF00084E80F003A6F214607F1140001F026F91A
:104000001AB0BDE8F08110231F4A06A906908DF86A
:1040100028300BAC1E4BCDF84A2007930295CDE912
:104020001805CDE9080502A802F0CCF90823029A88
:1040300003A92046ADF80C608DF80E500496059348
:104040000B9500F0E9F8CCE740F60133ADF82C40D1
:1040500000200BACADF8183001210B4B4246009507
:10406000CDF84A302B460E95CDE918010699204629
:10407000CDE90C5501F030FF2946204602F01EF82C
:10408000AFE700BF040204040406040380AC010887
:104090000704010B2DE9F04704462DED028B82B099
:1040A000002949D0012140F2011200230091ADF80E
:1040B00004208DF80630354A0127354B04F10409F8
:1040C000344904F13C08626040F20272A36040F699
:1040D0000663E16004F1280A2285A3872782E7624C
:1040E000276403F053FB054603F0A8F9694606462A
:1040F00050BB4DB304F150008DF8067003F0C8FAC0
:10410000072D3ED104F114052046FFF73BFF28465A
:1041100001F0E6F82846B0EE408A01F0CFF8D0ED85
:10412000007AF8EE677A88EE277A84ED1B7A02B07F
:10413000BDEC028BBDE8F08740F2011300918DF8D1
:104140000610ADF80430B6E704F1500003F0A0FA11
:10415000072D13D04946204602F0B2FB0EB9002DC0
:10416000D0D15146504601F0F3FC4046414601F0A3
:10417000EFFC04F1120000F079F9C3E7002EF0D152
:10418000C0E74946204602F09BFBBBE7050805094E
:1041900005070506050A060630B585B00025044664
:1041A0000122ADF80C102B460399009501F094FE06
:1041B0000121204601F082FF012003F03DF929464C
:1041C000204601F07BFF012003F036F90121204653
:1041D00005B0BDE8304001F071BF00BF10B5C2F3BB
:1041E000002384B00C46017C8DF80D2043EA440284
:1041F000FA2402238DF80C2003AA009402F07AF925
:1042000018B10124204604B010BD04460A2003F072
:1042100013F9204604B010BD034670B543F8042BD3
:10422000044684B007C983E80700A37983B91A213B
:104230000B461E22FA2523742046ADF80C200223DB
:1042400003AA009502F056F928B1012004B070BD10
:104250001B210B46EDE70A2003F0EEF84FF4B852AD
:1042600000950223ADF80C20204603AA217C02F021
:1042700041F90028E9D10A2003F0DEF841F2027288
:1042800000950223ADF80C20204603AA217C02F001
:1042900031F90028D9D10A2003F0CEF80422009584
:1042A0000223ADF80C20204603AA217C02F022F95B
:1042B0000028CAD10A2003F0BFF806220095022385
:1042C000ADF80C20204603AA217C02F013F9002847
:1042D000BBD10A2003F0B0F841F208220095022376
:1042E000ADF80C20204603AA217C02F003F9002837
:1042F000ABD10A20064603F09FF80095022303AADB
:10430000217C2046ADF80C6002F0F4F800289CD126
:10431000304603F091F8009522790C232046002ABC
:104320008DF80C3003AA4FF0020314BF6221422122
:104330008DF80D10217C02F0DDF8002885D1304683
:1043400003F07AF82279D4E902310B43DBB20AB9DF
:1043500043F0400362790AB143F020030E22FA25AC
:104360008DF80D302046009502238DF80C2003AA0D
:10437000217C02F0BFF800287FF467AF0A2003F029
:104380005BF8102200950223ADF80C20204603AA0A
:10439000217C02F0AFF800287FF457AF0A2003F029
:1043A0004BF8122100950223ADF80C1003AA217CD2
:1043B000204602F09FF800287FF447AF0A2003F060
:1043C0003BF8012209212046FFF708FF003818BFFB
:1043D00001203BE7F0B5102387B0234C01220025D4
:1043E0000126002702A920460195CDE902234FF4BA
:1043F0008052CDE904670DF049FC642005F03AFBDA
:1044000002A94FF480522046CDE904670226102706
:10441000CDE902670DF03AFC0322102302A92046E1
:10442000CDE9022300230422CDE904234FF4805276
:104430000DF02CFC40F23223042202A90193102338
:104440002046CDE90223019A012305924FF48052C0
:1044500004930DF01BFC40F6060120460DF036FCDF
:10446000284607B0F0BD00BF280400241C4B0022E2
:104470001C494FF0400C30B5054689B00220596008
:1044800007219A601A620124DA620A224FF4006E50
:10449000DC6006922022CDE9000104200821CDE94C
:1044A000020103201021CDE9040108206946C3E977
:1044B00004024FF4C072181DC3E906C24FF48052C3
:1044C000C3E909E20DF0B8FB38B92846FFF782FFCF
:1044D000003818BF012009B030BD204609B030BDFA
:1044E0002404002440410052614A0021D0B51368E1
:1044F0008EB00A91002B40F0B9805E4B01214FF63F
:1045000083700C2411600221D3F8D42000260327E5
:1045100042F48052C3F8D420D3F8D42002F480525D
:104520000092009AD3F8E02042F01002C3F8E02095
:10453000D3F8E02002F010020192019AD3F8E020B3
:1045400042F04002C3F8E020D3F8E02002F040023D
:104550000292029AD3F8E02042F00802C3F8E02069
:10456000D3F8E02002F008020392039AD3F8E02087
:1045700042F48072C3F8E020D3F8E02002F48072A5
:104580000492049AD3F8E02042F08002C3F8E020BD
:10459000D3F8E02002F080020592059AD3F8E020DB
:1045A00042F02002C3F8E020D3F8E02002F020021D
:1045B0000692069AD3F8E02042F00402C3F8E02005
:1045C000D3F8E0300C9403F0040307930323079A15
:1045D0000B93CDE9080108A9274807F0DFFB48F253
:1045E0003712022308A925480C94CDE90823CDE908
:1045F0000A6707F0D3FB4CF20372022308A9204894
:104600000C94CDE90823CDE90A6707F0C7FB40F217
:10461000FF62022308A91B480C94CDE90823CDE9C9
:104620000A6707F0BBFB4FF60C72022308A9164875
:104630000C94CDE90823CDE90A6707F0AFFB4FF6EC
:104640003F02022308A911480C94CDE90823CDE9C3
:104650000A6707F0A3FB2022022308A90A480C944A
:10466000CDE90A67CDE9082307F098FB0EB0D0BD6D
:104670002004002400440258001002580018025878
:10468000000C025800200258001C02580014025866
:104690002DE9F04FDFF8108406460D46144608F168
:1046A00018002DED028B89B000AF02F08DFDD8F817
:1046B000183073B3D8F81C30D8F80490002B436935
:1046C0000BBF4FF0080A4FF0100A4FF0020B4FF0EB
:1046D000040BB9F1000F2AD0A200EA46012B02F127
:1046E000070222F00702ADEB020D6846ADEB020DAA
:1046F000694600F03F81022B00F0D680002B6FD07E
:104700002246C847D5462437BD46BDEC028BBDE8DE
:10471000F08FD8F81C30002BF5D0D8F804904FF06B
:10472000080A4FF0020B4369B9F1000FD4D1FB61C5
:10473000D8F80030BB61002BE5D0D54802F0B6FDBB
:104740006B46BBF1020F786108EE103AFB6900F08E
:1047500083816A465146A2EBC40295466200EA464E
:10476000B2FBFBF2AAEBC40085460AEB8200EE46E0
:10477000F861ADEB010DF8690EEB820CC7F810C0C3
:10478000EC46ADEB010D00EB8201CCF80400CCF857
:10479000081001EB82013869E946CCF80C1000EBF7
:1047A0008201CCF800A001EB8202C9E900E0C9E96E
:1047B0000212012B00F06483022B00F06C82002BAC
:1047C00000F08081620849466046BB69984718EE50
:1047D000103A24379D46BD46BDEC028BBDE8F08FF4
:1047E000002C8DD01A46D8ED0C6A9FEDB27A844623
:1047F000331D36F922E00CF1080C07EE90EA33F98C
:1048000022E00232F8EEE77A944267EE877A67EEAA
:10481000A67A4CED027A07EE90EAF8EEE77A67EEB8
:10482000877A67EEA67A4CED017AE2D8F9612246E2
:10483000C847984ED8ED0D6A0020F9692B1D9FEDF1
:104840009E7A9FED9E6ADFED9E5A22E0F4EEC67AD4
:10485000F1EE10FAC0F2C88447F6FE72D1ED017A8B
:1048600045F8202066EEA77AF4EEC77AF1EE10FA4A
:1048700040F2F080F4EEC67AF1EE10FAC0F2D58480
:1048800047F6FE7243F820200230083184427FF65A
:1048900039AFD1ED007A66EEA77AF4EEC77AF1EE81
:1048A00010FAD3D83246D9E7002C3FF429AFD8ED1F
:1048B0000C6A84469FED787A0022331D8E4656F8A6
:1048C00022100CF1080C07EE901A53F82210023255
:1048D000F8EEE77A944267EE877A67EEA67A4CEDB7
:1048E000027A07EE901AF8EEE77A67EE877A67EEBB
:1048F000A67A4CED017AE2D871462246C7F81CE050
:10490000C847664ED8ED0D6A0020F9692B1D9FED52
:104910006A7A9FED6A6ADFF894C120E0F4EEC67A05
:10492000F1EE10FAC0F279843246D1ED017A45F801
:10493000202066EEA77AF4EEC77AF1EE10FA40F284
:104940008780F4EEC67AF1EE10FAC0F25E84324649
:1049500043F820200230083184427FF6D3AED1EDF7
:10496000007A66EEA77AF4EEC77AF1EE10FAD5D89F
:104970006246DAE7002C3FF4C3AED8ED0C6A8646F7
:104980009FED477A4FF0000C331D56F82C200EF1A6
:10499000080E82F40002A2F5000207EE902A53F8F6
:1049A0002C200CF1020CF8EEE77A82F40002644548
:1049B000A2F5000267EE877A67EEA67A4EED027ADC
:1049C00007EE902AF8EEE77A67EE877A67EEA67A26
:1049D0004EED017AD9D8F9612246C847314ED8ED5B
:1049E0000D6A0020F9692B1D9FED337A9FED336A24
:1049F000DFF8BCC01FE0F4EEC67AF1EE10FAC0F2A8
:104A0000FC833246D1ED017A45F8202066EEA77A84
:104A1000F4EEC77AF1EE10FA18D9F4EEC67AF1EE98
:104A200010FAC0F2DA83324643F82020023008310F
:104A300084427FF667AED1ED007A66EEA77AF4EE97
:104A4000C77AF1EE10FAD6D86246DBE76246EBE7AA
:104A500062467DE7324615E7A100D6466208073177
:104A600021F00701ADEB010DEA46ADEB010D694602
:104A7000ADEB0E0D0AEB8200EC46ADEB0E0D01EB3B
:104A80008202F861E946CCE900A0C9E9001290E68B
:104A9000780400240280FFFF000000300082FF7FC6
:104AA0000000003482FF7F005C040024007E008050
:104AB0007E0080FF0000003804FF7FBF04FF7F3FBF
:104AC00000FEFF46002C00F0C982BBF1020FD8F8AF
:104AD000242000F0FA827969C7F8049002EB810E75
:104AE0005FED0C5A8A00DCF808100EF104007A61C0
:104AF0001A46DCF80C303B61331DD7F810903D614D
:104B0000FD69C7E902CB8C46834636F92210D8ED01
:104B10000C7A06EE101A33F9221006EE901A3EF9BE
:104B20002210B8EEC66A07EE101AF8EEE66A3BF9F4
:104B30002210B8EEC77A26EE256A66EEA56A27EE41
:104B4000257A26EE276A66EEA76A27EE277A07EE11
:104B5000901A51080232F8EEE77A0AEB810094428B
:104B600080ED006A05EB810067EEA57AC0ED006A72
:104B70000CEB810009EB810180ED007A98ED0C7A55
:104B800067EE877AC1ED007ABFD8D7F804903D6907
:104B9000D7E902CB60466208BB6949469847D8F816
:104BA0002C307A69D8ED0D6A1A441FED3D7A1FED5D
:104BB0003D6A2B1D904602F1040A5FED3F5A002228
:104BC000A84ED9E900EC51E0F4EEC67AF1EE10FA05
:104BD000C0F2C78247F6FE7045F822000CEB0100D8
:104BE000D0ED007A66EEA77AF4EEC77AF1EE10FA0D
:104BF0004BD9F4EEC67AF1EE10FAC0F2BA8247F65B
:104C0000FE70BBF1020F43F822002BD0D9F8080048
:104C10000844D0ED007A66EEA77AF4EEC77AF1EE9A
:104C200010FA36D9F4EEC67AF1EE10FAC0F2CD825F
:104C300047F6FE7048F82200D9F80C000144D1ED87
:104C4000007A66EEA77AF4EEC77AF1EE10FA1ED972
:104C5000F4EEC67AF1EE10FAC0F2AF8247F6FE71BA
:104C60004AF82210023294427FF6B1AD51080EEBA1
:104C700081008900D0ED007A66EEA77AF4EEC77A5B
:104C8000F1EE10FAA0D83046A6E73046B9E7314633
:104C9000E6E73046CEE7002C00F0E081BBF1020FE2
:104CA000D8F8243000F0E1817A69DCF8081003EBD1
:104CB000820EC7F804909300DFED6B5A0EF10400EA
:104CC00000227B61DCF80C303B61331DD7F810907B
:104CD0003D61FD69C7E902CB8C46834656F8221038
:104CE000D8ED0C7A07EE101A53F82210B8EEC76A06
:104CF00007EE101A5EF82210F8EEC76A07EE101AD7
:104D000026EE256A5BF82210B8EEC77A66EEA56A31
:104D100026EE276A27EE257A66EEA76A27EE277A1F
:104D200007EE901A51080232F8EEE77A0AEB81009A
:104D3000944280ED006A05EB810067EEA57AC0ED34
:104D4000006A0CEB810009EB810180ED007A98ED9F
:104D50000C7A67EE877AC1ED007ABFD8D7F8049055
:104D60003D69D7E902CB60466208BB69494698476E
:104D7000D8F82C307A69D8ED0D6A1A449FED3E7A46
:104D80009FED3E6A131D9246DFF8E4C00022FB61EE
:104D90002B1D364ED9E9008E4EE0F4EEC67AF1EEC8
:104DA00010FAC0F2FC81304645F822000EEB0100FB
:104DB000D0ED007A66EEA77AF4EEC77AF1EE10FA3B
:104DC00049D9F4EEC67AF1EE10FAC0F2EF8130461E
:104DD000BBF1020F43F822002AD0D9F8080008449A
:104DE000D0ED007A66EEA77AF4EEC77AF1EE10FA0B
:104DF00035D9F4EEC67AF1EE10FAC0F2C981304628
:104E00004AF82200D9F80C000144D1ED007A66EE90
:104E1000A77AF4EEC77AF1EE10FA1ED9F4EEC67A4C
:104E2000F1EE10FAC0F2AD813146F86940F8221077
:104E3000023294427FF6CBAC510808EB8100890026
:104E4000D0ED007A66EEA77AF4EEC77AF1EE10FAAA
:104E5000A3D86046A8E76046BAE76146E5E7604642
:104E6000CEE700BF0280FFFF000000300082FF7F1E
:104E7000007E00800000003404FF7FBF04FF7F3FFE
:104E8000002C00F0EB807A690021D8F82430C7F8B4
:104E9000109003EB820ED7F81C909300FD610EF189
:104EA00004021FED0C6A7B61331D154656F8212064
:104EB0004808D8ED0C6ABBF1020F82F40002A2F59B
:104EC000000207EE902A53F8212082F40002B8EE87
:104ED000E77AA2F5000227EE067A07EE902A0AEB9F
:104EE0008002F8EEE77A27EE267A67EE867A82ED80
:104EF000007A09EB80024FEA800067EEA67AC2EDE5
:104F0000007A27D05EF8212082F40002A2F5000288
:104F100007EE902A55F8212082F40002B8EEE77AD5
:104F2000A2F5000227EE067A07EE902ADCF80820A8
:104F3000F8EEE77A024427EE267A67EE867A82ED6B
:104F4000007A98ED0C7ADCF80C2067EE877A024440
:104F5000C2ED007A02318C42A8D8D7F81090604692
:104F60006208BB694946FD699847D8F82C307A69D0
:104F7000D8ED0D6A1A441FED407A1FED406A131DEB
:104F80009246DFF8C4C20022FB612B1DAB4ED9E96B
:104F9000008E4EE0F4EEC67AF1EE10FAC0F2C58053
:104FA000304645F822000EEB0100D0ED007A66EEA7
:104FB000A77AF4EEC77AF1EE10FA49D9F4EEC67A80
:104FC000F1EE10FAC0F2BF803046BBF1020F43F899
:104FD00022002AD0D9F808000844D0ED007A66EE05
:104FE000A77AF4EEC77AF1EE10FA35D9F4EEC67A64
:104FF000F1EE10FAC0F2AE8030464AF82200D9F83D
:105000000C000144D1ED007A66EEA77AF4EEC77A7F
:10501000F1EE10FA1ED9F4EEC67AF1EE10FAC0F2F3
:105020008B803146F86940F82210023294427FF6B4
:10503000CEAB510808EB81008900D0ED007A66EE16
:10504000A77AF4EEC77AF1EE10FAA3D86046A8E783
:105050006046BAE76146E5E76046CEE72246494644
:105060006046BB699847FFF7B2BBC7F810B0002293
:1050700098ED0C6A331DDFED726AD7F81CB07869C1
:1050800056F8221007EE901A53F82210B8EEE77A7D
:1050900007EE901A51080232F8EEE77A27EE267AE8
:1050A0000AEB810E94420BEB810167EEA67A27EEA4
:1050B000067A67EE867A8EED007AC1ED007ADFD847
:1050C0008300D7F810B07B614DE61A46C7F810B0E0
:1050D00098ED0C6A331DDFED5B6AD7F81CB0786978
:1050E00036F9221007EE101A33F9221007EE901A43
:1050F000B8EEC77A51080232F8EEE77A27EE267A40
:105100000AEB810E94420BEB810167EEA67A27EE43
:10511000067A67EE867A8EED007AC1ED007ADFD8E6
:105120008300D7F810B07B6134E5F0EE675AFEEEED
:10513000E45A15EE900A34E7F0EE675AFEEEE45AB0
:1051400015EE901A6EE7F0EE675AFEEEE45A15EE91
:10515000900A3AE7F0EE675AFEEEE45A15EE900A2E
:105160004BE767EEA57AFDEEE77A17EE900A00B2FC
:1051700032E567EEA57AFDEEE77A17EE900A00B207
:105180003FE5F0EE675AFEEEE05A15EE901A4CE657
:10519000F0EE675AFEEEE05A15EE900A30E6F0EEB9
:1051A000675AFEEEE05A15EE900AFDE5F0EE675AFA
:1051B000FEEEE05A15EE900A0AE667EEA57AFDEEDD
:1051C000E77A17EE901A09B24AE567EEA57AFDEE86
:1051D000E77A17EE900A00B22CE5F0EE675AFEEE81
:1051E000E45A15EE902A1FE467EEA57AFDEEE77A01
:1051F00017EE902A12B2FFF731BBF0EE675AFEEEBF
:10520000E45A15EE902AFFF7FDBBF0EE675AFEEE6A
:10521000E05A15EE902AFFF79BBBF0EE675AFEEEC0
:10522000E05A15EE902AFFF780BB67EEA57AFDEEF7
:10523000E77A17EE902A12B2FFF724BB82FF7F00B5
:1052400000000030000000387E0080FF30B5184CB0
:10525000154685B0046004F1080EEC460FC98EE8CF
:105260000F00D4ED047AF5EEC07A8CE80F00F1EE71
:1052700010FA1ADDB7EE006A94ED057A27EE277A68
:10528000C6EE276A84ED0D7AC4ED0C6A6DB1204636
:1052900040F8185F01F098FF064903690020064AAC
:1052A0002162A262E36005B030BD012005B030BDCF
:1052B0005C0400240020003000000030006808304A
:1052C000704700BFB1F5807F03680A4628BF4FF4DE
:1052D0008072B1F5807F9A6094BF002001207047F2
:1052E0000068183001F0D0BF70B504688AB0A369B7
:1052F000E1600BB304F118056FF0F4134FF60B7275
:105300002846ADF80C20CDE9013301F05DFF84465D
:10531000EE46E668BCE80F00AEE80F00BCE80F0000
:10532000AEE80F009CE803008EE8030069462846BB
:10533000049601F051FE38BBE06918B304F11C0576
:105340006FF0F4134FF60B722846ADF80C20CDE940
:10535000013301F039FF8446EE46E468BCE80F00F3
:10536000AEE80F00BCE80F00AEE80F009CE80300B9
:105370008EE8030069462846049401F02DFE0038AB
:1053800018BF01200AB070BD01200AB070BD00BF77
:1053900030B5046883B00D46E3694BB1A3680020C3
:1053A000E26A616A9B00009004F11C0001F00EFFAC
:1053B000A3680748A26A9B00216A009004F11800C4
:1053C00001F004FF0020C4E9005003B030BD00BF6D
:1053D0009146000810B4074B4FF07E513024002254
:1053E000032019619C60D8605DF8044B5961C3E9E2
:1053F000062270475C040024B0B51D4682B0044606
:105400001746A5F10105069BADF80410B5FA85F520
:10541000009302F00FF8002201996D09206004F159
:105420000800009B6771227122776577069202B0AF
:10543000BDE8B04000F050BD10B5044601F0FAFFE1
:10544000002122682171824200D110BD0346012251
:1054500004F108002360227100F024FE227F617FA6
:1054600053005BB281B180F0010252B21343DBB250
:105470007F2B2377E9D101F0DDFF07EE900AF8EEEC
:10548000677AC4ED087A10BD42B2EFE710B400238A
:1054900083B00324018080F8503080F85120C0E9A7
:1054A000014303B05DF8044B704700BF2DE9F04F96
:1054B000BE4F0024BE4D8DB0037007F14003426023
:1054C000804616468946202221463846C5F888354A
:1054D000C5F88475CDE90244CDE90444CDE906441C
:1054E000CDE90844CDE90A4414F074F8202221469D
:1054F00005F26250C5F85145C5F85545C5F85945FE
:10550000C5F85D4514F066F885F85065D8F80430A4
:1055100085F86846002B62D005F5AA6A09F1500BA0
:10552000264609EB040128195222013614F02AF804
:105530004FF0000327F8023B1BF804300AF8013F44
:10554000002B70D0D8F804304FF0010254349E4242
:1055500085F86826E5D3974A082195F85035002646
:10556000C5F88C254FF4802293480027C5F8A43550
:105570000023C5F890250122C5F89C1595F86816FA
:10558000C5F8943585F8A035C5F89825C0E90067B9
:1055900000293ED0C5F8B82585F8A13585F8A8358D
:1055A000002298F80030C5F8BC25C5F8C025002BAE
:1055B00040D0012200200121013B85F8C4257F4A0B
:1055C000C2E90001082B37D8DFE813F0BD00C200A4
:1055D000C700CC00D100D600DB00E100E800C5F830
:1055E0009435F6B285F8A0350020724B0021C5F83D
:1055F000A465C5F88C354FF48023C5F89035012398
:10560000C5F898350823C5F89C3505F5B663C3E998
:105610000001012385F8A135002385F8A83503236F
:10562000C5F8B835BCE7D8F804305434B3423FF677
:1056300078AF90E785F8C435614804F07FFE0346F3
:1056400008B1FFBEFEE702A95D48029304F0D6FF51
:105650000446002875D1042340F2FF720A90CDE978
:10566000082395F85035002B00F0F58006234FF005
:105670005409019309FB045393F85130072B07D8C1
:10568000DFE803F0595C5653504D4A040723079353
:1056900026B206EB4606C6EBC60605EB8608B70043
:1056A000404600F03BFB09FB045393F85030042BB9
:1056B00000F3AD80022B00F3C08000F0BC802B19FA
:1056C000002283F8402515F8262098F80130002A9A
:1056D0007CD0022A00F08D80012A40F0B480012B9A
:1056E00000F0B380002B374B18BF0023059305A9AA
:1056F000019B3348069304F021FA002840F0AE8065
:10570000013495F85035E4B2A34240F2A4802E4B08
:1057100053F824300193ADE706230793B8E7052338
:105720000793B5E704230793B2E703230793AFE793
:1057300002230793ACE700230793A9E7012307930C
:10574000A6E7FFBEFEE70320402142E9020173E71E
:105750000720602142E902016EE70F20802142E923
:10576000020169E71F20A02142E9020164E73F200E
:10577000C02142E902015FE77F20E02142E9020106
:105780005AE7FF204FF4807142E9020154E740F2EA
:10579000FF104FF4907142E902014DE740F2FF30F3
:1057A0004FF4A07142E9020146E700BF004000301B
:1057B0009804002400200240480A0024680A0024BB
:1057C000240A00240002B02544AE0108062B36D07E
:1057D000072B3CD0022B49D0032B49D0002B4BD0B8
:1057E000012B47D0042B49D0052B254B18BF002394
:1057F0007CE7042B25D0052B2BD08BB3012B31D08C
:10580000022B31D0032B1F4B18BF00236EE703235D
:10581000143705EB040B4FF0000A2F448BF840358A
:1058200038460AF1010A00F079FA9BF8403514373E
:105830005345F5DC47E70123EAE70223E8E7124B8B
:1058400054E7124B52E7002350E7114B4EE7114B40
:105850004CE7114B4AE70DB0BDE8F08FFFBEFEE705
:105860000E4B43E70E4B41E70E4B3FE70E4B3DE738
:105870000E4B3BE70E4B39E70E4B37E70E4B35E748
:105880000000B84F002090360800900C1000C010A7
:105890002000F0148000501D000180210004002A27
:1058A0000008302E001060320040C03A0080F03E08
:1058B00000005247000021430000844B38B5094CDA
:1058C00040F2FF724FF0011104F28C55284604F0AB
:1058D00043FE94F85025D4F884152846BDE8384096
:1058E00004F0A2BB98040024064B0F29D3F884359A
:1058F00098BF03EB41031B8800EE103ABBEEC80AC9
:10590000704700BF98040024244B02689A4200D0DC
:105910007047234A00232348D2F8D81030B5224CD0
:1059200041F0200183B0C4F8F0050920C4F8F8352F
:1059300004F5BE65C4F8F4054FF48060C2F8D810D1
:105940004FF40061D2F8D820C4F8000694F8680635
:1059500002F02002C4F8FC3598420192C4F8041603
:105960004FF40051C4F810362846C4F81436019B91
:1059700014BF00234FF48073C4F80816C4F80C3623
:1059800005F068F808B1FFBEFEE704F28C53C4F8D6
:10599000D855C4F8283603B030BD00BF00200240FF
:1059A000004402584000024098040024014805F0D9
:1059B000A3BE00BF880A002402682DE9F84F504BAF
:1059C0009A4201D0BDE8F88F4E4D95F86836002B0D
:1059D000F8D095F85035002B7BD0002405F13C0918
:1059E00005F2625605F5AA67A04613E003F001012F
:1059F00017F811BCA9F1280000F060FBBBF1010F02
:105A000025D895F85035013409F154090236A2B26F
:105A100093422BD917F8012F002AF4D0D5F88435FA
:105A20000021327833F81400D5F8883503EB0413DD
:105A300023F81200338801339BB233805FFA83FA74
:105A40003A789A42D2D88A46A6F80080D0E7CAF3BC
:105A50004001A9F1140000F031FBBBF1020FCAF3C1
:105A60008001CED0484600F029FBCAE7002395F814
:105A70006806254909229842C5F8F8354FF4806038
:105A8000C5F8F015C5F8F4254FF400614FF4005245
:105A9000C5F8FC3508BF4FF48073C5F80006C5F89B
:105AA0000416C5F8082600221848C5F80C36C5F8B3
:105AB0001026C5F8142604F0CDFF08B1FFBEFEE79E
:105AC00095F85025D5F884151148BDE8F84F04F035
:105AD000ABBA0D4909224FF48060C5F8F835C5F816
